:0C7EBA00427574746F6E20546573740080
:107DFC004F02534C454431004C454432004C4544F1
:027E0C00330041
:0A65F3007B327A007D467C007E00BA
:1065FD00900004EEF0A3EFF0A3ECF0A3EDF0A3EA0E
:10660D00F0A3EBF0C007A3E0FFA3E090001BCFF0D9
:10661D00A3EFF090000CE090001DF0A37401F0A327
:10662D007484F0A37452F0A3F0A374CDF0D00712CC
:10663D001C19900006E0FCA3E0FDA3E0FAA3E0FB2B
:10664D00A3E0FFA3E090001BCFF0A3EFF090000CB0
:10665D00E090001DF0E4A3F0A3F0A3F0A3F0A3F0ED
:10666D00900004E0FEA3E0FF121C1990000CE0F96D
:10667D0075F002A4FFC3900009E09FFB900008E0B5
:10668D0095F0FAE9FF900005E02FFF900004E0344B
:10669D0000FE900007E02401FD900006E03400FCB0
:1066AD0090002B74D6F0A374BBF0127913900005F3
:1066BD00E02401FF900004E03400FE900007E02488
:1066CD0001FD900006E03400FC90000AE0FBA3E021
:1066DD0090001BCBF0A3EBF090000FE0FBA3E0903C
:1066ED00001DCBF0A3EBF0900011E090001FF09097
:1066FD000012E0F9A3E0FAA3E0900020C9F0A3EAAC
:0F670D00F0A3E9F0900008E0FAA3E0FB025E9F22
:0A626E007B327A007D467C007E0042
:10627800900004EEF0A3EFF0A3ECF0A3EDF0A3EA96
:10628800F0A3EBF0C007A3E0FFA3E090001BCFF062
:10629800A3EFF090000CE090001DF0A37401F074DF
:1062A800FFA3F0A3F0A3F0A3F0D007121C199000ED
:1062B80006E0FCA3E0FDA3E0FAA3E0FBA3E0FFA354
:1062C800E090001BCFF0A3EFF090000CE090001DD1
:1062D800F0E4A3F0A37407F0A374E0F0A37407F04C
:1062E800A374E0F0900004E0FEA3E0FF121C1990F4
:1062F800000CE0F975F002A4FFC3900009E09FFBD1
:10630800900008E095F0FAE9FF900005E02FFF9073
:106318000004E03400FE900007E02401FD90000630
:10632800E03400FC90002B74D6F0A374BBF0127913
:1063380013900005E02401FF900004E03400FE9073
:106348000007E02401FD900006E03400FC90000AFC
:10635800E0FBA3E090001BCBF0A3EBF090000FE074
:10636800FBA3E090001DCBF0A3EBF0900011E090B0
:10637800001FF0900012E0F9A3E0FAA3E0900020DB
:10638800C9F0A3EAF0A3E9F0900008E0FAA3E0FB63
:03639800025E9F03
:1022CC00E4900000F0A3F0A3F0A3F09002B874F82F
:1022DC00F0A3E4F09002B3E0FFA3E090000ACFF08B
:1022EC00A3EFF0A37410F0A374FFF0A3747EF0A31B
:1022FC0074BAF09002B1E0FAA3E0FB7D0A7C007F97
:10230C000A7E00126E35E4900000F0900000E0FDB3
:10231C0075F03CA42402FFE435F0FEC007ED75F027
:10232C0005A42453F9740235F0FA9000127401F0EC
:10233C00A3EAF0A3E9F090000AE4F0A37428F0A358
:10234C007404F0A374EFF0A3745DF0E4A3F0A3F0B5
:10235C00A37410F0D0077B327A007D467C001265A6
:10236C00FD900000E075F03CA4241EFFE435F0FE67
:10237C0074FF90000AF0A3F07B0F7A007D967C002E
:10238C00122EE1900000E004F0E0C394035003022D
:10239C00231712612E900297E07003022521E47F2F
:1023AC0002FEFDFC90028FE0F8A3E0F9A3E0FAA393
:1023BC00E0FBC3123869405EE47F34FEFDFC900202
:1023CC008FE0F8A3A3A3E0D31238695049E47F4609
:1023DC00FEFDFC900293E0F8A3E0F9A3E0FAA3E081
:1023EC00FBC3123869402FE47F6EFEFDFC90029314
:1023FC00E0F8A3A3A3E0D3123869501A90028F120D
:10240C0038990000000090029312389900000000E7
:10241C0090000102251BE47F3EFEFDFC90028FE044
:10242C00F8A3E0F9A3E0FAA3E0FBC3123869405E1D
:10243C00E47F70FEFDFC90028FE0F8A3A3A3E0D331
:10244C001238695049E47F46FEFDFC900293E0F897
:10245C00A3E0F9A3E0FAA3E0FBC3123869402FE430
:10246C007F6EFEFDFC900293E0F8A3A3A3E0D312D1
:10247C003869501A90028F123899000000009002AF
:10248C00931238990000000090000202251BE47F93
:10249C007AFEFDFC90028FE0F8A3E0F9A3E0FAA32A
:1024AC00E0FBC31238695003022613E47FACFEFD37
:1024BC00FC90028FE0F8A3A3A3E0D3123869400389
:1024CC00022613E47F46FEFDFC900293E0F8A3E0A5
:1024DC00F9A3E0FAA3E0FBC31238695003022613F8
:1024EC00E47F6EFEFDFC900293E0F8A3A3A3E0D37F
:1024FC00123869400302261390028F12389900009B
:10250C0000009002931238990000000090000374B0
:10251C0001F0022613900001E06047E4F090000AFD
:10252C00F0A37428F0A37404F0A374EFF0A3745D0B
:10253C00F0E4A3F0A3F0A37410F0A37401F0A3745F
:10254C0002F0A37453F07F021265F3D2B574FF90BE
:10255C00000AF0A3F07B0F7A007D967C007F1E02B0
:10256C00260E900002E06046E4F090000AF0A3749E
:10257C0028F0A37404F0A374EFF0A3745DF0E4A34B
:10258C00F0A3F0A37410F0A37401F0A37402F0A3F1
:10259C007458F07F3E1265F3D2B674FF90000AF0C7
:1025AC00A3F07B0F7A007D967C007F5A80549000BC
:1025BC0003E06053E4F090000AF0A37428F0A374D5
:1025CC0004F0A374EFF0A3745DF0E4A3F0A3F0A304
:1025DC007410F0A37401F0A37402F0A3745DF07B8B
:1025EC00327A007D467C007F7A7E001265FDD2B780
:1025FC0074FF90000AF0A3F07B0F7A007D967C00AC
:10260C007F967E00122EE1900001E0604790000A58
:10261C00E4F0A37428F0A37404F0A374EFF0A37493
:10262C005DF0E4A3F0A3F0A37410F0A37401F0A385
:10263C007402F0A37453F07F0212626EC2B5900064
:10264C000A7407F0A374E0F07B0F7A007D967C008F
:10265C007F1E804B900002E0604D90000AE4F0A3D6
:10266C007428F0A37404F0A374EFF0A3745DF0E489
:10267C00A3F0A3F0A37410F0A37401F0A37402F000
:10268C00A37458F07F3E12626EC2B690000A7407B3
:10269C00F0A374E0F07B0F7A007D967C007F5A7E6D
:1026AC0000122EE102239E900003E0700302239E91
:1026BC0090000AE4F0A37428F0A37404F0A374EF60
:1026CC00F0A3745DF0E4A3F0A3F0A37410F0A37472
:1026DC0001F0A37402F0A3745DF07B327A007D46A6
:1026EC007C007F7A7E00126278C2B790000A740771
:1026FC00F0A374E0F07B0F7A007D967C007F967ED1
:07270C0000122EE102239EE2
:0B7EC600127E73123E1A1222CC80FEC6
:0B7ED100EF1FAC0670011E4C70F62283
:107E1E00D3EF9400EE940040147D6E7C00ED1D7047
:0D7E2E00011CED4C70F7EF1F70E61E80E3A5
:017E3B002224
:057E0E004200A5000088
:107E7300759850758920758780758DFA858D8BD29D
:067E8300AFD28ED299225D
:067EE700EF24FF92AC2223
:0E7E9E00C2ACC2998F993099FDC299D2AC2224
:107D2900900321EBF0A3EAF0A3E9F0900321E0FB33
:107D3900A3E0FAA3E0F91235E6FF6016127E9E7FF2
:107D4900057E00127ED1900322E475F0011236A55A
:037D590080D922AC
:0300230002778BD6
:10778B00C0E0C083C082C0D075D000C004C005C0AB
:01779B0007E6
:10779C00309864C298AF999000A5E0FCEC20E757B4
:1077AC0030E60FEF640A9000A560028046E044804A
:1077BC00800AEFB40D0C9000A5E04440F0A3E0F07B
:1077CC0080359000A5E0543FFCA3E02473F582744F
:1077DC00003CF583EFF09000A6E004F070069000FA
:1077EC00A5E004F0D39000A6E094319000A5E094BD
:0777FC00004004E4F0A3F0DB
:0F780300D007D005D004D0D0D082D083D0E032CF
:10002600204C43442049443A25780D0A000000003C
:10003600000000000000000000000000003F40003B
:1000460000000000000000300040003000400000CA
:100056000009000BC03D000BC03D00090018C0247C
:10006600407FE0224031800000180024C01B000DB4
:10007600803240018003801C4027401C80074000DE
:1000860040100060000000000000000000000000BA
:100096000000001F80204040200000402020401F1C
:1000A6008000000000090006001F8006000900000D
:1000B60000040004003F800400040000000010005B
:1000C60060000000000000000004000400040004BA
:1000D60000040000000000004000000000000000D6
:1000E60000002001C006003800400000001F8020EC
:1000F60040204020401F800000000010403FC0000C
:10010600400000000018C021402240244018400052
:100116000010802040244024401B80000002000D77
:100126000011003FC0014000003C802440244024D0
:1001360040238000001F8024402440344003800078
:10014600003000200027C03800200000001B80245B
:1001560040244024401B8000001C0022C022402274
:10016600401F800000000000000840000000000062
:100176000000000000046000000000000000000411
:10018600000A00110020804040090009000900090A
:10019600000900000000004040208011000A000411
:1001A600001800200023402400180000001F8020B3
:1001B60040274029401F400000004007C039000F7B
:1001C6000001C0004020403FC0244024401B800066
:1001D600001F802040204020403080000020403F0B
:1001E600C0204020401F80000020403FC024402EF9
:1001F6004030C0000020403FC024402E00300000A8
:10020600000F001080204022403380020020403F33
:10021600C0040004003FC02040204020403FC020D2
:1002260040204000000060202020203FC020002009
:100236000020403FC024400B0030C0204020403FFB
:10024600C020400040004000C03FC03C0003C03C0E
:10025600003FC0000020403FC00C4023003FC020AC
:10026600001F802040204020401F80000020403F8B
:10027600C024402400180000001F80214021402097
:10028600E01FA0000020403FC02440260019C00007
:100296004018C02440244022403180000030002015
:1002A600403FC020403000000020003F800040005A
:1002B600403F80200020003E0001C007003800209B
:1002C60000380007C03C0007C03800000020403955
:1002D600C0060039C0204000002000384007C03862
:1002E6004020000000304021C02640384020C00099
:1002F60000000000007FE040204020000000007069
:10030600000C000380004000000000402040207FD9
:10031600E000000000000020004000200000000077
:100326000000100010001000100010001000000067
:1003360000400000000000000000000280054005AB
:100346004003C0004020003FC0044004400380003A
:100356000000000380044004400640000000000343
:1003660080044024403FC000400000038005400553
:100376004003400000000004401FC02440244020E9
:1003860000000002E0055005500650042020403FC2
:10039600C00440040003C000400000044027C00021
:1003A600400000000000100010041027E0000000CC
:1003B6000020403FC00140070004C0044020402008
:1003C600403FC000400040000007C0040007C004D2
:1003D6000003C00000044007C00440040003C0003E
:1003E600400000038004400440038000000410071E
:1003F600F004500440038000000000038004400421
:100406005007F00010044007C0024004000400003A
:1004160000000006400540054004C000000000043E
:10042600001F8004400040000004000780004004D4
:100436004007C000400400070004C0018006000415
:1004460000060001C0070001C006000000044006C7
:10045600C0010006C0044000000410071004E001BB
:1004660080060004000000044005C0064004400069
:10047600000000000004007BE040200000000000B7
:10048600000000FFF000000000000040207BE004B8
:1004960000000000004000800040002000200040D6
:1004A6000000000000000000000000000000000046
:1004B600000000000000001FCC000C00000000003F
:1004C60000000008003000600008003000600000F6
:1004D60000022003FC1E20022003FC1E2002200036
:1004E6000000000E1811043FFF10840C7800000075
:1004F600000F0010840F3800C007781884007800B9
:100506000000780F8410C411240E9800E4008400C3
:1005160008080068007000000000000000000000ED
:100526000000000000000007E01818200440020048
:1005360000000040022004181807E0000000000038
:10054600000240024001800FF0018002400240009C
:10055600000080008000800FF8008000800080008E
:10056600000001000D000E00000000000000000069
:100576000000000080008000800080008000800075
:10058600800000000C000C000000000000000000CD
:100596000000000006001800600180060018002018
:1005A60000000007F0080810041004080807F0000F
:1005B600000000080408041FFC00040004000000FA
:1005C6000000000E0C10141024104411840E0C00B0
:1005D6000000000C1810041104110412880C70009D
:1005E60000000000E00320042408241FFC0024006F
:1005F6000000001F98108411041104108810700068
:1006060000000007F0088811041104188800700023
:100616000000001C00100010FC13001C001000005D
:100626000000000E3811441084108411440E380066
:100636000000000700088C10441044088807F000EA
:1006460000000000000000030C030C000000000086
:10065600000000000000010106000000000000008C
:100666000000000080014002200410080810040069
:100676000002200220022002200220022002200086
:100686000000001004080804100220014000800049
:100696000000000E001200100C106C10800F0000FD
:1006A6000003E00C1813E4142417C4082807D0002C
:1006B600000004003C03C41C40074000E4001C008A
:1006C6000410041FFC1104110411040E88007000AC
:1006D6000003E00C1810041004100410081C10008D
:1006E6000010041FFC100410041004080807F00092
:1006F6000010041FFC1104110417C410040818008C
:100706000010041FFC1104110017C010000800009F
:100716000003E00C181004100410441C780040007C
:100726000010041FFC10840080008010841FFC1041
:10073600040000100410041FFC1004100400000044
:100746000000030001100110011FFE100010000040
:100756000010041FFC110403801464181C1004000C
:100766000010041FFC1004000400040004000C0028
:100776000010041FFC1F0000FC1F001FFC100400DB
:100786000010041FFC0C04030000E010181FFC10EE
:100796000007F00808100410041004080807F00009
:1007A6000010041FFC10841080108010800F0000C1
:1007B6000007F0081810241024101C080A07F2007D
:1007C6000010041FFC1104110011C011300E0C00A2
:1007D6000400000E1C11041084108410441C380000
:1007E600001800100010041FFC1004100018000070
:1007F6000010001FF810040004000410041FF81075
:100806000010001E0011E0001C007013801C001078
:10081600001FC0103C00E01F0000E0103C1FC0009D
:10082600001004180C163401C001C01634180C1040
:100836000410001C00130400FC13041C001000002C
:10084600000804101C1064108413041C0410180003
:10085600000000000000007FFE400240024002004F
:1008660000000030000C0003800060001C00030044
:100876000000004002400240027FFE00000000002F
:100886000000000000200040004000400020000062
:10089600000001000100010001000100010001004B
:1008A60001000040004000200000000000000000A1
:1008B6000000000098012401440144014400FC00AA
:1008C6000410001FFC008801040104008800700069
:1008D6000000000070008801040104010400880083
:1008E600000000007000880104010411081FFC00CC
:1008F60004000000F8014401440144014400C8001A
:10090600000000010401040FFC1104110411001879
:1009160000000000D601290129012901C9010600AC
:100926000010041FFC008401000100010400FC000B
:100936000400000104190419FC000400040000006E
:10094600000000000300010101190119FE0000006A
:100956000010041FFC0024004001B4010C01040037
:10096600000000100410041FFC0004000400000036
:1009760000010401FC0104010001FC010401000066
:10098600FC010401FC008401000100010400FC00DC
:1009960004000000F8010401040104010400F80049
:1009A60000010101FF0085010401040088007000B8
:1009B6000000000070008801040104010501FF0029
:1009C600010104010401FC0084010401000180000E
:1009D60000000000CC012401240124012401980018
:1009E6000000000100010007F801040104000000F6
:1009F60000010001F8000400040004010801FC00E5
:100A060004010001800170000C00100160018001EA
:100A16000001F0010C003001C00030010C01F001B2
:100A26000000000104018C00740170018C010400B7
:100A360000010101810171000E00180160018001B1
:100A46000000000184010C013401440184010C0002
:100A560000000000000000000001003EFC400240D3
:100A6600020000000000000000FFFF000000000080
:100A7600000000400240023EFC01000000000000B1
:100A86000000006000800080004000400020002040
:100A96000000000000000000000000000000000050
:100AA6000000000000000000000000000000000040
:100AB6000000000000000000000000000000000030
:100AC600000000000F80380FFE380F80380000004D
:100AD600000000000000000000000000000000010F
:100AE60000000600000C000038000031000006007F
:100AF600000C00003800003000000000000000007C
:100B06000061800067F807F980006180006180005D
:100B160061800061800067F807F98000618000004D
:100B26000000000000000001C0E003E0F00630080D
:100B36000418081FFFFE040E080787F00381E00073
:100B4600000000000001F000060C00040408060C7A
:100B56007001F9C0000E00003BE000EC1807080821
:100B6600040C180003E00000000001E00007F00399
:100B7600F818041C0804170807E1D003C0E0002396
:100B8600B0003C0800200800001000000000000033
:100B96000100003100003200001C000000000000CF
:100BA600000000000000000000000000000000003F
:100BB600000000000000000000000000000000002F
:100BC600007F0001FFC00780F00C00181000042011
:100BD60000020000000000002000021000040C00CB
:100BE600180780F001FFC0007F0000000000000031
:100BF60000000000000000000000000000420000AD
:100C06006600006600003C0000180003FFC00018E4
:100C160000003C0000660000660000420000000084
:100C26000008000008000008000008000008000195
:100C3600FFC00008000008000008000008000008C7
:100C46000000000000000100003100003200001C1E
:100C5600000000000000000000000000000000008E
:100C66000000000000000000000800000800000866
:100C76000000080000080000080000080000080046
:100C8600000800000800000000000000000000004E
:100C960000380000380000380000000000000000A6
:100CA600000000000000000000000000000000003E
:100CB60000000600001C000070000180000E00000D
:100CC600380000C0000700001C00003000000000D3
:100CD60000000000007F8001FFE00380700600181E
:100CE60004000804000806001803807001FFE000F5
:100CF6007F800000000000000000000100080100E5
:100D06000801000803FFF807FFF8000008000008C4
:100D160000000800000000000000000001C03802CA
:100D2600C058040098040118040218040418061C8C
:100D36001803F81801E0F8000000000000000000A9
:100D460001C0E003C0F0040008040808040808060F
:100D5600180803F41801E7F00001E00000000000A5
:100D660000000000000300000D00001100006100FB
:100D760000810803010807FFF80FFFF800010800CB
:100D860001080000000000000000E007FCD0060893
:100D960008061008061008061008061838060FF090
:100DA6000607C0000000000000000000003F8001B0
:100DB600FFE0038430020818041008041008041029
:100DC60008071810030FF00007C00000000000001D
:100DD60000000003C0000700000600000600F80639
:100DE60007F806180006E0000700000600000000ED
:100DF6000000000001E1E003F7F0063410041808D3
:100E0600041808040C08040C0806161803F3F0016D
:100E1600C1E000000000000000F80003FC300306FB
:100E2600380402080402080402080404100308F047
:100E360001FFC0007F00000000000000000000006D
:100E460000000000000000000070380070380070DC
:100E56003800000000000000000000000000000054
:100E660000000000000000000000000000301A0032
:100E7600301C000000000000000000000000000020
:100E8600000000000000000008000014000022001E
:100E9600004100008080010040020020040010088C
:100EA60000080000000000000021000021000021D1
:100EB6000000210000210000210000210000210087
:100EC60000210000210000000000000000000008D2
:100ED600000804001002002001004000808000414C
:100EE60000002200001400000800000000000000BE
:100EF60003C00004C000040000080038080F3808CA
:100F060008380810000C300007E00003C00000009D
:100F160000000000003F8000FFE0038070020F1019
:100F260006708804C088048308047F8802C0900382
:100F3600012000FE400000080000180001F8003EF5
:100F46000801C20007020007E20000FE00001FC8F9
:100F56000001F800003800000804000807FFF80741
:100F6600FFF8040808040808040808040808061816
:100F76000803F41801E7F00001E00000000000009B
:100F8600003F8001FFE0038070020018040008049F
:100F960000080400080400100600200780C00000B6
:100FA6000004000807FFF807FFF80400080400081B
:100FB60004000804001802001003807001FFE0001E
:100FC6007F8000000004000807FFF807FFF8040808
:100FD60008040808040808040808043E0804000871
:100FE60006001801006000000004000807FFF8076B
:100FF600FFF8040808040800040800040800043E7A
:10100600000600000600000180000000000000004D
:10101600003F8001FFE0038070060018040008040A
:1010260002080402080203F00783F000020000022F
:101036000004000807FFF807FFF804080800080086
:1010460000080000080000080004080807FFF80769
:10105600FFF8040008000000000000040008040077
:101066000804000807FFF807FFF804000804000852
:101076000400080000000000000000000000060058
:10108600000700000104000104000104000307FF3B
:10109600FE07FFFC04000004000004000004000832
:1010A60007FFF807FFF8040C08001800003E0004CC
:1010B600C7800503C80600F80400380400180000BD
:1010C6000804000807FFF807FFF8040008000008F6
:1010D60000000800000800000800000800001800D2
:1010E600006000000004000807FFF807800807FCFE
:1010F60000007FC00003F80007C0007800078008E2
:1011060007FFF807FFF804000804000807FFF807C0
:10111600000803C00000E000003800001E000007C1
:10112600000001C00400F007FFF804000000000002
:10113600007F8001FFE003807006001804000804A9
:10114600000806001803003001FFE0007F80000061
:101156000004000807FFF807FFF804040804040069
:10116600040400040400040400060C0003F8000153
:10117600F000000000000000007F8001FFE0038017
:10118600700600880400880400C806003C03003E80
:1011960001FFE6007F8400000004000807FFF8074F
:1011A600FFF8040808040800040C00040F00040BF0
:1011B600C00610F003F03801E00800000800000047
:1011C60001E0F803F030063010041808041808048B
:1011D6000C08040C080206180207F00781E000005C
:1011E600000180000600000400000400000400085E
:1011F60007FFF807FFF804000804000004000006D3
:10120600000001800004000007FFE007FFF0040073
:101216001800000800000800000800000800000888
:1012260004001007FFE004000004000006000007A9
:10123600E00007FE00041FE00001F800003800018E
:10124600E0043E0007C000060000040000040000A1
:1012560007E00007FFC0041FF80007C007F80007F3
:10126600FF80043FF80007C004F8000700000400F0
:101276000000000004000806001807C07805F1C841
:10128600003E00001F800463E80780F8060018048B
:10129600000800000004000006000007800007E0C8
:1012A60008047C08001FF80007F800180804E00886
:1012B6000700000600000400000000000100080608
:1012C60000380400F80403E8040F08047C0805F05D
:1012D6000807C008070018040060000000000000AE
:1012E6000000000000000000000000003FFFFE209C
:1012F600000220000220000220000220000200005E
:101306000000000000000008000007000000C00008
:101316000038000006000001C000003000000E008A
:101326000001000000000000000000200002200074
:10133600022000022000022000023FFFFE00000003
:101346000000000000000000000000000000000097
:1013560000000800001000003000002000003000EF
:10136600001000000800000000000000000000015E
:101376000000010000010000010000010000010062
:101386000001000001000001000001000001000052
:101396000100000000000000000020000020000006
:1013A6001000001000000000000000000000000017
:1013B60000000000000000000000F00019F8001B0B
:1013C60018002208002608002408002410003FF810
:1013D600001FF800000800001800000004000007C5
:1013E600FFF80FFFF0001818001008002008002072
:1013F60008003018001FF0000FC0000000000000B9
:101406000007C0001FF00018300020080020080068
:101416002008003C08001C100000600000000000CE
:10142600000000000007C0001FF000381800200868
:1014360000200800200804101007FFF80FFFF00036
:1014460000100000000000000000000007C0001FA0
:10145600F00012300022180022080022080032088C
:10146600001E10000E2000000000000000200000FA
:10147600200800200801FFF803FFF80620080420D2
:1014860008042008072000030000000000000000F8
:1014960000000E000E6E001FF30031B10020B100F7
:1014A60020B1003191001F13002E1E00200E0030C7
:1014B6000000000004000807FFF80FFFF8001008FE
:1014C600002000002000002008003FF8001FF80060
:1014D60000080000000000000000000020080020B6
:1014E60008002008063FF8063FF80000080000083C
:1014F60000000800000000000000000000000000DE
:101506000003000003002001002001002003063F25
:10151600FE063FFC00000000000000000000000086
:1015260004000807FFF80FFFF80001880003000019
:101536002FC00038F80020380020080000080000FE
:101546000000000000000004000804000804000871
:1015560007FFF80FFFF80000080000080000080069
:101566000000000000002008003FF8003FF80010CF
:1015760008002000003FF8003FF800100800200097
:10158600003FF8003FF800000800000000200800B7
:101596003FF8003FF800100800100000200000206F
:1015A60008003FF8001FF8000008000000000000D7
:1015B6000007C0000FF000183000300800200800B7
:1015C6002008003008001830000FF00007C00000A7
:1015D60000000000002001003FFF003FFF00101147
:1015E600002009002008002008003038001FF00005
:1015F6000FC00000000000000007C0001FF0003808
:1016060018002008002008002009001011001FFF04
:10161600003FFF0000010000000020080020080035
:101626002008003FF8003FF80008080010080020D6
:10163600080020000030000030000000000000001C
:10164600000000000C78001E180033080023080074
:1016560021080021880021980030F0003860000041
:101666000000000000200000200000200000FFF025
:1016760003FFF800200800200800200800003000C2
:101686000000000000000000002000003FF0007F86
:10169600F8000018000008000008002010003FF8BD
:1016A600007FF00000100000000000000020000095
:1016B6003000003C00003F800023F000007800006E
:1016C60070002380003C0000300000200000200055
:1016D600003C00003FE00023F80000E00027000087
:1016E6003E00003FE00021F80001E0003E0000203F
:1016F60000000000002008002008003838003E687E
:101706000027800003C8002CF80038380020180095
:101716002008000000000000002000003003003C0C
:1017260001003F830023EC000070002380003C0092
:101736000020000020000000000000000000000063
:1017460038080020380020F80023E8002F88003EE3
:101756000800380800201800007000000000000093
:10176600000000000000000000000000000800006B
:1017760014001FF7FC3000062000020000000000E5
:101786000000000000000000000000000000000053
:10179600000000FFFFFF0000000000000000000046
:1017A60000000000000000000000002000023000E1
:1017B600061FF7FC001400000800000000000000EF
:1017C600000000000000000000000000180000609B
:1017D600000040000040000020000010000008004B
:1017E600000400000400000C0000100000C6D50034
:1017F60000000000E0380000783C00003C78000063
:101806003C70C0001CE1E01FFFFFF0001CE3000E6F
:101816001CE7C0079CE78003DCEF0003DCEE000159
:10182600DCFC60009CF9F07FFFFFF800000000017F
:10183600C00E0001FFFF0001C00E0001C00E000136
:10184600C00E0001FFFE0001C00E0001C00E000127
:10185600C00E0001FFFE0001C00E0001C00E000018
:10186600000000D6D000000000000700000007803E
:101876000000070000000700000007000000070145
:10188600801FFFFFE01FFFFFE01E0701C01E0701CC
:10189600C01E0701C01E0701C01E0701C01E0701AA
:1018A600C01FFFFFC01FFFFFC01E0701C01C0701AE
:1018B6008000070000000700000007000000070086
:1018C60000000700000007000000070000000700F6
:1018D600000007000000000000BFC6000000000076
:1018E600000780003C07C001FC07803FE007803905
:1018F600C1C78001C0E78001C0F78001C0778001C1
:10190600DE77807FFE078001C0078003C3C78003A0
:10191600E1E78003F8F78007FCE7F00FDE67F80FD2
:10192600DC07F81FC0FF801DDFE78039CC07807118
:10193600C0078061C0078001C0078001C007800121
:10194600E0078001E0078001C0070000000000BC3E
:10195600BC000000000380300003C03C0003C03C14
:101966000003C0380003C0380003C0386003F838ED
:10197600F07FFFFFF003C0380003C0380003C03813
:101986000003DC39C003FFFFE007E383C03FC183E8
:10199600C07FC1C3803BC1C78003C0EF0003C0EF57
:1019A6000003C07E0003C07C0003C07C0003C0FEB1
:1019B600003BC3EF803F8787F80FBF03F807780027
:1019C600E000000000C4EA0000000000C0000001C2
:1019D600F0000001E0000003C000C003C001E00702
:1019E600FFFFF00703C0000E03C0001E03C0003C4B
:1019F60003C3007303C78063FFFFC00383C00003F4
:101A060083C0000383C0000383C0000383C0600358
:101A160083C0F07FFFFFF80003C0000003C0000092
:101A260003C0000003C0000003C0000003C00000A4
:101A360003C0000003C00000000000D4C200000084
:101A4600000000000000E0070000FFFF8000F00734
:101A56008000F0070000F0070000F0070000F00724
:101A66000000FFFF0000FFFF0000F0070000F00786
:101A76000000F0070000F0070000E0070000FFFF8D
:101A86000000E0070000E0070000E0070001E007B3
:101A96000001C0070001C00700038007000780F7A8
:101AA600000F007F001E001F0038001C0000000011
:101AB60000C8D5000000000000000003000300037A
:101AC600FFFF8003FFFF80038007000380070003FA
:101AD60080070003800700038007000380070003D8
:101AE6008007000380070003FFFF00038007000351
:101AF60080070003800700038007000380070003B8
:101B060080070003800700038007000380070003A7
:101B1600FFFF000380070003800700038007000320
:101B260000000000000000D0C70000000000000018
:101B3600000380070003FFFF800380070003800780
:101B4600000380070003FFFF0003800700038007F0
:101B56000003FFFF0003FFFF00038707000387C0A2
:101B66000003C7810003C7838007FFFFC007078004
:101B7600000F0780001E0786001C078F003BFFFF33
:101B8600807007800000078000000780E000078162
:101B9600F07FFFFFF80000000000000000C6DA003A
:101BA60000000006000000079E0000079E7FF00769
:101BB6009E7FF0079FF8F03FFFF8F01F9E78F00732
:101BC6009E78F0079E78F007FE7FF0079E78F00774
:101BD6009E78F0079E70F007FE70F0079E70F00783
:101BE6009E7FF0079FFFF03FFFF0F0119070F0032B
:101BF600DCF0F003DEE0F0078FE0F00F0FE0F00E10
:101C060007C0F01C038FF0380F03E0201C01C00052
:031C1600000000CB
:0A7E13004202B8FFFF4202BA00006D
:10000300E4FDFCC3ED9FEC9E5014E4FBFA0BBB0034
:0E001300010AEBF44A70F60DBD00010C80E509
:0100210022BC
:107D5C007E00127D6EA3E0FEA3E0FF127DBA7F21B0
:027D6C007E0097
:047D6E00AD07AC06AB
:107D7200ECFFAE05D2A5C2A7D2B2C2A68F90AF06C3
:087D82008F80C2A5D2A5D2A793
:017D8A0022D6
:087DB2007E00127D6EE4FFFE6D
:047DBA00AD07AC065F
:107DBE00ECFFAE05D2A5C2A7D2B2D2A68F90AF0667
:087DCE008F80C2A5D2A5D2A747
:017DD600228A
:087DD70090030FE0FEA3E0FFA2
:047DDF00AD07AC063A
:107DE300ECFFAE05D2A5C2A7D2B2D2A68F90AF0642
:087DF3008F80C2A5D2A5D2A722
:017DFB002265
:0E7EAC00AB05AA04127D6EAE02AF03027DBAD2
:107E59007590FF7580FFC2A7D2A6C2B200AF90EF9E
:097E6900FEAD80EDFFD2B2D2A7FC
:017E720022ED
:107BF6009002B7EFF0701D7D1B7C017F01FE127EA7
:107C0600AC9002B3E4F0A374DCF09002B1E4F0A30C
:107C160074B0F022E4FDFC7F01FE127EAC9002B34C
:107C2600E4F0A374B0F09002B1E4F0A374DCF022A7
:103E1A00E4FED2B37F64127E1EC2B37F647E0012B8
:103E2A007E1ED2B37F647E00127E1EE4FFFE127DE8
:103E3A006E127E599002B5EEF0A3EFF07BFF7A0086
:103E4A007926900003EEF0A3EFF01232EC7F101205
:103E5A007DB27F11127DB27F12127DB27F13127D65
:103E6A00B2E4FFFE127D6E7F017E00127DBA7E13E0
:103E7A007F88EF1F70011EEF4E70F77F117E0012D0
:103E8A007D6E7F017E00127DBA7F137E00127D6EE9
:103E9A007F1C7E14127DBA7F127E00127D6E7F18FF
:103EAA007E00127DBA7F107E00127D6E7F447E00F6
:103EBA00127DBA7E137F88EF1F70011EEF4E70F7D6
:103ECA007F107E00127D6E7F407E00127DBA7F13C6
:103EDA007E00127D6E7F137E34127DBA7E137F8838
:103EEA00EF1F70011EEF4E70F77F087E00127D6E85
:103EFA007408FFFE127DBA7F097E00127D6E7F0173
:103F0A007E00127DBA7F0B127DB27F21127DB27FB5
:103F1A0023127DB27F24127DB27F30127DB27F31AF
:103F2A00127DB27F327E00127D6E7F077E00127D87
:103F3A00BA7F337E00127D6E7F077E00127DBA7FC4
:103F4A0034127DB27F35127DB27F36127DB27F3751
:103F5A00127DB27F38127DB27F39127DB27F017E27
:103F6A0000127D6E7F1B7E01127DBA7F027E0012D7
:103F7A007D6E7F007E07127DBA7F037E00127D6E02
:103F8A007F307E60127DBA7F04127DB27F05127D7A
:103F9A00B27F40127DB27F417E00127D6E7FAF7E7E
:103FAA0000127DBA7F427E00127D6E7F007EDB1298
:103FBA007DBA7F437E00127D6E7F007EDB127DBA62
:103FCA007F447E00127D6E7F007EAF127DBA7F45F0
:103FDA007E00127D6E7F007EDB127DBA7F107E002E
:103FEA00127D6E7440FFFE127DBA7F077E00127D3D
:103FFA006E7F057E00127DBA7E137F88EF1F7001E7
:10400A001EEF4E70F77F077E00127D6E7F257E00C1
:10401A00127DBA7E137F88EF1F70011EEF4E70F774
:10402A007F077E00127D6E7F277E00127DBA7E1387
:10403A007F88EF1F70011EEF4E70F77F077E001218
:10404A007D6E7F377E00127DBA7E137F88EF1F70E8
:10405A00011EEF4E70F77F227E00127D6EE4FF1282
:0D406A007BF69002BAE0FEA3E0FF027812A0
:0575E300E0FEA3E0FF43
:0E75E800900067EEF0A3EFF0A3ECF0A3EDF03F
:1075F600EBFE900067E0FCA3E0FDEC4EFFED900093
:107606006FCFF0A3EFF090006EE0FE900069E0FA15
:10761600A3E0FBEA4EFFEB900071CFF0A3EFF0EB97
:10762600FEEC4EFEEDFBAA069002B7E0701C7F440E
:10763600FE127D6E90006FE0FEA3E0FF127DBA7F22
:1076460045127D5CAF03AE02801B7F457E00127D36
:107656006E90006FE0FEA3E0FF127DBA7F44127DBC
:0F7666005CAE02AF03127DBA7F227E00027D6E02
:0C7A6C009002BCECF0A3EDF0AB07AA0602
:107A7800E4A3F0A3F0A3F0A304F0A3E4F0A304F0BC
:107A8800D39002B2E09B9002B1E09A40159002B305
:107A9800E0FEA3E0FF9002BCE0FCA3E0FD9FEC9EAB
:107AA8004004E4FEFF22AF03AE02C0079002BCE030
:107AB800FFA3E090006DCFF0A3EFF0D0071275E8B8
:087AC8009002BEE0FEA3E0FF06
:017AD0002293
:08781200900000EEF0A3EFF07E
:10781A00E4A3F0A3F09002B2E024FFFB9002B1E0EF
:10782A0034FFFA9002B4E024FFFE9002B3E034FF82
:10783A0090006DF0A3CEF0E4FDFCFFFE1275E8E4C3
:10784A00FAFBD39002B2E09B9002B1E09A4039E48D
:10785A00900002F0A3F09002B3E0FEA3E0FFC39011
:10786A000003E09F900002E09E5016900000127DF7
:10787A00DA900003E004F070DD900002E004F0808A
:08788A00D50BBB00010A80BA16
:0178920022D3
:1071A000900031ECF0A3EDF090002FEEF0A3EFF0A3
:0871B000900033EAF0A3EBF0BC
:1071B800E4900039F0A3F0D3EF9BEE9A40030272FB
:1071C8006F900035E0FEA3E0FF900031E0FCA3E003
:1071D800FD9FEC9E400302726F900033E0FAA3E03B
:1071E800FBA3E0FFA3E090006DCFF0A3EFF09000C9
:1071F8002F1275E390002FE0FEA3E0FFC390003448
:10720800E09FFF900033E09ECF2401CF3400900030
:107218002FF0A3EFF0A3E0FEA3E0FFC3900036E059
:107228009FFF900035E09ECF2401CF3400900031BD
:10723800F0A3EFF090002F74FFF5F01236BB45F085
:107248006025900031E0FFA3E0900039CFF0A3EF74
:10725800F090003974FFF5F01236BB45F060D59018
:077268000037127DDA80EA15
:01726F0022FC
:0E6A65009001FAEEF0A3EFF0A3ECF0A3EDF039
:106A73009001FAE0FEA3E0FFC3EB9FFFEA9ECF2461
:106A830001CF3400900207F0A3EFF09001FCE0FE89
:106A9300A3E0FFC3900201E09FFF900200E09ECFBE
:106AA3002401CF3400900205F0A3EFF09001FCE045
:106AB300FCA3E0FD900200E0FFA3E090006DCFF0A7
:106AC300A3EFF09001FA1275E3E4900209F0A3F04A
:106AD300900205E0FEA3E0FFC390020AE09F90024C
:106AE30009E09E5074E490020BF0A3F0900207E0DB
:106AF300FEA3E0FF90020BE0FAA3E0FBC39FEA9E34
:106B03005046900207E0FCA3E0FDA3E0FEA3E0FFF4
:106B130012363EEB2FFFEA3EFEEF25E0FFEE33FE9B
:106B2300900202E0FBA3E0FAA3E0F98F828E8312C6
:106B330036D1FFAEF0127DDF90020CE004F070ACB2
:106B430090020BE004F080A490020AE004F070804D
:096B5300900209E004F0026AD38B
:016B5C002216
:107C36009002CCFEE0FCA3E0FDC39002C9E09DFDEE
:067C46009002C8E09CFC66
:107C4C00AB07AA068D828C83C006C007AE83AF82B9
:107C5C0090006DEEF0A3EFF0D007D0061275E8900F
:0A7C6C0002B8E0FEA3E0FF027DDF96
:067B6A00FDE0FAA3E0FBC0
:107B7000900061EEF0A3EFF0900065EAF0A3EBF067
:107B8000900063ECF0A3EDF0900061E0FAA3E0FB5D
:107B9000FFAE02C007A3E0FFA3E090006DCFF0A30B
:107BA000EFF0D0071275E8900065E0FEA3E0FF0259
:027BB0007DDF77
:10798E00900305EEF0A3EFF0A3ECF0A3EDF0A3EA65
:10799E00F0A3EBF0127B70900306E02401FF90033E
:1079AE0005E03400FE900307E0FCA3E0A3127B6A1F
:1079BE00900305E0FEA3E0FF900308E02401FD9094
:1079CE000307E03400FC900309127B6B900306E082
:1079DE002401FF900305E03400FE900308E024012B
:1079EE00FD900307E03400FC900309E0FAA3E0FBEE
:0379FE00027B7099
:0E4DA100900185EEF0A3EFF0A3ECF0A3EDF08F
:104DAF00E490018DF0A3F0A3F0A3F0A3F0A3F09093
:104DBF000185E0FEA3E0FFC3EB9FFFEA9E90019306
:104DCF00F0A3EFF0900187E0FAA3E0FBC390018C12
:104DDF00E09BFE90018BE09A900195F0A3CEF090AE
:104DEF000185E0FFA3E090019DCFF0A3EFF0A3EAD0
:104DFF00F0A3EBF0900193E0FEA3E0FFD39400EE5D
:104E0F0064809480400A900199E4F0A304F080211B
:104E1F00EF4E7008900199F0A3F0801574FF900188
:104E2F0099F0A3F0C3E49FFFE49E900193F0A3EFEA
:104E3F00F0900195E0FEA3E0FFD39400EE64809420
:104E4F0080400A90019BE4F0A304F08021EF4E70A4
:104E5F000890019BF0A3F0801574FF90019BF0A3C5
:104E6F00F0C3E49FFFE49E900195F0A3EFF0900153
:104E7F0095E0FEA3E0FF900193E0FCA3E0FDD39F3C
:104E8F00EE6480F8EC6480989001974007ECF0A3F3
:104E9F00EDF08005EEF0A3EFF0E490018DF0A3F0BC
:104EAF00900198E02401FF900197E03400FED39029
:104EBF00018EE09F90018DE09E4003024F8F900185
:104ECF009DE0FEA3E0FFA3E0FCA3E0FD127C4C906D
:104EDF000193E0FEA3E0FF900190E02FF090018F8F
:104EEF00E03EF0900195E0FEA3E0FF900192E02FED
:104EFF00F0900191E03EF0900197E0FEA3E0FF906B
:104F0F00018FE0FCA3E0FDD39FEE6480F8EC64809A
:104F1F00984020ED9FFFEC9E90018FF0A3EFF09053
:104F2F000199E0FEA3E0FF90019EE02FF090019D1C
:104F3F00E03EF0900197E0FEA3E0FF900191E0FCCE
:104F4F00A3E0FDD39FEE6480F8EC6480984020EDE1
:104F5F009FFFEC9E900191F0A3EFF090019BE0FE7C
:104F6F00A3E0FF9001A0E02FF090019FE03EF090B2
:104F7F00018EE004F0700690018DE004F0024EAF58
:014F8F0022FF
:0E4F900090012BEEF0A3EFF0A3ECF0A3EDF0F8
:104F9E00E4900137F0A3F0A3F0A3F090012BE0FE14
:104FAE00A3E0FFC3EB9FFFEA9E90013BF0A3EFF05F
:104FBE0090012DE0FAA3E0FBC3900132E09BFE903E
:104FCE000131E09A90013DF0A3CEF090012BE0FF6D
:104FDE00A3E0900145CFF0A3EFF0A3EAF0A3EBF02E
:104FEE0090013BE0FEA3E0FFD39400EE648094803A
:104FFE00400A900141E4F0A304F08021EF4E7008C6
:10500E00900141F0A3F0801574FF900141F0A3F0E0
:10501E00C3E49FFFE49E90013BF0A3EFF090013DAF
:10502E00E0FEA3E0FFD39400EE64809480400A90EB
:10503E000143E4F0A304F08021EF4E700890014389
:10504E00F0A3F0801574FF900143F0A3F0C3E49F2A
:10505E00FFE49E90013DF0A3EFF090013DE0FEA332
:10506E00E0FF90013BE0FCA3E0FDD39FEE6480F8EF
:10507E00EC64809890013F4007ECF0A3EDF08005C2
:10508E00EEF0A3EFF0E4900135F0A3F0900140E0D4
:10509E002401FF90013FE03400FED3900136E09FE3
:1050AE00900135E09E400302517C900145E0FEA345
:1050BE00E0FFA3E0FCA3E0900133127B6A90013B7A
:1050CE00E0FEA3E0FF900138E02FF0900137E03EC4
:1050DE00F090013DE0FEA3E0FF90013AE02FF0904A
:1050EE000139E03EF090013FE0FEA3E0FF90013772
:1050FE00E0FCA3E0FDD39FEE6480F8EC6480984062
:10510E0020ED9FFFEC9E900137F0A3EFF090014150
:10511E00E0FEA3E0FF900146E02FF0900145E03E57
:10512E00F090013FE0FEA3E0FF900139E0FCA3E028
:10513E00FDD39FEE6480F8EC6480984020ED9FFFD5
:10514E00EC9E900139F0A3EFF0900143E0FEA3E056
:10515E00FF900148E02FF0900147E03EF0900136BD
:0E516E00E004F07006900135E004F002509A63
:01517C002210
:106FF60090030BEEF0A3EFF090030FEAF0A3EBF093
:0870060090030DECF0A3EDF086
:10700E0090030BE0FAA3E0FB24FFFFEA34FFFEC07F
:10701E0006C007ED24FFFDEC34FFFCEB2401FBE47E
:10702E003AFAA3E0FEA3E02401FFE43E90006DF0E7
:10703E00A3EFF0D007D0061275E8E4FB127DD70B54
:10704E00EBB409F890030CE024FCFF90030BE03442
:10705E00FFFEC00790030DE0FCA3E0FD90030CE0E3
:10706E002404FB90030BE03400FA90030DE0FFA321
:10707E00E090006DCFF0A3EFF0D0071275E8E4FBBF
:10708E00127DD70BEBB409F890030EE024FCFD90B3
:10709E00030DE034FFFC90030BE0FAA3E0FBA3E04A
:1070AE00FEA3E02404FFE43E90006DF0A3EFF09009
:0F70BE00030B1275E3E4FB127DD70BEBB409F85B
:0170CD0022A0
:1073F9009002F1EAF0A3EBF09002EDEEF0A3EFF0CA
:10740900A3ECF0A3EDF0C007A3E0FAA3E0FB900220
:10741900EFE0FFA3E090018BCFF0A3EFF0D00712CC
:107429004DA19002EDE0FAA3E0FBFFAE02C007A375
:10743900E0FCA3E0FD9002F3E0FFA3E090018BCF15
:10744900F0A3EFF0D007124DA19002F3E0FCA3E006
:10745900FD9002F1E0FAA3E0FBA3E0FFA3E09001B5
:107469008BCFF0A3EFF09002EDE0FEA3E0FF124D09
:10747900A19002F1E0FAA3E0FBFFAE02C00790027F
:10748900EFE0FCA3E0FD9002F3E0FFA3E090018BA5
:0A749900CFF0A3EFF0D007024DA1E1
:0E5366009002C6EEF0A3EFF0A3ECF0A3EDF082
:10537400E4A3F0A3F0EBFF7E00A3EEF0A3EFF0258F
:10538400E0FFEE33FEC374039F9002CFF0E49E90DF
:1053940002CEF09002CCE0FEA3E0FF9002CAE0FC53
:1053A400A3E0FDD39FEE6480F8EC64809840030290
:1053B400553D9002C7E02DFF9002C6E03C127C36BA
:1053C4009002CCE0FEA3E0FF9002C7E02FFF900222
:1053D400C6E03E9002CA127C399002CCE0FEA3E003
:1053E400FF9002C7E02FFF9002C6E03EFE9002CA83
:1053F400E0FCA3E0FD9002C9E02DFD9002C8E03C72
:10540400FC127C4C9002CAE0FEA3E0FF9002C7E0CD
:105414002FFF9002C6E03EFE9002CCE0FCA3E0FD2C
:105424009002C9E02DFD9002C8E03CFC127C4C9037
:1054340002CAE0FEA3E0FFC39002C7E09FFF900210
:10544400C6E09EFE9002CCE0FCA3E0FD9002C9E021
:105454002DFD9002C8E03CFC127C4C9002CCE0FE96
:10546400A3E0FFC39002C7E09FFF9002C6E09EFE48
:105474009002CAE0FCA3E0FD9002C9E02DFD900279
:10548400C8E03CFC127C4C9002CAE0FEA3E0FFC3DF
:105494009002C7E09FFF9002C6E09E127C36900205
:1054A400CCE0FEA3E0FFC39002C7E09FFF9002C6DA
:1054B400E09EFE9002CA127C3A9002CBE004F070A7
:1054C400069002CAE004F0C39002CEE064809480A7
:1054D40050259002CAE0FEA3E07802C333CE33CE57
:1054E400D8F92406FFE43EFE9002CFE02FF09002AC
:1054F400CEE03EF00253979002CCE0FEA3E0FFC35F
:105504009002CBE09FFF9002CAE09EFEEF7802C3B8
:1055140033CE33CED8F9240AFFE43EFE9002CFE026
:105524002FF09002CEE03EF09002CDE024FFF09008
:0955340002CCE034FFF0025397B1
:01553D00224B
:105BDB00900011EEF0A3EFF0900015EBF090001396
:055BEB00ECF0A3EDF059
:105BF00090001AECF0A3EDF0900016E0FF131313E1
:105C0000541FFEEF540760047F0180027F00EE2FD7
:105C1000FF900016E0C313FEEF8EF0A490001CF07E
:105C2000900015E024E0F0E4F990001CE0FFE9C3E7
:105C30009F4003025D52900016E0FFB40C129000EA
:105C400015E075F00CA42433F582E5F034008031C2
:105C5000EFB41012900015E075F010A424A7F5829F
:105C6000E5F03404801B900016E064186003025DC8
:105C700052900015E075F024A42497F582E5F034E5
:105C80000AF583E58229F582E43583F583E4939070
:105C90000018F0E4900019F0900018E030E713903D
:105CA0000011E0FEA3E0FFA3E0FCA3E0FD9002B83A
:105CB0008017900017E07014900011E0FEA3E0FF41
:105CC000A3E0FCA3E0FD9002BA127B6B900018E009
:105CD00025E0F0900014E004F07006900013E0045A
:105CE000F09002B3E0FEA3E0FF900013E0FCA3E01D
:105CF000FDC39FEC9E505B90001AE0FEA3E0FFC343
:105D0000ED9FFDEC9EFC900016E07A00B50530EAB0
:105D1000B5042C900013EEF0A3EFF0900012E00415
:105D2000F07006900011E004F09002B1E0FEA3E0F4
:105D3000FFC3900012E09F900011E09E401022905F
:105D40000019E004F0E0C394085003025C980902D3
:025D50005C29CC
:015D5200222E
:077AD100C3EF9E14FD7F0AC4
:087AD800900311EFF0A3EDF0A3
:107AE000A312389900000001900312E0FF14F0EF98
:107AF0006020A3E0F8A3E0F9A3E0FAA3E0FB900381
:107B000011E0FFE4FCFDFE12373690031312388DAE
:107B100080D6900313E0FCA3E0FDA3E0FEA3E0FF0A
:017B20002242
:0E6F1A0090027EEEF0A3EFF0A3ECF0A3EDF0FA
:106F2800E490028AF0900288F0900286E0FF9002D6
:106F380088E0FEC39F4003026FF5127AD1A804A926
:106F480005AA06AB07900282E0FCA3E0FDA3E0FEE1
:106F5800A3E0FF1237C1E47B0AFAF9F81237C190AF
:106F68000289EBF0A3E07045900286E014FF9002DE
:106F780088E0FEC39F5036A3E0702C900287E0FBA8
:106F8800C3138EF0A4FF90027FE02FFF90027EE0F3
:106F980035F0FE900280E0FCA3E0FD900016EBF0D7
:106FA800E4A3F07B20803A90028A7401F090028773
:106FB800E0FAC313FFA3E0FEEF8EF0A4FF90027F78
:106FC800E02FFF90027EE035F0FE900280E0FCA307
:106FD800E0FD900289E02430FB900016EAF0E4A37B
:0D6FE800F0125BDB900288E004F0026F31D4
:016FF5002279
:0E671C00900262EEF0A3EFF0A3ECF0A3EDF01C
:10672A00E490026FF090026DF090026AE0FF90022E
:10673A006DE0FEC39F4003026844127AD1A804A9FF
:10674A0005AA06AB07900266E0FCA3E0FDA3E0FE03
:10675A00A3E0FF1237C1E47B0AFAF9F81237C190B5
:10676A00026EEBF0A3E060030267FB90026AE0149A
:10677A00FF90026DE0FEC39F5077A3E0706D900218
:10678A006CE0F990026B30E72BE0FBC3138EF0A4A8
:10679A00FF900263E02FFF900262E035F0FE900264
:1067AA0064E0FCA3E0FD900016EBF0E95401A3F0CD
:1067BA007B30807AE0FBC313FF90026DE0FEEF8E20
:1067CA00F0A4FF900263E02FFF900262E035F0FE32
:1067DA00900264E0FCA3E0FD900016EBF090026CDE
:1067EA00E05401900017F07B20804390026F7401FF
:1067FA00F090026BE0FAC313FF90026DE0FEEF8E99
:10680A00F0A4FF900263E02FFF900262E035F0FEF1
:10681A00900264E0FCA3E0FD90026EE02430FB905D
:10682A000016EAF090026CE05401900017F0125B37
:0A683A00DB90026DE004F00267330A
:016844002231
:106E3500900004EEF0A3EFF0A3ECF0A3EDF0A3EACD
:046E4500F0A3EBF0DB
:106E4900900004E0FEA3E0FF900010F0900009E03C
:106E59002FF0900008E03EF0900006E0FEA3E0FF6E
:106E690090000BE02FF090000AE03EF090000DE05A
:106E7900FBA3E0FAA3E0F91235E6FFD3947E4003C1
:106E8900026F19EFC394205003026F19900008E0B4
:106E9900FEA3E0FF900005E09F900004E09E401FE4
:106EA900900010E0FF900004E4F0A3EFF090000CD4
:106EB900E0FF900007E02FF0900006E03400F0902A
:106EC900000AE0FEA3E0FF900006E0FCA3E0FDC39A
:106ED9009FEC9E503B900004E0FEA3E0FF1235E6D4
:106EE900FB90000CE0900016F0E4A3F0125BDB903D
:106EF900000CE0C313FF900005E02FF0900004E0C0
:106F09003400F090000EE475F0011236A5026E759A
:016F19002255
:1064C8009002D0EEF0A3EFF0A3ECF0A3EDF0A3EB75
:0764D800F0A3EAF0A3E9F0D4
:1064DF009002D4E0FBA3E0FAA3E0F91235E67003D3
:1064EF000265F29002D0E0FAA3E0FBFFAE02C00615
:1064FF00C007A3E0FCA3E0FDEB241FFBE43AFA90F6
:10650F0002D2E0FEA3E0241CFFE43E90006DF0A356
:10651F00EFF0D007D0061275E8E49002D7F09002A2
:10652F00D7E0FFC3941440030265D79002D4E0FB79
:10653F00A3E0FAA3E0F91235E6FE75F076EFA42496
:10654F00F3F582E5F03417F583E4936E70719000E4
:10655F00011235FFFF9002D7E075F076A424F4F511
:10656F0082E5F03417F583E4936F7053FB9002D7F5
:10657F00E075F076A424F5F582E5F03417F583E5A0
:10658F00822BF582E43583F583E493FF9002D8E400
:10659F00F0A3EFF0E4FA9002D9E030E7059002B8EB
:1065AF0080039002BA127DDA9002D9E025E0F090D4
:1065BF0002D8E033F00AEAB408DC0BEBB474AE9007
:1065CF0002D7E004F002652D9002D5E475F00212B7
:1065DF0036A59002D1E02420F09002D0E03400F0F4
:0365EF000264DF64
:0165F2002286
:10639B009001E5EEF0A3EFF0A3ECF0A3EDF0A3EA90
:0463AB00F0A3EBF080
:1063AF00E49001F0F0A3F0A31238990000000090E0
:1063BF0001F6123899000000009001E7E0FCA3E01D
:1063CF00FDA3E0FEA3E0FF9001E5E0FAA3E02FFFBD
:1063DF00EA3ECF24FFFBEF34FFFA9001EBE0FEA380
:1063EF00E0FF9001E7E0F8A3E02FFFE83ECF24FFA6
:1063FF00CF34FF90006DF0A3EFF09001E51275E33D
:10640F009001EBE0FCA3E0FD9001E9E0FEA3E0FFCB
:10641F0012363EEF25E0FFEE33FEE4FCFD9001F671
:10642F0012388D9001F2A3A3E0FEA3E0FDAC062489
:10643F0001FFE43CFE9001EDE0FBA3E0FAA3E0F9DD
:10644F008F828E831235FFFF9001F0E4F0A3EFF0FF
:10645F00E0F8E4F0E89001F0F08D828C831235FFC4
:10646F00FF9001F0E0FEA3E04FFF9001F0EEF0FE91
:10647F00A3EFF0127DDFA3E0FCA3E0FDA3E0FEA3FA
:10648F00E02402FFE43EFEE43DFDE43CFC9001F21B
:10649F0012388D9001F6E0FCA3E0FDA3E0FEA3E02F
:1064AF00FF9001F2E0F8A3E0F9A3E0FAA3E0FBC349
:0864BF0012385350030264324D
:0164C70022B2
:0B7EDC00C2A1D2A3D2A2D2A1C2A32255
:107E3C00C2A1E4FEEFC4131313540124FF92A2EF6A
:0C7E4C0025E0FFC2A1D2A10EEEB408E8B0
:017E58002207
:107CEE00E490002DF0A3F0C2A1FDFC90002EE02543
:107CFE00E0F090002DE033F0D2A1C2A1A2A0E433B7
:107D0E00FFE0F0A3E04FF00DBD00010CED640C4C54
:0A7D1E0070D990002DE0FEA3E0FFF5
:017D28002238
:0758D800EEF0A3EFF07F905A
:0258DF00AB0715
:1058E100C2A1C2A3E4900013F0AF03127E3C90006A
:1058F100147406F0900014E014F0E070F7D2A100E7
:1059010000C2A10000127CEE900013E025E02415F6
:10591100F582E43400F583EEF0A3EFF0900013E09C
:1059210004F0E0C3940A40C1D2A3E4900013F090C4
:105931000013E0FFC3940940030259E6EF04A3F00A
:10594100900014E0FFC3940A40030259DDEF25E003
:105951002415F582E43400F583E0FEA3E0FF900016
:1059610013E0FB25E02415F582E43400F583E0FC27
:10597100A3E0C39FEC9E505BEB25E02415F582E488
:105981003400F583E0FEA3E0FFE4FCFD9000291262
:10599100388D900014E0FA25E02415F582E43400F6
:1059A100F583E0FEA3E0FFEB25E02415F582E43466
:1059B10000F583EEF0A3EFF0900029A3A3E0FEA38E
:1059C100E0FFEA25E02415F582E43400F583EEF0EA
:1059D100A3EFF0900014E004F0025941900013E0AD
:1059E10004F002593090002912389900000000900B
:1059F10000137402F0900029E0F8A3E0F9A3E0FAA3
:105A0100A3E0FB900013E025E02415F582E43400C7
:105A1100F583E0FEA3E0FFE4FCFDEB2FFFEA3EFE91
:105A2100ED39FDEC38FC90002912388D900013E01F
:105A310004F0E0B408BF900029E0FCA3E0FDA3E07E
:105A4100FEA3E0FFE47B06FAF9F8127BB29000298D
:0D5A510012388D900029A3A3E0FEA3E0FF12
:015A5E002225
:10684500127EDC7FD01258DF9000091258D89000D4
:106855000FEEF0A3EFF07FD01258DF90000B125827
:10686500D8AD07AC0690000BE0FEA3E0FF90000951
:10687500E0FAA3E0FBD39FEA9E400AA3A3EB9FFFA8
:10688500EA9EA38017900009E0FEA3E0FFC39000F5
:106895000CE09FFF90000BE09E90000DF0A3EFF041
:1068A50090000FE0FEA3E0FFD39DEE9C4007EF9D17
:1068B500FFEE9C800E90000FE0FEA3E0FFC3ED9F6E
:1068C500FFEC9EA3F0A3EFF0D390000EE09432907E
:1068D500000DE09400500E900012E09432900011EB
:1068E500E0940040037F002290000BE0FEA3E0FF50
:1068F50090000AE02FFF900009E03EC313FEEF135E
:10690500FF90028BEEF0A3EFF0900010E02DFF90CA
:10691500000FE03CC313FEEF13FF90028DEEF0A3D2
:10692500EFF090028CE054F0F090028EE054F0F01D
:10693500C390028CE0946490028BE09400400FD3E6
:1069450090028EE094D890028DE0940E40037F0073
:03695500227F019D
:01695800221C
:10612E00E4900004F0126845EF700302626390027F
:10613E00B7E060030261C990028BE0FEA3E0FFE4CA
:10614E00FCFD90028F12388D90028FE0FCA3E0FDD3
:10615E00A3E0FEA3E02406FFEE34FFFEED34FFFDC8
:10616E00EC34FFFCE47BB4FAF9F8123736E47B74B6
:10617E007A0EF9F81237C190028F12388D90028D77
:10618E00E0FEA3E0FFE4FCFD90029312388D900236
:10619E0093E0FCA3E0FDA3E0FEA3E024A2FFEE3417
:1061AE00FEFEED34FFFDEC34FFFCE47BFAFAF9F869
:1061BE00123736E47BAC7A0D02625090028DE0FE0F
:1061CE00A3E0FFC3E49FFF74109EFEE4FCFDA31248
:1061DE00388D90028FE0FCA3E0FDA3E0FEA3E02447
:1061EE00A2FFEE34FEFEED34FFFDEC34FFFCE47B4B
:1061FE00FAFAF9F8123736E47BAC7A0DF9F8123761
:10620E00C190028F12388D90028BE0FEA3E0FFE466
:10621E00FCFD90029312388D900293E0FCA3E0FDFA
:10622E00A3E0FEA3E02406FFEE34FFFEED34FFFDF7
:10623E00EC34FFFCE47BB4FAF9F8123736E47B74E5
:10624E007A0EF9F81237C190029312388D9000042D
:0F625E007401F08001E4900297F0900004E0FFDB
:01626D00220E
:067893009002F512388D91
:107899009002F5E0FCA3E0FDA3E0FEA3E0FF78136E
:1078A90012387AA3EEF0A3EFF09002F5E0FCA3E022
:1078B900FDA3E0FEA3E0FF780A12387AEF543FFEF9
:1078C900E49002FBF0A3CEF09002F5E0FCA3E0FD0A
:1078D900A3E0FEA3E0FF780312387AEF541FFFE418
:1078E900AD07FC9002FBE0FEA3E07805C333CE337D
:1078F900CED8F9FBAA069002FAE033333354F84A9A
:09790900FEEBFFEE4CFEEF4DFF1A
:017912002252
:047C7600AD07AC06A4
:107C7A007BE77A187E00ED54037803C333CE33CE04
:107C8A00D8F9FFEA4EFAEB4FFB7E00ED541C78065A
:107C9A00C333CE33CED8F9FFEA4EFAEB4FFBED549D
:077CAA00E04AFAEBAE02FF15
:017CB10022B0
:087B2100900317EFF0A3EDF053
:107B2900A312389900000001900318E0FF14F0EF48
:107B39006020A3E0F8A3E0F9A3E0FAA3E0FB900337
:107B490017E0FFE4FCFDFE12373690031912388D59
:107B590080D6900319E0FCA3E0FDA3E0FEA3E0FFBB
:017B690022F9
:107A01009002FD12388D900301E0FCA3E0FDA3E09C
:107A1100FEA3E0FF9002FDE0F8A3E0F9A3E0FAA3E2
:107A2100E0FBD3123869401D900301E0F8A3E0F9AF
:107A3100A3E0FAA3E0FB9002FDE0FCA3E0FDA3E0DC
:107A4100FEA3E0801A9002FDE0F8A3E0F9A3E0FABA
:107A5100A3E0FBA3E0FCA3E0FDA3E0FEA3E0C39B46
:0B7A6100FFEE9AFEED99FDEC98FC2270
:087CB20090031DEEF0A3EFF0BA
:107CBA009002B8E0FFA3E090031FCFF0A3EFF0AF6C
:107CCA00039002B8EAF0A3EFF090031DE0FEA3E0F0
:107CDA00FF127C4C90031FE0FFA3E09002B8CFF0A4
:037CEA00A3EFF015
:017CED002274
:106B5D00900232EEF0A3EFF0A3ECF0A3EDF0A3EA78
:046B6D00F0A3EBF0B6
:106B7100E490023DF0A3F0900236E0FEA3E0FFC3F3
:106B810090023EE09F90023DE09E4003026C53E480
:106B910090023FF0A3F0900238E0FEA3E0FFC39023
:106BA1000240E09F90023FE09E4003026C3F900252
:106BB1003DE0FEA3E0FF900233E02FFF900232E0C0
:106BC1003EFE90023FE0FCA3E0FD900235E02DFD8A
:106BD100900234E03CFC127A6C900241EEF0A3EF9B
:106BE100F090023AE0FCA3E0FDA3E0FB126D4890B7
:106BF1000241EEF0A3EFF090023DE0FEA3E0FF9032
:106C01000233E02FFF900232E03EFE90023FE0FCB3
:106C1100A3E0FD900235E02DFD900234E03CFC90B4
:106C21000241E0FAA3E0FB127B70900240E004F025
:106C31006003026B9790023FE004F0026B979002B1
:106C41003EE004F06003026B7890023DE004F00244
:026C51006B785E
:016C5300221E
:106C5400900055ECF0A3EDF0A3EAF0A3EBF0900064
:066C640053EEF0A3EFF077
:106C6A00C39401EE94004013E024FFFE900053E029
:106C7A0034FF90005DF0A3CEF0800F900053E0FF48
:106C8A00A3E090005DCFF0A3EFF0900055E0FEA3E3
:106C9A00E0FFC39401EE9400400CEF24FFFFEE34B2
:106CAA00FF90005F800B900055E0FFA3E090005F2B
:106CBA00CFF0A3EFF090005FE0FFA3E0900059CF80
:106CCA00F0A3EFF0900056E02402FF900055E03464
:106CDA0000FEC390005AE09F900059E09E505E90DB
:106CEA00005DE0FFA3E090005BCFF0A3EFF090001F
:106CFA0054E02402FD900053E03400FC90005BE075
:106D0A00FEA3E0FFC39DEE9C5023900059E0FCA334
:106D1A00E0FD900057E0FAA3E0FB127B7090005C64
:106D2A00E004F070C990005BE004F080C190005A62
:0D6D3A00E004F0708F900059E004F08087B5
:016D47002229
:0E4BAE00900149EEF0A3EFF0A3ECF0A3EDF0C0
:104BBC00E4900155F0A3F0A3F0A3F0900149E0FEBE
:104BCC00A3E0FFC3EB9FFFEA9E900159F0A3EFF027
:104BDC0090014BE0FAA3E0FBC3900150E09BFE90E8
:104BEC00014FE09A90015BF0A3CEF0900149E0FFF9
:104BFC00A3E0900163CFF0A3EFF0A3EAF0A3EBF0F6
:104C0C00900159E0FEA3E0FFD39400EE6480948001
:104C1C00400A90015FE4F0A304F08021EF4E70088D
:104C2C0090015FF0A3F0801574FF90015FF0A3F08A
:104C3C00C3E49FFFE49E900159F0A3EFF090015B59
:104C4C00E0FEA3E0FFD39400EE64809480400A90D1
:104C5C000161E4F0A304F08021EF4E700890016133
:104C6C00F0A3F0801574FF900161F0A3F0C3E49FF2
:104C7C00FFE49E90015BF0A3EFF090015BE0FEA3DC
:104C8C00E0FF900159E0FCA3E0FDD39FEE6480F8B7
:104C9C00EC64809890015D4007ECF0A3EDF080058A
:104CAC00EEF0A3EFF0E4900153F0A3F090015EE07E
:104CBC002401FF90015DE03400FED3900154E09F8D
:104CCC00900153E09E4003024DA0900163E0FEA3CF
:104CDC00E0FFA3E0FCA3E0FD900151E0FAA3E0FBB0
:104CEC00127B70900159E0FEA3E0FF900156E02F7B
:104CFC00F0900155E03EF090015BE0FEA3E0FF90E8
:104D0C000158E02FF0900157E03EF090015DE0FE7D
:104D1C00A3E0FF900155E0FCA3E0FDD39FEE64807F
:104D2C00F8EC6480984020ED9FFFEC9E900155F0CC
:104D3C00A3EFF090015FE0FEA3E0FF900164E02F91
:104D4C00F0900163E03EF090015DE0FEA3E0FF9087
:104D5C000157E0FCA3E0FDD39FEE6480F8EC648087
:104D6C00984020ED9FFFEC9E900157F0A3EFF09040
:104D7C000161E0FEA3E0FF900166E02FF090016579
:104D8C00E03EF0900154E004F07006900153E00412
:044D9C00F0024CB81D
:014DA00022F0
:103BAE009000EDEEF0A3EFF0A3ECF0A3EDF0A3EA9E
:043BBE00F0A3EBF095
:103BC200E49000FAF0A3F0A3F0A3F09000F5E0FF78
:103BD2007E00C39000EEE09F9000EDE09E50030255
:103BE2003E199000F2E09F9000F1E09E5003023EE9
:103BF200199000EFE0FCA3E0FD9FEC9E5003023E13
:103C0200199000F4E09F9000F3E09E5003023E19E9
:103C12009000F5E070139000EDE0FEA3E0FF90004D
:103C2200F6E0FAA3E0FB027B709000EDE0FAA3E07D
:103C3200FBC39000F2E09BFE9000F1E09A9000FE40
:103C4200F0A3CEF09000EFE0FEA3E0FFC39000F4FB
:103C5200E09FFF9000F3E09E900100F0A3EFF09050
:103C62000108EAF0A3EBF09000EFA3E0FF90010A55
:103C7200EEF0A3EFF09000FEE0FEA3E0FFD394008D
:103C8200EE64809480400A900104E4F0A304F08082
:103C920021EF4E7008900104F0A3F0801574FF909C
:103CA2000104F0A3F0C3E49FFFE49E9000FEF0A3A2
:103CB200EFF0900100E0FEA3E0FFD39400EE6480F9
:103CC2009480400A900106E4F0A304F08021EF4EB4
:103CD2007008900106F0A3F0801574FF900106F0C1
:103CE200A3F0C3E49FFFE49E900100F0A3EFF090E5
:103CF2000100E0FEA3E0FF9000FEE0FCA3E0FDD3A4
:103D02009FEE6480F8EC6480989001024007ECF02A
:103D1200A3EDF08005EEF0A3EFF0E49000F8F0A33D
:103D2200F0900103E02401FF900102E03400FED391
:103D32009000F9E09F9000F8E09E4003023E199047
:103D4200010AE0FCA3E0FD9000F5E0FB7A00A3E0AD
:103D5200FFA3E090000ACFF0A3EFF0900108E0FE8D
:103D6200A3E0FF122EE19000FEE0FEA3E0FF900030
:103D7200FBE02FF09000FAE03EF0900100E0FEA39D
:103D8200E0FF9000FDE02FF09000FCE03EF090019B
:103D920002E0FEA3E0FF9000FAE0FCA3E0FDD39F67
:103DA200EE6480F8EC6480984020ED9FFFEC9E90DA
:103DB20000FAF0A3EFF0900104E0FEA3E0FF90010F
:103DC20009E02FF0900108E03EF0900102E0FEA32E
:103DD200E0FF9000FCE0FCA3E0FDD39FEE6480F8DE
:103DE200EC6480984020ED9FFFEC9E9000FCF0A3D5
:103DF200EFF0900106E0FEA3E0FF90010BE02FF050
:103E020090010AE03EF09000F9E004F070069000A4
:073E1200F8E004F0023D237B
:013E19002286
:0E2B170090010CEEF0A3EFF0A3ECF0A3EDF0B4
:102B2500E4900119F0A3F0A3F0A3F090010CE0FEEE
:102B3500A3E0FFC3EB9FFFEA9E90011DF0A3EFF01A
:102B450090010EE0FAA3E0FBC3900113E09BFE9019
:102B55000112E09A90011FF0A3CEF090010CE0FF66
:102B6500A3E0900127CFF0A3EFF0A3EAF0A3EBF0E9
:102B750090011DE0FEA3E0FFD39400EE64809480F5
:102B8500400A900123E4F0A304F08021EF4E700881
:102B9500900123F0A3F0801574FF900123F0A3F0BA
:102BA500C3E49FFFE49E90011DF0A3EFF090011F89
:102BB500E0FEA3E0FFD39400EE64809480400A9089
:102BC5000125E4F0A304F08021EF4E700890012563
:102BD500F0A3F0801574FF900125F0A3F0C3E49FE6
:102BE500FFE49E90011FF0A3EFF090011FE0FEA30C
:102BF500E0FF90011DE0FCA3E0FDD39FEE6480F8AB
:102C0500EC6480989001214007ECF0A3EDF080057D
:102C1500EEF0A3EFF0E4900117F0A3F0900122E0AD
:102C25002401FF900121E03400FED3900118E09FBC
:102C3500900117E09E4003022EE0900114E0701908
:102C4500900127E0FEA3E0FFA3E0FCA3E0FD9001D7
:102C550015E0FAA3E0FB127B70900114E0640160BB
:102C650003022CEB900127E0FEA3E0FFA3E0FCA309
:102C7500E0FD900115E0FAA3E0FB127B70900128BE
:102C8500E02401FF900127E03400FE900129E0FCDB
:102C9500A3E0FD900115E0FAA3E0FB127B70900123
:102CA50027E0FEA3E0FF90012AE02401FD90012921
:102CB500E03400FC900115E0FAA3E0FB127B709074
:102CC5000128E02401FF900127E03400FE90012A4D
:102CD500E02401FD900129E03400FC900115E0FAA3
:102CE500A3E0FB127B70900114E064026003022EE6
:102CF5002F900127E0FEA3E0FFA3E0FCA3E0FD90F9
:102D05000115E0FAA3E0FB127B70900128E0240195
:102D1500FF900127E03400FE900129E0FCA3E0FDCF
:102D2500900115E0FAA3E0FB127B70900127E0FE0D
:102D3500A3E0FF90012AE02401FD900129E0340081
:102D4500FC900115E0FAA3E0FB127B70900128E0EE
:102D55002401FF900127E03400FE90012AE02401C0
:102D6500FD900129E03400FC900115E0FAA3E0FB99
:102D7500127B70900128E024FFFF900127E034FFCB
:102D8500FE90012AE02401FD900129E03400FC9029
:102D95000115E0FAA3E0FB127B70900128E0240105
:102DA500FF900127E03400FE90012AE024FFFD900A
:102DB5000129E034FFFC900115E0FAA3E0FB127B4A
:102DC50070900128E024FFFF900127E034FFFE907A
:102DD500012AE024FFFD900129E034FFFC90011554
:102DE500E0FAA3E0FB127B70900128E024FFFF903E
:102DF5000127E034FFFE900129E0FCA3E0FD9001EE
:102E050015E0FAA3E0FB127B70900127E0FEA3E03A
:102E1500FF90012AE024FFFD900129E034FFFC909A
:102E25000115E0FAA3E0FB127B7090011DE0FEA303
:102E3500E0FF90011AE02FF0900119E03EF09001BB
:102E45001FE0FEA3E0FF90011CE02FF090011BE0C6
:102E55003EF0900121E0FEA3E0FF900119E0FCA304
:102E6500E0FDD39FEE6480F8EC6480984020ED9FF0
:102E7500FFEC9E900119F0A3EFF0900123E0FEA373
:102E8500E0FF900128E02FF0900127E03EF090014F
:102E950021E0FEA3E0FF90011BE0FCA3E0FDD39F32
:102EA500EE6480F8EC6480984020ED9FFFEC9E90E6
:102EB500011BF0A3EFF0900125E0FEA3E0FF9001D8
:102EC5002AE02FF0900129E03EF0900118E004F08F
:0B2ED5007006900117E004F0022C21B1
:012EE00022CF
:10754D00FAE0FFA3E090002BCFF0A3EFF090001531
:05755D00E0FEA3E0FFC9
:10756200900025EEF0A3EFF0A3ECF0A3EDF0A3EA78
:10757200F0A3EBF04A60699002B1E0FCA3E0FD9059
:107582000025E0FAA3E0FBD39DEA9C50539002B39E
:10759200E0FEA3E0FF900027E0FCA3E0FD9FEC9E4D
:1075A200503EAF03AE02C006C007900029E0FEA322
:1075B200E0FF900027E0F8A3E02FFFE83ECF24FF92
:1075C200CF34FF900035F0A3EFF090002BE0FFA343
:1075D200E0900037CFF0A3EFF0D007D0061271A0F1
:0175E2002286
:10791300900025EEF0A3EFF0A3ECF0A3EDF0EB4A1B
:1079230060689002B1E0FEA3E0FFD3900026E09FE1
:10793300900025E09E50539002B3E0FEA3E0FF9039
:107943000027E0FCA3E0FD9FEC9E503EAE02AF0398
:10795300900025E0FAA3E02FFFEA3ECF24FFFBEFE0
:1079630034FFFAA3E0FFA3E0900035CFF0A3EFF0DC
:1079730090002BE0FFA3E0900037CFF0A3EFF0904F
:0B7983000025E0FEA3E0FF1271A0222F
:105FE700900270EEF0A3EFF0A3ECF0A3EDF0A3EABC
:045FF700F0A3EBF038
:105FFB00A3E07002A3E0700302612D900274E070C5
:10600B0002A3E0700302612D90027BE020E003020B
:10601B0060AAE4A3F0A3F0900274E0FEA3E0FF906B
:10602B00027CE0FCA3E0FDC39FEC9E400302612DCC
:10603B00900271E02DFF900270E03CFEC006C0079D
:10604B00900272E0FCA3E0FD900277E024FFFB904E
:10605B000276E034FFFAC002C00390027DE025E037
:10606B00FF90027CE033FE900278E0FBA3E0FAA302
:10607B00E0F98F828E831236D1FF90002BE5F0F082
:10608B00A3EFF0D003D002D007D0061275629002B6
:10609B007DE004F0708190027CE004F0026022E469
:1060AB0090027CF0A3F0900276E0FEA3E0FF90025A
:1060BB007CE0FCA3E0FDC39FEC9E5066900273E076
:1060CB002DFD900272E03CFC900275E024FFFB90EA
:1060DB000274E034FFFAC002C00390027DE025E0B9
:1060EB00FF90027CE033FE900278E0FBA3E0FAA382
:1060FB00E0F98F828E831236D1FF90002BE5F0F002
:10610B00A3EFF0900270E0FEA3E0FFD003D00212E9
:10611B00791390027DE004F0708C90027CE004F027
:02612B0080846E
:01612D00224F
:06517D0090016712388D5D
:10518300E4900183F0A3F0900167E0FCA3E0FDA3AA
:10519300E0FEA3E0FF781012387A900174EFF0FB81
:1051A300900167E0FCA3E0FDA3E0FEA3E0FF780825
:1051B30012387A900175EFF0FA900167A3A3A3E088
:1051C300FFA907900176E9F090016BE0FCA3E0FDF5
:1051D300A3E0FEA3E0FF781012387AEBFDC3EF9D46
:1051E300FFEE9400900177F0A3EFF090016BE0FCE9
:1051F300A3E0FDA3E0FEA3E0FF780812387AEAFDFE
:10520300C3EF9DFEE49400900179F0A3CEF09001EA
:105213006BA3A3A3E0FFE9FDC3EF9DFEE49400901D
:10522300017BF0A3CEF0E4900183F0A3F090017230
:10523300E0FEA3E0FFC3900184E09F900183E09E22
:105243004003025365E0FAA3E0FB900177E0FEA37D
:10525300E0FFAD03AC0212363E900172E0FCA3E026
:10526300FD123650A3E07C002FFFEC3E90017DF051
:10527300A3EFF0900179E0FEA3E0FFAD03AC0212CF
:10528300363E900172E0FCA3E0FD123650900175AA
:10529300E07C002FFFEC3E90017FF0A3EFF0900144
:1052A3007BE0FEA3E0FFAD03AC0212363E90017239
:1052B300E0FCA3E0FD123650900176E07C002FFF66
:1052C300EC3E900181F0A3EFF090017DE0FEA3E0BE
:1052D3007803CEC313CE13D8F9F0EE90017DF0908E
:1052E300017FE0FEA3E07802CEC313CE13D8F9F01A
:1052F300EE90017FF0900181E0FEA3E07803CEC33E
:1053030013CE13D8F9F0EE900181F090017FE0FE07
:10531300A3E07805C333CE33CED8F9FDAC069001B4
:105323007EE033333354F84CFEEDFF900181E04EC1
:10533300FCA3E04FFDEB25E0FFEA33FE90016FE0B5
:10534300FBA3E0FAA3E0F98F828E83EC8DF0123792
:1053530009900184E004F07006900183E004F002F8
:025363005230C6
:015365002225
:106959009001A1EEF0A3EFF0A3ECF0A3EDF0A3EA10
:04696900F0A3EBF0BC
:10696D009001ADE0FCA3E0FDA3E0FEA3E0FF9001EC
:10697D006B12388D9001B5E0F9A3E0FAA3E0900118
:10698D006FC9F0A3EAF0A3E9F09001A5E0FFA3E041
:10699D00900172CFF0A3EFF09001A9E0FCA3E0FD10
:1069AD00A3E0FEA3E0FF12517DE49001B1F0A3F04E
:1069BD009001A5E0FEA3E0FFC39001B2E09F90011E
:1069CD00B1E09E4003026A64E49001B3F0A3F0903D
:1069DD0001A7E0FEA3E0FFC39001B4E09F9001B3D7
:1069ED00E09E505F9001B1E0FAA3E0FB9001A2E0C0
:1069FD002BFF9001A1E03AFEC006C0079001B3E065
:106A0D00FEA3E0FF9001A4E02FFD9001A3E03EFC6A
:106A1D00EB25E0FFEA33FE9001B5E0FBA3E0FAA31E
:106A2D00E0F98F828E831236D1FBAAF0D007D00603
:106A3D00127B709001B4E004F070949001B3E00407
:106A4D00F0808C9001B2E004F060030269BD90010A
:076A5D00B1E004F00269BD85
:016A6400220F
:107270009002DAEEF0A3EFF0A3ECF0A3EDF0A3EAB6
:10728000F0A3EBF0C0079002E2E0FFA3E090002B38
:10729000CFF0A3EFF0D0071279139002E0E0FEA345
:1072A000E0FF9002DDE02FFF9002DCE03ECF24FF04
:1072B000FDEF34FFFC9002DEE0FAA3E0FB9002E277
:1072C000E0FFA3E090002BCFF0A3EFF09002DAE014
:1072D000FEA3E0FF1279139002DCE0FCA3E0FD9036
:1072E00002E0E0FAA3E0FBA3E0FFA3E090002BCFD5
:1072F000F0A3EFF09002DA12755D9002DEE0FEA3DB
:10730000E0FF9002DBE02FFF9002DAE03ECF24FFA7
:10731000CF34FFFEC0079002DCE0FCA3E0FD90024A
:10732000E0E0FAA3E0FBA3E0FFA3E090002BCFF0A6
:08733000A3EFF0D00702756223
:101C1900900015EEF0A3EFF0A3ECF0A3EDF0A3EA2A
:041C2900F0A3EBF049
:101C2D00E4900023F0A3F090001BE0FEA3E030E071
:101C3D000A2401FFE43E900023800B90001BE0FF7F
:101C4D00A3E0900023CFF0A3EFF090001EE09000F2
:101C5D001D7003021E78E0F975F002A4FFC3900019
:101C6D001AE09FFB900019E095F0FAE9FF9000163D
:101C7D00E02FFF900015E03400FEC007900017E044
:101C8D00FCA3E0FD900023E0C313FFA3E01390003D
:101C9D002BCFF0A3EFF090001FE0FFA3E090002DFD
:101CAD00CFF0A3EFF0D00712771590001DE0F97576
:101CBD00F002A4FFC390001AE09FFB900019E0957D
:101CCD00F0FAE9FF900016E02FFF900015E03400C8
:101CDD00FEC006C007900023E0C313FEA3E013FF70
:101CED00900018E02FFD900017E03EFC900023E0DF
:101CFD00C313FFA3E01390002BCFF0A3EFF09000E0
:101D0D0021E0FFA3E090002DCFF0A3EFF0D007D09E
:101D1D000612771590001DE0F9FB7A00900018E08F
:101D2D002BFD900017E03AFC900023E0C313FEA3B7
:101D3D00E013FFE9F582C3EF9582FFEE940090006A
:101D4D002BF0A3EFF090001F127701900023E0C35A
:101D5D0013FEA3E013FF900018E02FFD900017E095
:101D6D003EFC90001DE0F9FB7A00900023E0C313C8
:101D7D00FEA3E013FFE9F582C3EF9582FFEE940019
:101D8D0090002BF0A3EFF090002112770190001935
:101D9D00E0FEA3E0FF900016E02FFF900015E03E5F
:101DAD00FE90001DE0F9FD7C00C3EF9DFFEE9CFE53
:101DBD00C006C007900018E02DFD900017E03CFC18
:101DCD00E9FB7A00900023E0C313FEA3E013FFE9C3
:101DDD00F582C3EF9582FFEE940090002BF0A3EFF8
:101DED00F090001FE0FFA3E090002DCFF0A3EFF0E7
:101DFD00D007D006127715900019E0FEA3E0FF90F2
:101E0D000016E02FFF900015E03EFE90001DE0F95A
:101E1D00FB7A00C3EF9BFFEE9AFEC006C007900051
:101E2D0023E0C313FEA3E013FF900018E02FFD90F5
:101E3D000017E03EFC900023E0C313FEA3E013FF68
:101E4D00E9F582C3EF9582FFEE940090002BF0A38D
:101E5D00EFF0900021E0FFA3E090002DCFF0A3EF75
:101E6D00F0D007D00612771502202BE0F975F0029D
:101E7D00A4FFC390001AE09FFB900019E095F0FAC3
:101E8D00C003E9FF900016E02FFF900015E034002D
:101E9D00FE900017E0FCA3E0FD90001FE0FBA3E027
:101EAD0090002BCBF0A3EBF0D00312791390001D13
:101EBD00E0F975F002A4FFC390001AE09FFB9000BB
:101ECD0019E095F0FAC002C003E9FF900016E02F6B
:101EDD00FF900015E03400FE900023E0FCA3E0FD30
:101EED00900017E0FAA3E02DFDEA3CCD24FFCD34A0
:101EFD00FFFC900021E0FBA3E090002BCBF0A3EBC7
:101F0D00F0D003D00212791390001DE0FB7A0090FF
:101F1D000018E02BFD900017E03AFC900023E0C381
:101F2D0013FEA3E013C39BFBEE9A90001F12754D99
:101F3D00900023E0FAA3E0FBEAC313FEEB13FF903E
:101F4D000018E02FFD900017E03EFCEAC313FEEBF6
:101F5D0013FF90001DE0FBC3EF9BFBEE9400900080
:101F6D002112754D900019E0FEA3E0FF900016E0E0
:101F7D002FFF900015E03ECF24FFCF34FFFEC006AB
:101F8D00C00790001DE0FB7A00900018E02BFD903B
:101F9D000017E03AFC900023E0C313FEA3E013C347
:101FAD009BFBEE9AFA90001FE0FFA3E090002BCF71
:101FBD00F0A3EFF0D007D006127562900019E0FE85
:101FCD00A3E0FF900016E02FFF900015E03ECF2418
:101FDD00FFCF34FFFEC006C007900023E0FAA3E058
:101FED00FBEAC313FEEB13FF900018E02FFD9000EA
:101FFD0017E03EFCEAC313FEEB13FF90001DE0FB60
:10200D00C3EF9BFBEE9400FA900021E0FFA3E0905C
:10201D00002BCFF0A3EFF0D007D006127562900021
:10202D0017E0FCA3E0FD90001DE0F9FF7E0090009D
:10203D0015E0FAA3E02FFBEE3AFAA3E0F8A3E02FA8
:10204D00FFEE3890002BF0A3EFF0E9FF900015E0C4
:10205D00F8A3E02FFFEE3890002DF0A3EFF0E9FF8D
:10206D00900017E0F8A3E02FFFEE3890002FF0A3BB
:10207D00EFF0E9FFA3EEF0A3EFF090001F12553E35
:10208D00900023E0FEA3E0FF900018E02FFF9000EA
:10209D0017E03EFE90001DE0F9FB7A00C3EF9BFDBB
:1020AD00EE9AFC900015E0FEA3E02BFBEA3EFA90C1
:1020BD000023E0FEA3E0FF900017E0F8A3E02FFF60
:1020CD00E83ECF24FFCF34FF90002BF0A3EFF0E9D3
:1020DD00FF7E00900015E0F8A3E02FFFEE38900092
:1020ED002DF0A3EFF0900023E0FEA3E0FF9000178A
:1020FD00E0F8A3E02FFFE83EFEE9F582C3EF9582FD
:10210D00FFEE9400CF24FFCF34FF90002FF0A3EF0C
:10211D00F0E9FFA3E4F0A3EFF090002112553E90FB
:10212D000019E0FEA3E0FF900016E02FFB900015D4
:10213D00E03EFA90001DE0F9FFC3EB9FFFEA94002B
:10214D00FEC006C007900017E0FCA3E0FDE9FF7E8E
:10215D0000900017E0F8A3E02FFFEE3890002BF071
:10216D00A3EFF0900019E0FEA3E0FF900015E0F85A
:10217D00A3E02FFFE83EFEE9F582C3EF9582FFEE67
:10218D009400CF24FFCF34FF90002DF0A3EFF0E9A2
:10219D00FF7E00900017E0F8A3E02FFFEE389000CF
:1021AD002FF0A3EFF0E9FFA3EEF0A3EFF090001FE7
:1021BD00E0FFA3E0900033CFF0A3EFF090001EE01E
:1021CD00900035F0D007D00612555A900019E0FE58
:1021DD00A3E0FF900016E02FFF900015E03EFE906B
:1021ED00001DE0F9FDC3EF9DFFEE9400FEC006C09B
:1021FD0007900023E0FEA3E0FF900018E02FFF9072
:10220D000017E03EFEC3EF9DFDEE9400FC9000191B
:10221D00E0FEA3E0FF900015E0FAA3E02FFBEA3EFD
:10222D00FA900023E0FEA3E0FF900017E0F8A3E092
:10223D002FFFE83ECF24FFCF34FF90002BF0A3EF0C
:10224D00F0900019E0FEA3E0FF900015E0F8A3E088
:10225D002FFFE83EFEE9F582C3EF9582FFEE940075
:10226D00CF24FFCF34FF90002DF0A3EFF09000238B
:10227D00E0FEA3E0FF900017E0F8A3E02FFFE83E9B
:10228D00FEE9F582C3EF9582FFEE9400CF24FFCFD8
:10229D0034FF90002FF0A3EFF0E9FFA3E4F0A3EFDC
:1022AD00F0900021E0FFA3E0900033CFF0A3EFF01A
:0F22BD0090001EE0900035F0D007D00602555A71
:10770100E0FFA3E090002DCFF0A3EFF0900015E093
:04771100FEA3E0FFF4
:10771500900025EEF0A3EFF0A3ECF0A3EDF0EB4A1B
:10772500606390002BE07002A3E06059900027E0B1
:10773500FCA3E0FDAE02AF03900025E0FAA3E02F25
:10774500FFEA3ECF24FFFBEF34FFFA90002BE0FE6B
:10775500A3E0FF900027E0F8A3E02FFFE83ECF2449
:10776500FFCF34FF900035F0A3EFF090002DE0FF40
:10777500A3E0900037CFF0A3EFF0900025E0FEA343
:06778500E0FF1271A022DA
:102EE100900004EEF0A3EFF0A3ECF0A3EDF0A3EA61
:042EF100F0A3EBF06F
:102EF500900008E0FEA3E0FF7C027DC31238CAE41F
:102F05007BE87A03F9F81237C1EF2401FFE43EFEAE
:102F1500E43DFDE43CFC90001012388D900008E083
:102F2500FEA3E0FF900008E0FCA3E0FD1238CAC054
:102F350004C005C006C007900008E0FEA3E0FFE45A
:102F4500FCFD7B02FAF9F81237C1D003D002D0019B
:102F5500D000EB2FFFEA3EFEE93DFDE83CFC90008A
:102F65001412388D900008E0FAA3E0FBFFAE02E4EE
:102F7500FCFD90001812388DC3900005E09BFF9072
:102F85000004E09AFEC007900006E0FCA3E0FD9077
:102F95000009E025E0FB900008E033FA90000AE024
:102FA500FFA3E090002BCFF0A3EFF0D00712791329
:102FB50090000C12389900000001900010E0FCA36D
:102FC500E0FDA3E0FEA3E0FF90000CE0F8A3E0F92C
:102FD500A3E0FAA3E0FBD3123869400302328090E4
:102FE5000018E0FCA3E0FDA3E0FEA3E0FFA804A910
:102FF50005AA06FB123736C004C005C006C00790F7
:10300500000CE0FCA3E0FDA3E0FEA3E0FFA804A9FB
:1030150005AA06FB123736D003D002D001D000EF47
:103025002BFFEE3AFEED39FDEC38FC900014E0F88C
:10303500A3E0F9A3E0FAA3E0FBC312386940030259
:103045003189900010E0FCA3E0FDA3E0FEA3E0FFC2
:10305500900018E0F8A3E0F9A3E0FAA3E0FB12382A
:1030650069500302316790000CA3A3E0FEA3E0FFC3
:10307500900005E09FFF900004E09ECF2401CF342F
:1030850000FEC006C007900018A3A3E0FEA3E0FF62
:10309500900007E02FFD900006E03EFCC004C0054F
:1030A50090000CE0FCA3E0FDA3E0FEA3E024FFFFFD
:1030B500EE34FFFEED34FFFDEC34FFFCE47B02FA59
:1030C500F9F8123736AB07AA0690000AE0FFA3E02D
:1030D50090002BCFF0A3EFF0D005D004D007D00699
:1030E50012791390000CA3A3E0FEA3E0FFC39000A8
:1030F50005E09FFF900004E09ECF2401CF3400FE41
:10310500C006C007900018A3A3E0FEA3E0FFC3908C
:103115000007E09FFD900006E09EFCC004C00590FE
:10312500000CE0FCA3E0FDA3E0FEA3E024FFFFEE1E
