:05034C00344310100114
:030351000108019F
:0B034100C292D293C297D294D2A022A5
:070300007F201203237F960A
:10030700E4FEEEC39F500B7DFADDFE7DFADDFE0EA7
:0203170080F074
:0103190022C1
:1002DE00E4FEEEC39408748094805015EF3392912F
:1002EE00EF25E0FFD297A296E4334207C2970E8025
:0102FE00E11E
:0102FF0022DC
:09031A007D017F211203237F22E3
:10032300C2931202DEAC07AF051202DED293AF0412
:0103330022A7
:0C033400C2931202DEE4FF1202DED2933C
:01034000229A
:060236008B138A148915E8
:10023C00C2931202DEAD07E4FCECC395165017E432
:10024C00FF1202DEAB13AA14A9158C82758300EF82
:0A025C0012011C0C80E3D293AF05E1
:010266002275
:0B01C5007BFF7A03794C7516057F2A3A
:0601D0008B138A1489154F
:1001D600C2931202DEAD07E4FCECC395165015ABD4
:1001E60013AA14A9158C827583001200EFFF120260
:0801F600DE0C80E5D293AF0599
:0101FE0022DE
:1002B900C2921201C512031A7D287F251203237DDC
:1002C900047F311203237D077F261203237D0F123A
:0502D9000300D2922297
:10013E008B178A188919C2927BFF7A03794C751630
:10014E00057F301201D01201C5AB17AA18A9197577
:10015E0016047FA01201D012031A7D0A7F24120307
:10016E00237D287F251203237D077F261203237DFF
:07017E000E120300D29222D1
:100292002094FD7FFF1202DE8F2030040830080513
:1002A2007FE11202DEAD207F27120323D2943005B4
:0702B200037F00227FFF2201
:10018500E5B020E03A7F14120307E5B020E030E542
:1001950008F4F50E7B007A00790E12013EC20812B2
:1001A50002927FFA120307120307D2A01202B9E5E1
:1001B500B030E0FBE50825E0F5087003750801227D
:02026700A907E5
:10026900E4FFEFC394C874809480501CB295E4FEF7
:10027900E9FD3395E0FCEEC39DEC6480F874809849
:0802890050030E80EB0F80DA38
:01029100224A
:1001FF00AC0775A0FE7FC2120307E4FCECFF33953A
:10020F00E0FEC3EF9408EE648094805016A8047447
:10021F0001088002C333D8FCF4F5A07FC212030794
:07022F000C80D975A0FF222D
:10008F001203411202B97F071203348F2030061179
:10009F007B007A00790A7516047F611202367509A2
:1000AF0001AD207F27120323E50960DAE50A640119
:1000BF0070057F021201FFE50A640270147F1E12A1
:1000CF0002677F321202677F501202677F6412024B
:1000DF0067E4F5097FFA120307120307D2A080A67F
:03000000020003F8
:0C000300787FE4F6D8FD75812102004AE8
:1000EF00BB010CE58229F582E5833AF583E02250C6
:1000FF0006E92582F8E622BBFE06E92582F8E22210
:0D010F00E58229F582E5833AF583E4932229
:10011C00F8BB010DE58229F582E5833AF583E8F019
:10012C00225006E92582C8F622BBFE05E92582C8C5
:02013C00F222AD
:10000F0002008FE493A3F8E493A34003F68001F278
:10001F0008DFF48029E493A3F85407240CC8C333F2
:10002F00C4540F4420C8834004F456800146F6DFC1
:10003F00E4800B0102040810204080900351E47EFD
:10004F00019360BCA3FF543F30E509541FFEE493B6
:10005F00A360010ECF54C025E060A840B8E493A37D
:10006F00FAE493A3F8E493A3C8C582C8CAC583CAA8
:10007F00F0A3C8C582C8CAC583CADFE9DEE780BE60
:0103540000A8
:00000001FF
