:1087FF0054656D703A005E4300BCECB2E2B5C4CE76
:10880F00C2B6C8CEAAA3BA2D00BCECB2E2B5C4CE94
:10881F00C2B6C8CEAAA3BA2000252E3266A1E34362
:10882F000D0A0054656D7065726174757265205420
:10883F006573740044533138423230204572726F81
:10884F0072210020202020202020202020202020E6
:05885F00202020200094
:108B76004C0239007800640050003C002800144282
:108B86000231002342023300A542023500004202B0
:038B9600370000A5
:103BF600900013EAF0A3EBF090000FEEF0A3EFF0C5
:063C0600A3ECF0A3EDF0B9
:103C0C00E490001BF0900015E0FAA3E0FB90002C70
:103C1C0074A5F0A37435F01280C990000FE0FEA3D8
:103C2C00E0FFA3E0FCA3E0FDA3E0FAA3E0FB90001F
:103C3C002C74A5F0A37435F01286A6900010E02425
:103C4C0001FF90000FE03400FE900012E02401FD13
:103C5C00900011E03400FC900016E024FEFB900074
:103C6C0015E034FFFA90002C7484F0A37431F01238
:103C7C0080C9900010E02401FF90000FE03400FE9A
:103C8C00900012E02401FD900011E03400FC900043
:103C9C0014E024FEFB900013E034FFFA90002C7427
:103CAC0084F0A37431F01286A6900013E0FEA3E01A
:103CBC00FF900010E02FFF90000FE03ECF24FFCFCD
:103CCC0034FFFE900011E0FCA3E0FD900015E0FA3B
:103CDC00A3E0FB74FF90002CF0A3F01280C99000BD
:103CEC000FE0FEA3E0FF900015E0FCA3E0FD9000C8
:103CFC0012E02DFD900011E03CCD24FFCD34FFFCF3
:103D0C00900013E0FAA3E0FB74FF90002CF0A3F0FA
:103D1C001286A6900013E0FEA3E0FF900010E02FA7
:103D2C00FF90000FE03ECF24FECF34FFFE90001238
:103D3C00E02401FD900011E03400FC900016E0241A
:103D4C00FEFB900015E034FFFA90002C74DEF0A31B
:103D5C0074FCF01280C9900010E02401FF90000F59
:103D6C00E03400FE900015E0FCA3E0FD900012E0B2
:103D7C002DFD900011E03CCD24FECD34FFFC9000D5
:103D8C0014E024FEFB900013E034FFFA90002C7436
:103D9C00DEF0A374FCF01286A6900010E02402FF63
:103DAC0090000FE03400FEC006C007900012E02423
:103DBC0002FD900011E03400FC900014E024FDFBA7
:103DCC00900013E034FFFA900015E0FEA3E024FD10
:103DDC00FFEE34FF90002CF0A3EFF0900019E0FF01
:103DEC00A3E090002ECFF0A3EFF0D007D006128303
:103DFC009A900010E0241EFF90000FE03400FEC0EB
:103E0C0006C007900012E02405FD900011E034007C
:103E1C00FC900014E024DDFB900013E034FFFA90DA
:103E2C000015E0FEA3E024F6FFEE34FF90002CF02A
:103E3C00A3EFF0900017E0FFA3E090002ECFF0A3CB
:103E4C00EFF0D007D00612839AE490001BF090009C
:103E5C001BE0FFC39406504BEF75F014A4FF9000C9
:103E6C0010E0241EFD90000FE03400CD2FFFED3547
:103E7C00F0FE900012E02405FD900011E03400FCEF
:103E8C00900016E024F6FB900015E034FFFA900049
:103E9C002C7484F0A37430F01280C990001BE004E1
:103EAC00F080ABE490001BF090001BE0FFC3940685
:103EBC00504AEF75F014A4FF900012E02405FD9019
:103ECC000011E03400CD2FCD35F0FC900010E02433
:103EDC001EFF90000FE03400FE900014E024DDFB88
:103EEC00900013E034FFFA90002C7484F0A374302B
:0C3EFC00F01286A690001BE004F080ACE1
:013F08002296
:10714300900019EEF0A3EFF0A3ECF0A3EDF0A3EAA7
:04715300F0A3EBF0CA
:10715700E4900025F0EF241EFFE43EFEC006C007C2
:10716700ED2405FDE43CFCEB24DDFBEA34FFFA905B
:10717700001FE0FEA3E024F6FFEE34FF90002CF0A2
:10718700A3EFF0900021E0FFA3E090002ECFF0A343
:10719700EFF0D007D00612839AE4900025F0900014
:1071A70025E0FFC39406504BEF75F014A4FF900041
:1071B7001AE0241EFD900019E03400CD2FFFED35B5
:1071C700F0FE90001CE02405FD90001BE03400FC5D
:1071D700900020E024F6FB90001FE034FFFA9000B7
:1071E7002C7484F0A37430F01280C9900025E00459
:1071F700F080ABE4900025F0900025E0FFC39406F3
:10720700504AEF75F014A4FF90001CE02405FD9090
:10721700001BE03400CD2FCD35F0FC90001AE024A0
:107227001EFF900019E03400FE90001EE024DDFBF5
:1072370090001DE034FFFA90002C7484F0A37430A2
:0C724700F01286A6900025E004F080AC58
:017253002218
:0B84100090000FEBF0A3EAF0A3E9F0EE
:10841B00E4A3F0F090000FE0FBA3E0FAA3E0F9A3D4
:10842B00E0FD75F002A4F58285F0831222D8FFAE31
:10843B00F074132DF9E43400FA7B01127D2D9000BA
:10844B0012E0F975F014A4242DFDE435F0FC900036
:10845B0020E4F0A3740AF0A3E4F0A3741FF0A37458
:10846B000CF0741329F9E43400FAA37401F0A3EAB5
:10847B00F0A3E9F07B237A007F057E001268DF9082
:0B848B000012E004F0E0C394064089FA
:0184960022C3
:1073600090000FEEF0A3EFF0A3ECF0A3EDF0A3EA92
:04737000F0A3EBF0AB
:10737400900233E0FCA3E0FD900017E0FAA3E0FBE9
:1073840090000FE0F8A3E02BFBE83AFA900013E03A
:10739400FEA3E0FF900011E0F8A3E0C39FFFE89E86
:1073A40090001FF0A3EFF0A37401F0900015E0FF2C
:1073B400A3E0900022CFF0A3EFF0900231E0FEA30F
:1073C400E0FF12348C900017E0FAA3E0FB90001069
:1073D400E02BFE90000FE03A900231F0A3CEF09043
:1073E4000013E0FEA3E0FFC3900012E09FFF9000B3
:1073F40011E09E900233F0A3EFF0D3EB947DEA9476
:1074040000500E900014E09478900013E094004033
:1074140044900231E4F0A37423F0900013E0FEA33F
:10742400E0FFC374A59F900234F0E49E900233F011
:1074340090001FE4F0A37482F0E4A3F0A3F0A3741B
:1074440084F0A37430F07BA07A007D287C007F0553
:057454007E00127143EF
:017459002210
:1053EC00900013EAF0A3EBF090000FEEF0A3EFF0B7
:1053FC00A3ECF0A3EDF0900015E0FAA3E0FB900015
:10540C002C74A5F0A37435F01280C990000FE0FE47
:10541C00A3E0FFA3E0FCA3E0FDA3E0FAA3E0FB9074
:10542C00002C74A5F0A37435F01286A6900010E041
:10543C002401FF90000FE03400FE900012E02401E4
:10544C00FD900011E03400FC900016E024FEFB906F
:10545C000015E034FFFA90002C7484F0A37431F042
:10546C001280C9900010E02401FF90000FE034007E
:10547C00FE900012E02401FD900011E03400FC903D
:10548C000014E024FEFB900013E034FFFA90002C93
:10549C007484F0A37431F01286A6900013E0FEA37E
:1054AC00E0FF900010E02FFF90000FE03ECF24FFB4
:1054BC00CF34FFFE900011E0FCA3E0FD900015E05E
:1054CC00FAA3E0FB74FF90002CF0A3F01280C990BB
:1054DC00000FE0FEA3E0FF900015E0FCA3E0FD90C0
:1054EC000012E02DFD900011E03CCD24FFCD34FFE7
:1054FC00FC900013E0FAA3E0FB74FF90002CF0A3E7
:10550C00F01286A6900013E0FEA3E0FF900010E0DE
:10551C002FFF90000FE03ECF24FECF34FFFE900013
:10552C0012E02401FD900011E03400FC900016E024
:10553C0024FEFB900015E034FFFA90002C74DEF092
:10554C00A374FCF01280C9900010E02401FF9000BD
:10555C000FE03400FE900015E0FCA3E0FD9000127B
:10556C00E02DFD900011E03CCD24FECD34FFFC90ED
:10557C000014E024FEFB900013E034FFFA90002CA2
:10558C0074DEF0A374FCF01286A6900010E02402E6
:10559C00FF90000FE03400FEC006C007900012E040
:1055AC002402FD900011E03400FC900014E024FD76
:1055BC00FB900013E034FFFA900015E0FEA3E0240A
:1055CC00FDFFEE34FF90002CF0A3EFF0900017E0FD
:1055DC00FFA3E090002ECFF0A3EFF0D007D006028F
:0255EC00839AA0
:0884970090000FEEF0A3EFF0DE
:10849F00900323E0FFA3E0900235CFF0A3EFF0901D
:1084AF000017E0FFA3E0900323CFF0A3EFF09000BD
:1084BF000FE0FEA3E0FFC002C003900015E0FBA396
:1084CF00E0900025CBF0A3EBF0900019E0FBA3E0C8
:1084DF00900027CBF0A3EBF090001BE0900029F069
:1084EF0090001CE0F9A3E0FAA3E090002AC9F0A3E2
:1084FF00EAF0A3E9F0E4A3F0D003D002126793905F
:0E850F000235E0FFA3E0900323CFF0A3EFF0CE
:01851D00223B
:08826C009002BDEEF0A3EFF05B
:10827400900323E0FFA3E0900237CFF0A3EFF09048
:1082840002C2E0FFA3E0900323CFF0A3EFF090023B
:10829400BEE02404FF9002BDE03400FEC006C00727
:1082A400ED2403FDE43CFCC004C0059002C4E0FFDF
:1082B400A3E09002B2CFF0A3EFF09002C6E09002E8
:1082C400B4F09002C7E0FCA3E0FDA3E0FEA3E0FF4E
:1082D4009002B51224A2E49002B9F0D005D004D0E3
:1082E40007D006126155900237E0FFA3E090032304
:0582F400CFF0A3EFF044
:0182F9002262
:103F0900E4900000F0900005F0A3F090000DF0A3FC
:103F1900F01281DC90032174FFF0A374E0F09003A8
:103F29001CE0FFA3E0900015CFF0A3EFF0A37410FD
:103F3900F0A374FFF0A37487F0A374FFF090031A41
:103F4900E0FAA3E0FB7DB47C007F0A7E0012782AA8
:103F590090031CE0FFA3E0900015CFF0A3EFF0A3BE
:103F69007410F0A374FFF0A37488F0A37405F090A3
:103F7900031AE0FAA3E0FB7DB47C007F757E001292
:103F8900782A900015E4F0A37414F074FFA3F0A349
:103F9900F07B3C7A007DB47C007F377E001253ECC5
:103FA900900015E4F0A37482F0E4A3F0A3F0A374E5
:103FB90084F0A37430F07BA07A007D287C007F0513
:103FC9007E00123BF67B017A027939128410900047
:103FD90000E004F0E075F00A84E5F0600302417145
:103FE900B2B690000EE004F0700690000DE004F007
:103FF9001281DC9000011224A2E4FFFEFDFC900076
:1040090001E0F8A3E0F9A3E0FAA3E0FB121D1F7B8E
:10401900FF50067A88790880047A887918122C70FA
:104029007BFF7A887928900001E0FCA3E0FDA3E0FA
:10403900FEA3E0FF9000121224A2122C709000013E
:10404900E0FCA3E0FDA3E0FEA3E0FF121DCA90007F
:1040590005EEF0FAA3EFF0FB9000157407F0A374D6
:10406900E0F090000DE0FFA3E0900017CFF0A3EF80
:10407900F07DA57C007F237E00127360D390000E33
:10408900E0947D90000DE094004004E4F0A3F0E496
:10409900FFFE7D207C41900001E0F8A3E0F9A3E058
:1040A900FAA3E0FB121C19121DCAAB07AA067C036E
:1040B9007DE8122221EF2430900007F07C037DE88F
:1040C900AF03AE021222217E007F64CFCDCFCECCCA
:1040D900CE122221EF2430A3F07C037DE8AF03AE9A
:1040E900021222217E007F64CFCDCFCECCCE122208
:1040F900217E007F0ACFCDCFCECCCE122221EF2454
:1041090030A3F0A3742EF0AE02AF037C037DE81256
:1041190022217E007F64CFCDCFCECCCE1222217E4C
:10412900007F0ACFCDCFCECCCE122221ED2430A3F1
:10413900F0E4A3F0900015F0A37414F074FFA3F059
:10414900A3F0A3E4F0A3741FF0A37410F0A3740107
:10415900F0A37400F0A37407F07B3C7A007DB47C73
:10416900007F377E001284977F0A7E00128C9F029F
:024179003FD72E
:107EB500128D1012465890032174F8F0A3E4F09047
:107EC500031CE0FFA3E0900015CFF0A3EFF0A3742F
:107ED50010F0A374FFF0A37488F0A37432F090033C
:107EE5001AE0FAA3E0FB7D0A802F128D9DEF603426
:107EF50090031CE0FFA3E0900015CFF0A3EFF0A3E3
:107F05007410F0A374FFF0A37488F0A37443F09089
:107F1500031AE0FAA3E0FB7D1E7C007F0A7E0012B7
:107F2500782A80C690031CE0FFA3E0900015CFF0EF
:107F3500A3EFF0A37410F0A374FFF0A37488F0A36B
:107F45007452F090031AE0FAA3E0FB7D1E7C007FDB
:0B7F55000A7E0012782A123F0980FE0D
:0B8D8700EF1FAC0670011E4C70F622BE
:0E8D5D00EF1FAC0670011E4C60030080F32275
:108C9F00D3EF9400EE940040147D6E7C00ED1D70B8
:0D8CAF00011CED4C70F7EF1F70E61E80E316
:018CBC002295
:058B99004200B00000E5
:108D1000759850758920758780758DFA858D8BD2F1
:068D2000AFD28ED29922B1
:068DA400EF24FF92AC2257
:0E8D6B00C2ACC2998F993099FDC299D2AC2248
:108BA900900399EBF0A3EAF0A3E9F0900399E0FBB5
:108BB900A3E0FAA3E0F9122195FF6016128D6B7FED
:108BC900057E00128D8790039AE475F0011222AC9C
:038BD90080D9221E
:0300230002851E35
:10851E00C0E0C083C082C0D075D000C004C005C00A
:01852E000745
:10852F00309864C298AF999000B0E0FCEC20E75708
:10853F0030E60FEF640A9000B060028046E044809E
:10854F00800AEFB40D0C9000B0E04440F0A3E0F0CF
:10855F0080359000B0E0543FFCA3E0247EF5827498
:10856F00003CF583EFF09000B1E004F0700690004E
:10857F00B0E004F0D39000B1E094319000B0E094FB
:07858F00004004E4F0A3F03A
:0F859600D007D005D004D0D0D082D083D0E0322F
:108D3B00C2B77F4B7E00128D87D2B77F017E0002B8
:028D4B008D8712
:1088C900E4900015F030B715900015E0C394C85036
:1088D9000CE004F07F017E00128D5D80E8900015A8
:1088E900E0C394C840037F0122E4900015F020B74B
:1088F90015900015E0C394F0500CE004F07F017E60
:1089090000128D5D80E8900015E0C394F040037F6C
:0489190001227F00B8
:01891D002237
:108C7C007D08C2B7D2B7A2B7E433C43333335480C0
:108C8C00FCEEC3134CFE7F04AC071FEC70FADDE264
:028C9C00AF0621
:018C9E0022B3
:108CDA00E4FDC2B7EF1392B77E06AC061EEC70FA3B
:0B8CEA00D2B7EFC313FF0DEDB408E795
:018CF500225C
:108D4D00128D3B1288C97FCC128CDA7F44028CDAEB
:078D9D00128D3B1288C92270
:1081DC00128D4D128D3B1288C97FCC128CDA7FBE6A
:1081EC00128CDA128C7CAB07128C7C90000FE4F0B2
:1081FC00A3EFF0E0FEAD037C00E42DFFEC3EFE901F
:10820C00000FF0A3EFF0EE54F8FEEE90000FB4F870
:10821C0027E0FEA3E0F4FFEEF4FEEF2401FFE43EC2
:10822C00FE90000FF0A3EFF0FDAC06E4121D91E4FC
:10823C00FBFA798078BD8010E0FCA3E0FDE4121D10
:10824C0091E4FBFA7980783D121C199000111224EC
:0F825C00A2900011E0FCA3E0FDA3E0FEA3E0FF71
:01826B0022F0
:10002600204C43442049443A25780D0A000000003C
:10003600000000000000000000000000003F40003B
:1000460000000000000000300040003000400000CA
:100056000009000BC03D000BC03D00090018C0247C
:10006600407FE0224031800000180024C01B000DB4
:10007600803240018003801C4027401C80074000DE
:1000860040100060000000000000000000000000BA
:100096000000001F80204040200000402020401F1C
:1000A6008000000000090006001F8006000900000D
:1000B60000040004003F800400040000000010005B
:1000C60060000000000000000004000400040004BA
:1000D60000040000000000004000000000000000D6
:1000E60000002001C006003800400000001F8020EC
:1000F60040204020401F800000000010403FC0000C
:10010600400000000018C021402240244018400052
:100116000010802040244024401B80000002000D77
:100126000011003FC0014000003C802440244024D0
:1001360040238000001F8024402440344003800078
:10014600003000200027C03800200000001B80245B
:1001560040244024401B8000001C0022C022402274
:10016600401F800000000000000840000000000062
:100176000000000000046000000000000000000411
:10018600000A00110020804040090009000900090A
:10019600000900000000004040208011000A000411
:1001A600001800200023402400180000001F8020B3
:1001B60040274029401F400000004007C039000F7B
:1001C6000001C0004020403FC0244024401B800066
:1001D600001F802040204020403080000020403F0B
:1001E600C0204020401F80000020403FC024402EF9
:1001F6004030C0000020403FC024402E00300000A8
:10020600000F001080204022403380020020403F33
:10021600C0040004003FC02040204020403FC020D2
:1002260040204000000060202020203FC020002009
:100236000020403FC024400B0030C0204020403FFB
:10024600C020400040004000C03FC03C0003C03C0E
:10025600003FC0000020403FC00C4023003FC020AC
:10026600001F802040204020401F80000020403F8B
:10027600C024402400180000001F80214021402097
:10028600E01FA0000020403FC02440260019C00007
:100296004018C02440244022403180000030002015
:1002A600403FC020403000000020003F800040005A
:1002B600403F80200020003E0001C007003800209B
:1002C60000380007C03C0007C03800000020403955
:1002D600C0060039C0204000002000384007C03862
:1002E6004020000000304021C02640384020C00099
:1002F60000000000007FE040204020000000007069
:10030600000C000380004000000000402040207FD9
:10031600E000000000000020004000200000000077
:100326000000100010001000100010001000000067
:1003360000400000000000000000000280054005AB
:100346004003C0004020003FC0044004400380003A
:100356000000000380044004400640000000000343
:1003660080044024403FC000400000038005400553
:100376004003400000000004401FC02440244020E9
:1003860000000002E0055005500650042020403FC2
:10039600C00440040003C000400000044027C00021
:1003A600400000000000100010041027E0000000CC
:1003B6000020403FC00140070004C0044020402008
:1003C600403FC000400040000007C0040007C004D2
:1003D6000003C00000044007C00440040003C0003E
:1003E600400000038004400440038000000410071E
:1003F600F004500440038000000000038004400421
:100406005007F00010044007C0024004000400003A
:1004160000000006400540054004C000000000043E
:10042600001F8004400040000004000780004004D4
:100436004007C000400400070004C0018006000415
:1004460000060001C0070001C006000000044006C7
:10045600C0010006C0044000000410071004E001BB
:1004660080060004000000044005C0064004400069
:10047600000000000004007BE040200000000000B7
:10048600000000FFF000000000000040207BE004B8
:1004960000000000004000800040002000200040D6
:1004A6000000000000000000000000000000000046
:1004B600000000000000001FCC000C00000000003F
:1004C60000000008003000600008003000600000F6
:1004D60000022003FC1E20022003FC1E2002200036
:1004E6000000000E1811043FFF10840C7800000075
:1004F600000F0010840F3800C007781884007800B9
:100506000000780F8410C411240E9800E4008400C3
:1005160008080068007000000000000000000000ED
:100526000000000000000007E01818200440020048
:1005360000000040022004181807E0000000000038
:10054600000240024001800FF0018002400240009C
:10055600000080008000800FF8008000800080008E
:10056600000001000D000E00000000000000000069
:100576000000000080008000800080008000800075
:10058600800000000C000C000000000000000000CD
:100596000000000006001800600180060018002018
:1005A60000000007F0080810041004080807F0000F
:1005B600000000080408041FFC00040004000000FA
:1005C6000000000E0C10141024104411840E0C00B0
:1005D6000000000C1810041104110412880C70009D
:1005E60000000000E00320042408241FFC0024006F
:1005F6000000001F98108411041104108810700068
:1006060000000007F0088811041104188800700023
:100616000000001C00100010FC13001C001000005D
:100626000000000E3811441084108411440E380066
:100636000000000700088C10441044088807F000EA
:1006460000000000000000030C030C000000000086
:10065600000000000000010106000000000000008C
:100666000000000080014002200410080810040069
:100676000002200220022002200220022002200086
:100686000000001004080804100220014000800049
:100696000000000E001200100C106C10800F0000FD
:1006A6000003E00C1813E4142417C4082807D0002C
:1006B600000004003C03C41C40074000E4001C008A
:1006C6000410041FFC1104110411040E88007000AC
:1006D6000003E00C1810041004100410081C10008D
:1006E6000010041FFC100410041004080807F00092
:1006F6000010041FFC1104110417C410040818008C
:100706000010041FFC1104110017C010000800009F
:100716000003E00C181004100410441C780040007C
:100726000010041FFC10840080008010841FFC1041
:10073600040000100410041FFC1004100400000044
:100746000000030001100110011FFE100010000040
:100756000010041FFC110403801464181C1004000C
:100766000010041FFC1004000400040004000C0028
:100776000010041FFC1F0000FC1F001FFC100400DB
:100786000010041FFC0C04030000E010181FFC10EE
:100796000007F00808100410041004080807F00009
:1007A6000010041FFC10841080108010800F0000C1
:1007B6000007F0081810241024101C080A07F2007D
:1007C6000010041FFC1104110011C011300E0C00A2
:1007D6000400000E1C11041084108410441C380000
:1007E600001800100010041FFC1004100018000070
:1007F6000010001FF810040004000410041FF81075
:100806000010001E0011E0001C007013801C001078
:10081600001FC0103C00E01F0000E0103C1FC0009D
:10082600001004180C163401C001C01634180C1040
:100836000410001C00130400FC13041C001000002C
:10084600000804101C1064108413041C0410180003
:10085600000000000000007FFE400240024002004F
:1008660000000030000C0003800060001C00030044
:100876000000004002400240027FFE00000000002F
:100886000000000000200040004000400020000062
:10089600000001000100010001000100010001004B
:1008A60001000040004000200000000000000000A1
:1008B6000000000098012401440144014400FC00AA
:1008C6000410001FFC008801040104008800700069
:1008D6000000000070008801040104010400880083
:1008E600000000007000880104010411081FFC00CC
:1008F60004000000F8014401440144014400C8001A
:10090600000000010401040FFC1104110411001879
:1009160000000000D601290129012901C9010600AC
:100926000010041FFC008401000100010400FC000B
:100936000400000104190419FC000400040000006E
:10094600000000000300010101190119FE0000006A
:100956000010041FFC0024004001B4010C01040037
:10096600000000100410041FFC0004000400000036
:1009760000010401FC0104010001FC010401000066
:10098600FC010401FC008401000100010400FC00DC
:1009960004000000F8010401040104010400F80049
:1009A60000010101FF0085010401040088007000B8
:1009B6000000000070008801040104010501FF0029
:1009C600010104010401FC0084010401000180000E
:1009D60000000000CC012401240124012401980018
:1009E6000000000100010007F801040104000000F6
:1009F60000010001F8000400040004010801FC00E5
:100A060004010001800170000C00100160018001EA
:100A16000001F0010C003001C00030010C01F001B2
:100A26000000000104018C00740170018C010400B7
:100A360000010101810171000E00180160018001B1
:100A46000000000184010C013401440184010C0002
:100A560000000000000000000001003EFC400240D3
:100A6600020000000000000000FFFF000000000080
:100A7600000000400240023EFC01000000000000B1
:100A86000000006000800080004000400020002040
:100A96000000000000000000000000000000000050
:100AA6000000000000000000000000000000000040
:100AB6000000000000000000000000000000000030
:100AC600000000000F80380FFE380F80380000004D
:100AD600000000000000000000000000000000010F
:100AE60000000600000C000038000031000006007F
:100AF600000C00003800003000000000000000007C
:100B06000061800067F807F980006180006180005D
:100B160061800061800067F807F98000618000004D
:100B26000000000000000001C0E003E0F00630080D
:100B36000418081FFFFE040E080787F00381E00073
:100B4600000000000001F000060C00040408060C7A
:100B56007001F9C0000E00003BE000EC1807080821
:100B6600040C180003E00000000001E00007F00399
:100B7600F818041C0804170807E1D003C0E0002396
:100B8600B0003C0800200800001000000000000033
:100B96000100003100003200001C000000000000CF
:100BA600000000000000000000000000000000003F
:100BB600000000000000000000000000000000002F
:100BC600007F0001FFC00780F00C00181000042011
:100BD60000020000000000002000021000040C00CB
:100BE600180780F001FFC0007F0000000000000031
:100BF60000000000000000000000000000420000AD
:100C06006600006600003C0000180003FFC00018E4
:100C160000003C0000660000660000420000000084
:100C26000008000008000008000008000008000195
:100C3600FFC00008000008000008000008000008C7
:100C46000000000000000100003100003200001C1E
:100C5600000000000000000000000000000000008E
:100C66000000000000000000000800000800000866
:100C76000000080000080000080000080000080046
:100C8600000800000800000000000000000000004E
:100C960000380000380000380000000000000000A6
:100CA600000000000000000000000000000000003E
:100CB60000000600001C000070000180000E00000D
:100CC600380000C0000700001C00003000000000D3
:100CD60000000000007F8001FFE00380700600181E
:100CE60004000804000806001803807001FFE000F5
:100CF6007F800000000000000000000100080100E5
:100D06000801000803FFF807FFF8000008000008C4
:100D160000000800000000000000000001C03802CA
:100D2600C058040098040118040218040418061C8C
:100D36001803F81801E0F8000000000000000000A9
:100D460001C0E003C0F0040008040808040808060F
:100D5600180803F41801E7F00001E00000000000A5
:100D660000000000000300000D00001100006100FB
:100D760000810803010807FFF80FFFF800010800CB
:100D860001080000000000000000E007FCD0060893
:100D960008061008061008061008061838060FF090
:100DA6000607C0000000000000000000003F8001B0
:100DB600FFE0038430020818041008041008041029
:100DC60008071810030FF00007C00000000000001D
:100DD60000000003C0000700000600000600F80639
:100DE60007F806180006E0000700000600000000ED
:100DF6000000000001E1E003F7F0063410041808D3
:100E0600041808040C08040C0806161803F3F0016D
:100E1600C1E000000000000000F80003FC300306FB
:100E2600380402080402080402080404100308F047
:100E360001FFC0007F00000000000000000000006D
:100E460000000000000000000070380070380070DC
:100E56003800000000000000000000000000000054
:100E660000000000000000000000000000301A0032
:100E7600301C000000000000000000000000000020
:100E8600000000000000000008000014000022001E
:100E9600004100008080010040020020040010088C
:100EA60000080000000000000021000021000021D1
:100EB6000000210000210000210000210000210087
:100EC60000210000210000000000000000000008D2
:100ED600000804001002002001004000808000414C
:100EE60000002200001400000800000000000000BE
:100EF60003C00004C000040000080038080F3808CA
:100F060008380810000C300007E00003C00000009D
:100F160000000000003F8000FFE0038070020F1019
:100F260006708804C088048308047F8802C0900382
:100F3600012000FE400000080000180001F8003EF5
:100F46000801C20007020007E20000FE00001FC8F9
:100F56000001F800003800000804000807FFF80741
:100F6600FFF8040808040808040808040808061816
:100F76000803F41801E7F00001E00000000000009B
:100F8600003F8001FFE0038070020018040008049F
:100F960000080400080400100600200780C00000B6
:100FA6000004000807FFF807FFF80400080400081B
:100FB60004000804001802001003807001FFE0001E
:100FC6007F8000000004000807FFF807FFF8040808
:100FD60008040808040808040808043E0804000871
:100FE60006001801006000000004000807FFF8076B
:100FF600FFF8040808040800040800040800043E7A
:10100600000600000600000180000000000000004D
:10101600003F8001FFE0038070060018040008040A
:1010260002080402080203F00783F000020000022F
:101036000004000807FFF807FFF804080800080086
:1010460000080000080000080004080807FFF80769
:10105600FFF8040008000000000000040008040077
:101066000804000807FFF807FFF804000804000852
:101076000400080000000000000000000000060058
:10108600000700000104000104000104000307FF3B
:10109600FE07FFFC04000004000004000004000832
:1010A60007FFF807FFF8040C08001800003E0004CC
:1010B600C7800503C80600F80400380400180000BD
:1010C6000804000807FFF807FFF8040008000008F6
:1010D60000000800000800000800000800001800D2
:1010E600006000000004000807FFF807800807FCFE
:1010F60000007FC00003F80007C0007800078008E2
:1011060007FFF807FFF804000804000807FFF807C0
:10111600000803C00000E000003800001E000007C1
:10112600000001C00400F007FFF804000000000002
:10113600007F8001FFE003807006001804000804A9
:10114600000806001803003001FFE0007F80000061
:101156000004000807FFF807FFF804040804040069
:10116600040400040400040400060C0003F8000153
:10117600F000000000000000007F8001FFE0038017
:10118600700600880400880400C806003C03003E80
:1011960001FFE6007F8400000004000807FFF8074F
:1011A600FFF8040808040800040C00040F00040BF0
:1011B600C00610F003F03801E00800000800000047
:1011C60001E0F803F030063010041808041808048B
:1011D6000C08040C080206180207F00781E000005C
:1011E600000180000600000400000400000400085E
:1011F60007FFF807FFF804000804000004000006D3
:10120600000001800004000007FFE007FFF0040073
:101216001800000800000800000800000800000888
:1012260004001007FFE004000004000006000007A9
:10123600E00007FE00041FE00001F800003800018E
:10124600E0043E0007C000060000040000040000A1
:1012560007E00007FFC0041FF80007C007F80007F3
:10126600FF80043FF80007C004F8000700000400F0
:101276000000000004000806001807C07805F1C841
:10128600003E00001F800463E80780F8060018048B
:10129600000800000004000006000007800007E0C8
:1012A60008047C08001FF80007F800180804E00886
:1012B6000700000600000400000000000100080608
:1012C60000380400F80403E8040F08047C0805F05D
:1012D6000807C008070018040060000000000000AE
:1012E6000000000000000000000000003FFFFE209C
:1012F600000220000220000220000220000200005E
:101306000000000000000008000007000000C00008
:101316000038000006000001C000003000000E008A
:101326000001000000000000000000200002200074
:10133600022000022000022000023FFFFE00000003
:101346000000000000000000000000000000000097
:1013560000000800001000003000002000003000EF
:10136600001000000800000000000000000000015E
:101376000000010000010000010000010000010062
:101386000001000001000001000001000001000052
:101396000100000000000000000020000020000006
:1013A6001000001000000000000000000000000017
:1013B60000000000000000000000F00019F8001B0B
:1013C60018002208002608002408002410003FF810
:1013D600001FF800000800001800000004000007C5
:1013E600FFF80FFFF0001818001008002008002072
:1013F60008003018001FF0000FC0000000000000B9
:101406000007C0001FF00018300020080020080068
:101416002008003C08001C100000600000000000CE
:10142600000000000007C0001FF000381800200868
:1014360000200800200804101007FFF80FFFF00036
:1014460000100000000000000000000007C0001FA0
:10145600F00012300022180022080022080032088C
:10146600001E10000E2000000000000000200000FA
:10147600200800200801FFF803FFF80620080420D2
:1014860008042008072000030000000000000000F8
:1014960000000E000E6E001FF30031B10020B100F7
:1014A60020B1003191001F13002E1E00200E0030C7
:1014B6000000000004000807FFF80FFFF8001008FE
:1014C600002000002000002008003FF8001FF80060
:1014D60000080000000000000000000020080020B6
:1014E60008002008063FF8063FF80000080000083C
:1014F60000000800000000000000000000000000DE
:101506000003000003002001002001002003063F25
:10151600FE063FFC00000000000000000000000086
:1015260004000807FFF80FFFF80001880003000019
:101536002FC00038F80020380020080000080000FE
:101546000000000000000004000804000804000871
:1015560007FFF80FFFF80000080000080000080069
:101566000000000000002008003FF8003FF80010CF
:1015760008002000003FF8003FF800100800200097
:10158600003FF8003FF800000800000000200800B7
:101596003FF8003FF800100800100000200000206F
:1015A60008003FF8001FF8000008000000000000D7
:1015B6000007C0000FF000183000300800200800B7
:1015C6002008003008001830000FF00007C00000A7
:1015D60000000000002001003FFF003FFF00101147
:1015E600002009002008002008003038001FF00005
:1015F6000FC00000000000000007C0001FF0003808
:1016060018002008002008002009001011001FFF04
:10161600003FFF0000010000000020080020080035
:101626002008003FF8003FF80008080010080020D6
:10163600080020000030000030000000000000001C
:10164600000000000C78001E180033080023080074
:1016560021080021880021980030F0003860000041
:101666000000000000200000200000200000FFF025
:1016760003FFF800200800200800200800003000C2
:101686000000000000000000002000003FF0007F86
:10169600F8000018000008000008002010003FF8BD
:1016A600007FF00000100000000000000020000095
:1016B6003000003C00003F800023F000007800006E
:1016C60070002380003C0000300000200000200055
:1016D600003C00003FE00023F80000E00027000087
:1016E6003E00003FE00021F80001E0003E0000203F
:1016F60000000000002008002008003838003E687E
:101706000027800003C8002CF80038380020180095
:101716002008000000000000002000003003003C0C
:1017260001003F830023EC000070002380003C0092
:101736000020000020000000000000000000000063
:1017460038080020380020F80023E8002F88003EE3
:101756000800380800201800007000000000000093
:10176600000000000000000000000000000800006B
:1017760014001FF7FC3000062000020000000000E5
:101786000000000000000000000000000000000053
:10179600000000FFFFFF0000000000000000000046
:1017A60000000000000000000000002000023000E1
:1017B600061FF7FC001400000800000000000000EF
:1017C600000000000000000000000000180000609B
:1017D600000040000040000020000010000008004B
:1017E600000400000400000C0000100000C6D50034
:1017F60000000000E0380000783C00003C78000063
:101806003C70C0001CE1E01FFFFFF0001CE3000E6F
:101816001CE7C0079CE78003DCEF0003DCEE000159
:10182600DCFC60009CF9F07FFFFFF800000000017F
:10183600C00E0001FFFF0001C00E0001C00E000136
:10184600C00E0001FFFE0001C00E0001C00E000127
:10185600C00E0001FFFE0001C00E0001C00E000018
:10186600000000D6D000000000000700000007803E
:101876000000070000000700000007000000070145
:10188600801FFFFFE01FFFFFE01E0701C01E0701CC
:10189600C01E0701C01E0701C01E0701C01E0701AA
:1018A600C01FFFFFC01FFFFFC01E0701C01C0701AE
:1018B6008000070000000700000007000000070086
:1018C60000000700000007000000070000000700F6
:1018D600000007000000000000BFC6000000000076
:1018E600000780003C07C001FC07803FE007803905
:1018F600C1C78001C0E78001C0F78001C0778001C1
:10190600DE77807FFE078001C0078003C3C78003A0
:10191600E1E78003F8F78007FCE7F00FDE67F80FD2
:10192600DC07F81FC0FF801DDFE78039CC07807118
:10193600C0078061C0078001C0078001C007800121
:10194600E0078001E0078001C0070000000000BC3E
:10195600BC000000000380300003C03C0003C03C14
:101966000003C0380003C0380003C0386003F838ED
:10197600F07FFFFFF003C0380003C0380003C03813
:101986000003DC39C003FFFFE007E383C03FC183E8
:10199600C07FC1C3803BC1C78003C0EF0003C0EF57
:1019A6000003C07E0003C07C0003C07C0003C0FEB1
:1019B600003BC3EF803F8787F80FBF03F807780027
:1019C600E000000000C4EA0000000000C0000001C2
:1019D600F0000001E0000003C000C003C001E00702
:1019E600FFFFF00703C0000E03C0001E03C0003C4B
:1019F60003C3007303C78063FFFFC00383C00003F4
:101A060083C0000383C0000383C0000383C0600358
:101A160083C0F07FFFFFF80003C0000003C0000092
:101A260003C0000003C0000003C0000003C00000A4
:101A360003C0000003C00000000000D4C200000084
:101A4600000000000000E0070000FFFF8000F00734
:101A56008000F0070000F0070000F0070000F00724
:101A66000000FFFF0000FFFF0000F0070000F00786
:101A76000000F0070000F0070000E0070000FFFF8D
:101A86000000E0070000E0070000E0070001E007B3
:101A96000001C0070001C00700038007000780F7A8
:101AA600000F007F001E001F0038001C0000000011
:101AB60000C8D5000000000000000003000300037A
:101AC600FFFF8003FFFF80038007000380070003FA
:101AD60080070003800700038007000380070003D8
:101AE6008007000380070003FFFF00038007000351
:101AF60080070003800700038007000380070003B8
:101B060080070003800700038007000380070003A7
:101B1600FFFF000380070003800700038007000320
:101B260000000000000000D0C70000000000000018
:101B3600000380070003FFFF800380070003800780
:101B4600000380070003FFFF0003800700038007F0
:101B56000003FFFF0003FFFF00038707000387C0A2
:101B66000003C7810003C7838007FFFFC007078004
:101B7600000F0780001E0786001C078F003BFFFF33
:101B8600807007800000078000000780E000078162
:101B9600F07FFFFFF80000000000000000C6DA003A
:101BA60000000006000000079E0000079E7FF00769
:101BB6009E7FF0079FF8F03FFFF8F01F9E78F00732
:101BC6009E78F0079E78F007FE7FF0079E78F00774
:101BD6009E78F0079E70F007FE70F0079E70F00783
:101BE6009E7FF0079FFFF03FFFF0F0119070F0032B
:101BF600DCF0F003DEE0F0078FE0F00F0FE0F00E10
:101C060007C0F01C038FF0380F03E0201C01C00052
:031C1600000000CB
:0A8B9E00420321FFFF420323000001
:10000300E4FDFCC3ED9FEC9E5014E4FBFA0BBB0034
:0E001300010AEBF44A70F60DBD00010C80E509
:0100210022BC
:108BDC007E00128BEEA3E0FEA3E0FF128C3A7F2105
:028BEC007E0009
:048BEE00AD07AC061D
:108BF200ECFFAE05D2A5C2A7D2B2C2A68F90AF0635
:088C02008F80C2A5D2A5D2A704
:018C0A002247
:088C32007E00128BEEE4FFFE50
:048C3A00AD07AC06D0
:108C3E00ECFFAE05D2A5C2A7D2B2D2A68F90AF06D8
:088C4E008F80C2A5D2A5D2A7B8
:018C560022FB
:088C5700900382E0FEA3E0FFA0
:048C5F00AD07AC06AB
:108C6300ECFFAE05D2A5C2A7D2B2D2A68F90AF06B3
:088C73008F80C2A5D2A5D2A793
:018C7B0022D6
:0E8D7900AB05AA04128BEEAE02AF03028C3AD9
:108CF6007590FF7580FFC2A7D2A6C2B200AF90EFF3
:098D0600FEAD80EDFFD2B2D2A750
:018D0F002241
:108A4300900320EFF0701D7D1B7C017F01FE128DD2
:108A53007990031CE4F0A374DCF090031AE4F0A310
:108A630074B0F022E4FDFC7F01FE128D7990031CAB
:108A7300E4F0A374B0F090031AE4F0A374DCF022E2
:10465800E4FED2B37F64128C9FC2B37F647E0012E3
:104668008C9FD2B37F647E00128C9FE4FFFE128B76
:10467800EE128CF690031EEEF0A3EFF07BFF7A00AB
:104688007926900012EEF0A3EFF0122C707F101232
:104698008C327F11128C327F12128C327F13128C63
:1046A80032E4FFFE128BEE7F017E00128C3A7E13FD
:1046B8007F88EF1F70011EEF4E70F77F117E00128A
:1046C8008BEE7F017E00128C3A7F137E00128BEEF8
:1046D8007F1C7E14128C3A7F127E00128BEE7F189C
:1046E8007E00128C3A7F107E00128BEE7F447E0093
:1046F800128C3A7E137F88EF1F70011EEF4E70F701
:104708007F107E00128BEE7F407E00128C3A7F1362
:104718007E00128BEE7F137E34128C3A7E137F88D4
:10472800EF1F70011EEF4E70F77F087E00128BEEB0
:104738007408FFFE128C3A7F097E00128BEE7F010F
:104748007E00128C3A7F0B128C327F21128C327FC2
:1047580023128C327F24128C327F30128C327F31BC
:10476800128C327F327E00128BEE7F077E00128C15
:104778003A7F337E00128BEE7F077E00128C3A7FE1
:1047880034128C327F35128C327F36128C327F375E
:10479800128C327F38128C327F39128C327F017E34
:1047A80000128BEE7F1B7E01128C3A7F027E001274
:1047B8008BEE7F007E07128C3A7F037E00128BEE11
:1047C8007F307E60128C3A7F04128C327F05128C07
:1047D800327F40128C327F417E00128BEE7FAF7E9B
:1047E80000128C3A7F427E00128BEE7F007EDB1235
:1047F8008C3A7F437E00128BEE7F007EDB128C3A70
:104808007F447E00128BEE7F007EAF128C3A7F458C
:104818007E00128BEE7F007EDB128C3A7F107E00CA
:10482800128BEE7440FFFE128C3A7F077E00128BCB
:10483800EE7F057E00128C3A7E137F88EF1F700191
:104848001EEF4E70F77F077E00128BEE7F257E00ED
:10485800128C3A7E137F88EF1F70011EEF4E70F79F
:104868007F077E00128BEE7F277E00128C3A7E1324
:104878007F88EF1F70011EEF4E70F77F077E0012D2
:104888008BEE7F377E00128C3A7E137F88EF1F7085
:10489800011EEF4E70F77F227E00128BEEE4FF12AE
:0D48A8008A43900323E0FEA3E0FF0285A5F4
:05814A00E0FEA3E0FFD0
:0E814F00900072EEF0A3EFF0A3ECF0A3EDF0C1
:10815D00EBFE900072E0FCA3E0FDEC4EFFED900015
:10816D007ACFF0A3EFF0900079E0FE900074E0FA82
:10817D00A3E0FBEA4EFFEB90007CCFF0A3EFF0EB1A
:10818D00FEEC4EFEEDFBAA06900320E0701C7F4432
:10819D00FE128BEE90007AE0FEA3E0FF128C3A7F88
:1081AD0045128BDCAF03AE02801B7F457E00128B28
:1081BD00EE90007AE0FEA3E0FF128C3A7F44128B22
:0F81CD00DCAE02AF03128C3A7F227E00028BEEF3
:0C886400900325ECF0A3EDF0AB07AA0692
:10887000E4A3F0A3F0A3F0A304F0A3E4F0A304F0B6
:10888000D390031BE09B90031AE09A401590031CC1
:10889000E0FEA3E0FF900325E0FCA3E0FD9FEC9E3B
:1088A0004004E4FEFF22AF03AE02C007900325E0C0
:1088B000FFA3E0900078CFF0A3EFF0D00712814F34
:0888C000900327E0FEA3E0FF96
:0188C800228D
:0885A500900000EEF0A3EFF0DE
:1085AD00E4A3F0A3F090031BE024FFFB90031AE07B
:1085BD0034FFFA90031DE024FFFE90031CE034FF0E
:1085CD00900078F0A3CEF0E4FDFCFFFE12814FE4A5
:1085DD00FAFBD390031BE09B90031AE09A4039E419
:1085ED00900002F0A3F090031CE0FEA3E0FFC39007
:1085FD000003E09F900002E09E5016900000128C48
:10860D005A900003E004F070DD900002E004F08069
:08861D00D50BBB00010A80BA75
:018625002232
:107B9500900032ECF0A3EDF0900030EEF0A3EFF0A2
:087BA500900034EAF0A3EBF0BC
:107BAD00E490003AF0A3F0D3EF9BEE9A4003027CF1
:107BBD0064900036E0FEA3E0FF900032E0FCA3E00D
:107BCD00FD9FEC9E4003027C64900034E0FAA3E03C
:107BDD00FBA3E0FFA3E0900078CFF0A3EFF09000BF
:107BED003012814A900030E0FEA3E0FFC3900035D3
:107BFD00E09FFF900034E09ECF2401CF3400900031
:107C0D0030F0A3EFF0A3E0FEA3E0FFC3900037E058
:107C1D009FFF900036E09ECF2401CF3400900032BC
:107C2D00F0A3EFF090003074FFF5F01222C245F092
:107C3D006025900032E0FFA3E090003ACFF0A3EF73
:107C4D00F090003A74FFF5F01222C245F060D59025
:077C5D000038128C5A80EA86
:017C640022FD
:0E745A00900245EEF0A3EFF0A3ECF0A3EDF0EE
:10746800900245E0FEA3E0FFC3EB9FFFEA9ECF2416
:1074780001CF3400900252F0A3EFF0900247E0FEF3
:10748800A3E0FFC390024CE09FFF90024BE09ECF29
:107498002401CF3400900250F0A3EFF0900247E0AF
:1074A800FCA3E0FD90024BE0FFA3E0900078CFF052
:1074B800A3EFF090024512814AE4900254F0A3F041
:1074C800900250E0FEA3E0FFC3900255E09F9002B7
:1074D80054E09E5074E4900256F0A3F0900252E0FB
:1074E800FEA3E0FF900256E0FAA3E0FBC39FEA9EEA
:1074F8005046900252E0FCA3E0FDA3E0FEA3E0FFAB
:1075080012220FEB2FFFEA3EFEEF25E0FFEE33FEDF
:1075180090024DE0FBA3E0FAA3E0F98F828E83127C
:1075280022D8FFAEF0128C5F900257E004F070ACE6
:10753800900256E004F080A4900255E004F07080B8
:09754800900254E004F00274C842
:017551002217
:108A8300900335FEE0FCA3E0FDC3900332E09DFDBF
:068A9300900331E09CFCA1
:108A9900AB07AA068D828C83C006C007AE83AF825E
:108AA900900078EEF0A3EFF0D007D00612814F9036
:0A8AB9000321E0FEA3E0FF028C5F42
:0689B700FDE0FAA3E0FB65
:1089BD0090006CEEF0A3EFF0900070EAF0A3EBF0F6
:1089CD0090006EECF0A3EDF090006CE0FAA3E0FBEC
:1089DD00FFAE02C007A3E0FFA3E0900078CFF0A3A5
:1089ED00EFF0D00712814F900070E0FEA3E0FF0280
:0289FD008C5F8D
:10872100900378EEF0A3EFF0A3ECF0A3EDF0A3EA51
:10873100F0A3EBF01289BD900379E02401FF9003CF
:1087410078E03400FE90037AE0FCA3E0A31289B73D
:10875100900378E0FEA3E0FF90037BE02401FD900D
:10876100037AE03400FC90037C1289B8900379E02D
:108771002401FF900378E03400FE90037BE02401A4
:10878100FD90037AE03400FC90037CE0FAA3E0FB67
:038791000289BD9D
:0E57E100900171EEF0A3EFF0A3ECF0A3EDF059
:1057EF00E4900179F0A3F0A3F0A3F0A3F0A3F0905D
:1057FF000171E0FEA3E0FFC3EB9FFFEA9E90017FE4
:10580F00F0A3EFF0900173E0FAA3E0FBC3900178EF
:10581F00E09BFE900177E09A900181F0A3CEF0908B
:10582F000171E0FFA3E0900189CFF0A3EFF0A3EAAD
:10583F00F0A3EBF090017FE0FEA3E0FFD39400EE26
:10584F0064809480400A900185E4F0A304F08021E5
:10585F00EF4E7008900185F0A3F0801574FF900152
:10586F0085F0A3F0C3E49FFFE49E90017FF0A3EFC8
:10587F00F0900181E0FEA3E0FFD39400EE648094EA
:10588F0080400A900187E4F0A304F08021EF4E706E
:10589F0008900187F0A3F0801574FF900187F0A3A3
:1058AF00F0C3E49FFFE49E900181F0A3EFF090011D
:1058BF0081E0FEA3E0FF90017FE0FCA3E0FDD39F1A
:1058CF00EE6480F8EC6480989001834007ECF0A3BD
:1058DF00EDF08005EEF0A3EFF0E4900179F0A3F086
:1058EF00900184E02401FF900183E03400FED39007
:1058FF00017AE09F900179E09E40030259CF900119
:10590F0089E0FEA3E0FFA3E0FCA3E0FD128A9990DB
:10591F00017FE0FEA3E0FF90017CE02FF090017B80
:10592F00E03EF0900181E0FEA3E0FF90017EE02FCA
:10593F00F090017DE03EF0900183E0FEA3E0FF9048
:10594F00017BE0FCA3E0FDD39FEE6480F8EC648064
:10595F00984020ED9FFFEC9E90017BF0A3EFF0901D
:10596F000185E0FEA3E0FF90018AE02FF09001890E
:10597F00E03EF0900183E0FEA3E0FF90017DE0FCAC
:10598F00A3E0FDD39FEE6480F8EC6480984020ED97
:10599F009FFFEC9E90017DF0A3EFF0900187E0FE5A
:1059AF00A3E0FF90018CE02FF090018BE03EF09090
:1059BF00017AE004F07006900179E004F00258EFEC
:0159CF0022B5
:0E59D000900117EEF0A3EFF0A3ECF0A3EDF0C2
:1059DE00E4900123F0A3F0A3F0A3F0900117E0FEF2
:1059EE00A3E0FFC3EB9FFFEA9E900127F0A3EFF029
:1059FE00900119E0FAA3E0FBC390011EE09BFE901C
:105A0E00011DE09A900129F0A3CEF0900117E0FF5E
:105A1E00A3E0900131CFF0A3EFF0A3EAF0A3EBF0F7
:105A2E00900127E0FEA3E0FFD39400EE6480948003
:105A3E00400A90012DE4F0A304F08021EF4E70088F
:105A4E0090012DF0A3F0801574FF90012DF0A3F0BE
:105A5E00C3E49FFFE49E900127F0A3EFF09001298D
:105A6E00E0FEA3E0FFD39400EE64809480400A90A1
:105A7E00012FE4F0A304F08021EF4E700890012F67
:105A8E00F0A3F0801574FF90012FF0A3F0C3E49FF4
:105A9E00FFE49E900129F0A3EFF0900129E0FEA310
:105AAE00E0FF900127E0FCA3E0FDD39FEE6480F8B9
:105ABE00EC64809890012B4007ECF0A3EDF080058C
:105ACE00EEF0A3EFF0E4900121F0A3F090012CE0B2
:105ADE002401FF90012BE03400FED3900122E09FC1
:105AEE00900121E09E4003025BBC900131E0FEA3D9
:105AFE00E0FFA3E0FCA3E090011F1289B7900127FD
:105B0E00E0FEA3E0FF900124E02FF0900123E03EA1
:105B1E00F0900129E0FEA3E0FF900126E02FF09027
:105B2E000125E03EF090012BE0FEA3E0FF90012363
:105B3E00E0FCA3E0FDD39FEE6480F8EC6480984017
:105B4E0020ED9FFFEC9E900123F0A3EFF090012D2E
:105B5E00E0FEA3E0FF900132E02FF0900131E03E35
:105B6E00F090012BE0FEA3E0FF900125E0FCA3E006
:105B7E00FDD39FEE6480F8EC6480984020ED9FFF8B
:105B8E00EC9E900125F0A3EFF090012FE0FEA3E034
:105B9E00FF900134E02FF0900133E03EF0900122AF
:0E5BAE00E004F07006900121E004F0025ADAE3
:015BBC0022C6
:1079EB0090037EEEF0A3EFF0900382EAF0A3EBF0AE
:0879FB00900380ECF0A3EDF015
:107A030090037EE0FAA3E0FB24FFFFEA34FFFEC00D
:107A130006C007ED24FFFDEC34FFFCEB2401FBE47F
:107A23003AFAA3E0FEA3E02401FFE43E900078F0DD
:107A3300A3EFF0D007D00612814FE4FB128C570B53
:107A4300EBB409F890037FE024FCFF90037EE0345D
:107A5300FFFEC007900380E0FCA3E0FD90037FE0FE
:107A63002404FB90037EE03400FA900380E0FFA33C
:107A7300E0900078CFF0A3EFF0D00712814FE4FB42
:107A8300128C570BEBB409F8900381E024FCFD90B2
:107A93000380E034FFFC90037EE0FAA3E0FBA3E065
:107AA300FEA3E02404FFE43E900078F0A3EFF090FF
:0F7AB300037E12814AE4FB128C570BEBB409F8E7
:017AC20022A1
:107F6000900364EAF0A3EBF0900360EEF0A3EFF06F
:107F7000A3ECF0A3EDF0C007A3E0FAA3E0FB9003AD
:107F800062E0FFA3E0900177CFF0A3EFF0D00712FB
:107F900057E1900360E0FAA3E0FBFFAE02C007A345
:107FA000E0FCA3E0FD900366E0FFA3E0900177CF43
:107FB000F0A3EFF0D0071257E1900366E0FCA3E0D6
:107FC000FD900364E0FAA3E0FBA3E0FFA3E09001CF
:107FD00077CFF0A3EFF0900360E0FEA3E0FF12572D
:107FE000E1900364E0FAA3E0FBFFAE02C007900358
:107FF00062E0FCA3E0FD900366E0FFA3E090017760
:0A800000CFF0A3EFF0D0070257E124
:0E5DA60090032FEEF0A3EFF0A3ECF0A3EDF0CE
:105DB400E4A3F0A3F0EBFF7E00A3EEF0A3EFF02545
:105DC400E0FFEE33FEC374039F900338F0E49E902B
:105DD4000337F0900335E0FEA3E0FF900333E0FCCB
:105DE400A3E0FDD39FEE6480F8EC64809840030246
:105DF4005F7D900330E02DFF90032FE03C128A83F7
:105E0400900335E0FEA3E0FF900330E02FFF900302
:105E14002FE03E900333128A86900335E0FEA3E020
:105E2400FF900330E02FFF90032FE03EFE900333FA
:105E3400E0FCA3E0FD900332E02DFD900331E03C53
:105E4400FC128A99900333E0FEA3E0FF900330E054
:105E54002FFF90032FE03EFE900335E0FCA3E0FD0E
:105E6400900332E02DFD900331E03CFC128A9990BE
:105E74000333E0FEA3E0FFC3900330E09FFF9003F1
:105E84002FE09EFE900335E0FCA3E0FD900332E09A
:105E94002DFD900331E03CFC128A99900335E0FE1D
:105EA400A3E0FFC3900330E09FFF90032FE09EFE2A
:105EB400900333E0FCA3E0FD900332E02DFD90035A
:105EC40031E03CFC128A99900333E0FEA3E0FFC367
:105ED400900330E09FFF90032FE09E128A8390038B
:105EE40035E0FEA3E0FFC3900330E09FFF90032F53
:105EF400E09EFE900333128A87900334E004F0702E
:105F040006900333E004F0C3900337E06480948088
:105F14005025900333E0FEA3E07802C333CE33CEA2
:105F2400D8F92406FFE43EFE900338E02FF09003F6
:105F340037E03EF0025DD7900335E0FEA3E0FFC3F7
:105F4400900334E09FFF900333E09EFEEF7802C39A
:105F540033CE33CED8F9240AFFE43EFE900338E072
:105F64002FF0900337E03EF0900336E024FFF090EA
:095F74000335E034FFF0025DD7B3
:015F7D002201
:10661B0090001CEEF0A3EFF0900020EBF090001E2A
:05662B00ECF0A3EDF00E
:10663000900025ECF0A3EDF0900021E0FF13131380
:10664000541FFEEF540760047F0180027F00EE2F8D
:10665000FF900021E0C313FEEF8EF0A4900027F01E
:10666000900020E024E0F0E4F9900027E0FFE9C387
:106670009F4003026792900021E0FFB40C1290004B
:1066800020E075F00CA42433F582E5F0340080316D
:10669000EFB41012900020E075F010A424A7F5824A
:1066A000E5F03404801B900021E064186003026769
:1066B00092900020E075F024A42497F582E5F03450
:1066C0000AF583E58229F582E43583F583E4939026
:1066D0000023F0E4900024F0900023E030E71390D2
:1066E000001CE0FEA3E0FFA3E0FCA3E0FD9003217B
:1066F0008017900022E0701490001CE0FEA3E0FFE1
:10670000A3E0FCA3E0FD9003231289B8900023E0EE
:1067100025E0F090001FE004F0700690001EE004F9
:10672000F090031CE0FEA3E0FF90001EE0FCA3E05D
:10673000FDC39FEC9E505B900025E0FEA3E0FFC3ED
:10674000ED9FFDEC9EFC900021E07A00B50530EA5B
:10675000B5042C90001EEEF0A3EFF090001DE004B5
:10676000F0700690001CE004F090031AE0FEA3E035
:10677000FFC390001DE09F90001CE09E40102290FF
:106780000024E004F0E0C3940850030266D8090234
:02679000666938
:0167920022E4
:07891E00C3EF9E14FD7F0A68
:08892500900384EFF0A3EDF0D4
:10892D00A31224AE00000001900385E0FF14F0EFC8
:10893D006020A3E0F8A3E0F9A3E0FAA3E0FB900325
:10894D0084E0FFE4FCFDFE12233D9003861224A279
:10895D0080D6900386E0FCA3E0FDA3E0FEA3E0FF3C
:01896D0022E7
:0E790F009002E7EEF0A3EFF0A3ECF0A3EDF092
:10791D00E49002F3F09002F1F09002EFE0FF90029C
:10792D00F1E0FEC39F40030279EA12891EA804A963
:10793D0005AA06AB079002EBE0FCA3E0FDA3E0FE79
:10794D00A3E0FF1223C8E47B0AFAF9F81223C890CA
:10795D0002F2EBF0A3E070459002EFE014FF90020D
:10796D00F1E0FEC39F5036A3E0702C9002F0E0FBD7
:10797D00C3138EF0A4FF9002E8E02FFF9002E7E022
:10798D0035F0FE9002E9E0FCA3E0FD900021EBF064
:10799D00E4A3F07B20803A9002F37401F09002F0A2
:1079AD00E0FAC313FFA3E0FEEF8EF0A4FF9002E810
:1079BD00E02FFF9002E7E035F0FE9002E9E0FCA336
:1079CD00E0FD9002F2E02430FB900021EAF0E4A308
:0D79DD00F012661B9002F1E004F002792622
:0179EA00227A
:0E6F06009002CBEEF0A3EFF0A3ECF0A3EDF0C1
:106F1400E49002D8F09002D6F09002D3E0FF900201
:106F2400D6E0FEC39F400302702E12891EA804A956
:106F340005AA06AB079002CFE0FCA3E0FDA3E0FEA8
:106F4400A3E0FF1223C8E47B0AFAF9F81223C890DD
:106F540002D7EBF0A3E06003026FE59002D3E014E4
:106F6400FF9002D6E0FEC39F5077A3E0706D9002BD
:106F7400D5E0F99002D430E72BE0FBC3138EF0A4E4
:106F8400FF9002CCE02FFF9002CBE035F0FE9002A0
:106F9400CDE0FCA3E0FD900021EBF0E95401A3F067
:106FA4007B30807AE0FBC313FF9002D6E0FEEF8EC5
:106FB400F0A4FF9002CCE02FFF9002CBE035F0FE6E
:106FC4009002CDE0FCA3E0FD900021EBF09002D50F
:106FD400E05401900022F07B2080439002D8740199
:106FE400F09002D4E0FAC313FF9002D6E0FEEF8ED5
:106FF400F0A4FF9002CCE02FFF9002CBE035F0FE2E
:107004009002CDE0FCA3E0FD9002D7E02430FB9099
:107014000021EAF09002D5E05401900022F01266BB
:0A7024001B9002D6E004F0026F1D7D
:01702E00223F
:10782A0090000FEEF0A3EFF0A3ECF0A3EDF0A3EAC3
:04783A00F0A3EBF0DC
:10783E0090000FE0FEA3E0FF90001BF0900014E01C
:10784E002FF0900013E03EF0900011E0FEA3E0FF59
:10785E00900016E02FF0900015E03EF0900018E03A
:10786E00FBA3E0FAA3E0F9122195FFD3947E400327
:10787E0002790EEFC39420500302790E900013E0AC
:10788E00FEA3E0FF900010E09F90000FE09E401FCF
:10789E0090001BE0FF90000FE4F0A3EFF0900017B4
:1078AE00E0FF900012E02FF0900011E03400F09015
:1078BE000015E0FEA3E0FF900011E0FCA3E0FDC385
:1078CE009FEC9E503B90000FE0FEA3E0FF1221952F
:1078DE00FB900017E0900021F0E4A3F012661B90DD
:1078EE000017E0C313FF900010E02FF090000FE0A0
:1078FE003400F0900019E475F0011222AC02786A9F
:01790E002256
:106DDB00900339EEF0A3EFF0A3ECF0A3EDF0A3EBEF
:076DEB00F0A3EAF0A3E9F0B8
:106DF20090033DE0FBA3E0FAA3E0F91221957003B2
:106E0200026F05900339E0FAA3E0FBFFAE02C00671
:106E1200C007A3E0FCA3E0FDEB241FFBE43AFA90D9
:106E2200033BE0FEA3E0241CFFE43E900078F0A3C5
:106E3200EFF0D007D00612814FE4900340F09003A8
:106E420040E0FFC394144003026EEA90033DE0FB6E
:106E5200A3E0FAA3E0F9122195FE75F076EFA424DF
:106E6200F3F582E5F03417F583E4936E70719000C8
:106E7200011221AEFF900340E075F076A424F4F5F0
:106E820082E5F03417F583E4936F7053FB9003406F
:106E9200E075F076A424F5F582E5F03417F583E584
:106EA200822BF582E43583F583E493FF900341E47A
:106EB200F0A3EFF0E4FA900342E030E705900321FB
:106EC2008003900323128C5A900342E025E0F09055
:106ED2000341E033F00AEAB408DC0BEBB474AE9081
:106EE2000340E004F0026E4090033EE475F00212AB
:106EF20022AC90033AE02420F0900339E03400F011
:036F0200026DF22B
:016F05002269
:106CAE0090021CEEF0A3EFF0A3ECF0A3EDF0A3EA3C
:046CBE00F0A3EBF064
:106CC200E4900227F0A3F0A31224AE00000000908B
:106CD200022D1224AE0000000090021EE0FCA3E090
:106CE200FDA3E0FEA3E0FF90021CE0FAA3E02FFF69
:106CF200EA3ECF24FFFBEF34FFFA900222E0FEA32C
:106D0200E0FF90021EE0F8A3E02FFFE83ECF24FF51
:106D1200CF34FF900078F0A3EFF090021C12814A6A
:106D2200900222E0FCA3E0FD900220E0FEA3E0FF3F
:106D320012220FEF25E0FFEE33FEE4FCFD90022D60
:106D42001224A2900229A3A3E0FEA3E0FDAC062434
:106D520001FFE43CFE900224E0FBA3E0FAA3E0F989
:106D62008F828E831221AEFF900227E4F0A3EFF010
:106D7200E0F8E4F0E8900227F08D828C831221AED5
:106D8200FF900227E0FEA3E04FFF900227EEF0FE05
:106D9200A3EFF0128C5FA3E0FCA3E0FDA3E0FEA34F
:106DA200E02402FFE43EFEE43DFDE43CFC900229C7
:106DB2001224A290022DE0FCA3E0FDA3E0FEA3E0DA
:106DC200FF900229E0F8A3E0F9A3E0FAA3E0FBC3F5
:086DD2001224685003026D4514
:016DDA002296
:0B8D9200C2A1D2A3D2A2D2A1C2A32290
:108CBD00C2A1E4FEEFC4131313540124FF92A2EFDB
:0C8CCD0025E0FFC2A1D2A10EEEB408E821
:018CD9002278
:108B3B00E490039CF0A3F0C2A1FDFC90039DE02503
:108B4B00E0F090039CE033F0D2A1C2A1A2A0E433E9
:108B5B00FFE0F0A3E04FF00DBD00010CED640C4CF9
:0A8B6B0070D990039CE0FEA3E0FF28
:018B750022DD
:07631800EEF0A3EFF07F900F
:02631F00AB07CA
:10632100C2A1C2A3E490018DF0AF03128CBD900114
:106331008E7406F090018EE014F0E070F7D2A100A7
:1063410000C2A10000128B3B90018DE025E0248F5B
:10635100F582E43401F583EEF0A3EFF090018DE0D6
:1063610004F0E0C3940A40C1D2A3E490018DF090FF
:10637100018DE0FFC394094003026426EF04A3F0FA
:1063810090018EE0FFC3940A400302641DEF25E0F3
:10639100248FF582E43401F583E0FEA3E0FF900150
:1063A1008DE0FB25E0248FF582E43401F583E0FCE8
:1063B100A3E0C39FEC9E505BEB25E0248FF582E4C4
:1063C1003401F583E0FEA3E0FFE4FCFD9001A3129C
:1063D10024A290018EE0FA25E0248FF582E43401B5
:1063E100F583E0FEA3E0FFEB25E0248FF582E434A2
:1063F10001F583EEF0A3EFF09001A3A3A3E0FEA3C8
:10640100E0FFEA25E0248FF582E43401F583EEF024
:10641100A3EFF090018EE004F002638190018DE022
:1064210004F00263709001A31224AE0000000090FA
:10643100018D7402F09001A3E0F8A3E0F9A3E0FA62
:10644100A3E0FB90018DE025E0248FF582E4340187
:10645100F583E0FEA3E0FFE4FCFDEB2FFFEA3EFE47
:10646100ED39FDEC38FC9001A31224A290018DE0DE
:1064710004F0E0B408BF9001A3E0FCA3E0FDA3E0B9
:10648100FEA3E0FFE47B06FAF9F81289FF9001A36D
:0D6491001224A29001A3A3A3E0FEA3E0FF4C
:01649E0022DB
:10702F00128D927FD012631F900343126318900347
:10703F0049EEF0A3EFF07FD012631F900345126368
:10704F0018AD07AC06900345E0FEA3E0FF900343A5
:10705F00E0FAA3E0FBD39FEA9E400AA3A3EB9FFFB6
:10706F00EA9EA38017900343E0FEA3E0FFC39003C3
:10707F0046E09FFF900345E09E900347F0A3EFF09B
:10708F00900349E0FEA3E0FFD39DEE9C4007EF9DE8
:10709F00FFEE9C800E900349E0FEA3E0FFC3ED9F3F
:1070AF00FFEC9EA3F0A3EFF0D3900348E09432904F
:1070BF000347E09400500E90034CE0943290034B42
:1070CF00E0940040037F0022900345E0FEA3E0FF21
:1070DF00900344E02FFF900343E03EC313FEEF13F2
:1070EF00FF9002F4EEF0A3EFF090034AE02DFF9033
:1070FF000349E03CC313FEEF13FF9002F6EEF0A33B
:10710F00EFF09002F5E054F0F09002F7E054F0F059
:10711F00C39002F5E094649002F4E09400400FD322
:10712F009002F7E094D89002F6E0940E40037F00AF
:03713F00227F01AB
:01714200222A
:106B6E00E4900390F012702FEF7003026CA3900369
:106B7E0020E06003026C099002F4E0FEA3E0FFE463
:106B8E00FCFD9002F81224A29002F8E0FCA3E0FDB6
:106B9E00A3E0FEA3E02406FFEE34FFFEED34FFFD7E
:106BAE00EC34FFFCE47BB4FAF9F812233DE47B7479
:106BBE007A0EF9F81223C89002F81224A29002F667
:106BCE00E0FEA3E0FFE4FCFD9002FC1224A2900282
:106BDE00FCE0FCA3E0FDA3E0FEA3E024A2FFEE3464
:106BEE00FEFEED34FFFDEC34FFFCE47BFAFAF9F81F
:106BFE0012233DE47BAC7A0D026C909002F6E0FE1F
:106C0E00A3E0FFC3E49FFF74109EFEE4FCFDA312FD
:106C1E0024A29002F8E0FCA3E0FDA3E0FEA3E02492
:106C2E00A2FFEE34FEFEED34FFFDEC34FFFCE47B00
:106C3E00FAFAF9F812233DE47BAC7A0DF9F8122337
:106C4E00C89002F81224A29002F4E0FEA3E0FFE442
:106C5E00FCFD9002FC1224A29002FCE0FCA3E0FDDD
:106C6E00A3E0FEA3E02406FFEE34FFFEED34FFFDAD
:106C7E00EC34FFFCE47BB4FAF9F812233DE47B74A8
:106C8E007A0EF9F81223C89002FC1224A2900390F7
:0F6C9E007401F08001E4900300F0900390E0FF98
:016CAD0022C4
:068626009003681224A27B
:10862C00900368E0FCA3E0FDA3E0FEA3E0FF781359
:10863C0012248FA3EEF0A3EFF0900368E0FCA3E00C
:10864C00FDA3E0FEA3E0FF780A12248FEF543FFE57
:10865C00E490036EF0A3CEF0900368E0FCA3E0FD81
:10866C00A3E0FEA3E0FF780312248FEF541FFFE476
:10867C00AD07FC90036EE0FEA3E07805C333CE3368
:10868C00CED8F9FBAA0690036DE033333354F84A85
:09869C00FEEBFFEE4CFEEF4DFF7A
:0186A50022B2
:048AC300AD07AC0649
:108AC7007BE77A187E00ED54037803C333CE33CEA9
:108AD700D8F9FFEA4EFAEB4FFB7E00ED541C7806FF
:108AE700C333CE33CED8F9FFEA4EFAEB4FFBED5442
:078AF700E04AFAEBAE02FFBA
:018AFE002255
:08896E0090038AEFF0A3EDF085
:10897600A31224AE0000000190038BE0FF14F0EF79
:108986006020A3E0F8A3E0F9A3E0FAA3E0FB9003DC
:108996008AE0FFE4FCFDFE12233D90038C1224A224
:1089A60080D690038CE0FCA3E0FDA3E0FEA3E0FFED
:0189B600229E
:108794009003701224A2900374E0FCA3E0FDA3E014
:1087A400FEA3E0FF900370E0F8A3E0F9A3E0FAA3CE
:1087B400E0FBD312247E401D900374E0F8A3E0F99B
:1087C400A3E0FAA3E0FB900370E0FCA3E0FDA3E0C8
:1087D400FEA3E0801A900370E0F8A3E0F9A3E0FAA6
:1087E400A3E0FBA3E0FCA3E0FDA3E0FEA3E0C39BA6
:0B87F400FFEE9AFEED99FDEC98FC22D0
:088AFF00900395EEF0A3EFF0E7
:108B0700900321E0FFA3E0900397CFF0A3EFF0AF2E
:108B170003900321EAF0A3EFF0900395E0FEA3E0B2
:108B2700FF128A99900397E0FFA3E0900321CFF00B
:038B3700A3EFF0B9
:018B3A002218
:1075520090027CEEF0A3EFF0A3ECF0A3EDF0A3EA2F
:04756200F0A3EBF0B7
:10756600E4900287F0A3F0900280E0FEA3E0FFC360
:10757600900288E09F900287E09E4003027648E4EE
:10758600900289F0A3F0900282E0FEA3E0FFC39090
:10759600028AE09F900289E09E40030276349002C0
:1075A60087E0FEA3E0FF90027DE02FFF90027CE0E3
:1075B6003EFE900289E0FCA3E0FD90027FE02DFDF7
:1075C60090027EE03CFC12886490028BEEF0A3EF02
:1075D600F0900284E0FCA3E0FDA3E0FB12773D906F
:1075E600028BEEF0A3EFF0900287E0FEA3E0FF909F
:1075F600027DE02FFF90027CE03EFE900289E0FCD7
:10760600A3E0FD90027FE02DFD90027EE03CFC9021
:10761600028BE0FAA3E0FB1289BD90028AE004F037
:10762600600302758C900289E004F002758C90026A
:1076360088E004F0600302756D900287E004F002B2
:02764600756D60
:01764800221F
:10764900900060ECF0A3EDF0A3EAF0A3EBF090005A
:067659005EEEF0A3EFF06D
:10765F00C39401EE94004013E024FFFE90005EE01F
:10766F0034FF900068F0A3CEF0800F90005EE0FF33
:10767F00A3E0900068CFF0A3EFF0900060E0FEA3CE
:10768F00E0FFC39401EE9400400CEF24FFFFEE34B3
:10769F00FF90006A800B900060E0FFA3E090006A0B
:1076AF00CFF0A3EFF090006AE0FFA3E0900064CF6B
:1076BF00F0A3EFF0900061E02402FF900060E0344F
:1076CF0000FEC3900065E09F900064E09E505E90C6
:1076DF000068E0FFA3E0900066CFF0A3EFF090000A
:1076EF005FE02402FD90005EE03400FC900066E055
:1076FF00FEA3E0FFC39DEE9C5023900064E0FCA32B
:10770F00E0FD900062E0FAA3E0FB1289BD900067F4
:10771F00E004F070C9900066E004F080C19000654D
:0D772F00E004F0708F900064E004F08087AB
:01773C00222A
:0E55EE00900135EEF0A3EFF0A3ECF0A3EDF08A
:1055FC00E4900141F0A3F0A3F0A3F0900135E0FE9C
:10560C00A3E0FFC3EB9FFFEA9E900145F0A3EFF0F0
:10561C00900137E0FAA3E0FBC390013CE09BFE90C5
:10562C00013BE09A900147F0A3CEF0900135E0FFEA
:10563C00A3E090014FCFF0A3EFF0A3EAF0A3EBF0BF
:10564C00900145E0FEA3E0FFD39400EE64809480CB
:10565C00400A90014BE4F0A304F08021EF4E700857
:10566C0090014BF0A3F0801574FF90014BF0A3F068
:10567C00C3E49FFFE49E900145F0A3EFF090014737
:10568C00E0FEA3E0FFD39400EE64809480400A9087
:10569C00014DE4F0A304F08021EF4E700890014D11
:1056AC00F0A3F0801574FF90014DF0A3F0C3E49FBC
:1056BC00FFE49E900147F0A3EFF0900147E0FEA3BA
:1056CC00E0FF900145E0FCA3E0FDD39FEE6480F881
:1056DC00EC6480989001494007ECF0A3EDF0800554
:1056EC00EEF0A3EFF0E490013FF0A3F090014AE05C
:1056FC002401FF900149E03400FED3900140E09F6B
:10570C0090013FE09E40030257E090014FE0FEA362
:10571C00E0FFA3E0FCA3E0FD90013DE0FAA3E0FB79
:10572C001289BD900145E0FEA3E0FF900142E02FFD
:10573C00F0900141E03EF0900147E0FEA3E0FF90C5
:10574C000144E02FF0900143E03EF0900149E0FE6F
:10575C00A3E0FF900141E0FCA3E0FDD39FEE648049
:10576C00F8EC6480984020ED9FFFEC9E900141F096
:10577C00A3EFF090014BE0FEA3E0FF900150E02F6F
:10578C00F090014FE03EF0900149E0FEA3E0FF9065
:10579C000143E0FCA3E0FDD39FEE6480F8EC648051
:1057AC00984020ED9FFFEC9E900143F0A3EFF0900A
:1057BC00014DE0FEA3E0FF900152E02FF09001516B
:1057CC00E03EF0900140E004F0700690013FE004F0
:0457DC00F00256F889
:0157E00022A6
:1043EC009000F8EEF0A3EFF0A3ECF0A3EDF0A3EA4D
:0443FC00F0A3EBF04F
:10440000E4900105F0A3F0A3F0A3F0900100E0FF19
:104410007E00C39000F9E09F9000F8E09E500302F8
:1044200046579000FDE09F9000FCE09E500302463E
:10443000579000FAE0FCA3E0FD9FEC9E500302467B
:10444000579000FFE09F9000FEE09E500302465709
:10445000900100E070139000F8E0FEA3E0FF9001EF
:1044600001E0FAA3E0FB0289BD9000F8E0FAA3E0C6
:10447000FBC39000FDE09BFE9000FCE09A900109D8
:10448000F0A3CEF09000FAE0FEA3E0FFC39000FF9F
:10449000E09FFF9000FEE09E90010BF0A3EFF090F4
:1044A0000113EAF0A3EBF09000FAA3E0FF900115EE
:1044B000EEF0A3EFF0900109E0FEA3E0FFD394003B
:1044C000EE64809480400A90010FE4F0A304F08031
:1044D00021EF4E700890010FF0A3F0801574FF904B
:1044E000010FF0A3F0C3E49FFFE49E900109F0A345
:1044F000EFF090010BE0FEA3E0FFD39400EE6480A8
:104500009480400A900111E4F0A304F08021EF4E62
:104510007008900111F0A3F0801574FF900111F064
:10452000A3F0C3E49FFFE49E90010BF0A3EFF09093
:10453000010BE0FEA3E0FF900109E0FCA3E0FDD346
:104540009FEE6480F8EC64809890010D4007ECF0D9
:10455000A3EDF08005EEF0A3EFF0E4900103F0A3EB
:10456000F090010EE02401FF90010DE03400FED335
:10457000900104E09F900103E09E400302465790A3
:104580000115E0FCA3E0FD900100E0FB7A00A3E050
:10459000FFA3E09001C6CFF0A3EFF0900113E0FE7F
:1045A000A3E0FF123856900109E0FEA3E0FF90015E
:1045B00006E02FF0900105E03EF090010BE0FEA335
:1045C000E0FF900108E02FF0900107E03EF090013D
:1045D0000DE0FEA3E0FF900105E0FCA3E0FDD39F0A
:1045E000EE6480F8EC6480984020ED9FFFEC9E9094
:1045F0000105F0A3EFF090010FE0FEA3E0FF9001B2
:1046000014E02FF0900113E03EF090010DE0FEA3C6
:10461000E0FF900107E0FCA3E0FDD39FEE6480F88B
:10462000EC6480984020ED9FFFEC9E900107F0A382
:10463000EFF0900111E0FEA3E0FF900116E02FF0F3
:10464000900115E03EF0900104E004F07006900146
:0746500003E004F0024561E4
:014657002240
:0E348C00900019EEF0A3EFF0A3ECF0A3EDF02A
:10349A00E4900026F0A3F0A3F0A3F0900019E0FE58
:1034AA00A3E0FFC3EB9FFFEA9E90002AF0A3EFF090
:1034BA0090001BE0FAA3E0FBC3900020E09BFE9083
:1034CA00001FE09A90002CF0A3CEF0900019E0FFC4
:1034DA00A3E0900034CFF0A3EFF0A3EAF0A3EBF05F
:1034EA0090002AE0FEA3E0FFD39400EE648094806B
:1034FA00400A900030E4F0A304F08021EF4E7008F7
:10350A00900030F0A3F0801574FF900030F0A3F023
:10351A00C3E49FFFE49E90002AF0A3EFF090002CF2
:10352A00E0FEA3E0FFD39400EE64809480400A900A
:10353A000032E4F0A304F08021EF4E7008900032CC
:10354A00F0A3F0801574FF900032F0A3F0C3E49F5B
:10355A00FFE49E90002CF0A3EFF090002CE0FEA375
:10356A00E0FF90002AE0FCA3E0FDD39FEE6480F820
:10357A00EC64809890002E4007ECF0A3EDF08005F3
:10358A00EEF0A3EFF0E4900024F0A3F090002FE017
:10359A002401FF90002EE03400FED3900025E09F26
:1035AA00900024E09E4003023855900021E07019F3
:1035BA00900034E0FEA3E0FFA3E0FCA3E0FD90004E
:1035CA0022E0FAA3E0FB1289BD900021E0640160C9
:1035DA0003023660900034E0FEA3E0FFA3E0FCA300
:1035EA00E0FD900022E0FAA3E0FB1289BD900035CD
:1035FA00E02401FF900034E03400FE900036E0FC45
:10360A00A3E0FD900022E0FAA3E0FB1289BD90003E
:10361A0034E0FEA3E0FF900037E02401FD9000367D
:10362A00E03400FC900022E0FAA3E0FB1289BD908E
:10363A000035E02401FF900034E03400FE900037AA
:10364A00E02401FD900036E03400FC900022E0FA0C
:10365A00A3E0FB1289BD900021E0640260030237F7
:10366A00A4900034E0FEA3E0FFA3E0FCA3E0FD90F9
:10367A000022E0FAA3E0FB1289BD900035E02401A4
:10368A00FF900034E03400FE900036E0FCA3E0FD39
:10369A00900022E0FAA3E0FB1289BD900034E0FE1C
:1036AA00A3E0FF900037E02401FD900036E03400EB
:1036BA00FC900022E0FAA3E0FB1289BD900035E0FD
:1036CA002401FF900034E03400FE900037E024012A
:1036DA00FD900036E03400FC900022E0FAA3E0FB03
:1036EA001289BD900035E024FFFF900034E034FFDA
:1036FA00FE900037E02401FD900036E03400FC9093
:10370A000022E0FAA3E0FB1289BD900035E0240113
:10371A00FF900034E03400FE900037E024FFFD9073
:10372A000036E034FFFC900022E0FAA3E0FB1289A5
:10373A00BD900035E024FFFF900034E034FFFE9096
:10374A000037E024FFFD900036E034FFFC900022B1
:10375A00E0FAA3E0FB1289BD900035E024FFFF9058
:10376A000034E034FFFE900036E0FCA3E0FD900058
:10377A0022E0FAA3E0FB1289BD900034E0FEA3E048
:10378A00FF900037E024FFFD900036E034FFFC9004
:10379A000022E0FAA3E0FB1289BD90002AE0FEA312
:1037AA00E0FF900027E02FF0900026E03EF0900026
:1037BA002CE0FEA3E0FF900029E02FF0900028E023
:1037CA003EF090002EE0FEA3E0FF900026E0FCA36E
:1037DA00E0FDD39FEE6480F8EC6480984020ED9F72
:1037EA00FFEC9E900026F0A3EFF0900030E0FEA3DD
:1037FA00E0FF900035E02FF0900034E03EF09000BA
:10380A002EE0FEA3E0FF900028E0FCA3E0FDD39F9A
:10381A00EE6480F8EC6480984020ED9FFFEC9E9067
:10382A000028F0A3EFF0900032E0FEA3E0FF900042
:10383A0037E02FF0900036E03EF0900025E004F0EB
:0B384A007006900024E004F0023596A8
:013855002250
:1080B400FAE0FFA3E090002CCFF0A3EFF090028D44
:0580C400E0FEA3E0FF57
:1080C900900026EEF0A3EFF0A3ECF0A3EDF0A3EA05
:1080D900F0A3EBF04A606990031AE0FCA3E0FD907D
:1080E9000026E0FAA3E0FBD39DEA9C505390031CC1
:1080F900E0FEA3E0FF900028E0FCA3E0FD9FEC9EDA
:10810900503EAF03AE02C006C00790002AE0FEA3AE
:10811900E0FF900028E0F8A3E02FFFE83ECF24FF1E
:10812900CF34FF900036F0A3EFF090002CE0FFA3CE
:10813900E0900038CFF0A3EFF0D007D006127B957E
:018149002213
:1086A600900026EEF0A3EFF0A3ECF0A3EDF0EB4A7A
:1086B600606890031AE0FEA3E0FFD3900027E09FD6
:1086C600900026E09E505390031CE0FEA3E0FF902E
:1086D6000028E0FCA3E0FD9FEC9E503EAE02AF03F7
:1086E600900026E0FAA3E02FFFEA3ECF24FFFBEF3F
:1086F60034FFFAA3E0FFA3E0900036CFF0A3EFF03B
:1087060090002CE0FFA3E0900038CFF0A3EFF090AC
:0B8716000026E0FEA3E0FF127B95228E
:106A27009002D9EEF0A3EFF0A3ECF0A3EDF0A3EA08
:046A3700F0A3EBF0ED
:106A3B00A3E07002A3E07003026B6D9002DDE070C7
:106A4B0002A3E07003026B6D9002E4E020E003020E
:106A5B006AEAE4A3F0A3F09002DDE0FEA3E0FF906E
:106A6B0002E5E0FCA3E0FDC39FEC9E4003026B6DCF
:106A7B009002DAE02DFF9002D9E03CFEC006C00781
:106A8B009002DBE0FCA3E0FD9002E0E024FFFB9032
:106A9B0002DFE034FFFAC002C0039002E6E025E01B
:106AAB00FF9002E5E033FE9002E1E0FBA3E0FAA3E6
:106ABB00E0F98F828E831222D8FF90002CE5F0F044
:106ACB00A3EFF0D003D002D007D0061280C99002FA
:106ADB00E6E004F070819002E5E004F0026A62E403
:106AEB009002E5F0A3F09002DFE0FEA3E0FF90023E
:106AFB00E5E0FCA3E0FDC39FEC9E50669002DCE05A
:106B0B002DFD9002DBE03CFC9002DEE024FFFB90CD
:106B1B0002DDE034FFFAC002C0039002E6E025E09C
:106B2B00FF9002E5E033FE9002E1E0FBA3E0FAA365
:106B3B00E0F98F828E831222D8FF90002CE5F0F0C3
:106B4B00A3EFF09002D9E0FEA3E0FFD003D0021236
:106B5B0086A69002E6E004F0708C9002E5E004F06B
:026B6B00808424
:016B6D002205
:065BBD009001531224A226
:105BC300E490016FF0A3F0900153E0FCA3E0FDA388
:105BD300E0FEA3E0FF781012248F900160EFF0FB4A
:105BE300900153E0FCA3E0FDA3E0FEA3E0FF7808EF
:105BF30012248F900161EFF0FA900153A3A3A3E065
:105C0300FFA907900162E9F0900157E0FCA3E0FDD2
:105C1300A3E0FEA3E0FF781012248FEBFDC3EF9DFA
:105C2300FFEE9400900163F0A3EFF0900157E0FCC6
:105C3300A3E0FDA3E0FEA3E0FF780812248FEAFDB2
:105C4300C3EF9DFEE49400900165F0A3CEF09001B4
:105C530057A3A3A3E0FFE9FDC3EF9DFEE4940090E7
:105C63000167F0A3CEF0E490016FF0A3F090015E22
:105C7300E0FEA3E0FFC3900170E09F90016FE09E00
:105C83004003025DA5E0FAA3E0FB900163E0FEA3FD
:105C9300E0FFAD03AC0212220F90015EE0FCA3E033
:105CA300FD122221A3E07C002FFFEC3E900169F05E
:105CB300A3EFF0900165E0FEA3E0FFAD03AC021299
:105CC300220F90015EE0FCA3E0FD1222219001610E
:105CD300E07C002FFFEC3E90016BF0A3EFF090010E
:105CE30067E0FEA3E0FFAD03AC0212220F90015E5A
:105CF300E0FCA3E0FD122221900162E07C002FFF73
:105D0300EC3E90016DF0A3EFF0900169E0FEA3E09B
:105D13007803CEC313CE13D8F9F0EE900169F09057
:105D2300016BE0FEA3E07802CEC313CE13D8F9F0E3
:105D3300EE90016BF090016DE0FEA3E07803CEC31B
:105D430013CE13D8F9F0EE90016DF090016BE0FEE5
:105D5300A3E07805C333CE33CED8F9FDAC0690016A
:105D63006AE033333354F84CFEEDFF90016DE04E9F
:105D7300FCA3E04FFDEB25E0FFEA33FE90015BE07F
:105D8300FBA3E0FAA3E0F98F828E83EC8DF012235C
:105D930010900170E004F0700690016FE004F002CF
:025DA3005C7032
:015DA50022DB
:107254009001D8EEF0A3EFF0A3ECF0A3EDF0A3EAD5
:04726400F0A3EBF0B8
:107268009001E4E0FCA3E0FDA3E0FEA3E0FF9001B1
:10727800571224A29001ECE0F9A3E0FAA3E09001F0
:107288005BC9F0A3EAF0A3E9F09001DCE0FFA3E01A
:1072980090015ECFF0A3EFF09001E0E0FCA3E0FDE9
:1072A800A3E0FEA3E0FF125BBDE49001E8F0A3F0C9
:1072B8009001DCE0FEA3E0FFC39001E9E09F9001AC
:1072C800E8E09E400302735FE49001EAF0A3F090C7
:1072D80001DEE0FEA3E0FFC39001EBE09F9001EA2E
:1072E800E09E505F9001E8E0FAA3E0FB9001D9E04E
:1072F8002BFF9001D8E03AFEC006C0079001EAE0F3
:10730800FEA3E0FF9001DBE02FFD9001DAE03EFCF8
:10731800EB25E0FFEA33FE9001ECE0FBA3E0FAA3E3
:10732800E0F98F828E831222D8FBAAF0D007D0060C
:107338001289BD9001EBE004F070949001EAE0043A
:10734800F0808C9001E9E004F060030272B89001CB
:07735800E8E004F00272B846
:01735F00220B
:107C650090034DEEF0A3EFF0A3ECF0A3EDF0A3EA43
:107C7500F0A3EBF0C007900355E0FFA3E090002CC4
:107C8500CFF0A3EFF0D0071286A6900353E0FEA332
:107C9500E0FF900350E02FFF90034FE03ECF24FF1D
:107CA500FDEF34FFFC900351E0FAA3E0FB90035590
:107CB500E0FFA3E090002CCFF0A3EFF090034DE0A0
:107CC500FEA3E0FF1286A690034FE0FCA3E0FD9023
:107CD5000353E0FAA3E0FBA3E0FFA3E090002CCF61
:107CE500F0A3EFF090034D1280C4900351E0FEA382
:107CF500E0FF90034EE02FFF90034DE03ECF24FFC1
:107D0500CF34FFFEC00790034FE0FCA3E0FD9003D6
:107D150053E0FAA3E0FBA3E0FFA3E090002CCFF033
:087D2500A3EFF0D0070280C9B2
:1025520090028DEEF0A3EFF0A3ECF0A3EDF0A3EA6E
:04256200F0A3EBF007
:10256600E490029BF0A3F0900293E0FEA3E030E03B
:102576000A2401FFE43E90029B800B900293E0FF49
:10258600A3E090029BCFF0A3EFF0900296E09002BA
:102596009570030227B1E0F975F002A4FFC390021B
:1025A60092E09FFB900291E095F0FAE9FF90028E8F
:1025B600E02FFF90028DE03400FEC00790028FE00E
:1025C600FCA3E0FD90029BE0C313FFA3E013900081
:1025D6002CCFF0A3EFF0900297E0FFA3E090002E3F
:1025E600CFF0A3EFF0D00712839A900295E0F97529
:1025F600F002A4FFC3900292E09FFB900291E09547
:10260600F0FAE9FF90028EE02FFF90028DE0340091
:10261600FEC006C00790029BE0C313FEA3E013FFB3
:10262600900290E02FFD90028FE03EFC90029BE02E
:10263600C313FFA3E01390002CCFF0A3EFF090029A
:1026460099E0FFA3E090002ECFF0A3EFF0D007D0E3
:102656000612839A900295E0F9FB7A00900290E0C8
:102666002BFD90028FE03AFC90029BE0C313FEA381
:10267600E013FFE9F582C3EF9582FFEE9400900028
:102686002CF0A3EFF090029712838690029BE0C392
:1026960013FEA3E013FF900290E02FFD90028FE05F
:1026A6003EFC900295E0F9FB7A0090029BE0C31392
:1026B600FEA3E013FFE9F582C3EF9582FFEE9400D7
:1026C60090002CF0A3EFF09002991283869002916D
:1026D600E0FEA3E0FF90028EE02FFF90028DE03E29
:1026E600FE900295E0F9FD7C00C3EF9DFFEE9CFE97
:1026F600C006C007900290E02DFD90028FE03CFCE2
:10270600E9FB7A0090029BE0C313FEA3E013FFE906
:10271600F582C3EF9582FFEE940090002CF0A3EFB4
:10272600F0900297E0FFA3E090002ECFF0A3EFF029
:10273600D007D00612839A900291E0FEA3E0FF90A4
:10274600028EE02FFF90028DE03EFE900295E0F9AA
:10275600FB7A00C3EF9BFFEE9AFEC006C00790020D
:102766009BE0C313FEA3E013FF900290E02FFD90C1
:10277600028FE03EFC90029BE0C313FEA3E013FF32
:10278600E9F582C3EF9582FFEE940090002CF0A34A
:10279600EFF0900299E0FFA3E090002ECFF0A3EFB8
