:1001A1003F065B4F666D7D077F6FFEFDFBF7EFDF5F
:1001B100BF7F3F065B4F666D7D077F6F777C395E42
:0301C10079710051
:0401C4007FE87E034F
:0B01C800EF1FAC0670011E4C70F62209
:10000E001201DF120164E51624FE601614601F143F
:10001E006028240370310517E517B41803E4F517AB
:10002E0080221517E517B4FF0375171780160515EF
:10003E00E515B43C03E4F515800A1515E515B4FF76
:10004E000375153BE4F516E51775F00A849001A1CA
:10005E0093F50DE51775F00A84E5F093F50E750F1F
:10006E0040E51575F00A8493F510E51575F00A84D0
:10007E00E5F093F511751240E50C75F00A8493F5D1
:10008E0013E50C75F00A84E5F093F5141200A00246
:02009E0000114F
:1000A000E4FDEDB40800504D9000AFF8282873022D
:1000B00000EF0200EB0200E30200DF0200D70200C3
:1000C000D30200CB0200C7C2A28002D2A2C2A3C246
:1000D000A48022C2A28002D2A2D2A3C2A48016C24D
:1000E000A28002D2A2C2A3D2A4800AC2A28002D25B
:1000F000A2D2A3D2A4740D2DF8E6F5807F647E0011
:0C0100001201C8E4F5800DED6408709653
:01010C0022D0
:0A01DF00438901D2AFD2A9D28C22CD
:03000B0002010DE2
:04010D00C0E0C0D0BE
:10011100758CF8758A30050BE50B7002050A640AC7
:10012100450A7006F50AF50BD2000509E5097002CA
:100131000508B4F429E508B401247508007509001F
:10014100050CE50CB43C17750C000515E515B43C20
:0E0151000D7515000517E517B4180375170096
:05015F00D0D0D0E03219
:1001640020B10C1201C420B10375160130B1FD2079
:10017400B00C1201C420B00375160230B0FD20B2D9
:100184000C1201C420B20375160330B2FD20B30C67
:0D0194001201C420B30375160430B3FD2220
:030000000201D327
:0C01D300787FE4F6D8FD75812002000E54
:00000001FF
