:1083E1004D756C74696368616E6E656C20414443C0
:1083F100205465737400525F566F6C746167653AFF
:1084010000475F414456616C75653A00545F4144D1
:1084110056616C75653A00455F566F6C74616765AE
:048421003A005600C7
:0A8702004203BE00004203C0000065
:10524B00900012EAF0A3EBF090000EEEF0A3EFF05B
:10525B00A3ECF0A3EDF0900014E0FAA3E0FB9000B8
:10526B001E74A5F0A37435F0127C7290000EE0FE54
:10527B00A3E0FFA3E0FCA3E0FDA3E0FAA3E0FB9017
:10528B00001E74A5F0A37435F012814290000FE05C
:10529B002401FF90000EE03400FE900011E0240189
:1052AB00FD900010E03400FC900015E024FEFB9014
:1052BB000014E034FFFA90001E7484F0A37431F0F4
:1052CB00127C7290000FE02401FF90000EE034007E
:1052DB00FE900011E02401FD900010E03400FC90E2
:1052EB000013E024FEFB900012E034FFFA90001E46
:1052FB007484F0A37431F0128142900012E0FEA38B
:10530B00E0FF90000FE02FFF90000EE03ECF24FF58
:10531B00CF34FFFE900010E0FCA3E0FD900014E002
:10532B00FAA3E0FB74FF90001EF0A3F0127C7290C6
:10533B00000EE0FEA3E0FF900014E0FCA3E0FD9064
:10534B000011E02DFD900010E03CCD24FFCD34FF8B
:10535B00FC900012E0FAA3E0FB74FF90001EF0A398
:10536B00F0128142900012E0FEA3E0FF90000FE0EC
:10537B002FFF90000EE03ECF24FECF34FFFE9000B7
:10538B0011E02401FD900010E03400FC900015E0CA
:10539B0024FEFB900014E034FFFA90001E74DEF044
:1053AB00A374FCF0127C7290000FE02401FF9000BC
:1053BB000EE03400FE900014E0FCA3E0FD90001121
:1053CB00E02DFD900010E03CCD24FECD34FFFC9091
:1053DB000013E024FEFB900012E034FFFA90001E55
:1053EB0074DEF0A374FCF012814290000FE02402F3
:1053FB00FF90000EE03400FEC006C007900011E0E5
:10540B002402FD900010E03400FC900013E024FD1A
:10541B00FB900012E034FFFA900014E0FEA3E024AE
:10542B00FDFFEE34FF90001EF0A3EFF0900016E0AE
:10543B00FFA3E0900020CFF0A3EFF0D007D006023F
:02544B007F449C
:0A7D85007B3C7A007C007F557E00F5
:087D8F0090000EEEF0A3EFF0EE
:107D970090034CE0FFA3E09003BECFF0A3EFF09079
:107DA7000016E0FFA3E090034CCFF0A3EFF09000A4
:107DB7000EE0FEA3E0FFC002C003900014E0FBA3A7
:107DC700E0900024CBF0A3EBF0900018E0FBA3E0D9
:107DD700900026CBF0A3EBF090001AE0900028F07B
:107DE70090001BE0F9A3E0FAA3E0900029C9F0A3F3
:107DF700EAF0A3E9F0E4A3F0D003D0021265F29011
:0E7E070003BEE0FFA3E090034CCFF0A3EFF02A
:017E1500224A
:087E16009002D9EEF0A3EFF099
:107E1E0090034CE0FFA3E09003C0CFF0A3EFF090EF
:107E2E0002DEE0FFA3E090034CCFF0A3EFF0900250
:107E3E00DAE02404FF9002D9E03400FEC006C00749
:107E4E00ED2403FDE43CFCC004C0059002E0E0FF1D
:107E5E00A3E09002CECFF0A3EFF09002E2E090020A
:107E6E00D0F09002E3E0FCA3E0FDA3E0FEA3E0FF70
:107E7E009002D1122435E49002D5F0D005D004D072
:107E8E0007D006125FB49003C0E0FFA3E090034C4E
:057E9E00CFF0A3EFF09E
:017EA30022BC
:10301B00E4900000F090034A74F8F0A3E4F09003FE
:10302B0045E0FFA3E0900014CFF0A3EFF0A37410E2
:10303B00F0A374FFF0A37483F0A374E1F090034347
:10304B00E0FAA3E0FB7D0A7C007F0A7E0012747E0F
:10305B0090034A7407F0A374E0F0900345E0FFA3DC
:10306B00E0900014CFF0A3EFF0A37410F0A374FF63
:10307B00F0A37483F0A374F7F0900343E0FAA3E09A
:10308B00FB7D287C007F0A7E0012747E900345E056
:10309B00FFA3E0900014CFF0A3EFF0A37410F0A304
:1030AB0074FFF0A37484F0A37402F0900343E0FA6E
:1030BB00A3E0FB7D507C007F0A7E0012747E9003A0
:1030CB0045E0FFA3E0900014CFF0A3EFF0A3741042
:1030DB00F0A374FFF0A37484F0A3740DF09003437A
:1030EB00E0FAA3E0FB7D787C007F0A7E0012747E01
:1030FB00900345E0FFA3E0900014CFF0A3EFF0A303
:10310B007410F0A374FFF0A37484F0A37418F09000
:10311B000343E0FAA3E0FB7DA07C007F0A7E001254
:10312B00747E900345E0FFA3E0900014CFF0A3EF73
:10313B00F0A37410F0A374FFF0A37484F0A37423B2
:10314B00F0900343E0FAA3E0FB7D287C007F937EA5
:10315B000012747E900345E0FFA3E0900014CFF0C3
:10316B00A3EFF0A37410F0A374FFF0A37484F0A387
:10317B007423F0900343E0FAA3E0FB7DA07C007F77
:10318B00937E0012747EE4900000F0900000E0FF4C
:10319B00C39404502EEF75F028A42428FDE435F0D9
:1031AB00FC900014E4F0A37414F074FFA3F0A3F0EC
:1031BB007B3C7A007F557E0012524B900000E0045E
:1031CB00F080C8900000E004F0E075F00A84E5F0B0
:1031DB006003023462B2B17F94128736900001EE25
:1031EB00F0A3EFF07FD4128736900005EEF0A3EF3B
:1031FB00F07FA4128736900003EEF0A3EFF07FE48C
:10320B00128736900007EEF0A3EFF0900001E0FC80
:10321B00A3E0FDE4121DC4E4FBFA79A07840121C74
:10322B0019E4FBFA79807845121D22E4FBFA792028
:10323B007841121C19121DFD900001EEF0A3EFF066
:10324B00900001E0FAA3E0FB7C007D0AFFAE0212C6
:10325B0021B4EF2430900009F0A3742EF07C007D94
:10326B000AAF03AE021221B4ED2430A3F0E4A3F0B5
:10327B00900014F0A37414F074FFA3F0A3F0A3E474
:10328B00F0A3741FF0A37410F0A37401F0A37400E7
:10329B00F0A37409F07D28127D85900005E0FAA358
:1032AB00E0FB7C037DE8FFAE021221B4EF243090EB
:1032BB000009F07C037DE8AF03AE021221B4AA042F
:1032CB00AB057D647C00AF03AE021221B4EF24305A
:1032DB00A3F07D647C00AF03AE021221B4AA04AB51
:1032EB00057D0A7C00AF03AE021221B4EF2430A39C
:1032FB00F07D0A7C00AF03AE021221B4ED2430A3A3
:10330B00F0E4A3F0900014F0A37414F074FFA3F096
:10331B00A3F0A3E4F0A3741FF0A37410F0A3740143
:10332B00F0A37400F0A37409F07D50127D8590001A
:10333B0003E0FAA3E0FB7C037DE8FFAE021221B4AD
:10334B00EF2430900009F07C037DE8AF03AE02124E
:10335B0021B4AA04AB057D647C00AF03AE0212213D
:10336B00B4EF2430A3F07D647C00AF03AE021221D6
:10337B00B4AA04AB057D0A7C00AF03AE021221B4E4
:10338B00EF2430A3F07D0A7C00AF03AE021221B410
:10339B00ED2430A3F0E4A3F0900014F0A37414F028
:1033AB0074FFA3F0A3F0A3E4F0A3741FF0A37410B5
:1033BB00F0A37401F0A37400F0A37409F07B3C7AC2
:1033CB00007D78127D89900007E0FCA3E0FDE412FC
:1033DB001DC4E4FBFA79A07840121C19E4FBFA79BE
:1033EB00807845121D22E4FBFA79207841121C19D2
:1033FB00121DFD900007EEF0A3EFF0900007E0FA2E
:10340B00A3E0FB7C007D0AFFAE021221B4EF243057
:10341B00A3F0A3742EF07C007D0AAF03AE02122141
:10342B00B4ED2430A3F0E4A3F0900014F0A37414D3
:10343B00F074FFA3F0A3F0A3E4F0A3741FF0A37444
:10344B0010F0A37401F0A37400F0A37409F07B3C9B
:10345B007A007DA0127D897F0A7E001286AA023136
:01346B00CE92
:0B87A40012874F1244B712301B80FEFA
:0B87AF00EF1FAC0670011E4C70F6229C
:0E877A00EF1FAC0670011E4C60030080F3225E
:1086AA00D3EF9400EE940040147D6E7C00ED1D70B3
:0D86BA00011CED4C70F7EF1F70E61E80E311
:0186C7002290
:05870C004200AF000077
:10874F00759850758920758780758DFA858D8BD2B8
:06875F00AFD28ED2992278
:0687C500EF24FF92AC223C
:0E878800C2ACC2998F993099FDC299D2AC2231
:1085D7009003C6EBF0A3EAF0A3E9F09003C6E0FB33
:1085E700A3E0FAA3E0F9122128FF60161287887F1B
:1085F700057E001287AF9003C7E475F00112223F92
:0386070080D922F5
:03002300027FBA9F
:107FBA00C0E0C083C082C0D075D000C004C005C074
:017FCA0007AF
:107FCB00309864C298AF999000AFE0FCEC20E75773
:107FDB0030E60FEF640A9000AF60028046E0448009
:107FEB00800AEFB40D0C9000AFE04440F0A3E0F03A
:107FFB0080359000AFE0543FFCA3E0247DF5827404
:10800B00003CF583EFF09000B0E004F070069000B8
:10801B00AFE004F0D39000B0E094319000AFE09467
:07802B00004004E4F0A3F0A3
:0F803200D007D005D004D0D0D082D083D0E03298
:10002600204C43442049443A25780D0A000000003C
:10003600000000000000000000000000003F40003B
:1000460000000000000000300040003000400000CA
:100056000009000BC03D000BC03D00090018C0247C
:10006600407FE0224031800000180024C01B000DB4
:10007600803240018003801C4027401C80074000DE
:1000860040100060000000000000000000000000BA
:100096000000001F80204040200000402020401F1C
:1000A6008000000000090006001F8006000900000D
:1000B60000040004003F800400040000000010005B
:1000C60060000000000000000004000400040004BA
:1000D60000040000000000004000000000000000D6
:1000E60000002001C006003800400000001F8020EC
:1000F60040204020401F800000000010403FC0000C
:10010600400000000018C021402240244018400052
:100116000010802040244024401B80000002000D77
:100126000011003FC0014000003C802440244024D0
:1001360040238000001F8024402440344003800078
:10014600003000200027C03800200000001B80245B
:1001560040244024401B8000001C0022C022402274
:10016600401F800000000000000840000000000062
:100176000000000000046000000000000000000411
:10018600000A00110020804040090009000900090A
:10019600000900000000004040208011000A000411
:1001A600001800200023402400180000001F8020B3
:1001B60040274029401F400000004007C039000F7B
:1001C6000001C0004020403FC0244024401B800066
:1001D600001F802040204020403080000020403F0B
:1001E600C0204020401F80000020403FC024402EF9
:1001F6004030C0000020403FC024402E00300000A8
:10020600000F001080204022403380020020403F33
:10021600C0040004003FC02040204020403FC020D2
:1002260040204000000060202020203FC020002009
:100236000020403FC024400B0030C0204020403FFB
:10024600C020400040004000C03FC03C0003C03C0E
:10025600003FC0000020403FC00C4023003FC020AC
:10026600001F802040204020401F80000020403F8B
:10027600C024402400180000001F80214021402097
:10028600E01FA0000020403FC02440260019C00007
:100296004018C02440244022403180000030002015
:1002A600403FC020403000000020003F800040005A
:1002B600403F80200020003E0001C007003800209B
:1002C60000380007C03C0007C03800000020403955
:1002D600C0060039C0204000002000384007C03862
:1002E6004020000000304021C02640384020C00099
:1002F60000000000007FE040204020000000007069
:10030600000C000380004000000000402040207FD9
:10031600E000000000000020004000200000000077
:100326000000100010001000100010001000000067
:1003360000400000000000000000000280054005AB
:100346004003C0004020003FC0044004400380003A
:100356000000000380044004400640000000000343
:1003660080044024403FC000400000038005400553
:100376004003400000000004401FC02440244020E9
:1003860000000002E0055005500650042020403FC2
:10039600C00440040003C000400000044027C00021
:1003A600400000000000100010041027E0000000CC
:1003B6000020403FC00140070004C0044020402008
:1003C600403FC000400040000007C0040007C004D2
:1003D6000003C00000044007C00440040003C0003E
:1003E600400000038004400440038000000410071E
:1003F600F004500440038000000000038004400421
:100406005007F00010044007C0024004000400003A
:1004160000000006400540054004C000000000043E
:10042600001F8004400040000004000780004004D4
:100436004007C000400400070004C0018006000415
:1004460000060001C0070001C006000000044006C7
:10045600C0010006C0044000000410071004E001BB
:1004660080060004000000044005C0064004400069
:10047600000000000004007BE040200000000000B7
:10048600000000FFF000000000000040207BE004B8
:1004960000000000004000800040002000200040D6
:1004A6000000000000000000000000000000000046
:1004B600000000000000001FCC000C00000000003F
:1004C60000000008003000600008003000600000F6
:1004D60000022003FC1E20022003FC1E2002200036
:1004E6000000000E1811043FFF10840C7800000075
:1004F600000F0010840F3800C007781884007800B9
:100506000000780F8410C411240E9800E4008400C3
:1005160008080068007000000000000000000000ED
:100526000000000000000007E01818200440020048
:1005360000000040022004181807E0000000000038
:10054600000240024001800FF0018002400240009C
:10055600000080008000800FF8008000800080008E
:10056600000001000D000E00000000000000000069
:100576000000000080008000800080008000800075
:10058600800000000C000C000000000000000000CD
:100596000000000006001800600180060018002018
:1005A60000000007F0080810041004080807F0000F
:1005B600000000080408041FFC00040004000000FA
:1005C6000000000E0C10141024104411840E0C00B0
:1005D6000000000C1810041104110412880C70009D
:1005E60000000000E00320042408241FFC0024006F
:1005F6000000001F98108411041104108810700068
:1006060000000007F0088811041104188800700023
:100616000000001C00100010FC13001C001000005D
:100626000000000E3811441084108411440E380066
:100636000000000700088C10441044088807F000EA
:1006460000000000000000030C030C000000000086
:10065600000000000000010106000000000000008C
:100666000000000080014002200410080810040069
:100676000002200220022002200220022002200086
:100686000000001004080804100220014000800049
:100696000000000E001200100C106C10800F0000FD
:1006A6000003E00C1813E4142417C4082807D0002C
:1006B600000004003C03C41C40074000E4001C008A
:1006C6000410041FFC1104110411040E88007000AC
:1006D6000003E00C1810041004100410081C10008D
:1006E6000010041FFC100410041004080807F00092
:1006F6000010041FFC1104110417C410040818008C
:100706000010041FFC1104110017C010000800009F
:100716000003E00C181004100410441C780040007C
:100726000010041FFC10840080008010841FFC1041
:10073600040000100410041FFC1004100400000044
:100746000000030001100110011FFE100010000040
:100756000010041FFC110403801464181C1004000C
:100766000010041FFC1004000400040004000C0028
:100776000010041FFC1F0000FC1F001FFC100400DB
:100786000010041FFC0C04030000E010181FFC10EE
:100796000007F00808100410041004080807F00009
:1007A6000010041FFC10841080108010800F0000C1
:1007B6000007F0081810241024101C080A07F2007D
:1007C6000010041FFC1104110011C011300E0C00A2
:1007D6000400000E1C11041084108410441C380000
:1007E600001800100010041FFC1004100018000070
:1007F6000010001FF810040004000410041FF81075
:100806000010001E0011E0001C007013801C001078
:10081600001FC0103C00E01F0000E0103C1FC0009D
:10082600001004180C163401C001C01634180C1040
:100836000410001C00130400FC13041C001000002C
:10084600000804101C1064108413041C0410180003
:10085600000000000000007FFE400240024002004F
:1008660000000030000C0003800060001C00030044
:100876000000004002400240027FFE00000000002F
:100886000000000000200040004000400020000062
:10089600000001000100010001000100010001004B
:1008A60001000040004000200000000000000000A1
:1008B6000000000098012401440144014400FC00AA
:1008C6000410001FFC008801040104008800700069
:1008D6000000000070008801040104010400880083
:1008E600000000007000880104010411081FFC00CC
:1008F60004000000F8014401440144014400C8001A
:10090600000000010401040FFC1104110411001879
:1009160000000000D601290129012901C9010600AC
:100926000010041FFC008401000100010400FC000B
:100936000400000104190419FC000400040000006E
:10094600000000000300010101190119FE0000006A
:100956000010041FFC0024004001B4010C01040037
:10096600000000100410041FFC0004000400000036
:1009760000010401FC0104010001FC010401000066
:10098600FC010401FC008401000100010400FC00DC
:1009960004000000F8010401040104010400F80049
:1009A60000010101FF0085010401040088007000B8
:1009B6000000000070008801040104010501FF0029
:1009C600010104010401FC0084010401000180000E
:1009D60000000000CC012401240124012401980018
:1009E6000000000100010007F801040104000000F6
:1009F60000010001F8000400040004010801FC00E5
:100A060004010001800170000C00100160018001EA
:100A16000001F0010C003001C00030010C01F001B2
:100A26000000000104018C00740170018C010400B7
:100A360000010101810171000E00180160018001B1
:100A46000000000184010C013401440184010C0002
:100A560000000000000000000001003EFC400240D3
:100A6600020000000000000000FFFF000000000080
:100A7600000000400240023EFC01000000000000B1
:100A86000000006000800080004000400020002040
:100A96000000000000000000000000000000000050
:100AA6000000000000000000000000000000000040
:100AB6000000000000000000000000000000000030
:100AC600000000000F80380FFE380F80380000004D
:100AD600000000000000000000000000000000010F
:100AE60000000600000C000038000031000006007F
:100AF600000C00003800003000000000000000007C
:100B06000061800067F807F980006180006180005D
:100B160061800061800067F807F98000618000004D
:100B26000000000000000001C0E003E0F00630080D
:100B36000418081FFFFE040E080787F00381E00073
:100B4600000000000001F000060C00040408060C7A
:100B56007001F9C0000E00003BE000EC1807080821
:100B6600040C180003E00000000001E00007F00399
:100B7600F818041C0804170807E1D003C0E0002396
:100B8600B0003C0800200800001000000000000033
:100B96000100003100003200001C000000000000CF
:100BA600000000000000000000000000000000003F
:100BB600000000000000000000000000000000002F
:100BC600007F0001FFC00780F00C00181000042011
:100BD60000020000000000002000021000040C00CB
:100BE600180780F001FFC0007F0000000000000031
:100BF60000000000000000000000000000420000AD
:100C06006600006600003C0000180003FFC00018E4
:100C160000003C0000660000660000420000000084
:100C26000008000008000008000008000008000195
:100C3600FFC00008000008000008000008000008C7
:100C46000000000000000100003100003200001C1E
:100C5600000000000000000000000000000000008E
:100C66000000000000000000000800000800000866
:100C76000000080000080000080000080000080046
:100C8600000800000800000000000000000000004E
:100C960000380000380000380000000000000000A6
:100CA600000000000000000000000000000000003E
:100CB60000000600001C000070000180000E00000D
:100CC600380000C0000700001C00003000000000D3
:100CD60000000000007F8001FFE00380700600181E
:100CE60004000804000806001803807001FFE000F5
:100CF6007F800000000000000000000100080100E5
:100D06000801000803FFF807FFF8000008000008C4
:100D160000000800000000000000000001C03802CA
:100D2600C058040098040118040218040418061C8C
:100D36001803F81801E0F8000000000000000000A9
:100D460001C0E003C0F0040008040808040808060F
:100D5600180803F41801E7F00001E00000000000A5
:100D660000000000000300000D00001100006100FB
:100D760000810803010807FFF80FFFF800010800CB
:100D860001080000000000000000E007FCD0060893
:100D960008061008061008061008061838060FF090
:100DA6000607C0000000000000000000003F8001B0
:100DB600FFE0038430020818041008041008041029
:100DC60008071810030FF00007C00000000000001D
:100DD60000000003C0000700000600000600F80639
:100DE60007F806180006E0000700000600000000ED
:100DF6000000000001E1E003F7F0063410041808D3
:100E0600041808040C08040C0806161803F3F0016D
:100E1600C1E000000000000000F80003FC300306FB
:100E2600380402080402080402080404100308F047
:100E360001FFC0007F00000000000000000000006D
:100E460000000000000000000070380070380070DC
:100E56003800000000000000000000000000000054
:100E660000000000000000000000000000301A0032
:100E7600301C000000000000000000000000000020
:100E8600000000000000000008000014000022001E
:100E9600004100008080010040020020040010088C
:100EA60000080000000000000021000021000021D1
:100EB6000000210000210000210000210000210087
:100EC60000210000210000000000000000000008D2
:100ED600000804001002002001004000808000414C
:100EE60000002200001400000800000000000000BE
:100EF60003C00004C000040000080038080F3808CA
:100F060008380810000C300007E00003C00000009D
:100F160000000000003F8000FFE0038070020F1019
:100F260006708804C088048308047F8802C0900382
:100F3600012000FE400000080000180001F8003EF5
:100F46000801C20007020007E20000FE00001FC8F9
:100F56000001F800003800000804000807FFF80741
:100F6600FFF8040808040808040808040808061816
:100F76000803F41801E7F00001E00000000000009B
:100F8600003F8001FFE0038070020018040008049F
:100F960000080400080400100600200780C00000B6
:100FA6000004000807FFF807FFF80400080400081B
:100FB60004000804001802001003807001FFE0001E
:100FC6007F8000000004000807FFF807FFF8040808
:100FD60008040808040808040808043E0804000871
:100FE60006001801006000000004000807FFF8076B
:100FF600FFF8040808040800040800040800043E7A
:10100600000600000600000180000000000000004D
:10101600003F8001FFE0038070060018040008040A
:1010260002080402080203F00783F000020000022F
:101036000004000807FFF807FFF804080800080086
:1010460000080000080000080004080807FFF80769
:10105600FFF8040008000000000000040008040077
:101066000804000807FFF807FFF804000804000852
:101076000400080000000000000000000000060058
:10108600000700000104000104000104000307FF3B
:10109600FE07FFFC04000004000004000004000832
:1010A60007FFF807FFF8040C08001800003E0004CC
:1010B600C7800503C80600F80400380400180000BD
:1010C6000804000807FFF807FFF8040008000008F6
:1010D60000000800000800000800000800001800D2
:1010E600006000000004000807FFF807800807FCFE
:1010F60000007FC00003F80007C0007800078008E2
:1011060007FFF807FFF804000804000807FFF807C0
:10111600000803C00000E000003800001E000007C1
:10112600000001C00400F007FFF804000000000002
:10113600007F8001FFE003807006001804000804A9
:10114600000806001803003001FFE0007F80000061
:101156000004000807FFF807FFF804040804040069
:10116600040400040400040400060C0003F8000153
:10117600F000000000000000007F8001FFE0038017
:10118600700600880400880400C806003C03003E80
:1011960001FFE6007F8400000004000807FFF8074F
:1011A600FFF8040808040800040C00040F00040BF0
:1011B600C00610F003F03801E00800000800000047
:1011C60001E0F803F030063010041808041808048B
:1011D6000C08040C080206180207F00781E000005C
:1011E600000180000600000400000400000400085E
:1011F60007FFF807FFF804000804000004000006D3
:10120600000001800004000007FFE007FFF0040073
:101216001800000800000800000800000800000888
:1012260004001007FFE004000004000006000007A9
:10123600E00007FE00041FE00001F800003800018E
:10124600E0043E0007C000060000040000040000A1
:1012560007E00007FFC0041FF80007C007F80007F3
:10126600FF80043FF80007C004F8000700000400F0
:101276000000000004000806001807C07805F1C841
:10128600003E00001F800463E80780F8060018048B
:10129600000800000004000006000007800007E0C8
:1012A60008047C08001FF80007F800180804E00886
:1012B6000700000600000400000000000100080608
:1012C60000380400F80403E8040F08047C0805F05D
:1012D6000807C008070018040060000000000000AE
:1012E6000000000000000000000000003FFFFE209C
:1012F600000220000220000220000220000200005E
:101306000000000000000008000007000000C00008
:101316000038000006000001C000003000000E008A
:101326000001000000000000000000200002200074
:10133600022000022000022000023FFFFE00000003
:101346000000000000000000000000000000000097
:1013560000000800001000003000002000003000EF
:10136600001000000800000000000000000000015E
:101376000000010000010000010000010000010062
:101386000001000001000001000001000001000052
:101396000100000000000000000020000020000006
:1013A6001000001000000000000000000000000017
:1013B60000000000000000000000F00019F8001B0B
:1013C60018002208002608002408002410003FF810
:1013D600001FF800000800001800000004000007C5
:1013E600FFF80FFFF0001818001008002008002072
:1013F60008003018001FF0000FC0000000000000B9
:101406000007C0001FF00018300020080020080068
:101416002008003C08001C100000600000000000CE
:10142600000000000007C0001FF000381800200868
:1014360000200800200804101007FFF80FFFF00036
:1014460000100000000000000000000007C0001FA0
:10145600F00012300022180022080022080032088C
:10146600001E10000E2000000000000000200000FA
:10147600200800200801FFF803FFF80620080420D2
:1014860008042008072000030000000000000000F8
:1014960000000E000E6E001FF30031B10020B100F7
:1014A60020B1003191001F13002E1E00200E0030C7
:1014B6000000000004000807FFF80FFFF8001008FE
:1014C600002000002000002008003FF8001FF80060
:1014D60000080000000000000000000020080020B6
:1014E60008002008063FF8063FF80000080000083C
:1014F60000000800000000000000000000000000DE
:101506000003000003002001002001002003063F25
:10151600FE063FFC00000000000000000000000086
:1015260004000807FFF80FFFF80001880003000019
:101536002FC00038F80020380020080000080000FE
:101546000000000000000004000804000804000871
:1015560007FFF80FFFF80000080000080000080069
:101566000000000000002008003FF8003FF80010CF
:1015760008002000003FF8003FF800100800200097
:10158600003FF8003FF800000800000000200800B7
:101596003FF8003FF800100800100000200000206F
:1015A60008003FF8001FF8000008000000000000D7
:1015B6000007C0000FF000183000300800200800B7
:1015C6002008003008001830000FF00007C00000A7
:1015D60000000000002001003FFF003FFF00101147
:1015E600002009002008002008003038001FF00005
:1015F6000FC00000000000000007C0001FF0003808
:1016060018002008002008002009001011001FFF04
:10161600003FFF0000010000000020080020080035
:101626002008003FF8003FF80008080010080020D6
:10163600080020000030000030000000000000001C
:10164600000000000C78001E180033080023080074
:1016560021080021880021980030F0003860000041
:101666000000000000200000200000200000FFF025
:1016760003FFF800200800200800200800003000C2
:101686000000000000000000002000003FF0007F86
:10169600F8000018000008000008002010003FF8BD
:1016A600007FF00000100000000000000020000095
:1016B6003000003C00003F800023F000007800006E
:1016C60070002380003C0000300000200000200055
:1016D600003C00003FE00023F80000E00027000087
:1016E6003E00003FE00021F80001E0003E0000203F
:1016F60000000000002008002008003838003E687E
:101706000027800003C8002CF80038380020180095
:101716002008000000000000002000003003003C0C
:1017260001003F830023EC000070002380003C0092
:101736000020000020000000000000000000000063
:1017460038080020380020F80023E8002F88003EE3
:101756000800380800201800007000000000000093
:10176600000000000000000000000000000800006B
:1017760014001FF7FC3000062000020000000000E5
:101786000000000000000000000000000000000053
:10179600000000FFFFFF0000000000000000000046
:1017A60000000000000000000000002000023000E1
:1017B600061FF7FC001400000800000000000000EF
:1017C600000000000000000000000000180000609B
:1017D600000040000040000020000010000008004B
:1017E600000400000400000C0000100000C6D50034
:1017F60000000000E0380000783C00003C78000063
:101806003C70C0001CE1E01FFFFFF0001CE3000E6F
:101816001CE7C0079CE78003DCEF0003DCEE000159
:10182600DCFC60009CF9F07FFFFFF800000000017F
:10183600C00E0001FFFF0001C00E0001C00E000136
:10184600C00E0001FFFE0001C00E0001C00E000127
:10185600C00E0001FFFE0001C00E0001C00E000018
:10186600000000D6D000000000000700000007803E
:101876000000070000000700000007000000070145
:10188600801FFFFFE01FFFFFE01E0701C01E0701CC
:10189600C01E0701C01E0701C01E0701C01E0701AA
:1018A600C01FFFFFC01FFFFFC01E0701C01C0701AE
:1018B6008000070000000700000007000000070086
:1018C60000000700000007000000070000000700F6
:1018D600000007000000000000BFC6000000000076
:1018E600000780003C07C001FC07803FE007803905
:1018F600C1C78001C0E78001C0F78001C0778001C1
:10190600DE77807FFE078001C0078003C3C78003A0
:10191600E1E78003F8F78007FCE7F00FDE67F80FD2
:10192600DC07F81FC0FF801DDFE78039CC07807118
:10193600C0078061C0078001C0078001C007800121
:10194600E0078001E0078001C0070000000000BC3E
:10195600BC000000000380300003C03C0003C03C14
:101966000003C0380003C0380003C0386003F838ED
:10197600F07FFFFFF003C0380003C0380003C03813
:101986000003DC39C003FFFFE007E383C03FC183E8
:10199600C07FC1C3803BC1C78003C0EF0003C0EF57
:1019A6000003C07E0003C07C0003C07C0003C0FEB1
:1019B600003BC3EF803F8787F80FBF03F807780027
:1019C600E000000000C4EA0000000000C0000001C2
:1019D600F0000001E0000003C000C003C001E00702
:1019E600FFFFF00703C0000E03C0001E03C0003C4B
:1019F60003C3007303C78063FFFFC00383C00003F4
:101A060083C0000383C0000383C0000383C0600358
:101A160083C0F07FFFFFF80003C0000003C0000092
:101A260003C0000003C0000003C0000003C00000A4
:101A360003C0000003C00000000000D4C200000084
:101A4600000000000000E0070000FFFF8000F00734
:101A56008000F0070000F0070000F0070000F00724
:101A66000000FFFF0000FFFF0000F0070000F00786
:101A76000000F0070000F0070000E0070000FFFF8D
:101A86000000E0070000E0070000E0070001E007B3
:101A96000001C0070001C00700038007000780F7A8
:101AA600000F007F001E001F0038001C0000000011
:101AB60000C8D5000000000000000003000300037A
:101AC600FFFF8003FFFF80038007000380070003FA
:101AD60080070003800700038007000380070003D8
:101AE6008007000380070003FFFF00038007000351
:101AF60080070003800700038007000380070003B8
:101B060080070003800700038007000380070003A7
:101B1600FFFF000380070003800700038007000320
:101B260000000000000000D0C70000000000000018
:101B3600000380070003FFFF800380070003800780
:101B4600000380070003FFFF0003800700038007F0
:101B56000003FFFF0003FFFF00038707000387C0A2
:101B66000003C7810003C7838007FFFFC007078004
:101B7600000F0780001E0786001C078F003BFFFF33
:101B8600807007800000078000000780E000078162
:101B9600F07FFFFFF80000000000000000C6DA003A
:101BA60000000006000000079E0000079E7FF00769
:101BB6009E7FF0079FF8F03FFFF8F01F9E78F00732
:101BC6009E78F0079E78F007FE7FF0079E78F00774
:101BD6009E78F0079E70F007FE70F0079E70F00783
:101BE6009E7FF0079FFFF03FFFF0F0119070F0032B
:101BF600DCF0F003DEE0F0078FE0F00F0FE0F00E10
:101C060007C0F01C038FF0380F03E0201C01C00052
:031C1600000000CB
:0A87110042034AFFFF42034C000040
:10000300E4FDFCC3ED9FEC9E5014E4FBFA0BBB0034
:0E001300010AEBF44A70F60DBD00010C80E509
:0100210022BC
:10860A007E0012861CA3E0FEA3E0FF1286687F218B
:02861A007E00E0
:04861C00AD07AC06F4
:10862000ECFFAE05D2A5C2A7D2B2C2A68F90AF060C
:088630008F80C2A5D2A5D2A7DC
:01863800221F
:088660007E0012861CE4FFFEFF
:04866800AD07AC06A8
:10866C00ECFFAE05D2A5C2A7D2B2D2A68F90AF06B0
:08867C008F80C2A5D2A5D2A790
:0186840022D3
:088685009003ABE0FEA3E0FF4F
:04868D00AD07AC0683
:10869100ECFFAE05D2A5C2A7D2B2D2A68F90AF068B
:0886A1008F80C2A5D2A5D2A76B
:0186A90022AE
:0E879600AB05AA0412861CAE02AF0302866871
:10871C007590FF7580FFC2A7D2A6C2B200AF90EFD2
:09872C00FEAD80EDFFD2B2D2A730
:018735002221
:10846900900349EFF0701D7D1B7C017F01FE12878F
:1084790096900345E4F0A374DCF0900343E4F0A381
:1084890074B0F022E4FDFC7F01FE1287969003454B
:10849900E4F0A374B0F0900343E4F0A374DCF02299
:1044B700E4FED2B37F641286AAC2B37F647E001281
:1044C70086AAD2B37F647E001286AAE4FFFE128614
:1044D7001C12871C900347EEF0A3EFF07BFF7A00D6
:1044E7007926900003EEF0A3EFF0122C037F101251
:1044F70086607F111286607F121286607F13128694
:1045070060E4FFFE12861C7F017E001286687E1320
:104517007F88EF1F70011EEF4E70F77F117E00122C
:10452700861C7F017E001286687F137E0012861C20
:104537007F1C7E141286687F127E0012861C7F18ED
:104547007E001286687F107E0012861C7F447E00E4
:104557001286687E137F88EF1F70011EEF4E70F77B
:104567007F107E0012861C7F407E001286687F13B4
:104577007E0012861C7F137E341286687E137F8826
:10458700EF1F70011EEF4E70F77F087E0012861C2A
:104597007408FFFE1286687F097E0012861C7F0161
:1045A7007E001286687F0B1286607F211286607FED
:1045B700231286607F241286607F301286607F31E7
:1045C7001286607F327E0012861C7F077E0012866D
:1045D700687F337E0012861C7F077E001286687F05
:1045E700341286607F351286607F361286607F3789
:1045F7001286607F381286607F391286607F017E5F
:104607000012861C7F1B7E011286687F027E0012C5
:10461700861C7F007E071286687F037E0012861C39
:104627007F307E601286687F041286607F0512865F
:10463700607F401286607F417E0012861C7FAF7EBE
:10464700001286687F427E0012861C7F007EDB1286
:1046570086687F437E0012861C7F007EDB12866899
:104667007F447E0012861C7F007EAF1286687F45DE
:104677007E0012861C7F007EDB1286687F107E001C
:1046870012861C7440FFFE1286687F077E00128622
:104697001C7F057E001286687E137F88EF1F7001DE
:1046A7001EEF4E70F77F077E0012861C7F257E0067
:1046B7001286687E137F88EF1F70011EEF4E70F71A
:1046C7007F077E0012861C7F277E001286687E1376
:1046D7007F88EF1F70011EEF4E70F77F077E001275
:1046E700861C7F377E001286687E137F88EF1F70D7
:1046F700011EEF4E70F77F227E0012861CE4FF1228
:0D470700846990034CE0FEA3E0FF028041B6
:057CF300E0FEA3E0FF2C
:0E7CF800900071EEF0A3EFF0A3ECF0A3EDF01E
:107D0600EBFE900071E0FCA3E0FDEC4EFFED900071
:107D160079CFF0A3EFF0900078E0FE900073E0FAE0
:107D2600A3E0FBEA4EFFEB90007BCFF0A3EFF0EB76
:107D3600FEEC4EFEEDFBAA06900349E0701C7F4464
:107D4600FE12861C900079E0FEA3E0FF1286687F93
:107D56004512860AAF03AE02801B7F457E0012865F
:107D66001C900079E0FEA3E0FF1286687F4412862D
:0F7D76000AAE02AF031286687F227E0002861CCF
:0C829B0090034EECF0A3EDF0AB07AA0638
:1082A700E4A3F0A3F0A3F0A304F0A3E4F0A304F085
:1082B700D3900344E09B900343E09A401590034515
:1082C700E0FEA3E0FF90034EE0FCA3E0FD9FEC9EE1
:1082D7004004E4FEFF22AF03AE02C00790034EE066
:1082E700FFA3E0900077CFF0A3EFF0D007127CF860
:0882F700900350E0FEA3E0FF3C
:0182FF00225C
:08804100900000EEF0A3EFF047
:10804900E4A3F0A3F0900344E024FFFB900343E092
:1080590034FFFA900346E024FFFE900345E034FF25
:10806900900077F0A3CEF0E4FDFCFFFE127CF8E46B
:10807900FAFBD3900344E09B900343E09A4039E430
:10808900900002F0A3F0900345E0FEA3E0FFC39047
:108099000003E09F900002E09E50169000001286B7
:1080A90088900003E004F070DD900002E004F080A5
:0880B900D50BBB00010A80BADF
:0180C100229C
:1077E900900024ECF0A3EDF0900022EEF0A3EFF06E
:0877F900900026EAF0A3EBF07A
:10780100E490002CF0A3F0D3EF9BEE9A40030278B2
:10781100B8900028E0FEA3E0FF900024E0FCA3E084
:10782100FD9FEC9E40030278B8900026E0FAA3E0A9
:10783100FBA3E0FFA3E0900077CFF0A3EFF090006F
:1078410022127CF3900022E0FEA3E0FFC390002708
:10785100E09FFF900026E09ECF2401CF34009000EE
:1078610022F0A3EFF0A3E0FEA3E0FFC3900029E024
:107871009FFF900028E09ECF2401CF340090002488
:10788100F0A3EFF090002274FFF5F012225545F0BD
:107891006025900024E0FFA3E090002CCFF0A3EF3F
:1078A100F090002C74FFF5F012225545F060D59050
:0778B100002A12868880EA1C
:0178B80022AD
:0E70AE0090024FEEF0A3EFF0A3ECF0A3EDF094
:1070BC0090024FE0FEA3E0FFC3EB9FFFEA9ECF24BC
:1070CC0001CF340090025CF0A3EFF0900251E0FE8F
:1070DC00A3E0FFC3900256E09FFF900255E09ECFC5
:1070EC002401CF340090025AF0A3EFF0900251E04B
:1070FC00FCA3E0FD900255E0FFA3E0900077CFF0F9
:10710C00A3EFF090024F127CF3E490025EF0A3F038
:10711C0090025AE0FEA3E0FFC390025FE09F900252
:10712C005EE09E5074E4900260F0A3F090025CE08C
:10713C00FEA3E0FF900260E0FAA3E0FBC39FEA9E8F
:10714C00504690025CE0FCA3E0FDA3E0FEA3E0FF50
:10715C001221A2EB2FFFEA3EFEEF25E0FFEE33FEFD
:10716C00900257E0FBA3E0FAA3E0F98F828E831222
:10717C00226BFFAEF012868D900261E004F070ACD1
:10718C00900260E004F080A490025FE004F0708054
:09719C0090025EE004F002711C97
:0171A50022C7
:1084A90090035EFEE0FCA3E0FDC390035BE09DFD4D
:0684B90090035AE09CFC58
:1084BF00AB07AA068D828C83C006C007AE83AF823E
:1084CF00900077EEF0A3EFF0D007D006127CF89073
:0A84DF00034AE0FEA3E0FF02868DD1
:06839900FDE0FAA3E0FB89
:10839F0090006BEEF0A3EFF090006FEAF0A3EBF01C
:1083AF0090006DECF0A3EDF090006BE0FAA3E0FB12
:1083BF00FFAE02C007A3E0FFA3E0900077CFF0A3CA
:1083CF00EFF0D007127CF890006FE0FEA3E0FF0201
:0283DF00868D89
:1081BD009003A1EEF0A3EFF0A3ECF0A3EDF0A3EA92
:1081CD00F0A3EBF012839F9003A2E02401FF900334
:1081DD00A1E03400FE9003A3E0FCA3E0A312839979
:1081ED009003A1E0FEA3E0FF9003A4E02401FD9025
:1081FD0003A3E03400FC9003A512839A9003A2E040
:10820D002401FF9003A1E03400FE9003A4E02401BB
:10821D00FD9003A3E03400FC9003A5E0FAA3E0FB7E
:03822D0002839F2A
:0E56400090018FEEF0A3EFF0A3ECF0A3EDF0DD
:10564E00E4900197F0A3F0A3F0A3F0A3F0A3F090E1
:10565E00018FE0FEA3E0FFC3EB9FFFEA9E90019D4A
:10566E00F0A3EFF0900191E0FAA3E0FBC390019656
:10567E00E09BFE900195E09A90019FF0A3CEF090F2
:10568E00018FE0FFA3E09001A7CFF0A3EFF0A3EA14
:10569E00F0A3EBF090019DE0FEA3E0FFD39400EEAB
:1056AE0064809480400A9001A3E4F0A304F080216A
:1056BE00EF4E70089001A3F0A3F0801574FF9001D7
:1056CE00A3F0A3F0C3E49FFFE49E90019DF0A3EF2F
:1056DE00F090019FE0FEA3E0FFD39400EE6480946F
:1056EE0080400A9001A5E4F0A304F08021EF4E70F3
:1056FE00089001A5F0A3F0801574FF9001A5F0A30A
:10570E00F0C3E49FFFE49E90019FF0A3EFF09001A1
:10571E009FE0FEA3E0FF90019DE0FCA3E0FDD39F80
:10572E00EE6480F8EC6480989001A14007ECF0A341
:10573E00EDF08005EEF0A3EFF0E4900197F0A3F00A
:10574E009001A2E02401FF9001A1E03400FED3906D
:10575E000198E09F900197E09E400302582E900121
:10576E00A7E0FEA3E0FFA3E0FCA3E0FD1284BF9040
:10577E00019DE0FEA3E0FF90019AE02FF0900199C9
:10578E00E03EF090019FE0FEA3E0FF90019CE02F31
:10579E00F090019BE03EF09001A1E0FEA3E0FF90AF
:1057AE000199E0FCA3E0FDD39FEE6480F8EC6480E9
:1057BE00984020ED9FFFEC9E900199F0A3EFF090A2
:1057CE0001A3E0FEA3E0FF9001A8E02FF09001A757
:1057DE00E03EF09001A1E0FEA3E0FF90019BE0FC13
:1057EE00A3E0FDD39FEE6480F8EC6480984020ED3A
:1057FE009FFFEC9E90019BF0A3EFF09001A5E0FEC1
:10580E00A3E0FF9001AAE02FF09001A9E03EF090F6
:10581E000198E004F07006900197E004F002574EF4
:01582E002257
:0E582F00900135EEF0A3EFF0A3ECF0A3EDF046
:10583D00E4900141F0A3F0A3F0A3F0900135E0FE58
:10584D00A3E0FFC3EB9FFFEA9E900145F0A3EFF0AD
:10585D00900137E0FAA3E0FBC390013CE09BFE9082
:10586D00013BE09A900147F0A3CEF0900135E0FFA7
:10587D00A3E090014FCFF0A3EFF0A3EAF0A3EBF07C
:10588D00900145E0FEA3E0FFD39400EE6480948088
:10589D00400A90014BE4F0A304F08021EF4E700814
:1058AD0090014BF0A3F0801574FF90014BF0A3F025
:1058BD00C3E49FFFE49E900145F0A3EFF0900147F4
:1058CD00E0FEA3E0FFD39400EE64809480400A9044
:1058DD00014DE4F0A304F08021EF4E700890014DCE
:1058ED00F0A3F0801574FF90014DF0A3F0C3E49F79
:1058FD00FFE49E900147F0A3EFF0900147E0FEA377
:10590D00E0FF900145E0FCA3E0FDD39FEE6480F83D
:10591D00EC6480989001494007ECF0A3EDF0800510
:10592D00EEF0A3EFF0E490013FF0A3F090014AE018
:10593D002401FF900149E03400FED3900140E09F27
:10594D0090013FE09E4003025A1B90014FE0FEA3E1
:10595D00E0FFA3E0FCA3E090013D12839990014587
:10596D00E0FEA3E0FF900142E02FF0900141E03E08
:10597D00F0900147E0FEA3E0FF900144E02FF0908E
:10598D000143E03EF0900149E0FEA3E0FF900141AC
:10599D00E0FCA3E0FDD39FEE6480F8EC64809840BA
:1059AD0020ED9FFFEC9E900141F0A3EFF090014B95
:1059BD00E0FEA3E0FF900150E02FF090014FE03E9C
:1059CD00F0900149E0FEA3E0FF900143E0FCA3E06D
:1059DD00FDD39FEE6480F8EC6480984020ED9FFF2E
:1059ED00EC9E900143F0A3EFF090014DE0FEA3E09B
:1059FD00FF900152E02FF0900151E03EF0900140F8
:0E5A0D00E004F0700690013FE004F002593909
:015A1B002268
:10763F009003A7EEF0A3EFF09003ABEAF0A3EBF00B
:08764F009003A9ECF0A3EDF09B
:107657009003A7E0FAA3E0FB24FFFFEA34FFFEC094
:1076670006C007ED24FFFDEC34FFFCEB2401FBE42F
:107677003AFAA3E0FEA3E02401FFE43E900077F08E
:10768700A3EFF0D007D006127CF8E4FB1286850B37
:10769700EBB409F89003A8E024FCFF9003A7E034BB
:1076A700FFFEC0079003A9E0FCA3E0FD9003A8E05C
:1076B7002404FB9003A7E03400FA9003A9E0FFA39A
:1076C700E0900077CFF0A3EFF0D007127CF8E4FB4F
:1076D7001286850BEBB409F89003AAE024FCFD9011
:1076E70003A9E034FFFC9003A7E0FAA3E0FBA3E0C3
:1076F700FEA3E02404FFE43E900077F0A3EFF090B0
:0F77070003A7127CF3E4FB1286850BEBB409F8A1
:017716002250
:107B090090038DEAF0A3EBF0900389EEF0A3EFF078
:107B1900A3ECF0A3EDF0C007A3E0FAA3E0FB900308
:107B29008BE0FFA3E0900195CFF0A3EFF0D007120F
:107B39005640900389E0FAA3E0FBFFAE02C007A319
:107B4900E0FCA3E0FD90038FE0FFA3E0900195CF57
:107B5900F0A3EFF0D00712564090038FE0FCA3E0AA
:107B6900FD90038DE0FAA3E0FBA3E0FFA3E0900101
:107B790095CFF0A3EFF0900389E0FEA3E0FF125642
:107B89004090038DE0FAA3E0FBFFAE02C00790032B
:107B99008BE0FCA3E0FD90038FE0FFA3E09001954B
:0A7BA900CFF0A3EFF0D00702564022
:0E5C0500900358EEF0A3EFF0A3ECF0A3EDF047
:105C1300E4A3F0A3F0EBFF7E00A3EEF0A3EFF025E7
:105C2300E0FFEE33FEC374039F900361F0E49E90A4
:105C33000360F090035EE0FEA3E0FF90035CE0FCF2
:105C4300A3E0FDD39FEE6480F8EC648098400302E8
:105C53005DDC900359E02DFF900358E03C1284A9CA
:105C630090035EE0FEA3E0FF900359E02FFF900353
:105C730058E03E90035C1284AC90035EE0FEA3E028
:105C8300FF900359E02FFF900358E03EFE90035C22
:105C9300E0FCA3E0FD90035BE02DFD90035AE03CA4
:105CA300FC1284BF90035CE0FEA3E0FF900359E085
:105CB3002FFF900358E03EFE90035EE0FCA3E0FD5F
:105CC30090035BE02DFD90035AE03CFC1284BF90EF
:105CD300035CE0FEA3E0FFC3900359E09FFF900342
:105CE30058E09EFE90035EE0FCA3E0FD90035BE0C2
:105CF3002DFD90035AE03CFC1284BF90035EE0FE4E
:105D0300A3E0FFC3900359E09FFF900358E09EFE7A
:105D130090035CE0FCA3E0FD90035BE02DFD9003AA
:105D23005AE03CFC1284BF90035CE0FEA3E0FFC397
:105D3300900359E09FFF900358E09E1284A99003BB
:105D43005EE0FEA3E0FFC3900359E09FFF9003587A
:105D5300E09EFE90035C1284AD90035DE004F0705E
:105D63000690035CE004F0C3900360E064809480D9
:105D7300502590035CE0FEA3E07802C333CE33CE1C
:105D8300D8F92406FFE43EFE900361E02FF0900370
:105D930060E03EF0025C3690035EE0FEA3E0FFC3EA
:105DA30090035DE09FFF90035CE09EFEEF7802C3EB
:105DB30033CE33CED8F9240AFFE43EFE900361E0EC
:105DC3002FF0900360E03EF090035FE024FFF0903B
:095DD300035EE034FFF0025C36CF
:015DDC0022A4
:10647A0090001BEEF0A3EFF090001FEBF090001DD0
:05648A00ECF0A3EDF0B1
:10648F00900024ECF0A3EDF0900020E0FF13131325
:10649F00541FFEEF540760047F0180027F00EE2F30
:1064AF00FF900020E0C313FEEF8EF0A4900026F0C3
:1064BF0090001FE024E0F0E4F9900026E0FFE9C32C
:1064CF009F40030265F1900020E0FFB40C12900092
:1064DF001FE075F00CA42433F582E5F03400803111
:1064EF00EFB4101290001FE075F010A424A7F582EE
:1064FF00E5F03404801B900020E06418600302650F
:10650F00F190001FE075F024A42497F582E5F03494
:10651F000AF583E58229F582E43583F583E49390C8
:10652F000022F0E4900023F0900022E030E7139077
:10653F00001BE0FEA3E0FFA3E0FCA3E0FD90034AF5
:10654F008017900021E0701490001BE0FEA3E0FF85
:10655F00A3E0FCA3E0FD90034C12839A900022E08D
:10656F0025E0F090001EE004F0700690001DE0049E
:10657F00F0900345E0FEA3E0FF90001DE0FCA3E0D8
:10658F00FDC39FEC9E505B900024E0FEA3E0FFC391
:10659F00ED9FFDEC9EFC900020E07A00B50530EAFF
:1065AF00B5042C90001DEEF0A3EFF090001CE0045A
:1065BF00F0700690001BE004F0900343E0FEA3E0B0
:1065CF00FFC390001CE09F90001BE09E40102290A4
:1065DF000023E004F0E0C39408500302653709027A
:0265EF0064C87E
:0165F1002287
:07830000C3EF9E14FD7F0A8C
:088307009003ADEFF0A3EDF0CF
:10830F00A3122441000000019003AEE0FF14F0EF30
:10831F006020A3E0F8A3E0F9A3E0FAA3E0FB900349
:10832F00ADE0FFE4FCFDFE1222D09003AF12243526
:10833F0080D69003AFE0FCA3E0FDA3E0FEA3E0FF37
:01834F00220B
:0E756300900303EEF0A3EFF0A3ECF0A3EDF025
:10757100E490030FF090030DF090030BE0FF9003F4
:107581000DE0FEC39F400302763E128300A804A9CA
:1075910005AA06AB07900307E0FCA3E0FDA3E0FE0C
:1075A100A3E0FF12235BE47B0AFAF9F812235B9054
:1075B100030EEBF0A3E0704590030BE014FF900382
:1075C1000DE0FEC39F5036A3E0702C90030CE0FB4E
:1075D100C3138EF0A4FF900304E02FFF900303E098
:1075E10035F0FE900305E0FCA3E0FD900020EBF0F8
:1075F100E4A3F07B20803A90030F7401F090030C18
:10760100E0FAC313FFA3E0FEEF8EF0A4FF900304A2
:10761100E02FFF900303E035F0FE900305E0FCA3AB
:10762100E0FD90030EE02430FB900020EAF0E4A39B
:0D763100F012647A90030DE004F002757A07
:01763E002229
:0E6D65009002E7EEF0A3EFF0A3ECF0A3EDF048
:106D7300E49002F4F09002F2F09002EFE0FF900250
:106D8300F2E0FEC39F4003026E8D128300A804A9A4
:106D930005AA06AB079002EBE0FCA3E0FDA3E0FE2F
:106DA300A3E0FF12235BE47B0AFAF9F812235B905A
:106DB30002F3EBF0A3E06003026E449002EFE014F1
:106DC300FF9002F2E0FEC39F5077A3E0706D900244
:106DD300F1E0F99002F030E72BE0FBC3138EF0A44F
:106DE300FF9002E8E02FFF9002E7E035F0FE90020B
:106DF300E9E0FCA3E0FD900020EBF0E95401A3F0EF
:106E03007B30807AE0FBC313FF9002F2E0FEEF8E4B
:106E1300F0A4FF9002E8E02FFF9002E7E035F0FED8
:106E23009002E9E0FCA3E0FD900020EBF09002F17A
:106E3300E05401900021F07B2080439002F4740120
:106E4300F09002F0E0FAC313FF9002F2E0FEEF8E3F
:106E5300F0A4FF9002E8E02FFF9002E7E035F0FE98
:106E63009002E9E0FCA3E0FD9002F3E02430FB9004
:106E73000020EAF09002F1E05401900021F0126446
:0A6E83007A9002F2E004F0026D7C48
:016E8D0022E2
:10747E0090000EEEF0A3EFF0A3ECF0A3EDF0A3EA74
:04748E00F0A3EBF08C
:1074920090000EE0FEA3E0FF90001AF0900013E0CF
:1074A2002FF0900012E03EF0900010E0FEA3E0FF0B
:1074B200900015E02FF0900014E03EF0900017E0ED
:1074C200FBA3E0FAA3E0F9122128FFD3947E400344
:1074D200027562EFC394205003027562900012E0BD
:1074E200FEA3E0FF90000FE09F90000EE09E401F81
:1074F20090001AE0FF90000EE4F0A3EFF090001667
:10750200E0FF900011E02FF0900010E03400F090C6
:107512000014E0FEA3E0FF900010E0FCA3E0FDC336
:107522009FEC9E503B90000EE0FEA3E0FF1221284C
:10753200FB900016E0900020F0E4A3F012647A9031
:107542000016E0C313FF90000FE02FF090000EE052
:107552003400F0900018E475F00112223F0274BE6C
:017562002206
:106C3A00900362EEF0A3EFF0A3ECF0A3EDF0A3EB68
:076C4A00F0A3EAF0A3E9F05A
:106C5100900366E0FBA3E0FAA3E0F9122128700398
:106C6100026D64900362E0FAA3E0FBFFAE02C0068E
:106C7100C007A3E0FCA3E0FDEB241FFBE43AFA907C
:106C81000364E0FEA3E0241CFFE43E900077F0A340
:106C9100EFF0D007D006127CF8E4900369F090037E
:106CA10069E0FFC394144003026D49900366E0FB61
:106CB100A3E0FAA3E0F9122128FE75F076EFA424EF
:106CC100F3F582E5F03417F583E4936E707190006B
:106CD10001122141FF900369E075F076A424F4F5D7
:106CE10082E5F03417F583E4936F7053FB900369E9
:106CF100E075F076A424F5F582E5F03417F583E527
:106D0100822BF582E43583F583E493FF90036AE4F3
:106D1100F0A3EFF0E4FA90036BE030E70590034A4B
:106D2100800390034C12868890036BE025E0F0907D
:106D3100036AE033F00AEAB408DC0BEBB474AE90FA
:106D41000369E004F0026C9F900367E475F002129E
:106D5100223F900363E02420F0900362E03400F0CE
:036D6100026C5170
:016D6400220C
:106B0D0090023AEEF0A3EFF0A3ECF0A3EDF0A3EAC0
:046B1D00F0A3EBF006
:106B2100E4900245F0A3F0A312244100000000907C
:106B3100024B1224410000000090023CE0FCA3E063
:106B4100FDA3E0FEA3E0FF90023AE0FAA3E02FFFED
:106B5100EA3ECF24FFFBEF34FFFA900240E0FEA3B0
:106B6100E0FF90023CE0F8A3E02FFFE83ECF24FFD6
:106B7100CF34FF900077F0A3EFF090023A127CF34C
:106B8100900240E0FCA3E0FD90023EE0FEA3E0FFA6
:106B91001221A2EF25E0FFEE33FEE4FCFD90024B53
:106BA100122435900247A3A3E0FEA3E0FDAC062426
:106BB10001FFE43CFE900242E0FBA3E0FAA3E0F90E
:106BC1008F828E83122141FF900245E4F0A3EFF002
:106BD100E0F8E4F0E8900245F08D828C83122141C7
:106BE100FF900245E0FEA3E04FFF900245EEF0FE6C
:106BF100A3EFF012868DA3E0FCA3E0FDA3E0FEA3CA
:106C0100E02402FFE43EFEE43DFDE43CFC9002474B
:106C110012243590024BE0FCA3E0FDA3E0FEA3E0CB
:106C2100FF900247E0F8A3E0F9A3E0FAA3E0FBC379
:086C31001223FB5003026BA4C7
:016C39002238
:0B87BA00C2A1D2A3D2A2D2A1C2A3226E
:1086C800C2A1E4FEEFC4131313540124FF92A2EFD6
:0C86D80025E0FFC2A1D2A10EEEB408E81C
:0186E4002273
:10856100E49003C9F0A3F0C2A1FDFC9003CAE02589
:10857100E0F09003C9E033F0D2A1C2A1A2A0E4339C
:10858100FFE0F0A3E04FF00DBD00010CED640C4CD9
:0A85910070D99003C9E0FEA3E0FFDB
:01859B0022BD
:07617700EEF0A3EFF07F90B2
:02617E00AB076D
:10618000C2A1C2A3E49001ABF0AF031286C8900194
:10619000AC7406F09001ACE014F0E070F7D2A1000E
:1061A00000C2A100001285619001ABE025E024ADA2
:1061B000F582E43401F583EEF0A3EFF09001ABE05B
:1061C00004F0E0C3940A40C1D2A3E49001ABF09084
:1061D00001ABE0FFC394094003026285EF04A3F022
:1061E0009001ACE0FFC3940A400302627CEF25E01B
:1061F00024ADF582E43401F583E0FEA3E0FF9001D5
:10620000ABE0FB25E024ADF582E43401F583E0FC4E
:10621000A3E0C39FEC9E505BEB25E024ADF582E448
:106220003401F583E0FEA3E0FFE4FCFD9001C11220
:1062300024359001ACE0FA25E024ADF582E4340188
:10624000F583E0FEA3E0FFEB25E024ADF582E43426
:1062500001F583EEF0A3EFF09001C1A3A3E0FEA34C
:10626000E0FFEA25E024ADF582E43401F583EEF0A9
:10627000A3EFF09001ACE004F00261E09001ABE02C
:1062800004F00261CF9001C112244100000000908F
:1062900001AB7402F09001C1E0F8A3E0F9A3E0FAC9
:1062A000A3E0FB9001ABE025E024ADF582E43401EE
:1062B000F583E0FEA3E0FFE4FCFDEB2FFFEA3EFEEA
:1062C000ED39FDEC38FC9001C11224359001ABE0B2
:1062D00004F0E0B408BF9001C1E0FCA3E0FDA3E03E
:1062E000FEA3E0FFE47B06FAF9F81284259001C1D1
:0D62F0001224359001C1A3A3E0FEA3E0FF3E
:0162FD00227E
:106E8E001287BA7FD012617E90036C1261779003E5
:106E9E0072EEF0A3EFF07FD012617E90036E12615E
:106EAE0077AD07AC0690036EE0FEA3E0FF90036C97
:106EBE00E0FAA3E0FBD39FEA9E400AA3A3EB9FFF59
:106ECE00EA9EA3801790036CE0FEA3E0FFC390033D
:106EDE006FE09FFF90036EE09E900370F0A3EFF0C3
:106EEE00900372E0FEA3E0FFD39DEE9C4007EF9D62
:106EFE00FFEE9C800E900372E0FEA3E0FFC3ED9FB9
:106F0E00FFEC9EA3F0A3EFF0D3900371E0943290C8
:106F1E000370E09400500E900375E0943290037469
:106F2E00E0940040037F002290036EE0FEA3E0FF9A
:106F3E0090036DE02FFF90036CE03EC313FEEF1342
:106F4E00FF900310EEF0A3EFF0900373E02DFF908F
:106F5E000372E03CC313FEEF13FF900312EEF0A397
:106F6E00EFF0900311E054F0F0900313E054F0F0C2
:106F7E00C3900311E09464900310E09400400FD38B
:106F8E00900313E094D8900312E0940E40037F0018
:036F9E00227F014E
:016FA10022CD
:1069CD00E49003B9F0126E8EEF7003026B02900328
:1069DD0049E06003026A68900310E0FEA3E0FFE463
:1069ED00FCFD900314122435900314E0FCA3E0FD8C
:1069FD00A3E0FEA3E02406FFEE34FFFEED34FFFD21
:106A0D00EC34FFFCE47BB4FAF9F81222D0E47B7489
:106A1D007A0EF9F812235B900314122435900312A9
:106A2D00E0FEA3E0FFE4FCFD900318122435900373
:106A3D0018E0FCA3E0FDA3E0FEA3E024A2FFEE34EA
:106A4D00FEFEED34FFFDEC34FFFCE47BFAFAF9F8C1
:106A5D001222D0E47BAC7A0D026AEF900312E0FEB5
:106A6D00A3E0FFC3E49FFF74109EFEE4FCFDA312A0
:106A7D002435900314E0FCA3E0FDA3E0FEA3E02485
:106A8D00A2FFEE34FEFEED34FFFDEC34FFFCE47BA3
:106A9D00FAFAF9F81222D0E47BAC7A0DF9F8122348
:106AAD005B900314122435900310E0FEA3E0FFE485
:106ABD00FCFD900318122435900318E0FCA3E0FDB3
:106ACD00A3E0FEA3E02406FFEE34FFFEED34FFFD50
:106ADD00EC34FFFCE47BB4FAF9F81222D0E47B74B9
:106AED007A0EF9F812235B9003181224359003B92E
:0F6AFD007401F08001E490031CF09003B9E0FFF6
:016B0C002266
:1086E500C2B7E4FEEFC4131313540124FF92B5EF90
:0C86F50025E0FFC2B7D2B70EEEB408E8D3
:018701002255
:10859C00E490000EF0A3F0C2B7FDFC90000FE025B4
:1085AC00E0F090000EE033F0D2B7C2B7A2B4E433DF
:1085BC00FFE0F0A3E04FF00DBD00010CED640C4C9E
:0A85CC0070D990000EE0FEA3E0FF5E
:0185D6002282
:10873600C2B7C2B61286E57F06DFFED2B70000C218
:08874600B7000012859CD2B6B9
:01874E002208
:0680C20090039112243529
:1080C800900391E0FCA3E0FDA3E0FEA3E0FF78139A
:1080D800122422A3EEF0A3EFF0900391E0FCA3E0BA
:1080E800FDA3E0FEA3E0FF780A122422EF543FFE2E
:1080F800E4900397F0A3CEF0900391E0FCA3E0FD99
:10810800A3E0FEA3E0FF7803122422EF541FFFE44C
:10811800AD07FC900397E0FEA3E07805C333CE33A8
:10812800CED8F9FBAA06900396E033333354F84AC5
:09813800FEEBFFEE4CFEEF4DFFE3
:01814100221B
:0484E900AD07AC0629
:1084ED007BE77A187E00ED54037803C333CE33CE89
:1084FD00D8F9FFEA4EFAEB4FFB7E00ED541C7806DF
:10850D00C333CE33CED8F9FFEA4EFAEB4FFBED5421
:07851D00E04AFAEBAE02FF99
:018524002234
:088350009003B3EFF0A3EDF080
:10835800A3122441000000019003B4E0FF14F0EFE1
:108368006020A3E0F8A3E0F9A3E0FAA3E0FB900300
:10837800B3E0FFE4FCFDFE1222D09003B5122435D1
:1083880080D69003B5E0FCA3E0FDA3E0FEA3E0FFE8
:0183980022C2
:1082300090039912243590039DE0FCA3E0FDA3E098
:10824000FEA3E0FF900399E0F8A3E0F9A3E0FAA30E
:10825000E0FBD3122411401D90039DE0F8A3E0F948
:10826000A3E0FAA3E0FB900399E0FCA3E0FDA3E008
:10827000FEA3E0801A900399E0F8A3E0F9A3E0FAE6
:10828000A3E0FBA3E0FCA3E0FDA3E0FEA3E0C39B0F
:0B829000FFEE9AFEED99FDEC98FC2239
:088525009003C2EEF0A3EFF099
:10852D0090034AE0FFA3E09003C4CFF0A3EFF0AFB8
:10853D000390034AEAF0A3EFF09003C2E0FEA3E03C
:10854D00FF1284BF9003C4E0FFA3E090034ACFF075
:03855D00A3EFF099
:0185600022F8
:1071A600900298EEF0A3EFF0A3ECF0A3EDF0A3EAC3
:0471B600F0A3EBF067
:1071BA00E49002A3F0A3F090029CE0FEA3E0FFC3D8
:1071CA009002A4E09F9002A3E09E400302729CE416
:1071DA009002A5F0A3F090029EE0FEA3E0FFC39008
:1071EA0002A6E09F9002A5E09E40030272889002E8
:1071FA00A3E0FEA3E0FF900299E02FFF900298E03F
:10720A003EFE9002A5E0FCA3E0FD90029BE02DFD6E
:10721A0090029AE03CFC12829B9002A7EEF0A3EF48
:10722A00F09002A0E0FCA3E0FDA3E0FB12739190B2
:10723A0002A7EEF0A3EFF09002A3E0FEA3E0FF9016
:10724A000299E02FFF900298E03EFE9002A5E0FC32
:10725A00A3E0FD90029BE02DFD90029AE03CFC9099
:10726A0002A7E0FAA3E0FB12839F9002A6E004F0D3
:10727A0060030271E09002A5E004F00271E090025E
:10728A00A4E004F060030271C19002A3E004F002DA
:02729A0071C1C0
:01729C0022CF
:10729D0090005FECF0A3EDF0A3EAF0A3EBF090000B
:0672AD005DEEF0A3EFF01E
:1072B300C39401EE94004013E024FFFE90005DE0D0
:1072C30034FF900067F0A3CEF0800F90005DE0FFE5
:1072D300A3E0900067CFF0A3EFF090005FE0FEA380
:1072E300E0FFC39401EE9400400CEF24FFFFEE3463
:1072F300FF900069800B90005FE0FFA3E0900069BE
:10730300CFF0A3EFF0900069E0FFA3E0900063CF1C
:10731300F0A3EFF0900060E02402FF90005FE03400
:1073230000FEC3900064E09F900063E09E505E9077
:107333000067E0FFA3E0900065CFF0A3EFF09000BB
:107343005EE02402FD90005DE03400FC900065E007
:10735300FEA3E0FFC39DEE9C5023900063E0FCA3DB
:10736300E0FD900061E0FAA3E0FB12839F900066CA
:10737300E004F070C9900065E004F080C1900064FF
:0D738300E004F0708F900063E004F080875C
:0173900022DA
:0E544D00900153EEF0A3EFF0A3ECF0A3EDF00E
:10545B00E490015FF0A3F0A3F0A3F0900153E0FE02
:10546B00A3E0FFC3EB9FFFEA9E900163F0A3EFF075
:10547B00900155E0FAA3E0FBC390015AE09BFE902C
:10548B000159E09A900165F0A3CEF0900153E0FF33
:10549B00A3E090016DCFF0A3EFF0A3EAF0A3EBF044
:1054AB00900163E0FEA3E0FFD39400EE6480948050
:1054BB00400A900169E4F0A304F08021EF4E7008DC
:1054CB00900169F0A3F0801574FF900169F0A3F0CF
:1054DB00C3E49FFFE49E900163F0A3EFF09001659E
:1054EB00E0FEA3E0FFD39400EE64809480400A902A
:1054FB00016BE4F0A304F08021EF4E700890016B78
:10550B00F0A3F0801574FF90016BF0A3F0C3E49F40
:10551B00FFE49E900165F0A3EFF0900165E0FEA320
:10552B00E0FF900163E0FCA3E0FDD39FEE6480F805
:10553B00EC6480989001674007ECF0A3EDF08005D8
:10554B00EEF0A3EFF0E490015DF0A3F0900168E0C2
:10555B002401FF900167E03400FED390015EE09FD1
:10556B0090015DE09E400302563F90016DE0FEA36B
:10557B00E0FFA3E0FCA3E0FD90015BE0FAA3E0FBFE
:10558B0012839F900163E0FEA3E0FF900160E02F88
:10559B00F090015FE03EF0900165E0FEA3E0FF902C
:1055AB000162E02FF0900161E03EF0900167E0FEB8
:1055BB00A3E0FF90015FE0FCA3E0FDD39FEE6480CE
:1055CB00F8EC6480984020ED9FFFEC9E90015FF01B
:1055DB00A3EFF0900169E0FEA3E0FF90016EE02FD6
:1055EB00F090016DE03EF0900167E0FEA3E0FF90CC
:1055FB000161E0FCA3E0FDD39FEE6480F8EC6480D6
:10560B00984020ED9FFFEC9E900161F0A3EFF0908E
:10561B00016BE0FEA3E0FF900170E02FF090016FB3
:10562B00E03EF090015EE004F0700690015DE00456
:04563B00F0025557CD
:01563F002248
:10424B009000F7EEF0A3EFF0A3ECF0A3EDF0A3EAF0
:04425B00F0A3EBF0F1
:10425F00E4900104F0A3F0A3F0A3F09000FFE0FFBF
:10426F007E00C39000F8E09F9000F7E09E5003029D
:10427F0044B69000FCE09F9000FBE09E5003024488
:10428F00B69000F9E0FCA3E0FD9FEC9E50030244C2
:10429F00B69000FEE09F9000FDE09E50030244B6F2
:1042AF009000FFE070139000F7E0FEA3E0FF900195
:1042BF0000E0FAA3E0FB02839F9000F7E0FAA3E08F
:1042CF00FBC39000FCE09BFE9000FBE09A9001087E
:1042DF00F0A3CEF09000F9E0FEA3E0FFC39000FE44
:1042EF00E09FFF9000FDE09E90010AF0A3EFF09099
:1042FF000112EAF0A3EBF09000F9A3E0FF90011494
:10430F00EEF0A3EFF0900108E0FEA3E0FFD39400DE
:10431F00EE64809480400A90010EE4F0A304F080D4
:10432F0021EF4E700890010EF0A3F0801574FF90EE
:10433F00010EF0A3F0C3E49FFFE49E900108F0A3E9
:10434F00EFF090010AE0FEA3E0FFD39400EE64804B
:10435F009480400A900110E4F0A304F08021EF4E06
:10436F007008900110F0A3F0801574FF900110F009
:10437F00A3F0C3E49FFFE49E90010AF0A3EFF09037
:10438F00010AE0FEA3E0FF900108E0FCA3E0FDD3EB
:10439F009FEE6480F8EC64809890010C4007ECF07D
:1043AF00A3EDF08005EEF0A3EFF0E4900102F0A38F
:1043BF00F090010DE02401FF90010CE03400FED3DA
:1043CF00900103E09F900102E09E40030244B690EB
:1043DF000114E0FCA3E0FD9000FFE0FB7A00A3E0F6
:1043EF00FFA3E09001E4CFF0A3EFF0900112E0FE05
:1043FF00A3E0FF123C3A900108E0FEA3E0FF90011A
:10440F0005E02FF0900104E03EF090010AE0FEA3DA
:10441F00E0FF900107E02FF0900106E03EF09001E1
:10442F000CE0FEA3E0FF900104E0FCA3E0FDD39FAE
:10443F00EE6480F8EC6480984020ED9FFFEC9E9036
:10444F000104F0A3EFF090010EE0FEA3E0FF900156
:10445F0013E02FF0900112E03EF090010CE0FEA36C
:10446F00E0FF900106E0FCA3E0FDD39FEE6480F82F
:10447F00EC6480984020ED9FFFEC9E900106F0A326
:10448F00EFF0900110E0FEA3E0FF900115E02FF098
:10449F00900114E03EF0900103E004F070069001EB
:0744AF0002E004F00243C02B
:0144B60022E3
:0E387000900116EEF0A3EFF0A3ECF0A3EDF044
:10387E00E4900123F0A3F0A3F0A3F0900116E0FE74
:10388E00A3E0FFC3EB9FFFEA9E900127F0A3EFF0AA
:10389E00900118E0FAA3E0FBC390011DE09BFE909F
:1038AE00011CE09A900129F0A3CEF0900116E0FFE2
:1038BE00A3E0900131CFF0A3EFF0A3EAF0A3EBF079
:1038CE00900127E0FEA3E0FFD39400EE6480948085
:1038DE00400A90012DE4F0A304F08021EF4E700811
:1038EE0090012DF0A3F0801574FF90012DF0A3F040
:1038FE00C3E49FFFE49E900127F0A3EFF09001290F
:10390E00E0FEA3E0FFD39400EE64809480400A9022
:10391E00012FE4F0A304F08021EF4E700890012FE8
:10392E00F0A3F0801574FF90012FF0A3F0C3E49F75
:10393E00FFE49E900129F0A3EFF0900129E0FEA391
:10394E00E0FF900127E0FCA3E0FDD39FEE6480F83A
:10395E00EC64809890012B4007ECF0A3EDF080050D
:10396E00EEF0A3EFF0E4900121F0A3F090012CE033
:10397E002401FF90012BE03400FED3900122E09F42
:10398E00900121E09E4003023C3990011EE0701927
:10399E00900131E0FEA3E0FFA3E0FCA3E0FD900167
:1039AE001FE0FAA3E0FB12839F90011EE06401600A
:1039BE0003023A44900131E0FEA3E0FFA3E0FCA332
:1039CE00E0FD90011FE0FAA3E0FB12839F9001320D
:1039DE00E02401FF900131E03400FE900133E0FC61
:1039EE00A3E0FD90011FE0FAA3E0FB12839F90017C
:1039FE0031E0FEA3E0FF900134E02401FD9001339D
:103A0E00E03400FC90011FE0FAA3E0FB12839F90CC
:103A1E000132E02401FF900131E03400FE900134C8
:103A2E00E02401FD900133E03400FC90011FE0FA28
:103A3E00A3E0FB12839F90011EE064026003023B31
:103A4E0088900131E0FEA3E0FFA3E0FCA3E0FD902F
:103A5E00011FE0FAA3E0FB12839F900132E02401E4
:103A6E00FF900131E03400FE900133E0FCA3E0FD55
:103A7E0090011FE0FAA3E0FB12839F900131E0FE5C
:103A8E00A3E0FF900134E02401FD900133E0340007
:103A9E00FC90011FE0FAA3E0FB12839F900132E03D
:103AAE002401FF900131E03400FE900134E0240146
:103ABE00FD900133E03400FC90011FE0FAA3E0FB1F
:103ACE0012839F900132E024FFFF900131E034FF1A
:103ADE00FE900134E02401FD900133E03400FC90AF
:103AEE00011FE0FAA3E0FB12839F900132E0240154
:103AFE00FF900131E03400FE900134E024FFFD9090
:103B0E000133E034FFFC90011FE0FAA3E0FB1283C7
:103B1E009F900132E024FFFF900131E034FFFE90D0
:103B2E000134E024FFFD900133E034FFFC90011FCF
:103B3E00E0FAA3E0FB12839F900132E024FFFF9096
:103B4E000131E034FFFE900133E0FCA3E0FD900173
:103B5E001FE0FAA3E0FB12839F900131E0FEA3E089
:103B6E00FF900134E024FFFD900133E034FFFC9020
:103B7E00011FE0FAA3E0FB12839F900127E0FEA352
:103B8E00E0FF900124E02FF0900123E03EF0900141
:103B9E0029E0FEA3E0FF900126E02FF0900125E042
:103BAE003EF090012BE0FEA3E0FF900123E0FCA38A
:103BBE00E0FDD39FEE6480F8EC6480984020ED9F8A
:103BCE00FFEC9E900123F0A3EFF090012DE0FEA3F9
:103BDE00E0FF900132E02FF0900131E03EF09001D5
:103BEE002BE0FEA3E0FF900125E0FCA3E0FDD39FB8
:103BFE00EE6480F8EC6480984020ED9FFFEC9E9080
:103C0E000125F0A3EFF090012FE0FEA3E0FF90015D
:103C1E0034E02FF0900133E03EF0900122E004F00A
:0B3C2E007006900121E004F002397ADA
:013C39002268
:107C5D00FAE0FFA3E090001ECFF0A3EFF09002A991
:057C6D00E0FEA3E0FFB2
:107C7200900018EEF0A3EFF0A3ECF0A3EDF0A3EA6E
:107C8200F0A3EBF04A6069900343E0FCA3E0FD90AF
:107C92000018E0FAA3E0FBD39DEA9C505390034501
:107CA200E0FEA3E0FF90001AE0FCA3E0FD9FEC9E43
:107CB200503EAF03AE02C006C00790001CE0FEA318
:107CC200E0FF90001AE0F8A3E02FFFE83ECF24FF88
:107CD200CF34FF900028F0A3EFF090001EE0FFA346
:107CE200E090002ACFF0A3EFF0D007D0061277E998
:017CF200226F
:10814200900018EEF0A3EFF0A3ECF0A3EDF0EB4AF1
:108152006068900343E0FEA3E0FFD3900019E09F24
:10816200900018E09E5053900345E0FEA3E0FF907C
:10817200001AE0FCA3E0FD9FEC9E503EAE02AF036E
:10818200900018E0FAA3E02FFFEA3ECF24FFFBEFB6
:1081920034FFFAA3E0FFA3E0900028CFF0A3EFF0B2
:1081A20090001EE0FFA3E090002ACFF0A3EFF09032
:0B81B2000018E0FEA3E0FF1277E922B6
:106886009002F5EEF0A3EFF0A3ECF0A3EDF0A3EA8F
:04689600F0A3EBF090
:10689A00A3E07002A3E070030269CC9002F9E070F1
:1068AA0002A3E070030269CC900300E020E0030237
:1068BA006949E4A3F0A3F09002F9E0FEA3E0FF9097
:1068CA000301E0FCA3E0FDC39FEC9E40030269CCF8
:1068DA009002F6E02DFF9002F5E03CFEC006C007EC
:1068EA009002F7E0FCA3E0FD9002FCE024FFFB909D
:1068FA0002FBE034FFFAC002C003900302E025E085
:10690A00FF900301E033FE9002FDE0FBA3E0FAA34F
:10691A00E0F98F828E8312226BFF90001EE5F0F061
:10692A00A3EFF0D003D002D007D006127C729003F6
:10693A0002E004F07081900301E004F00268C1E40F
:10694A00900301F0A3F09002FBE0FEA3E0FF9003A6
:10695A0001E0FCA3E0FDC39FEC9E50669002F8E0C4
:10696A002DFD9002F7E03CFC9002FAE024FFFB9038
:10697A0002F9E034FFFAC002C003900302E025E006
:10698A00FF900301E033FE9002FDE0FBA3E0FAA3CF
:10699A00E0F98F828E8312226BFF90001EE5F0F0E1
:1069AA00A3EFF09002F5E0FEA3E0FFD003D00212BD
:1069BA008142900302E004F0708C900301E004F03D
:0269CA008084C7
:0169CC0022A8
:065A1C0090017112243517
:105A2200E490018DF0A3F0900171E0FCA3E0FDA3EE
:105A3200E0FEA3E0FF781012242290017EEFF0FB3B
:105A4200900171E0FCA3E0FDA3E0FEA3E0FF780873
:105A520012242290017FEFF0FA900171A3A3A3E038
:105A6200FFA907900180E9F0900175E0FCA3E0FD39
:105A7200A3E0FEA3E0FF7810122422EBFDC3EF9D0A
:105A8200FFEE9400900181F0A3EFF0900175E0FC2D
:105A9200A3E0FDA3E0FEA3E0FF7808122422EAFDC2
:105AA200C3EF9DFEE49400900183F0A3CEF0900139
:105AB20075A3A3A3E0FFE9FDC3EF9DFEE49400906C
:105AC2000185F0A3CEF0E490018DF0A3F090017C6B
:105AD200E0FEA3E0FFC390018EE09F90018DE09E67
:105AE2004003025C04E0FAA3E0FB900181E0FEA324
:105AF200E0FFAD03AC021221A290017CE0FCA3E026
:105B0200FD1221B4A3E07C002FFFEC3E900187F050
:105B1200A3EFF0900183E0FEA3E0FFAD03AC02121D
:105B220021A290017CE0FCA3E0FD1221B490017F50
:105B3200E07C002FFFEC3E900189F0A3EFF0900192
:105B420085E0FEA3E0FFAD03AC021221A290017C2E
:105B5200E0FCA3E0FD1221B4900180E07C002FFF65
:105B6200EC3E90018BF0A3EFF0900187E0FEA3E002
:105B72007803CEC313CE13D8F9F0EE900187F090DC
:105B82000189E0FEA3E07802CEC313CE13D8F9F068
:105B9200EE900189F090018BE0FEA3E07803CEC382
:105BA20013CE13D8F9F0EE90018BF0900189E0FE4C
:105BB200A3E07805C333CE33CED8F9FDAC0690010D
:105BC20088E033333354F84CFEEDFF90018BE04E06
:105BD200FCA3E04FFDEB25E0FFEA33FE900179E004
:105BE200FBA3E0FAA3E0F98F828E83EC8DF0122200
:105BF200A390018EE004F0700690018DE004F002A3
:025C02005ACF77
:015C0400227D
:106FA2009001F6EEF0A3EFF0A3ECF0A3EDF0A3EA6C
:046FB200F0A3EBF06D
:106FB600900202E0FCA3E0FDA3E0FEA3E0FF900147
:106FC6007512243590020AE0F9A3E0FAA3E09001D5
:106FD60079C9F0A3EAF0A3E9F09001FAE0FFA3E093
:106FE60090017CCFF0A3EFF09001FEE0FCA3E0FD62
:106FF600A3E0FEA3E0FF125A1CE4900206F0A3F001
:107006009001FAE0FEA3E0FFC3900207E09F900222
:1070160006E09E40030270ADE4900208F0A3F090F3
:1070260001FCE0FEA3E0FFC3900209E09F90020886
:10703600E09E505F900206E0FAA3E0FB9001F7E0C5
:107046002BFF9001F6E03AFEC006C007900208E06A
:10705600FEA3E0FF9001F9E02FFD9001F8E03EFC71
:10706600EB25E0FFEA33FE90020AE0FBA3E0FAA379
:10707600E0F98F828E8312226BFBAAF0D007D0062E
:1070860012839F900209E004F07094900208E004D5
:10709600F0808C900207E004F06003027006900214
:0770A60006E004F002700691
:0170AD0022C0
:1078B900900376EEF0A3EFF0A3ECF0A3EDF0A3EACA
:1078C900F0A3EBF0C00790037EE0FFA3E090001E59
:1078D900CFF0A3EFF0D00712814290037CE0FEA322
:1078E900E0FF900379E02FFF900378E03ECF24FF7B
:1078F900FDEF34FFFC90037AE0FAA3E0FB90037EEE
:10790900E0FFA3E090001ECFF0A3EFF0900376E034
:10791900FEA3E0FF128142900378E0FCA3E0FD9012
:10792900037CE0FAA3E0FBA3E0FFA3E090001ECFF5
:10793900F0A3EFF0900376127C6D90037AE0FEA33A
:10794900E0FF900377E02FFF900376E03ECF24FF1E
:10795900CF34FFFEC007900378E0FCA3E0FD90035D
:107969007CE0FAA3E0FBA3E0FFA3E090001ECFF0C8
:08797900A3EFF0D007027C72BD
:1024E5009002A9EEF0A3EFF0A3ECF0A3EDF0A3EAC0
:0424F500F0A3EBF075
:1024F900E49002B7F0A3F09002AFE0FEA3E030E071
:102509000A2401FFE43E9002B7800B9002AFE0FF7E
:10251900A3E09002B7CFF0A3EFF09002B2E09002EF
:10252900B17003022744E0F975F002A4FFC39002D9
:10253900AEE09FFB9002ADE095F0FAE9FF9002AAA8
:10254900E02FFF9002A9E03400FEC0079002ABE043
:10255900FCA3E0FD9002B7E0C313FFA3E0139000D2
:102569001ECFF0A3EFF09002B3E0FFA3E0900020AC
:10257900CFF0A3EFF0D007127F449002B1E0F975D4
:10258900F002A4FFC39002AEE09FFB9002ADE0957C
:10259900F0FAE9FF9002AAE02FFF9002A9E03400C7
:1025A900FEC006C0079002B7E0C313FEA3E013FF05
:1025B9009002ACE02FFD9002ABE03EFC9002B7E048
:1025C900C313FFA3E01390001ECFF0A3EFF0900216
:1025D900B5E0FFA3E0900020CFF0A3EFF0D007D043
:1025E90006127F449002B1E0F9FB7A009002ACE058
:1025F9002BFD9002ABE03AFC9002B7E0C313FEA3B7
:10260900E013FFE9F582C3EF9582FFEE9400900095
:102619001EF0A3EFF09002B3127F309002B7E0C32F
:1026290013FEA3E013FF9002ACE02FFD9002ABE094
:102639003EFC9002B1E0F9FB7A009002B7E0C313C7
:10264900FEA3E013FFE9F582C3EF9582FFEE940044
:1026590090001EF0A3EFF09002B5127F309002AD0A
:10266900E0FEA3E0FF9002AAE02FFF9002A9E03E5E
:10267900FE9002B1E0F9FD7C00C3EF9DFFEE9CFEE8
:10268900C006C0079002ACE02DFD9002ABE03CFC17
:10269900E9FB7A009002B7E0C313FEA3E013FFE958
:1026A900F582C3EF9582FFEE940090001EF0A3EF30
:1026B900F09002B3E0FFA3E0900020CFF0A3EFF089
:1026C900D007D006127F449002ADE0FEA3E0FF9050
:1026D90002AAE02FFF9002A9E03EFE9002B1E0F9C4
:1026E900FB7A00C3EF9BFFEE9AFEC006C00790027B
:1026F900B7E0C313FEA3E013FF9002ACE02FFD90F7
:1027090002ABE03EFC9002B7E0C313FEA3E013FF67
:10271900E9F582C3EF9582FFEE940090001EF0A3C5
:10272900EFF09002B5E0FFA3E0900020CFF0A3EF17
:10273900F0D007D006127F440228F7E0F975F002BD
:10274900A4FFC39002AEE09FFB9002ADE095F0FAC2
:10275900C003E9FF9002AAE02FFF9002A9E034002C
:10276900FE9002ABE0FCA3E0FD9002B3E0FBA3E026
:1027790090001ECBF0A3EBF0D0031281429002B17E
:10278900E0F975F002A4FFC39002AEE09FFB90024E
:10279900ADE095F0FAC002C003E9FF9002AAE02F6C
:1027A900FF9002A9E03400FE9002B7E0FCA3E0FD2F
:1027B9009002ABE0FAA3E02DFDEA3CCD24FFCD3435
:1027C900FFFC9002B5E0FBA3E090001ECBF0A3EB69
:1027D900F0D003D0021281429002B1E0FB7A00905E
:1027E90002ACE02BFD9002ABE03AFC9002B7E0C3EB
:1027F90013FEA3E013C39BFBEE9A9002B3127C5D18
:102809009002B7E0FAA3E0FBEAC313FEEB13FF90D3
:1028190002ACE02FFD9002ABE03EFCEAC313FEEBF5
:1028290013FF9002B1E0FBC3EF9BFBEE9400900213
:10283900B5127C5D9002ADE0FEA3E0FF9002AAE034
:102849002FFF9002A9E03ECF24FFCF34FFFEC00640
:10285900C0079002B1E0FB7A009002ACE02BFD903A
:1028690002ABE03AFC9002B7E0C313FEA3E013C346
:102879009BFBEE9AFA9002B3E0FFA3E090001ECF13
:10288900F0A3EFF0D007D006127C729002ADE0FE03
:10289900A3E0FF9002AAE02FFF9002A9E03ECF2417
:1028A900FFCF34FFFEC006C0079002B7E0FAA3E0ED
:1028B900FBEAC313FEEB13FF9002ACE02FFD90027D
:1028C900ABE03EFCEAC313FEEB13FF9002B1E0FB61
:1028D900C3EF9BFBEE9400FA9002B5E0FFA3E090F2
:1028E900001ECFF0A3EFF0D007D006127C72900241
:1028F900ABE0FCA3E0FD9002B1E0F9FF7E0090029D
:10290900A9E0FAA3E02FFBEE3AFAA3E0F8A3E02F3F
:10291900FFEE389001CBF0A3EFF0E9FF9002A9E0B8
:10292900F8A3E02FFFEE389001CDF0A3EFF0E9FF17
:102939009002ABE0F8A3E02FFFEE389001CFF0A3AF
:10294900EFF0E9FFA3EEF0A3EFF09002B3125DDD23
:102959009002B7E0FEA3E0FF9002ACE02FFF9002E7
:10296900ABE03EFE9002B1E0F9FB7A00C3EF9BFDBC
:10297900EE9AFC9002A9E0FEA3E02BFBEA3EFA9056
:1029890002B7E0FEA3E0FF9002ABE0F8A3E02FFF5F
:10299900E83ECF24FFCF34FF9001CBF0A3EFF0E95D
:1029A900FF7E009002A9E0F8A3E02FFFEE38900126
:1029B900CDF0A3EFF09002B7E0FEA3E0FF9002ABE9
:1029C900E0F8A3E02FFFE83EFEE9F582C3EF958228
:1029D900FFEE9400CF24FFCF34FF9001CFF0A3EF97
:1029E900F0E9FFA3E4F0A3EFF09002B5125DDD90EA
:1029F90002ADE0FEA3E0FF9002AAE02FFB9002A93E
:102A0900E03EFA9002B1E0F9FFC3EB9FFFEA9400C0
:102A1900FEC006C0079002ABE0FCA3E0FDE9FF7E23
:102A2900009002ABE0F8A3E02FFFEE389001CBF065
:102A3900A3EFF09002ADE0FEA3E0FF9002A9E0F859
:102A4900A3E02FFFE83EFEE9F582C3EF9582FFEE92
:102A59009400CF24FFCF34FF9001CDF0A3EFF0E92C
:102A6900FF7E009002ABE0F8A3E02FFFEE38900163
:102A7900CFF0A3EFF0E9FFA3EEF0A3EFF09002B3DC
:102A8900E0FFA3E09001D3CFF0A3EFF09002B2E012
:102A99009001D5F0D007D006125DF99002ADE0FEA5
:102AA900A3E0FF9002AAE02FFF9002A9E03EFE906A
:102AB90002B1E0F9FDC3EF9DFFEE9400FEC006C030
:102AC900079002B7E0FEA3E0FF9002ACE02FFF9071
:102AD90002ABE03EFEC3EF9DFDEE9400FC9002AD1B
:102AE900E0FEA3E0FF9002A9E0FAA3E02FFBEA3E93
:102AF900FA9002B7E0FEA3E0FF9002ABE0F8A3E092
:102B09002FFFE83ECF24FFCF34FF9001CBF0A3EF96
:102B1900F09002ADE0FEA3E0FF9002A9E0F8A3E087
:102B29002FFFE83EFEE9F582C3EF9582FFEE9400A0
:102B3900CF24FFCF34FF9001CDF0A3EFF09002B77F
:102B4900E0FEA3E0FF9002ABE0F8A3E02FFFE83E30
:102B5900FEE9F582C3EF9582FFEE9400CF24FFCF03
:102B690034FF9001CFF0A3EFF0E9FFA3E4F0A3EF66
:102B7900F09002B5E0FFA3E09001D3CFF0A3EFF00E
:0F2B89009002B2E09001D5F0D007D006025DF9BE
:107F3000E0FFA3E0900020CFF0A3EFF09002A9E0D3
:047F4000FEA3E0FFBD
:107F4400900018EEF0A3EFF0A3ECF0A3EDF0EB4AF1
:107F5400606390001EE07002A3E0605990001AE094
:107F6400FCA3E0FDAE02AF03900018E0FAA3E02FFB
:107F7400FFEA3ECF24FFFBEF34FFFA90001EE0FE41
:107F8400A3E0FF90001AE0F8A3E02FFFE83ECF241F
:107F9400FFCF34FF900028F0A3EFF0900020E0FF23
:107FA400A3E090002ACFF0A3EFF0900018E0FEA326
:067FB400E0FF1277E92254
:103C3A009001DEEEF0A3EFF0A3ECF0A3EDF0A3EA1F
:043C4A00F0A3EBF008
:103C4E009001E2E0FEA3E0FF7C027DC31224B8E403
:103C5E007BE87A03F9F812235BEF2401FFE43EFEC2
:103C6E00E43DFDE43CFC9001EA1224359001E2E0D3
:103C7E00FEA3E0FF9001E2E0FCA3E0FD1224B8C039
:103C8E0004C005C006C0079001E2E0FEA3E0FFE419
:103C9E00FCFD7B02FAF9F812235BD003D002D001AF
:103CAE00D000EB2FFFEA3EFEE93DFDE83CFC900123
:103CBE00EE1224359001E2E0FAA3E0FBFFAE02E43F
:103CCE00FCFD9001F2122435C39001DFE09BFF90C2
