:0502B9003443101001A8
:0302BE0001080133
:0B02A600C292D293C297D294D2A12240
:07024E007F201202717F9670
:10025500E4FEEEC39F500B7DFADDFE7DFADDFE0E5A
:0202650080F027
:010267002274
:10022C00E4FEEEC39408748094805015EF339291E1
:10023C00EF25E0FFD297A296E4334207C2970E80D7
:01024C00E1D0
:01024D00228E
:090268007D017F211202717F2249
:10027100C29312022CAC07AF0512022CD293AF0429
:01028100225A
:0C029900C29312022CE4FF12022CD2933C
:0102A5002236
:0601D6008B1B8A1C891D31
:1001DC00C29312022CAD07E4FCECC3951E5017E43D
:1001EC00FF12022CAB1BAA1CA91D8C82758300EF7D
:0A01FC001200BC0C80E3D293AF05A3
:0102060022D5
:0B0168007BFF7A0279B97519057F2A28
:060173008B168A178918A3
:10017900C29312022CAD07E4FCECC395195015ABE0
:1001890016AA17A9188C8275830012008FFF120214
:080199002C0C80E5D293AF05A8
:0101A100223B
:10020700C2921201681202687D287F251202717D51
:10021700047F311202717D077F261202717D0F1252
:05022700024ED29222FC
:0600DE007B007A00790EA0
:1000E4008B128A138914C2927BFF7A0279B975192B
:1000F400057F30120173120168AB12AA13A914759B
:1001040019047FA01201731202687D0A7F2412026F
:10011400717D287F251202717D077F261202717D71
:070124000E12024ED29222DE
:1001A2007FC81202552094FD7FFF12022C8F20304F
:1001B20005057F031202823004083008057FE11230
:1001C200022CAD207F27120271D2943005037F00EA
:0401D200227FFF2267
:10012B0020B11B7F1412025520B113750E01120062
:10013B00DEC2081201A27FFA12025512025520B23A
:10014B001B7F1412025520B213750E021200DEC271
:0D015B00081201A27FFA120255120255226D
:10028200AC07AF041CEF600ED2A17FF4120255C27C
:07029200A112025580EC22CD
:0802B1001202A612012B80FBD2
:03000000020003F8
:0C000300787FE4F6D8FD75812102004AE8
:10008F00BB010CE58229F582E5833AF583E0225026
:10009F0006E92582F8E622BBFE06E92582F8E22270
:0D00AF00E58229F582E5833AF583E493228A
:1000BC00F8BB010DE58229F582E5833AF583E8F07A
:1000CC00225006E92582C8F622BBFE05E92582C826
:0200DC00F2220E
:10000F000202B1E493A3F8E493A34003F68001F254
:10001F0008DFF48029E493A3F85407240CC8C333F2
:10002F00C4540F4420C8834004F456800146F6DFC1
:10003F00E4800B01020408102040809002BEE47E91
:10004F00019360BCA3FF543F30E509541FFEE493B6
:10005F00A360010ECF54C025E060A840B8E493A37D
:10006F00FAE493A3F8E493A3C8C582C8CAC583CAA8
:10007F00F0A3C8C582C8CAC583CADFE9DEE780BE60
:0102C100003C
:00000001FF
