:10759A0048656C6C6F20576F726C6421003132330E
:0875AA00343536373839300062
:105AC40090030C74F8F0A3E4F0900307E0FFA3E064
:105AD40090003ACFF0A3EFF0A3740CF0A374FFF09E
:105AE400A37475F0A3749AF0900305E0FAA3E0FBA5
:105AF4007D0A7C007F0A7E00126572900307E0FF36
:105B0400A3E090003ACFF0A3EFF0A37410F0A374D5
:105B1400FFF0A37475F0A3749AF0900305E0FAA360
:105B2400E0FB7D1E7C007F0A7E00126572900307F5
:105B3400E0FFA3E090003ACFF0A3EFF0A37418F0D5
:105B4400A374FFF0A37475F0A3749AF0900305E0B6
:105B5400FAA3E0FB7D327C007F0A7E00126572743A
:105B6400FF90030CF0A3F0900307E0FFA3E0900084
:105B74003ACFF0A3EFF0A3740CF0A374FFF0A37476
:105B840075F0A374A7F0900305E0FAA3E0FB7D5041
:105B94007C007F0A7E00126572900307E0FFA3E099
:105BA40090003ACFF0A3EFF0A37410F0A374FFF0C9
:105BB400A37475F0A374A7F0900305E0FAA3E0FBC7
:105BC4007D647C007F0A7E00126572900307E0FF0B
:105BD400A3E090003ACFF0A3EFF0A37418F0A374FD
:105BE400FFF0A37475F0A374A7F0900305E0FAA383
:0D5BF400E0FB7D787C007F0A7E0002657278
:0B7609001275B21239D3125AC480FE71
:0B761400EF1FAC0670011E4C70F62248
:10754500D3EF9400EE940040147D6E7C00ED1D7029
:0D755500011CED4C70F7EF1F70E61E80E387
:017562002206
:0575DD00420032000035
:1075B200759850758920758780758DFA858D8BD267
:0675C200AFD28ED2992227
:06762A00EF24FF92AC22E8
:0E75ED00C2ACC2998F993099FDC299D2AC22DE
:1074720090039EEBF0A3EAF0A3E9F090039EE0FBF9
:10748200A3E0FAA3E0F912319FFF60161275ED7FB7
:10749200057E0012761490039FE475F00112325EAD
:0374A20080D9226C
:03002300026ED496
:106ED400C0E0C083C082C0D075D000C004C005C06B
:016EE40007A6
:106EE500309864C298AF99900032E0FCEC20E757E7
:106EF50030E60FEF640A90003260028046E044807D
:106F0500800AEFB40D0C900032E04440F0A3E0F0AD
:106F15008035900032E0543FFCA3E02400F58274F4
:106F2500003CF583EFF0900033E004F0700690002C
:106F350032E004F0D3900033E09431900032E094D5
:076F4500004004E4F0A3F09A
:0F6F4C00D007D005D004D0D0D082D083D0E0328F
:10002600204C43442049443A25780D0A000000003C
:10003600000000000000000000000000003F40003B
:1000460000000000000000300040003000400000CA
:100056000009000BC03D000BC03D00090018C0247C
:10006600407FE0224031800000180024C01B000DB4
:10007600803240018003801C4027401C80074000DE
:1000860040100060000000000000000000000000BA
:100096000000001F80204040200000402020401F1C
:1000A6008000000000090006001F8006000900000D
:1000B60000040004003F800400040000000010005B
:1000C60060000000000000000004000400040004BA
:1000D60000040000000000004000000000000000D6
:1000E60000002001C006003800400000001F8020EC
:1000F60040204020401F800000000010403FC0000C
:10010600400000000018C021402240244018400052
:100116000010802040244024401B80000002000D77
:100126000011003FC0014000003C802440244024D0
:1001360040238000001F8024402440344003800078
:10014600003000200027C03800200000001B80245B
:1001560040244024401B8000001C0022C022402274
:10016600401F800000000000000840000000000062
:100176000000000000046000000000000000000411
:10018600000A00110020804040090009000900090A
:10019600000900000000004040208011000A000411
:1001A600001800200023402400180000001F8020B3
:1001B60040274029401F400000004007C039000F7B
:1001C6000001C0004020403FC0244024401B800066
:1001D600001F802040204020403080000020403F0B
:1001E600C0204020401F80000020403FC024402EF9
:1001F6004030C0000020403FC024402E00300000A8
:10020600000F001080204022403380020020403F33
:10021600C0040004003FC02040204020403FC020D2
:1002260040204000000060202020203FC020002009
:100236000020403FC024400B0030C0204020403FFB
:10024600C020400040004000C03FC03C0003C03C0E
:10025600003FC0000020403FC00C4023003FC020AC
:10026600001F802040204020401F80000020403F8B
:10027600C024402400180000001F80214021402097
:10028600E01FA0000020403FC02440260019C00007
:100296004018C02440244022403180000030002015
:1002A600403FC020403000000020003F800040005A
:1002B600403F80200020003E0001C007003800209B
:1002C60000380007C03C0007C03800000020403955
:1002D600C0060039C0204000002000384007C03862
:1002E6004020000000304021C02640384020C00099
:1002F60000000000007FE040204020000000007069
:10030600000C000380004000000000402040207FD9
:10031600E000000000000020004000200000000077
:100326000000100010001000100010001000000067
:1003360000400000000000000000000280054005AB
:100346004003C0004020003FC0044004400380003A
:100356000000000380044004400640000000000343
:1003660080044024403FC000400000038005400553
:100376004003400000000004401FC02440244020E9
:1003860000000002E0055005500650042020403FC2
:10039600C00440040003C000400000044027C00021
:1003A600400000000000100010041027E0000000CC
:1003B6000020403FC00140070004C0044020402008
:1003C600403FC000400040000007C0040007C004D2
:1003D6000003C00000044007C00440040003C0003E
:1003E600400000038004400440038000000410071E
:1003F600F004500440038000000000038004400421
:100406005007F00010044007C0024004000400003A
:1004160000000006400540054004C000000000043E
:10042600001F8004400040000004000780004004D4
:100436004007C000400400070004C0018006000415
:1004460000060001C0070001C006000000044006C7
:10045600C0010006C0044000000410071004E001BB
:1004660080060004000000044005C0064004400069
:10047600000000000004007BE040200000000000B7
:10048600000000FFF000000000000040207BE004B8
:1004960000000000004000800040002000200040D6
:1004A6000000000000000000000000000000000046
:1004B600000000000000001FCC000C00000000003F
:1004C60000000008003000600008003000600000F6
:1004D60000022003FC1E20022003FC1E2002200036
:1004E6000000000E1811043FFF10840C7800000075
:1004F600000F0010840F3800C007781884007800B9
:100506000000780F8410C411240E9800E4008400C3
:1005160008080068007000000000000000000000ED
:100526000000000000000007E01818200440020048
:1005360000000040022004181807E0000000000038
:10054600000240024001800FF0018002400240009C
:10055600000080008000800FF8008000800080008E
:10056600000001000D000E00000000000000000069
:100576000000000080008000800080008000800075
:10058600800000000C000C000000000000000000CD
:100596000000000006001800600180060018002018
:1005A60000000007F0080810041004080807F0000F
:1005B600000000080408041FFC00040004000000FA
:1005C6000000000E0C10141024104411840E0C00B0
:1005D6000000000C1810041104110412880C70009D
:1005E60000000000E00320042408241FFC0024006F
:1005F6000000001F98108411041104108810700068
:1006060000000007F0088811041104188800700023
:100616000000001C00100010FC13001C001000005D
:100626000000000E3811441084108411440E380066
:100636000000000700088C10441044088807F000EA
:1006460000000000000000030C030C000000000086
:10065600000000000000010106000000000000008C
:100666000000000080014002200410080810040069
:100676000002200220022002200220022002200086
:100686000000001004080804100220014000800049
:100696000000000E001200100C106C10800F0000FD
:1006A6000003E00C1813E4142417C4082807D0002C
:1006B600000004003C03C41C40074000E4001C008A
:1006C6000410041FFC1104110411040E88007000AC
:1006D6000003E00C1810041004100410081C10008D
:1006E6000010041FFC100410041004080807F00092
:1006F6000010041FFC1104110417C410040818008C
:100706000010041FFC1104110017C010000800009F
:100716000003E00C181004100410441C780040007C
:100726000010041FFC10840080008010841FFC1041
:10073600040000100410041FFC1004100400000044
:100746000000030001100110011FFE100010000040
:100756000010041FFC110403801464181C1004000C
:100766000010041FFC1004000400040004000C0028
:100776000010041FFC1F0000FC1F001FFC100400DB
:100786000010041FFC0C04030000E010181FFC10EE
:100796000007F00808100410041004080807F00009
:1007A6000010041FFC10841080108010800F0000C1
:1007B6000007F0081810241024101C080A07F2007D
:1007C6000010041FFC1104110011C011300E0C00A2
:1007D6000400000E1C11041084108410441C380000
:1007E600001800100010041FFC1004100018000070
:1007F6000010001FF810040004000410041FF81075
:100806000010001E0011E0001C007013801C001078
:10081600001FC0103C00E01F0000E0103C1FC0009D
:10082600001004180C163401C001C01634180C1040
:100836000410001C00130400FC13041C001000002C
:10084600000804101C1064108413041C0410180003
:10085600000000000000007FFE400240024002004F
:1008660000000030000C0003800060001C00030044
:100876000000004002400240027FFE00000000002F
:100886000000000000200040004000400020000062
:10089600000001000100010001000100010001004B
:1008A60001000040004000200000000000000000A1
:1008B6000000000098012401440144014400FC00AA
:1008C6000410001FFC008801040104008800700069
:1008D6000000000070008801040104010400880083
:1008E600000000007000880104010411081FFC00CC
:1008F60004000000F8014401440144014400C8001A
:10090600000000010401040FFC1104110411001879
:1009160000000000D601290129012901C9010600AC
:100926000010041FFC008401000100010400FC000B
:100936000400000104190419FC000400040000006E
:10094600000000000300010101190119FE0000006A
:100956000010041FFC0024004001B4010C01040037
:10096600000000100410041FFC0004000400000036
:1009760000010401FC0104010001FC010401000066
:10098600FC010401FC008401000100010400FC00DC
:1009960004000000F8010401040104010400F80049
:1009A60000010101FF0085010401040088007000B8
:1009B6000000000070008801040104010501FF0029
:1009C600010104010401FC0084010401000180000E
:1009D60000000000CC012401240124012401980018
:1009E6000000000100010007F801040104000000F6
:1009F60000010001F8000400040004010801FC00E5
:100A060004010001800170000C00100160018001EA
:100A16000001F0010C003001C00030010C01F001B2
:100A26000000000104018C00740170018C010400B7
:100A360000010101810171000E00180160018001B1
:100A46000000000184010C013401440184010C0002
:100A560000000000000000000001003EFC400240D3
:100A6600020000000000000000FFFF000000000080
:100A7600000000400240023EFC01000000000000B1
:100A86000000006000800080004000400020002040
:100A96000000000000000000000000000000000050
:100AA6000000000000000000000000000000000040
:100AB6000000000000000000000000000000000030
:100AC600000000000F80380FFE380F80380000004D
:100AD600000000000000000000000000000000010F
:100AE60000000600000C000038000031000006007F
:100AF600000C00003800003000000000000000007C
:100B06000061800067F807F980006180006180005D
:100B160061800061800067F807F98000618000004D
:100B26000000000000000001C0E003E0F00630080D
:100B36000418081FFFFE040E080787F00381E00073
:100B4600000000000001F000060C00040408060C7A
:100B56007001F9C0000E00003BE000EC1807080821
:100B6600040C180003E00000000001E00007F00399
:100B7600F818041C0804170807E1D003C0E0002396
:100B8600B0003C0800200800001000000000000033
:100B96000100003100003200001C000000000000CF
:100BA600000000000000000000000000000000003F
:100BB600000000000000000000000000000000002F
:100BC600007F0001FFC00780F00C00181000042011
:100BD60000020000000000002000021000040C00CB
:100BE600180780F001FFC0007F0000000000000031
:100BF60000000000000000000000000000420000AD
:100C06006600006600003C0000180003FFC00018E4
:100C160000003C0000660000660000420000000084
:100C26000008000008000008000008000008000195
:100C3600FFC00008000008000008000008000008C7
:100C46000000000000000100003100003200001C1E
:100C5600000000000000000000000000000000008E
:100C66000000000000000000000800000800000866
:100C76000000080000080000080000080000080046
:100C8600000800000800000000000000000000004E
:100C960000380000380000380000000000000000A6
:100CA600000000000000000000000000000000003E
:100CB60000000600001C000070000180000E00000D
:100CC600380000C0000700001C00003000000000D3
:100CD60000000000007F8001FFE00380700600181E
:100CE60004000804000806001803807001FFE000F5
:100CF6007F800000000000000000000100080100E5
:100D06000801000803FFF807FFF8000008000008C4
:100D160000000800000000000000000001C03802CA
:100D2600C058040098040118040218040418061C8C
:100D36001803F81801E0F8000000000000000000A9
:100D460001C0E003C0F0040008040808040808060F
:100D5600180803F41801E7F00001E00000000000A5
:100D660000000000000300000D00001100006100FB
:100D760000810803010807FFF80FFFF800010800CB
:100D860001080000000000000000E007FCD0060893
:100D960008061008061008061008061838060FF090
:100DA6000607C0000000000000000000003F8001B0
:100DB600FFE0038430020818041008041008041029
:100DC60008071810030FF00007C00000000000001D
:100DD60000000003C0000700000600000600F80639
:100DE60007F806180006E0000700000600000000ED
:100DF6000000000001E1E003F7F0063410041808D3
:100E0600041808040C08040C0806161803F3F0016D
:100E1600C1E000000000000000F80003FC300306FB
:100E2600380402080402080402080404100308F047
:100E360001FFC0007F00000000000000000000006D
:100E460000000000000000000070380070380070DC
:100E56003800000000000000000000000000000054
:100E660000000000000000000000000000301A0032
:100E7600301C000000000000000000000000000020
:100E8600000000000000000008000014000022001E
:100E9600004100008080010040020020040010088C
:100EA60000080000000000000021000021000021D1
:100EB6000000210000210000210000210000210087
:100EC60000210000210000000000000000000008D2
:100ED600000804001002002001004000808000414C
:100EE60000002200001400000800000000000000BE
:100EF60003C00004C000040000080038080F3808CA
:100F060008380810000C300007E00003C00000009D
:100F160000000000003F8000FFE0038070020F1019
:100F260006708804C088048308047F8802C0900382
:100F3600012000FE400000080000180001F8003EF5
:100F46000801C20007020007E20000FE00001FC8F9
:100F56000001F800003800000804000807FFF80741
:100F6600FFF8040808040808040808040808061816
:100F76000803F41801E7F00001E00000000000009B
:100F8600003F8001FFE0038070020018040008049F
:100F960000080400080400100600200780C00000B6
:100FA6000004000807FFF807FFF80400080400081B
:100FB60004000804001802001003807001FFE0001E
:100FC6007F8000000004000807FFF807FFF8040808
:100FD60008040808040808040808043E0804000871
:100FE60006001801006000000004000807FFF8076B
:100FF600FFF8040808040800040800040800043E7A
:10100600000600000600000180000000000000004D
:10101600003F8001FFE0038070060018040008040A
:1010260002080402080203F00783F000020000022F
:101036000004000807FFF807FFF804080800080086
:1010460000080000080000080004080807FFF80769
:10105600FFF8040008000000000000040008040077
:101066000804000807FFF807FFF804000804000852
:101076000400080000000000000000000000060058
:10108600000700000104000104000104000307FF3B
:10109600FE07FFFC04000004000004000004000832
:1010A60007FFF807FFF8040C08001800003E0004CC
:1010B600C7800503C80600F80400380400180000BD
:1010C6000804000807FFF807FFF8040008000008F6
:1010D60000000800000800000800000800001800D2
:1010E600006000000004000807FFF807800807FCFE
:1010F60000007FC00003F80007C0007800078008E2
:1011060007FFF807FFF804000804000807FFF807C0
:10111600000803C00000E000003800001E000007C1
:10112600000001C00400F007FFF804000000000002
:10113600007F8001FFE003807006001804000804A9
:10114600000806001803003001FFE0007F80000061
:101156000004000807FFF807FFF804040804040069
:10116600040400040400040400060C0003F8000153
:10117600F000000000000000007F8001FFE0038017
:10118600700600880400880400C806003C03003E80
:1011960001FFE6007F8400000004000807FFF8074F
:1011A600FFF8040808040800040C00040F00040BF0
:1011B600C00610F003F03801E00800000800000047
:1011C60001E0F803F030063010041808041808048B
:1011D6000C08040C080206180207F00781E000005C
:1011E600000180000600000400000400000400085E
:1011F60007FFF807FFF804000804000004000006D3
:10120600000001800004000007FFE007FFF0040073
:101216001800000800000800000800000800000888
:1012260004001007FFE004000004000006000007A9
:10123600E00007FE00041FE00001F800003800018E
:10124600E0043E0007C000060000040000040000A1
:1012560007E00007FFC0041FF80007C007F80007F3
:10126600FF80043FF80007C004F8000700000400F0
:101276000000000004000806001807C07805F1C841
:10128600003E00001F800463E80780F8060018048B
:10129600000800000004000006000007800007E0C8
:1012A60008047C08001FF80007F800180804E00886
:1012B6000700000600000400000000000100080608
:1012C60000380400F80403E8040F08047C0805F05D
:1012D6000807C008070018040060000000000000AE
:1012E6000000000000000000000000003FFFFE209C
:1012F600000220000220000220000220000200005E
:101306000000000000000008000007000000C00008
:101316000038000006000001C000003000000E008A
:101326000001000000000000000000200002200074
:10133600022000022000022000023FFFFE00000003
:101346000000000000000000000000000000000097
:1013560000000800001000003000002000003000EF
:10136600001000000800000000000000000000015E
:101376000000010000010000010000010000010062
:101386000001000001000001000001000001000052
:101396000100000000000000000020000020000006
:1013A6001000001000000000000000000000000017
:1013B60000000000000000000000F00019F8001B0B
:1013C60018002208002608002408002410003FF810
:1013D600001FF800000800001800000004000007C5
:1013E600FFF80FFFF0001818001008002008002072
:1013F60008003018001FF0000FC0000000000000B9
:101406000007C0001FF00018300020080020080068
:101416002008003C08001C100000600000000000CE
:10142600000000000007C0001FF000381800200868
:1014360000200800200804101007FFF80FFFF00036
:1014460000100000000000000000000007C0001FA0
:10145600F00012300022180022080022080032088C
:10146600001E10000E2000000000000000200000FA
:10147600200800200801FFF803FFF80620080420D2
:1014860008042008072000030000000000000000F8
:1014960000000E000E6E001FF30031B10020B100F7
:1014A60020B1003191001F13002E1E00200E0030C7
:1014B6000000000004000807FFF80FFFF8001008FE
:1014C600002000002000002008003FF8001FF80060
:1014D60000080000000000000000000020080020B6
:1014E60008002008063FF8063FF80000080000083C
:1014F60000000800000000000000000000000000DE
:101506000003000003002001002001002003063F25
:10151600FE063FFC00000000000000000000000086
:1015260004000807FFF80FFFF80001880003000019
:101536002FC00038F80020380020080000080000FE
:101546000000000000000004000804000804000871
:1015560007FFF80FFFF80000080000080000080069
:101566000000000000002008003FF8003FF80010CF
:1015760008002000003FF8003FF800100800200097
:10158600003FF8003FF800000800000000200800B7
:101596003FF8003FF800100800100000200000206F
:1015A60008003FF8001FF8000008000000000000D7
:1015B6000007C0000FF000183000300800200800B7
:1015C6002008003008001830000FF00007C00000A7
:1015D60000000000002001003FFF003FFF00101147
:1015E600002009002008002008003038001FF00005
:1015F6000FC00000000000000007C0001FF0003808
:1016060018002008002008002009001011001FFF04
:10161600003FFF0000010000000020080020080035
:101626002008003FF8003FF80008080010080020D6
:10163600080020000030000030000000000000001C
:10164600000000000C78001E180033080023080074
:1016560021080021880021980030F0003860000041
:101666000000000000200000200000200000FFF025
:1016760003FFF800200800200800200800003000C2
:101686000000000000000000002000003FF0007F86
:10169600F8000018000008000008002010003FF8BD
:1016A600007FF00000100000000000000020000095
:1016B6003000003C00003F800023F000007800006E
:1016C60070002380003C0000300000200000200055
:1016D600003C00003FE00023F80000E00027000087
:1016E6003E00003FE00021F80001E0003E0000203F
:1016F60000000000002008002008003838003E687E
:101706000027800003C8002CF80038380020180095
:101716002008000000000000002000003003003C0C
:1017260001003F830023EC000070002380003C0092
:101736000020000020000000000000000000000063
:1017460038080020380020F80023E8002F88003EE3
:101756000800380800201800007000000000000093
:10176600000000000000000000000000000800006B
:1017760014001FF7FC3000062000020000000000E5
:101786000000000000000000000000000000000053
:10179600000000FFFFFF0000000000000000000046
:1017A60000000000000000000000002000023000E1
:1017B600061FF7FC001400000800000000000000EF
:1017C600000000000000000000000000180000609B
:1017D600000040000040000020000010000008004B
:1017E600000400000400000C0000100000C6D50034
:1017F60000000000E0380000783C00003C78000063
:101806003C70C0001CE1E01FFFFFF0001CE3000E6F
:101816001CE7C0079CE78003DCEF0003DCEE000159
:10182600DCFC60009CF9F07FFFFFF800000000017F
:10183600C00E0001FFFF0001C00E0001C00E000136
:10184600C00E0001FFFE0001C00E0001C00E000127
:10185600C00E0001FFFE0001C00E0001C00E000018
:10186600000000D6D000000000000700000007803E
:101876000000070000000700000007000000070145
:10188600801FFFFFE01FFFFFE01E0701C01E0701CC
:10189600C01E0701C01E0701C01E0701C01E0701AA
:1018A600C01FFFFFC01FFFFFC01E0701C01C0701AE
:1018B6008000070000000700000007000000070086
:1018C60000000700000007000000070000000700F6
:1018D600000007000000000000BFC6000000000076
:1018E600000780003C07C001FC07803FE007803905
:1018F600C1C78001C0E78001C0F78001C0778001C1
:10190600DE77807FFE078001C0078003C3C78003A0
:10191600E1E78003F8F78007FCE7F00FDE67F80FD2
:10192600DC07F81FC0FF801DDFE78039CC07807118
:10193600C0078061C0078001C0078001C007800121
:10194600E0078001E0078001C0070000000000BC3E
:10195600BC000000000380300003C03C0003C03C14
:101966000003C0380003C0380003C0386003F838ED
:10197600F07FFFFFF003C0380003C0380003C03813
:101986000003DC39C003FFFFE007E383C03FC183E8
:10199600C07FC1C3803BC1C78003C0EF0003C0EF57
:1019A6000003C07E0003C07C0003C07C0003C0FEB1
:1019B600003BC3EF803F8787F80FBF03F807780027
:1019C600E000000000C4EA0000000000C0000001C2
:1019D600F0000001E0000003C000C003C001E00702
:1019E600FFFFF00703C0000E03C0001E03C0003C4B
:1019F60003C3007303C78063FFFFC00383C00003F4
:101A060083C0000383C0000383C0000383C0600358
:101A160083C0F07FFFFFF80003C0000003C0000092
:101A260003C0000003C0000003C0000003C00000A4
:101A360003C0000003C00000000000D4C200000084
:101A4600000000000000E0070000FFFF8000F00734
:101A56008000F0070000F0070000F0070000F00724
:101A66000000FFFF0000FFFF0000F0070000F00786
:101A76000000F0070000F0070000E0070000FFFF8D
:101A86000000E0070000E0070000E0070001E007B3
:101A96000001C0070001C00700038007000780F7A8
:101AA600000F007F001E001F0038001C0000000011
:101AB60000C8D5000000000000000003000300037A
:101AC600FFFF8003FFFF80038007000380070003FA
:101AD60080070003800700038007000380070003D8
:101AE6008007000380070003FFFF00038007000351
:101AF60080070003800700038007000380070003B8
:101B060080070003800700038007000380070003A7
:101B1600FFFF000380070003800700038007000320
:101B260000000000000000D0C70000000000000018
:101B3600000380070003FFFF800380070003800780
:101B4600000380070003FFFF0003800700038007F0
:101B56000003FFFF0003FFFF00038707000387C0A2
:101B66000003C7810003C7838007FFFFC007078004
:101B7600000F0780001E0786001C078F003BFFFF33
:101B8600807007800000078000000780E000078162
:101B9600F07FFFFFF80000000000000000C6DA003A
:101BA60000000006000000079E0000079E7FF00769
:101BB6009E7FF0079FF8F03FFFF8F01F9E78F00732
:101BC6009E78F0079E78F007FE7FF0079E78F00774
:101BD6009E78F0079E70F007FE70F0079E70F00783
:101BE6009E7FF0079FFFF03FFFF0F0119070F0032B
:101BF600DCF0F003DEE0F0078FE0F00F0FE0F00E10
:101C060007C0F01C038FF0380F03E0201C01C00052
:031C1600000000CB
:0A75E20042030CFFFF42030E0000FD
:10000300E4FDFCC3ED9FEC9E5014E4FBFA0BBB0034
:0E001300010AEBF44A70F60DBD00010C80E509
:0100210022BC
:1074A5007E001274B7A3E0FEA3E0FF1275037F21EF
:0274B5007E0057
:0474B700AD07AC066B
:1074BB00ECFFAE05D2A5C2A7D2B2C2A68F90AF0683
:0874CB008F80C2A5D2A5D2A753
:0174D3002296
:0874FB007E001274B7E4FFFEED
:04750300AD07AC061E
:10750700ECFFAE05D2A5C2A7D2B2D2A68F90AF0626
:087517008F80C2A5D2A5D2A706
:01751F002249
:08752000900387E0FEA3E0FFE9
:04752800AD07AC06F9
:10752C00ECFFAE05D2A5C2A7D2B2D2A68F90AF0601
:08753C008F80C2A5D2A5D2A7E1
:017544002224
:0E75FB00AB05AA041274B7AE02AF030275030B
:107580007590FF7580FFC2A7D2A6C2B200AF90EF80
:09759000FEAD80EDFFD2B2D2A7DE
:0175990022CF
:10733F0090030BEFF07D1B701B7C017F01FE12751C
:10734F00FB900307E4F0A374DCF0900305E4F0A3D3
:10735F0074B0F0227C007F017E001275FB90030752
:10736F00E4F0A374B0F0900305E4F0A374DCF02212
:1039D300E4FED2B37F64127545C2B37F647E0012E6
:1039E3007545D2B37F647E00127545E4FFFE127401
:1039F300B7127580900309EEF0A3EFF07BFF7A0016
:103A03007926900037EEF0A3EFF0122EA57F101267
:103A130074FB7F111274FB7F121274FB7F131274F9
:103A2300FBE4FFFE1274B77F017E001275037E1361
:103A33007F88EF1F70011EEF4E70F77F117E00121B
:103A430074B77F017E001275037F137E001274B773
:103A53007F1C7E141275037F127E001274B77F18C9
:103A63007E001275037F107E001274B77F447E00C0
:103A73001275037E137F88EF1F70011EEF4E70F7E0
:103A83007F107E001274B77F407E001275037F1390
:103A93007E001274B77F137E341275037E137F8802
:103AA300EF1F70011EEF4E70F77F087E001274B790
:103AB3007408FFFE1275037F097E001274B77F013D
:103AC3007E001275037F0B1274FB7F211274FB7F40
:103AD300231274FB7F241274FB7F301274FB7F313B
:103AE3001274FB7F327E001274B77F077E0012755B
:103AF300037F337E001274B77F077E001275037F46
:103B0300341274FB7F351274FB7F361274FB7F37DC
:103B13001274FB7F381274FB7F391274FB7F017EB2
:103B2300001274B77F1B7E011275037F027E0012A1
:103B330074B77F007E071275037F037E001274B78C
:103B43007F307E601275037F041274FB7F0512744D
:103B5300FB7F401274FB7F417E001274B77FAF7E00
:103B6300001275037F427E001274B77F007EDB1262
:103B730075037F437E001274B77F007EDB127503EB
:103B83007F447E001274B77F007EAF1275037F45BA
:103B93007E001274B77F007EDB1275037F107E00F8
:103BA3001274B77440FFFE1275037F077E00127410
:103BB300B77F057E001275037E137F88EF1F7001A8
:103BC3001EEF4E70F77F077E001274B77F257E00CD
:103BD3001275037E137F88EF1F70011EEF4E70F77F
:103BE3007F077E001274B77F277E001275037E1352
:103BF3007F88EF1F70011EEF4E70F77F077E001264
:103C030074B77F377E001275037E137F88EF1F70B2
:103C1300011EEF4E70F77F227E001274B77F0112F0
:0D3C2300733F90030EE0FEA3E0FF026F5B15
:056C8A00E0FEA3E0FFA5
:0E6C8F00900053EEF0A3EFF0A3ECF0A3EDF0B5
:106C9D00EBFE900053E0FCA3E0FDEC4EFFED900009
:106CAD005BCFF0A3EFF090005AE0FE900055E0FAB4
:106CBD00A3E0FBEA4EFFEB90005DCFF0A3EFF0EB0E
:106CCD00FEEC4EFEEDFBAA0690030BE0701C7F441C
:106CDD00FE1274B790005BE0FEA3E0FF1275037F18
:106CED00451274A5AF03AE028027900054E0FEA3B9
:106CFD00E04EFAA3E0FB7F457E001274B790005B77
:106D0D00E0FEA3E0FF1275037F441274A5AE02AF3F
:0B6D1D00031275037F227E000274B792
:0C71B500900310ECF0A3EDF0AB07AA066D
:1071C100E4A3F0A3F0A3F0A304F0A3E4F0A304F07C
:1071D100D3900306E09B900305E09A4015900307C6
:1071E100E0FEA3E0FF900310E0FCA3E0FD9FEC9E16
:1071F1004004E4FEFF22AF03AE02C007900310E09B
:10720100FFA3E0900059CFF0A3EFF0D007126C8FED
:08721100900312E0FEA3E0FF70
:017219002252
:086F5B00900034EEF0A3EFF00A
:106F6300E4A3F0A3F0900306E024FFFB900305E005
:106F730034FFFA900308E024FFFE900307E034FF98
:106F8300900059F0A3CEF0E4FDFCFFFE126C8FE4F9
:106F9300FAFBD3900306E09B900305E09A4039E4A3
:106FA300900036F0A3F0900307E0FEA3E0FFC39048
:106FB3000037E09F900036E09E5016900034127523
:106FC30023900037E004F070DD900036E004F08099
:086FD300D50BBB00010A80BAD6
:016FDB002293
:1068DD009002EFECF0A3EDF09002EDEEF0A3EFF0EF
:0868ED009002F1EAF0A3EBF0C8
:1068F500E49002F7F0A3F0D3EF9BEE9A4003026910
:10690500AC9002F3E0FEA3E0FF9002EFE0FCA3E011
:10691500FD9FEC9E40030269AC9002F1E0FAA3E012
:10692500FBA3E0FFA3E0900059CFF0A3EFF09002A6
:10693500ED126C8A9002EDE0FEA3E0FFC39002F237
:10694500E09FFF9002F1E09ECF2401CF340090023A
:10695500EDF0A3EFF0A3E0FEA3E0FFC39002F4E0A7
:106965009FFF9002F3E09ECF2401CF34009002EF09
:10697500F0A3EFF09002ED74FFF5F012327445F0DC
:1069850060259002EFE0FFA3E09002F7CFF0A3EFC0
:10699500F09002F774FFF5F012327445F060D5906F
:0769A50002F512752380EAE0
:0169AC0022C8
:0E61A2009001FFEEF0A3EFF0A3ECF0A3EDF000
:1061B0009001FFE0FEA3E0FFC3EB9FFFEA9ECF2428
:1061C00001CF340090020CF0A3EFF0900201E0FE4A
:1061D000A3E0FFC3900206E09FFF900205E09ECF80
:1061E0002401CF340090020AF0A3EFF0900201E006
:1061F000FCA3E0FD900205E0FFA3E0900059CFF082
:10620000A3EFF09001FF126C8AE490020EF0A3F06D
:1062100090020AE0FEA3E0FFC390020FE09F90020D
:106220000EE09E5074E4900210F0A3F090020CE097
:10623000FEA3E0FF900210E0FAA3E0FBC39FEA9EFA
:10624000504690020CE0FCA3E0FDA3E0FEA3E0FFBB
:106250001231F7EB2FFFEA3EFEEF25E0FFEE33FEB3
:10626000900207E0FBA3E0FAA3E0F98F828E83128D
:10627000328AFFAEF0127528900211E004F070AC83
:10628000900210E004F080A490020FE004F070800F
:0962900090020EE004F00262101D
:0162990022E2
:10737F00900320FEE0FCA3E0FDC390031DE09DFD04
:06738F0090031CE09CFCD1
:10739500AB07AA068D828C83C006C007AE83AF8279
:1073A500900059EEF0A3EFF0D007D006126C8F9045
:0A73B500030CE0FEA3E0FF027528C0
:0672B300FDE0FAA3E0FB80
:1072B90090004DEEF0A3EFF0900051EAF0A3EBF04F
:1072C90090004FECF0A3EDF090004DE0FAA3E0FB45
:1072D900FFAE02C007A3E0FFA3E0900059CFF0A3DF
:1072E900EFF0D007126C8F900051E0FEA3E0FF028F
:0272F9007528F6
:1070D70090037DEEF0A3EFF0A3ECF0A3EDF0A3EAAD
:1070E700F0A3EBF01272B990037EE02401FF900346
:1070F7007DE03400FE90037FE0FCA3E0A31272B3AF
:1071070090037DE0FEA3E0FF900380E02401FD9063
:10711700037FE03400FC9003811272B490037EE099
:107127002401FF90037DE03400FE900380E02401FA
:10713700FD90037FE03400FC900381E0FAA3E0FBBD
:037147000272B918
:0E47430090013DEEF0A3EFF0A3ECF0A3EDF03B
:10475100E4900145F0A3F0A3F0A3F0A3F0A3F0903F
:10476100013DE0FEA3E0FFC3EB9FFFEA9E90014BFA
:10477100F0A3EFF090013FE0FAA3E0FBC390014406
:10478100E09BFE900143E09A90014DF0A3CEF090A2
:10479100013DE0FFA3E0900155CFF0A3EFF0A3EAC4
:1047A100F0A3EBF090014BE0FEA3E0FFD39400EE09
:1047B10064809480400A900151E4F0A304F08021C8
:1047C100EF4E7008900151F0A3F0801574FF900135
:1047D10051F0A3F0C3E49FFFE49E90014BF0A3EFDF
:1047E100F090014DE0FEA3E0FFD39400EE648094CD
:1047F10080400A900153E4F0A304F08021EF4E7051
:1048010008900153F0A3F0801574FF900153F0A3B9
:10481100F0C3E49FFFE49E90014DF0A3EFF09001FF
:104821004DE0FEA3E0FF90014BE0FCA3E0FDD39F30
:10483100EE6480F8EC64809890014F4007ECF0A39F
:10484100EDF08005EEF0A3EFF0E4900145F0A3F068
:10485100900150E02401FF90014FE03400FED3901D
:104861000146E09F900145E09E40030249319001DD
:1048710055E0FEA3E0FFA3E0FCA3E0FD12739590D9
:10488100014BE0FEA3E0FF900148E02FF0900147CB
:10489100E03EF090014DE0FEA3E0FF90014AE02FE1
:1048A100F0900149E03EF090014FE0FEA3E0FF905F
:1048B1000147E0FCA3E0FDD39FEE6480F8EC648047
:1048C100984020ED9FFFEC9E900147F0A3EFF09000
:1048D1000151E0FEA3E0FF900156E02FF090015559
:1048E100E03EF090014FE0FEA3E0FF900149E0FCC3
:1048F100A3E0FDD39FEE6480F8EC6480984020ED46
:104901009FFFEC9E900149F0A3EFF0900153E0FE70
:10491100A3E0FF900158E02FF0900157E03EF090A6
:104921000146E004F07006900145E004F0024851B0
:014931002263
:0E4932009000E3EEF0A3EFF0A3ECF0A3EDF0A5
:10494000E49000EFF0A3F0A3F0A3F09000E3E0FE0A
:10495000A3E0FFC3EB9FFFEA9E9000F3F0A3EFF00C
:104960009000E5E0FAA3E0FBC39000EAE09BFE9034
:1049700000E9E09A9000F5F0A3CEF09000E3E0FFAC
:10498000A3E09000FDCFF0A3EFF0A3EAF0A3EBF0DB
:104990009000F3E0FEA3E0FFD39400EE64809480E7
:1049A000400A9000F9E4F0A304F08021EF4E700873
:1049B0009000F9F0A3F0801574FF9000F9F0A3F0D7
:1049C000C3E49FFFE49E9000F3F0A3EFF09000F5A6
:1049D000E0FEA3E0FFD39400EE64809480400A9050
:1049E00000FBE4F0A304F08021EF4E70089000FB80
:1049F000F0A3F0801574FF9000FBF0A3F0C3E49FD8
:104A0000FFE49E9000F5F0A3EFF09000F5E0FEA328
:104A1000E0FF9000F3E0FCA3E0FDD39FEE6480F89C
:104A2000EC6480989000F74007ECF0A3EDF080056F
:104A3000EEF0A3EFF0E49000EDF0A3F09000F8E0CA
:104A40002401FF9000F7E03400FED39000EEE09FD9
:104A50009000EDE09E4003024B1E9000FDE0FEA39F
:104A6000E0FFA3E0FCA3E09000EB1272B39000F330
:104A7000E0FEA3E0FF9000F0E02FF09000EFE03EBA
:104A8000F09000F5E0FEA3E0FF9000F2E02FF09040
:104A900000F1E03EF09000F7E0FEA3E0FF9000EFB1
:104AA000E0FCA3E0FDD39FEE6480F8EC64809840C6
:104AB00020ED9FFFEC9E9000EFF0A3EFF09000F947
:104AC000E0FEA3E0FF9000FEE02FF09000FDE03E4E
:104AD000F09000F7E0FEA3E0FF9000F1E0FCA3E01F
:104AE000FDD39FEE6480F8EC6480984020ED9FFF3A
:104AF000EC9E9000F1F0A3EFF09000FBE0FEA3E04D
:104B0000FF900100E02FF09000FFE03EF09000EEFB
:0E4B1000E004F070069000EDE004F0024A3C74
:014B1E002274
:10673300900383EEF0A3EFF0900387EAF0A3EBF06E
:08674300900385ECF0A3EDF0DA
:10674B00900383E0FAA3E0FB24FFFFEA34FFFEC0D3
:10675B0006C007ED24FFFDEC34FFFCEB2401FBE44A
:10676B003AFAA3E0FEA3E02401FFE43E900059F0C7
:10677B00A3EFF0D007D006126C8FE4FB1275200B41
:10678B00EBB409F8900384E024FCFF900383E0341E
:10679B00FFFEC007900385E0FCA3E0FD900384E0BF
:1067AB002404FB900383E03400FA900385E0FFA3FD
:1067BB00E0900059CFF0A3EFF0D007126C8FE4FB01
:1067CB001275200BEBB409F8900386E024FCFD90C6
:1067DB000385E034FFFC900383E0FAA3E0FBA3E026
:1067EB00FEA3E02404FFE43E900059F0A3EFF090E9
:0F67FB000383126C8AE4FB1275200BEBB409F8D0
:01680A00226B
:106B3600900359EAF0A3EBF0900355EEF0A3EFF0C3
:106B4600A3ECF0A3EDF0C007A3E0FAA3E0FB9003EB
:106B560057E0FFA3E0900143CFF0A3EFF0D0071278
:106B66004743900355E0FAA3E0FBFFAE02C007A33C
:106B7600E0FCA3E0FD90035BE0FFA3E0900143CFC0
:106B8600F0A3EFF0D00712474390035BE0FCA3E0CD
:106B9600FD900359E0FAA3E0FBA3E0FFA3E0900118
:106BA60043CFF0A3EFF0900355E0FEA3E0FF1247BA
:106BB60043900359E0FAA3E0FBFFAE02C00790033F
:106BC60057E0FCA3E0FD90035BE0FFA3E0900143E8
:0A6BD600CFF0A3EFF0D00702474311
:0E4D080090031AEEF0A3EFF0A3ECF0A3EDF091
:104D1600E4A3F0A3F0EBFF7E00A3EEF0A3EFF025F3
:104D2600E0FFEE33FEC374039F900323F0E49E90EE
:104D36000322F0900320E0FEA3E0FF90031EE0FCB8
:104D4600A3E0FDD39FEE6480F8EC648098400302F4
:104D56004EDF90031BE02DFF90031AE03C12737F99
:104D6600900320E0FEA3E0FF90031BE02FFF9003DB
:104D76001AE03E90031E127382900320E0FEA3E029
:104D8600FF90031BE02FFF90031AE03EFE90031EE8
:104D9600E0FCA3E0FD90031DE02DFD90031CE03C2C
:104DA600FC12739590031EE0FEA3E0FF90031BE048
:104DB6002FFF90031AE03EFE900320E0FCA3E0FDE7
:104DC60090031DE02DFD90031CE03CFC12739590B2
:104DD600031EE0FEA3E0FFC390031BE09FFF9003CA
:104DE6001AE09EFE900320E0FCA3E0FD90031DE088
:104DF6002DFD90031CE03CFC127395900320E0FE11
:104E0600A3E0FFC390031BE09FFF90031AE09EFE02
:104E160090031EE0FCA3E0FD90031DE02DFD900332
:104E26001CE03CFC12739590031EE0FEA3E0FFC35A
:104E360090031BE09FFF90031AE09E12737F90037E
:104E460020E0FEA3E0FFC390031BE09FFF90031A40
:104E5600E09EFE90031E12738390031FE004F07021
:104E66000690031EE004F0C3900322E06480948061
:104E7600502590031EE0FEA3E07802C333CE33CE66
:104E8600D8F92406FFE43EFE900323E02FF09003BA
:104E960022E03EF0024D39900320E0FEA3E0FFC37E
:104EA60090031FE09FFF90031EE09EFEEF7802C373
:104EB60033CE33CED8F9240AFFE43EFE900323E036
:104EC6002FF0900322E03EF0900321E024FFF090C3
:094ED6000320E034FFF0024D3925
:014EDF0022B0
:10557D00900041EEF0A3EFF0900045EBF09000436A
:05558D00ECF0A3EDF0BD
:1055920090004AECF0A3EDF0900046E0FF131313E5
:1055A200541FFEEF540760047F0180027F00EE2F3C
:1055B200FF900046E0C313FEEF8EF0A490004CF083
:1055C200900045E024E0F0E4F990004CE0FFE9C3EC
:1055D2009F40030256F4900046E0FFB40C12900084
:1055E20045E075F00CA42433F582E5F034008031F7
:1055F200EFB41012900045E075F010A424A7F582D4
:10560200E5F03404801B900046E064186003025603
:10561200F4900045E075F024A42497F582E5F03477
:105622000AF583E58229F582E43583F583E49390D4
:105632000048F0E4900049F0900048E030E7139011
:105642000041E0FEA3E0FFA3E0FCA3E0FD90030C19
:105652008017900047E07014900041E0FEA3E0FF45
:10566200A3E0FCA3E0FD90030E1272B4900048E0A8
:1056720025E0F0900044E004F07006900043E0045E
:10568200F0900307E0FEA3E0FF900043E0FCA3E0FC
:10569200FDC39FEC9E505B90004AE0FEA3E0FFC377
:1056A200ED9FFDEC9EFC900046E07A00B50530EAE5
:1056B200B5042C900043EEF0A3EFF0900042E0041A
:1056C200F07006900041E004F0900305E0FEA3E0D4
:1056D200FFC3900042E09F900041E09E4010229064
:1056E2000049E004F0E0C39408500302563A09026C
:0256F20055CB96
:0156F4002293
:07721A00C3EF9E14FD7F0A83
:08722100900389EFF0A3EDF0EA
:10722900A31234520000000190038AE0FF14F0EF2A
:107239006020A3E0F8A3E0F9A3E0FAA3E0FB900340
:1072490089E0FFE4FCFDFE1232EF90038B12344615
:1072590080D690038BE0FCA3E0FDA3E0FEA3E0FF52
:017269002202
:0E6657009002C6EEF0A3EFF0A3ECF0A3EDF07E
:10666500E49002D2F09002D0F09002CEE0FF9002CA
:10667500D0E0FEC39F400302673212721AA804A934
:1066850005AA06AB079002CAE0FCA3E0FDA3E0FE65
:10669500A3E0FF12337AE47B0AFAF9F812337A9011
:1066A50002D1EBF0A3E070459002CEE014FF90021A
:1066B500D0E0FEC39F5036A3E0702C9002CFE0FBE4
:1066C500C3138EF0A4FF9002C7E02FFF9002C6E02F
:1066D50035F0FE9002C8E0FCA3E0FD900046EBF02B
:1066E500E4A3F07B20803A9002D27401F09002CFAF
:1066F500E0FAC313FFA3E0FEEF8EF0A4FF9002C7FC
:10670500E02FFF9002C6E035F0FE9002C8E0FCA342
:10671500E0FD9002D1E02430FB900046EAF0E4A3CE
:0D672500F012557D9002D0E004F002666E87
:016732002244
:0E5E590090029CEEF0A3EFF0A3ECF0A3EDF0AE
:105E6700E49002A9F09002A7F09002A4E0FF90024C
:105E7700A7E0FEC39F4003025F8112721AA804A91C
:105E870005AA06AB079002A0E0FCA3E0FDA3E0FE95
:105E9700A3E0FF12337AE47B0AFAF9F812337A9017
:105EA70002A8EBF0A3E06003025F389002A4E014BD
:105EB700FF9002A7E0FEC39F5077A3E0706D9002AA
:105EC700A6E0F99002A530E72BE0FBC3138EF0A400
:105ED700FF90029DE02FFF90029CE035F0FE9002BC
:105EE7009EE0FCA3E0FD900046EBF0E95401A3F02F
:105EF7007B30807AE0FBC313FF9002A7E0FEEF8EB2
:105F0700F0A4FF90029DE02FFF90029CE035F0FE89
:105F170090029EE0FCA3E0FD900046EBF09002A605
:105F2700E05401900047F07B2080439002A9740160
:105F3700F09002A5E0FAC313FF9002A7E0FEEF8EF0
:105F4700F0A4FF90029DE02FFF90029CE035F0FE49
:105F570090029EE0FCA3E0FD9002A8E02430FB90B5
:105F67000046EAF09002A6E05401900047F012556F
:0A5F77007D9002A7E004F0025E70C6
:015F810022FD
:10657200900034EEF0A3EFF0A3ECF0A3EDF0A3EA69
:04658200F0A3EBF0A7
:10658600900034E0FEA3E0FF900040F0900039E078
:106596002FF0900038E03EF0900036E0FEA3E0FFDA
:1065A60090003BE02FF090003AE03EF090003DE096
:1065B600FBA3E0FAA3E0F912319FFFD3947E4003D8
:1065C600026656EFC394205003026656900038E0E8
:1065D600FEA3E0FF900035E09F900034E09E401F50
:1065E600900040E0FF900034E4F0A3EFF090003C10
:1065F600E0FF900037E02FF0900036E03400F09096
:10660600003AE0FEA3E0FF900036E0FCA3E0FDC305
:106616009FEC9E503B900034E0FEA3E0FF12319FBA
:10662600FB90003CE0900046F0E4A3F012557D900C
:10663600003CE0C313FF900035E02FF0900034E0FB
:106646003400F090003EE475F00112325E0265B24D
:016656002221
:105D2E00900324EEF0A3EFF0A3ECF0A3EDF0A3EBC1
:075D3E00F0A3EAF0A3E9F075
:105D4500900328E0FBA3E0FAA3E0F912319F70036A
:105D5500025E58900324E0FAA3E0FBFFAE02C00602
:105D6500C007A3E0FCA3E0FDEB241FFBE43AFA9097
:105D75000326E0FEA3E0241CFFE43E900059F0A3B7
:105D8500EFF0D007D006126C8FE490032BF0900350
:105D95002BE0FFC394144003025E3D900328E0FB13
:105DA500A3E0FAA3E0F912319FFE75F076EFA42483
:105DB500F3F582E5F03417F583E4936E7071900086
:105DC500011231B8FF90032BE075F076A424F4F5A9
:105DD50082E5F03417F583E4936F7053FB90032B42
:105DE500E075F076A424F5F582E5F03417F583E542
:105DF500822BF582E43583F583E493FF90032CE44D
:105E0500F0A3EFF0E4FA90032DE030E70590030CE2
:105E1500800390030E12752390032DE025E0F0908A
:105E2500032CE033F00AEAB408DC0BEBB474AE9053
:105E3500032BE004F0025D93900329E475F0021250
:105E4500325E900325E02420F0900324E03400F036
:035E5500025D45A6
:015E58002227
:105C01009001EAEEF0A3EFF0A3ECF0A3EDF0A3EA2C
:045C1100F0A3EBF021
:105C1500E49001F5F0A3F0A31234520000000090C7
:105C250001FB123452000000009001ECE0FCA3E0FF
:105C3500FDA3E0FEA3E0FF9001EAE0FAA3E02FFF59
:105C4500EA3ECF24FFFBEF34FFFA9001F0E0FEA31C
:105C5500E0FF9001ECE0F8A3E02FFFE83ECF24FF42
:105C6500CF34FF900059F0A3EFF09001EA126C8A4F
:105C75009001F0E0FCA3E0FD9001EEE0FEA3E0FF63
:105C85001231F7EF25E0FFEE33FEE4FCFD9001FB5A
:105C95001234469001F7A3A3E0FEA3E0FDAC062471
:105CA50001FFE43CFE9001F2E0FBA3E0FAA3E0F97A
:105CB5008F828E831231B8FF9001F5E4F0A3EFF0E7
:105CC500E0F8E4F0E89001F5F08D828C831231B8AC
:105CD500FF9001F5E0FEA3E04FFF9001F5EEF0FE29
:105CE500A3EFF0127528A3E0FCA3E0FDA3E0FEA35B
:105CF500E02402FFE43EFEE43DFDE43CFC9001F7B8
:105D05001234469001FBE0FCA3E0FDA3E0FEA3E016
:105D1500FF9001F7E0F8A3E0F9A3E0FAA3E0FBC3E5
:085D250012340C5003025C98DB
:015D2D002253
:0B761F00C2A1D2A3D2A2D2A1C2A3221A
:10756300C2A1E4FEEFC4131313540124FF92A2EF4C
:0C75730025E0FFC2A1D2A10EEEB408E892
:01757F0022E9
:10743700E49003A1F0A3F0C2A1FDFC9003A2E02514
:10744700E0F09003A1E033F0D2A1C2A1A2A0E433FF
:10745700FFE0F0A3E04FF00DBD00010CED640C4C14
:0A74670070D99003A1E0FEA3E0FF3E
:0174710022F8
:07527A00EEF0A3EFF07F90BE
:02528100AB0779
:10528300C2A1C2A3E4900159F0AF03127563900168
:105293005A7406F090015AE014F0E070F7D2A100BE
:1052A30000C2A10000127437900159E025E0245B8D
:1052B300F582E43401F583EEF0A3EFF0900159E0B9
:1052C30004F0E0C3940A40C1D2A3E4900159F090E2
:1052D3000159E0FFC394094003025388EF04A3F08C
:1052E30090015AE0FFC3940A400302537FEF25E085
:1052F300245BF582E43401F583E0FEA3E0FF900133
:1053030059E0FB25E0245BF582E43401F583E0FCFE
:10531300A3E0C39FEC9E505BEB25E0245BF582E4A6
:105323003401F583E0FEA3E0FFE4FCFD90016F127E
:10533300344690015AE0FA25E0245BF582E4340117
:10534300F583E0FEA3E0FFEB25E0245BF582E43484
:1053530001F583EEF0A3EFF090016FA3A3E0FEA3AA
:10536300E0FFEA25E0245BF582E43401F583EEF007
:10537300A3EFF090015AE004F00252E3900159E0E8
:1053830004F00252D290016F1234520000000090D8
:1053930001597402F090016FE0F8A3E0F9A3E0FA79
:1053A300A3E0FB900159E025E0245BF582E434019E
:1053B300F583E0FEA3E0FFE4FCFDEB2FFFEA3EFEF6
:1053C300ED39FDEC38FC90016F123446900159E041
:1053D30004F0E0B408BF90016FE0FCA3E0FDA3E09C
:1053E300FEA3E0FFE47B06FAF9F81272FB90016F6B
:0D53F30012344690016FA3A3E0FEA3E0FF7B
:015400002289
:105F820012761F7FD012528190032E12527A900302
:105F920034EEF0A3EFF07FD0125281900330125210
:105FA2007AAD07AC06900330E0FEA3E0FF90032E2B
:105FB200E0FAA3E0FBD39FEA9E400AA3A3EB9FFF74
:105FC200EA9EA3801790032EE0FEA3E0FFC3900396
:105FD20031E09FFF900330E09E900332F0A3EFF098
:105FE200900334E0FEA3E0FFD39DEE9C4007EF9DBB
:105FF200FFEE9C800E900334E0FEA3E0FFC3ED9F12
:10600200FFEC9EA3F0A3EFF0D3900333E094329021
:106012000332E09400500E900337E094329003363E
:10602200E0940040037F0022900330E0FEA3E0FFF3
:1060320090032FE02FFF90032EE03EC313FEEF13D9
:10604200FF9002D3EEF0A3EFF0900335E02DFF9026
:106052000334E03CC313FEEF13FF9002D5EEF0A32E
:10606200EFF09002D4E054F0F09002D6E054F0F059
:10607200C39002D4E094649002D3E09400400FD322
:106082009002D6E094D89002D5E0940E40037F00AF
:03609200227F0169
:0160950022E8
:10598400E4900395F0125F82EF7003025AB990031A
:105994000BE06003025A1F9002D3E0FEA3E0FFE491
:1059A400FCFD9002D71234469002D7E0FCA3E0FD40
:1059B400A3E0FEA3E02406FFEE34FFFEED34FFFD7A
:1059C400EC34FFFCE47BB4FAF9F81232EFE47B74B4
:1059D4007A0EF9F812337A9002D71234469002D52F
:1059E400E0FEA3E0FFE4FCFD9002DB1234469002EB
:1059F400DBE0FCA3E0FDA3E0FEA3E024A2FFEE3481
:105A0400FEFEED34FFFDEC34FFFCE47BFAFAF9F81A
:105A14001232EFE47BAC7A0D025AA69002D5E0FE76
:105A2400A3E0FFC3E49FFF74109EFEE4FCFDA312F9
:105A340034469002D7E0FCA3E0FDA3E0FEA3E024FB
:105A4400A2FFEE34FEFEED34FFFDEC34FFFCE47BFC
:105A5400FAFAF9F81232EFE47BAC7A0DF9F8123362
:105A64007A9002D71234469002D3E0FEA3E0FFE41A
:105A7400FCFD9002DB1234469002DBE0FCA3E0FD67
:105A8400A3E0FEA3E02406FFEE34FFFEED34FFFDA9
:105A9400EC34FFFCE47BB4FAF9F81232EFE47B74E3
:105AA4007A0EF9F812337A9002DB12344690039599
:0F5AB4007401F08001E49002DFF0900395E0FFB1
:015AC30022C0
:066FDC0090035D12344633
:106FE20090035DE0FCA3E0FDA3E0FEA3E0FF7813C5
:106FF200123433A3EEF0A3EFF090035DE0FCA3E0C4
:10700200FDA3E0FEA3E0FF780A123433EF543FFE03
:10701200E4900363F0A3CEF090035DE0FCA3E0FDF7
:10702200A3E0FEA3E0FF7803123433EF541FFFE422
:10703200AD07FC900363E0FEA3E07805C333CE33D3
:10704200CED8F9FBAA06900362E033333354F84AF0
:09705200FEEBFFEE4CFEEF4DFFDA
:01705B002212
:0473BF00AD07AC0664
:1073C3007BE77A187E00ED54037803C333CE33CEC4
:1073D300D8F9FFEA4EFAEB4FFB7E00ED541C78061A
:1073E300C333CE33CED8F9FFEA4EFAEB4FFBED545D
:0773F300E04AFAEBAE02FFD5
:0173FA002270
:08726A0090038FEFF0A3EDF09B
:10727200A312345200000001900390E0FF14F0EFDB
:107282006020A3E0F8A3E0F9A3E0FAA3E0FB9003F7
:107292008FE0FFE4FCFDFE1232EF900391123446C0
:1072A20080D6900391E0FCA3E0FDA3E0FEA3E0FF03
:0172B20022B9
:10714A00900365123446900369E0FCA3E0FDA3E0D6
:10715A00FEA3E0FF900365E0F8A3E0F9A3E0FAA339
:10716A00E0FBD3123422401D900369E0F8A3E0F952
:10717A00A3E0FAA3E0FB900365E0FCA3E0FDA3E033
:10718A00FEA3E0801A900365E0F8A3E0F9A3E0FA11
:10719A00A3E0FBA3E0FCA3E0FDA3E0FEA3E0C39B06
:0B71AA00FFEE9AFEED99FDEC98FC2230
:0873FB0090039AEEF0A3EFF0FD
:1074030090030CE0FFA3E090039CCFF0A3EFF0AF59
:107413000390030CEAF0A3EFF090039AE0FEA3E0DD
:10742300FF12739590039CE0FFA3E090030CCFF051
:03743300A3EFF0D4
:017436002233
:10629A0090025BEEF0A3EFF0A3ECF0A3EDF0A3EA1B
:0462AA00F0A3EBF082
:1062AE00E4900266F0A3F090025FE0FEA3E0FFC36D
:1062BE00900267E09F900266E09E4003026390E4C6
:1062CE00900268F0A3F0900261E0FEA3E0FFC3909D
:1062DE000269E09F900268E09E400302637C900298
:1062EE0066E0FEA3E0FF90025CE02FFF90025BE011
:1062FE003EFE900268E0FCA3E0FD90025EE02DFD04
:10630E0090025DE03CFC1271B590026AEEF0A3EFD4
:10631E00F0900263E0FCA3E0FDA3E0FB1264859025
:10632E00026AEEF0A3EFF0900266E0FEA3E0FF90AB
:10633E00025CE02FFF90025BE03EFE900268E0FC04
:10634E00A3E0FD90025EE02DFD90025DE03CFC902E
:10635E00026AE0FAA3E0FB1272B9900269E004F05F
:10636E0060030262D4900268E004F00262D49002EC
:10637E0067E004F060030262B5900266E004F0028A
:02638E0062B5F6
:0163900022EA
:106391009002ACECF0A3EDF0A3EAF0A3EBF09002D5
:0663A100AAEEF0A3EFF0EC
:1063A700C39401EE94004013E024FFFE9002AAE09C
:1063B70034FF9002B4F0A3CEF0800F9002AAE0FF62
:1063C700A3E09002B4CFF0A3EFF09002ACE0FEA3FD
:1063D700E0FFC39401EE9400400CEF24FFFFEE347E
:1063E700FF9002B6800B9002ACE0FFA3E09002B6EC
:1063F700CFF0A3EFF09002B6E0FFA3E09002B0CF9A
:10640700F0A3EFF09002ADE02402FF9002ACE0347D
:1064170000FEC39002B1E09F9002B0E09E505E90F4
:1064270002B4E0FFA3E09002B2CFF0A3EFF0900236
:10643700ABE02402FD9002AAE03400FC9002B2E037
:10644700FEA3E0FFC39DEE9C50239002B0E0FCA3A7
:10645700E0FD9002AEE0FAA3E0FB1272B99002B33E
:10646700E004F070C99002B2E004F080C19002B17C
:0D647700E004F0708F9002B0E004F0808728
:0164840022F5
:0E455000900101EEF0A3EFF0A3ECF0A3EDF06C
:10455E00E490010DF0A3F0A3F0A3F0900101E0FEB2
:10456E00A3E0FFC3EB9FFFEA9E900111F0A3EFF0D3
:10457E00900103E0FAA3E0FBC3900108E09BFE90DC
:10458E000107E09A900113F0A3CEF0900101E0FF35
:10459E00A3E090011BCFF0A3EFF0A3EAF0A3EBF0A2
:1045AE00900111E0FEA3E0FFD39400EE64809480AE
:1045BE00400A900117E4F0A304F08021EF4E70083A
:1045CE00900117F0A3F0801574FF900117F0A3F07F
:1045DE00C3E49FFFE49E900111F0A3EFF09001134E
:1045EE00E0FEA3E0FFD39400EE64809480400A9036
:1045FE000119E4F0A304F08021EF4E700890011928
:10460E00F0A3F0801574FF900119F0A3F0C3E49F9E
:10461E00FFE49E900113F0A3EFF0900113E0FEA3D0
:10462E00E0FF900111E0FCA3E0FDD39FEE6480F863
:10463E00EC6480989001154007ECF0A3EDF0800536
:10464E00EEF0A3EFF0E490010BF0A3F0900116E072
:10465E002401FF900115E03400FED390010CE09F81
:10466E0090010BE09E400302474290011BE0FEA327
:10467E00E0FFA3E0FCA3E0FD900109E0FAA3E0FB5C
:10468E001272B9900111E0FEA3E0FF90010EE02F2F
:10469E00F090010DE03EF0900113E0FEA3E0FF90DC
:1046AE000110E02FF090010FE03EF0900115E0FEBA
:1046BE00A3E0FF90010DE0FCA3E0FDD39FEE64802C
:1046CE00F8EC6480984020ED9FFFEC9E90010DF079
:1046DE00A3EFF0900117E0FEA3E0FF90011CE02F86
:1046EE00F090011BE03EF0900115E0FEA3E0FF907C
:1046FE00010FE0FCA3E0FDD39FEE6480F8EC648034
:10470E00984020ED9FFFEC9E90010FF0A3EFF090EC
:10471E000119E0FEA3E0FF90011EE02FF090011DB5
:10472E00E03EF090010CE004F0700690010BE00406
:04473E00F002465AE5
:014742002254
:103767009000A5EEF0A3EFF0A3ECF0A3EDF0A3EA31
:04377700F0A3EBF0E0
:10377B00E49000B2F0A3F0A3F0A3F09000ADE0FF53
:10378B007E00C39000A6E09F9000A5E09E50030230
:10379B0039D29000AAE09F9000A9E09E5003023915
:1037AB00D29000A7E0FCA3E0FD9FEC9E50030239F2
:1037BB00D29000ACE09F9000ABE09E50030239D258
:1037CB009000ADE070139000A5E0FEA3E0FF900029
:1037DB00AEE0FAA3E0FB0272B99000A5E0FAA3E019
:1037EB00FBC39000AAE09BFE9000A9E09A9000B664
:1037FB00F0A3CEF09000A7E0FEA3E0FFC39000ACD7
:10380B00E09FFF9000ABE09E9000B8F0A3EFF0902C
:10381B0000C0EAF0A3EBF09000A7A3E0FF9000C27A
:10382B00EEF0A3EFF09000B6E0FEA3E0FFD3940020
:10383B00EE64809480400A9000BCE4F0A304F08016
:10384B0021EF4E70089000BCF0A3F0801574FF9030
:10385B0000BCF0A3F0C3E49FFFE49E9000B6F0A37E
:10386B00EFF09000B8E0FEA3E0FFD39400EE64808D
:10387B009480400A9000BEE4F0A304F08021EF4E48
:10388B0070089000BEF0A3F0801574FF9000BEF09E
:10389B00A3F0C3E49FFFE49E9000B8F0A3EFF09079
:1038AB0000B8E0FEA3E0FF9000B6E0FCA3E0FDD380
:1038BB009FEE6480F8EC6480989000BA4007ECF0BF
:1038CB00A3EDF08005EEF0A3EFF0E49000B0F0A3D1
:1038DB00F09000BBE02401FF9000BAE03400FED36F
:1038EB009000B1E09F9000B0E09E40030239D2906F
:1038FB0000C2E0FCA3E0FD9000ADE0FB7A00A3E08A
:10390B00FFA3E09001ABCFF0A3EFF09000C0E0FE7F
:10391B00A3E0FF122A9A9000B6E0FEA3E0FF90000E
:10392B00B3E02FF09000B2E03EF09000B8E0FEA3C1
:10393B00E0FF9000B5E02FF09000B4E03EF0900077
:10394B00BAE0FEA3E0FF9000B2E0FCA3E0FDD39F42
:10395B00EE6480F8EC6480984020ED9FFFEC9E9025
:10396B0000B2F0A3EFF09000BCE0FEA3E0FF9000EC
:10397B00C1E02FF09000C0E03EF09000BAE0FEA353
:10398B00E0FF9000B4E0FCA3E0FDD39FEE6480F871
:10399B00EC6480984020ED9FFFEC9E9000B4F0A368
:1039AB00EFF09000BEE0FEA3E0FF9000C3E02FF02D
:1039BB009000C2E03EF09000B1E004F07006900081
:0739CB00B0E004F00238DC5B
:0139D20022D2
:0E26D0009000C4EEF0A3EFF0A3ECF0A3EDF049
:1026DE00E49000D1F0A3F0A3F0A3F09000C4E0FECC
:1026EE00A3E0FFC3EB9FFFEA9E9000D5F0A3EFF0AF
:1026FE009000C6E0FAA3E0FBC39000CBE09BFE90F7
:10270E0000CAE09A9000D7F0A3CEF09000C4E0FF8C
:10271E00A3E09000DFCFF0A3EFF0A3EAF0A3EBF07D
:10272E009000D5E0FEA3E0FFD39400EE6480948089
:10273E00400A9000DBE4F0A304F08021EF4E700815
:10274E009000DBF0A3F0801574FF9000DBF0A3F097
:10275E00C3E49FFFE49E9000D5F0A3EFF09000D766
:10276E00E0FEA3E0FFD39400EE64809480400A90D4
:10277E0000DDE4F0A304F08021EF4E70089000DD40
:10278E00F0A3F0801574FF9000DDF0A3F0C3E49F7A
:10279E00FFE49E9000D7F0A3EFF09000D7E0FEA3E9
:1027AE00E0FF9000D5E0FCA3E0FDD39FEE6480F83F
:1027BE00EC6480989000D94007ECF0A3EDF0800512
:1027CE00EEF0A3EFF0E49000CFF0A3F09000DAE08B
:1027DE002401FF9000D9E03400FED39000D0E09F9A
:1027EE009000CFE09E4003022A999000CCE0701931
:1027FE009000DFE0FEA3E0FFA3E0FCA3E0FD90006D
:10280E00CDE0FAA3E0FB1272B99000CCE064016057
:10281E00030228A49000DFE0FEA3E0FFA3E0FCA3E8
:10282E00E0FD9000CDE0FAA3E0FB1272B99000E05B
:10283E00E02401FF9000DFE03400FE9000E1E0FCB8
:10284E00A3E0FD9000CDE0FAA3E0FB1272B9900078
:10285E00DFE0FEA3E0FF9000E2E02401FD9000E146
:10286E00E03400FC9000CDE0FAA3E0FB1272B990C8
:10287E0000E0E02401FF9000DFE03400FE9000E273
:10288E00E02401FD9000E1E03400FC9000CDE0FA80
:10289E00A3E0FB1272B99000CCE06402600302293F
:1028AE00E89000DFE0FEA3E0FFA3E0FCA3E0FD90D4
:1028BE0000CDE0FAA3E0FB1272B99000E0E0240133
:1028CE00FF9000DFE03400FE9000E1E0FCA3E0FDAD
:1028DE009000CDE0FAA3E0FB1272B99000DFE0FEAB
:1028EE00A3E0FF9000E2E02401FD9000E1E034005F
:1028FE00FC9000CDE0FAA3E0FB1272B99000E0E08C
:10290E002401FF9000DFE03400FE9000E2E024019D
:10291E00FD9000E1E03400FC9000CDE0FAA3E0FB76
:10292E001272B99000E0E024FFFF9000DFE034FF68
:10293E00FE9000E2E02401FD9000E1E03400FC9006
:10294E0000CDE0FAA3E0FB1272B99000E0E02401A2
:10295E00FF9000DFE03400FE9000E2E024FFFD90E7
:10296E0000E1E034FFFC9000CDE0FAA3E0FB127230
:10297E00B99000E0E024FFFF9000DFE034FFFE900E
:10298E0000E2E024FFFD9000E1E034FFFC9000CD7A
:10299E00E0FAA3E0FB1272B99000E0E024FFFF9092
:1029AE0000DFE034FFFE9000E1E0FCA3E0FD9000CC
:1029BE00CDE0FAA3E0FB1272B99000DFE0FEA3E0D7
:1029CE00FF9000E2E024FFFD9000E1E034FFFC9078
:1029DE0000CDE0FAA3E0FB1272B99000D5E0FEA3A1
:1029EE00E0FF9000D2E02FF09000D1E03EF090009A
:1029FE00D7E0FEA3E0FF9000D4E02FF09000D3E0EC
:102A0E003EF09000D9E0FEA3E0FF9000D1E0FCA3E1
:102A1E00E0FDD39FEE6480F8EC6480984020ED9F3B
:102A2E00FFEC9E9000D1F0A3EFF09000DBE0FEA350
:102A3E00E0FF9000E0E02FF09000DFE03EF090002D
:102A4E00D9E0FEA3E0FF9000D3E0FCA3E0FDD39F0E
:102A5E00EE6480F8EC6480984020ED9FFFEC9E9031
:102A6E0000D3F0A3EFF09000DDE0FEA3E0FF9000B6
:102A7E00E2E02FF09000E1E03EF09000D0E004F0B4
:0B2A8E0070069000CFE004F00227DA91
:012A9900221A
:106D2800FAE0FFA3E0900373CFF0A3EFF090026CBA
:056D3800E0FEA3E0FFF6
:106D3D0090036DEEF0A3EFF0A3ECF0A3EDF0A3EA5A
:106D4D00F0A3EBF04A6069900305E0FCA3E0FD9031
:106D5D00036DE0FAA3E0FBD39DEA9C50539003072B
:106D6D00E0FEA3E0FF90036FE0FCA3E0FD9FEC9E2F
:106D7D00503EAF03AE02C006C007900371E0FEA304
:106D8D00E0FF90036FE0F8A3E02FFFE83ECF24FF74
:106D9D00CF34FF9002F3F0A3EFF0900373E0FFA365
:106DAD00E09002F5CFF0A3EFF0D007D0061268DD2A
:016DBD0022B3
:10705C00900375EEF0A3EFF0A3ECF0A3EDF0EB4A88
:10706C006068900305E0FEA3E0FFD3900376E09FF9
:10707C00900375E09E5053900307E0FEA3E0FF9051
:10708C000377E0FCA3E0FD9FEC9E503EAE02AF0305
:10709C00900375E0FAA3E02FFFEA3ECF24FFFBEF4D
:1070AC0034FFFAA3E0FFA3E09002F3CFF0A3EFF0DC
:1070BC0090037BE0FFA3E09002F5CFF0A3EFF090FC
:0B70CC000375E0FEA3E0FF1268DD2268
:10583D009002B8EEF0A3EFF0A3ECF0A3EDF0A3EA25
:04584D00F0A3EBF0E9
:10585100A3E07002A3E070030259839002BCE070E0
:1058610002A3E070030259839002C3E020E0030227
:105871005900E4A3F0A3F09002BCE0FEA3E0FF9086
:1058810002C4E0FCA3E0FDC39FEC9E4003025983E8
:105891009002B9E02DFF9002B8E03CFEC006C007BF
:1058A1009002BAE0FCA3E0FD9002BFE024FFFB9070
:1058B10002BEE034FFFAC002C0039002C5E025E059
:1058C100FF9002C4E033FE9002C0E0FBA3E0FAA324
:1058D100E0F98F828E8312328AFF900373E5F0F034
:1058E100A3EFF0D003D002D007D006126D3D900295
:1058F100C5E004F070819002C4E004F0025878E43D
:105901009002C4F0A3F09002BEE0FEA3E0FF90027B
:10591100C4E0FCA3E0FDC39FEC9E50669002BBE097
:105921002DFD9002BAE03CFC9002BDE024FFFB900B
:1059310002BCE034FFFAC002C0039002C5E025E0DA
:10594100FF9002C4E033FE9002C0E0FBA3E0FAA3A3
:10595100E0F98F828E8312328AFF90037BE5F0F0AB
:10596100A3EFF09002B8E0FEA3E0FFD003D0021253
:10597100705C9002C5E004F0708C9002C4E004F009
:02598100808420
:015983002201
:064B1F0090011F12344654
:104B2500E490013BF0A3F090011FE0FCA3E0FDA39E
:104B3500E0FEA3E0FF781012343390012CEFF0FB78
:104B450090011FE0FCA3E0FDA3E0FEA3E0FF7808D1
:104B550012343390012DEFF0FA90011FA3A3A3E0C7
:104B6500FFA90790012EE9F0900123E0FCA3E0FDE9
:104B7500A3E0FEA3E0FF7810123433EBFDC3EF9DF5
:104B8500FFEE940090012FF0A3EFF0900123E0FCDD
:104B9500A3E0FDA3E0FEA3E0FF7808123433EAFDAD
:104BA500C3EF9DFEE49400900131F0A3CEF0900197
:104BB50023A3A3A3E0FFE9FDC3EF9DFEE4940090CA
:104BC5000133F0A3CEF0E490013BF0A3F090012A6D
:104BD500E0FEA3E0FFC390013CE09F90013BE09E17
:104BE5004003024D07E0FAA3E0FB90012FE0FEA38E
:104BF500E0FFAD03AC021231F790012AE0FCA3E01F
:104C0500FD123209A3E07C002FFFEC3E900135F048
:104C1500A3EFF0900131E0FEA3E0FFAD03AC02127B
:104C250031F790012AE0FCA3E0FD12320990012D35
:104C3500E07C002FFFEC3E900137F0A3EFF09001F0
:104C450033E0FEA3E0FFAD03AC021231F790012A79
:104C5500E0FCA3E0FD12320990012EE07C002FFF5D
:104C6500EC3E900139F0A3EFF0900135E0FEA3E0B2
:104C75007803CEC313CE13D8F9F0EE900135F0903A
:104C85000137E0FEA3E07802CEC313CE13D8F9F0C6
:104C9500EE900137F0900139E0FEA3E07803CEC332
:104CA50013CE13D8F9F0EE900139F0900137E0FEFC
:104CB500A3E07805C333CE33CED8F9FDAC06900119
:104CC50036E033333354F84CFEEDFF900139E04EB6
:104CD500FCA3E04FFDEB25E0FFEA33FE900127E062
:104CE500FBA3E0FAA3E0F98F828E83EC8DF01232FC
:104CF500C290013CE004F0700690013BE004F00234
:024D05004BD28F
:014D07002289
:106096009001BDEEF0A3EFF0A3ECF0A3EDF0A3EAC0
:0460A600F0A3EBF088
:1060AA009001C9E0FCA3E0FDA3E0FEA3E0FF90019C
:1060BA00231234469001D1E0F9A3E0FAA3E090015B
:1060CA0027C9F0A3EAF0A3E9F09001C1E0FFA3E039
:1060DA0090012ACFF0A3EFF09001C5E0FCA3E0FD08
:1060EA00A3E0FEA3E0FF124B1FE49001CDF0A3F062
:1060FA009001C1E0FEA3E0FFC39001CEE09F9001B2
:10610A00CDE09E40030261A1E49001CFF0A3F0909C
:10611A0001C3E0FEA3E0FFC39001D0E09F9001CF4E
:10612A00E09E505F9001CDE0FAA3E0FB9001BEE053
:10613A002BFF9001BDE03AFEC006C0079001CFE0F8
:10614A00FEA3E0FF9001C0E02FFD9001BFE03EFCFE
:10615A00EB25E0FFEA33FE9001D1E0FBA3E0FAA3CE
:10616A00E0F98F828E8312328AFBAAF0D007D0061A
:10617A001272B99001D0E004F070949001CFE0045B
:10618A00F0808C9001CEE004F060030260FA900186
:07619A00CDE004F00260FA01
:0161A10022DB
:1069AD00900338EEF0A3EFF0A3ECF0A3EDF0A3EA23
:1069BD00F0A3EBF0C007900340E0FFA3E090037B52
:1069CD00CFF0A3EFF0D00712705C90033EE0FEA372
:1069DD00E0FF90033BE02FFF90033AE03ECF24FF12
:1069ED00FDEF34FFFC90033CE0FAA3E0FB90034085
:1069FD00E0FFA3E090037BCFF0A3EFF0900338E02E
:106A0D00FEA3E0FF12705C90033AE0FCA3E0FD9062
:106A1D00033EE0FAA3E0FBA3E0FFA3E0900373CFF6
:106A2D00F0A3EFF0900338126D3890033CE0FEA315
:106A3D00E0FF900339E02FFF900338E03ECF24FFB5
:106A4D00CF34FFFEC00790033AE0FCA3E0FD9003B6
:106A5D003EE0FAA3E0FBA3E0FFA3E0900373CFF0C9
:086A6D00A3EFF0D007026D3D1C
:101C190090026CEEF0A3EFF0A3ECF0A3EDF0A3EAD1
:041C2900F0A3EBF049
:101C2D00E490027AF0A3F0900272E0FEA3E030E0BF
:101C3D000A2401FFE43E90027A800B900272E0FFCD
:101C4D00A3E090027ACFF0A3EFF0900275E090023E
:101C5D00747003021E78E0F975F002A4FFC39002C0
:101C6D0071E09FFB900270E095F0FAE9FF90026D34
:101C7D00E02FFF90026CE03400FEC00790026EE092
:101C8D00FCA3E0FD90027AE0C313FFA3E0139003E1
:101C9D0048CFF0A3EFF0900276E0FFA3E090034A67
:101CAD00CFF0A3EFF0D007126E5E900274E0F975DD
:101CBD00F002A4FFC3900271E09FFB900270E095CB
:101CCD00F0FAE9FF90026DE02FFF90026CE0340016
:101CDD00FEC006C00790027AE0C313FEA3E013FF17
:101CED0090026FE02FFD90026EE03EFC90027AE0D4
:101CFD00C313FFA3E013900348CFF0A3EFF09002BE
:101D0D0078E0FFA3E090034ACFF0A3EFF0D007D027
:101D1D0006126E5E900274E0F9FB7A0090026FE09D
:101D2D002BFD90026EE03AFC90027AE0C313FEA305
:101D3D00E013FFE9F582C3EF9582FFEE9400900367
:101D4D0048F0A3EFF0900276126E4A90027AE0C34B
:101D5D0013FEA3E013FF90026FE02FFD90026EE0E3
:101D6D003EFC900274E0F9FB7A0090027AE0C31316
:101D7D00FEA3E013FFE9F582C3EF9582FFEE940019
:101D8D00900348F0A3EFF0900278126E4A90027023
:101D9D00E0FEA3E0FF90026DE02FFF90026CE03EAD
:101DAD00FE900274E0F9FD7C00C3EF9DFFEE9CFEFA
:101DBD00C006C00790026FE02DFD90026EE03CFC66
:101DCD00E9FB7A0090027AE0C313FEA3E013FFE96A
:101DDD00F582C3EF9582FFEE9400900348F0A3EFD8
:101DED00F0900276E0FFA3E090034ACFF0A3EFF06E
:101DFD00D007D006126E5E900270E0FEA3E0FF9059
:101E0D00026DE02FFF90026CE03EFE900274E0F94F
:101E1D00FB7A00C3EF9BFFEE9AFEC006C00790024F
:101E2D007AE0C313FEA3E013FF90026FE02FFD9045
:101E3D00026EE03EFC90027AE0C313FEA3E013FFB6
:101E4D00E9F582C3EF9582FFEE9400900348F0A36D
:101E5D00EFF0900278E0FFA3E090034ACFF0A3EFFC
:101E6D00F0D007D006126E5E02202BE0F975F0025D
:101E7D00A4FFC3900271E09FFB900270E095F0FA11
:101E8D00C003E9FF90026DE02FFF90026CE034007B
:101E9D00FE90026EE0FCA3E0FD900276E0FBA3E075
:101EAD0090037BCBF0A3EBF0D00312705C90027427
:101EBD00E0F975F002A4FFC3900271E09FFB900260
:101ECD0070E095F0FAC002C003E9FF90026DE02FBB
:101EDD00FF90026CE03400FE90027AE0FCA3E0FD7E
:101EED0090026EE0FAA3E02DFDEA3CCD24FFCD3447
:101EFD00FFFC900278E0FBA3E090037BCBF0A3EB1B
:101F0D00F0D003D00212705C900274E0FB7A009066
:101F1D00026FE02BFD90026EE03AFC90027AE0C376
:101F2D0013FEA3E013C39BFBEE9A900276126D286D
:101F3D0090027AE0FAA3E0FBEAC313FEEB13FF90E5
:101F4D00026FE02FFD90026EE03EFCEAC313FEEB44
:101F5D0013FF900274E0FBC3EF9BFBEE9400900225
:101F6D0078126D28900270E0FEA3E0FF90026DE004
:101F7D002FFF90026CE03ECF24FFCF34FFFEC00652
:101F8D00C007900274E0FB7A0090026FE02BFD9089
:101F9D00026EE03AFC90027AE0C313FEA3E013C395
:101FAD009BFBEE9AFA900276E0FFA3E0900373CFCD
:101FBD00F0A3EFF0D007D006126D3D900270E0FE59
:101FCD00A3E0FF90026DE02FFF90026CE03ECF2466
:101FDD00FFCF34FFFEC006C00790027AE0FAA3E0FF
:101FED00FBEAC313FEEB13FF90026FE02FFD90028F
:101FFD006EE03EFCEAC313FEEB13FF900274E0FBB0
:10200D00C3EF9BFBEE9400FA900278E0FFA3E09003
:10201D000373CFF0A3EFF0D007D006126D3D900201
:10202D006EE0FCA3E0FD900274E0F9FF7E009002EB
:10203D006CE0FAA3E02FFBEE3AFAA3E0F8A3E02F51
:10204D00FFEE38900179F0A3EFF0E9FF90026CE01C
:10205D00F8A3E02FFFEE3890017BF0A3EFF0E9FF3E
:10206D0090026EE0F8A3E02FFFEE3890017DF0A313
:10207D00EFF0E9FFA3EEF0A3EFF0900276124EE041
:10208D0090027AE0FEA3E0FF90026FE02FFF900236
:10209D006EE03EFE900274E0F9FB7A00C3EF9BFD0B
:1020AD00EE9AFC90026CE0FEA3E02BFBEA3EFA9068
:1020BD00027AE0FEA3E0FF90026EE0F8A3E02FFFAE
:1020CD00E83ECF24FFCF34FF900179F0A3EFF0E984
:1020DD00FF7E0090026CE0F8A3E02FFFEE38900138
:1020ED007BF0A3EFF090027AE0FEA3E0FF90026E8A
:1020FD00E0F8A3E02FFFE83EFEE9F582C3EF9582FD
:10210D00FFEE9400CF24FFCF34FF90017DF0A3EFBD
:10211D00F0E9FFA3E4F0A3EFF0900278124EE09007
:10212D000270E0FEA3E0FF90026DE02FFB90026CC9
:10213D00E03EFA900274E0F9FFC3EB9FFFEA9400D2
:10214D00FEC006C00790026EE0FCA3E0FDE9FF7E35
:10215D000090026EE0F8A3E02FFFEE38900179F0C9
:10216D00A3EFF0900270E0FEA3E0FF90026CE0F8A8
:10217D00A3E02FFFE83EFEE9F582C3EF9582FFEE67
:10218D009400CF24FFCF34FF90017BF0A3EFF0E953
:10219D00FF7E0090026EE0F8A3E02FFFEE38900175
:1021AD007DF0A3EFF0E9FFA3EEF0A3EFF090027640
:1021BD00E0FFA3E0900181CFF0A3EFF0900275E076
:1021CD00900183F0D007D006124EFC900270E0FE15
:1021DD00A3E0FF90026DE02FFF90026CE03EFE90B9
:1021ED000274E0F9FDC3EF9DFFEE9400FEC006C042
:1021FD000790027AE0FEA3E0FF90026FE02FFF90C0
:10220D00026EE03EFEC3EF9DFDEE9400FC90027069
:10221D00E0FEA3E0FF90026CE0FAA3E02FFBEA3EA4
:10222D00FA90027AE0FEA3E0FF90026EE0F8A3E0E0
:10223D002FFFE83ECF24FFCF34FF900179F0A3EFBD
:10224D00F0900270E0FEA3E0FF90026CE0F8A3E0D6
:10225D002FFFE83EFEE9F582C3EF9582FFEE940075
:10226D00CF24FFCF34FF90017BF0A3EFF090027AE3
:10227D00E0FEA3E0FF90026EE0F8A3E02FFFE83E42
:10228D00FEE9F582C3EF9582FFEE9400CF24FFCFD8
:10229D0034FF90017DF0A3EFF0E9FFA3E4F0A3EF8D
:1022AD00F0900278E0FFA3E0900181CFF0A3EFF072
:0F22BD00900275E0900183F0D007D006024EFC2E
:106E4A00E0FFA3E090034ACFF0A3EFF090026CE0DA
:046E5A00FEA3E0FFB4
:106E5E00900342EEF0A3EFF0A3ECF0A3EDF0EB4ABB
:106E6E006063900348E07002A3E06059900344E031
:106E7E00FCA3E0FDAE02AF03900342E0FAA3E02FC5
:106E8E00FFEA3ECF24FFFBEF34FFFA900348E0FE0B
:106E9E00A3E0FF900344E0F8A3E02FFFE83ECF24E9
:106EAE00FFCF34FF9002F3F0A3EFF090034AE0FF20
:106EBE00A3E09002F5CFF0A3EFF0900342E0FEA323
:066ECE00E0FF1268DD2266
:102A9A009001A5EEF0A3EFF0A3ECF0A3EDF0A3EA0A
:042AAA00F0A3EBF0BA
:102AAE009001A9E0FEA3E0FF7C027DC3123483E413
:102ABE007BE87A03F9F812337AEF2401FFE43EFE45
:102ACE00E43DFDE43CFC9001B11234469001A9E0D6
:102ADE00FEA3E0FF9001A9E0FCA3E0FD123483C049
:102AEE0004C005C006C0079001A9E0FEA3E0FFE404
:102AFE00FCFD7B02FAF9F812337AD003D002D00132
:102B0E00D000EB2FFFEA3EFEE93DFDE83CFC9001D4
:102B1E00B51234469001A9E0FAA3E0FBFFAE02E441
:102B2E00FCFD9001B9123446C39001A6E09BFF90C4
:102B3E0001A5E09AFEC0079001A7E0FCA3E0FD907E
:102B4E0001AAE025E0FB9001A9E033FA9001ABE089
:102B5E00FFA3E090037BCFF0A3EFF0D00712705CE1
:102B6E009001AD123452000000019001B1E0FCA3BF
:102B7E00E0FDA3E0FEA3E0FF9001ADE0F8A3E0F9D5
:102B8E00A3E0FAA3E0FBD31234224003022E3990C5
:102B9E0001B9E0FCA3E0FDA3E0FEA3E0FFA804A9B9
:102BAE0005AA06FB1232EFC004C005C006C007908E
:102BBE0001ADE0FCA3E0FDA3E0FEA3E0FFA804A9A5
:102BCE0005AA06FB1232EFD003D002D001D000EFDF
:102BDE002BFFEE3AFEED39FDEC38FC9001B5E0F836
:102BEE00A3E0F9A3E0FAA3E0FBC3123422400302F0
:102BFE002D429001B1E0FCA3E0FDA3E0FEA3E0FFB7
:102C0E009001B9E0F8A3E0F9A3E0FAA3E0FB1234D7
:102C1E00225003022D209001ADA3A3E0FEA3E0FFFE
:102C2E009001A6E09FFF9001A5E09ECF2401CF3436
:102C3E0000FEC006C0079001B9A3A3E0FEA3E0FF0B
:102C4E009001A8E02FFD9001A7E03EFCC004C00556
:102C5E009001ADE0FCA3E0FDA3E0FEA3E024FFFFA6
:102C6E00EE34FFFEED34FFFDEC34FFFCE47B02FAA4
:102C7E00F9F81232EFAB07AA069001ABE0FFA3E022
:102C8E0090037BCFF0A3EFF0D005D004D007D00691
:102C9E0012705C9001ADA3A3E0FEA3E0FFC3900110
:102CAE00A6E09FFF9001A5E09ECF2401CF3400FE49
:102CBE00C006C0079001B9A3A3E0FEA3E0FFC39036
:102CCE0001A8E09FFD9001A7E09EFCC004C0059006
:102CDE0001ADE0FCA3E0FDA3E0FEA3E024FFFFEEC8
:102CEE0034FFFEED34FFFDEC34FFFCE47B02FAF919
:102CFE00F81232EFAB07AA069001ABE0FFA3E0900B
:102D0E00037BCFF0A3EFF0D005D004D007D006128E
:102D1E00705C9001B9E0FCA3E0FDA3E0FEA3E0240B
:102D2E00FFFFEE34FFFEED34FFFDEC34FFFC9001AF
:102D3E00B91234469001B9A3A3E0FEA3E0FFC390FD
:102D4E0001A6E09FFF9001A5E09EFEC006C0079081
:102D5E0001ADA3A3E0FEA3E0FF9001A8E02FFD903C
:102D6E0001A7E03EFCC004C005E47F02FEFDFC901E
:102D7E0001B9E0F8A3E0F9A3E0FAA3E0FB1232EF09
:102D8E00AB07AA069001ABE0FFA3E090037BCFF068
:102D9E00A3EFF0D005D004D007D00612705C9001DE
:102DAE00B9A3A3E0FEA3E0FFC39001A6E09FFF90AE
:102DBE0001A5E09EFEC006C0079001ADA3A3E0FEF4
:102DCE00A3E0FFC39001A8E09FFD9001A7E09EFC49
:102DDE00C004C005E47F02FEFDFC9001B9E0F8A33B
:102DEE00E0F9A3E0FAA3E0FB1232EFAB07AA0690DC
:102DFE0001ABE0FFA3E090037BCFF0A3EFF0D00593
:102E0E00D004D007D00612705C9001ADE0FCA3E0B8
:102E1E00FDA3E0FEA3E02401FFE43EFEE43DFDE45D
:0B2E2E003CFC9001AD123446022B78F2
:012E39002276
:106A7500900284F0A3EFF0900231E0FEA3E0FF90D6
:106A8500022FE0F8A3E02FFFE83E900286F0A3EF87
:106A9500F0900235E0FFA3E0900288CFF0A3EFF07D
:086AA500900225E0FEA3E0FFD2
:0E6AAD0090027CEEF0A3EFF0A3ECF0A3EDF06E
:106ABB00900284E0FCA3E0FDD39BEC9A506C900217
:106ACB007CE0FEA3E0FFC3ED9FEC9E405D90028255
:106ADB00E0FEA3E0FF900286E0FCA3E0FDD39FEC79
:106AEB009E504790027EE0FEA3E0FFC3ED9FEC9E1D
:106AFB00403890030CE0FFA3E090028ACFF0A3EFA5
:106B0B00F0900288E0FFA3E090030CCFF0A3EFF02E
:106B1B00900284E0FEA3E0FF12739590028AE0FFDF
:0A6B2B00A3E090030CCFF0A3EFF0FD
:016B3500223D
:1034F600E0FFA3E0900233CFF0A3EFF0900181E06C
:10350600FFA3E0900235CFF0A3EFF0900173E0FE49
:03351600A3E0FF30
:10351900900225EEF0A3EFF0A3ECF0A3EDF0A3EAFF
:10352900F0A3EBF0C006C007A3E0FFA3E09002827E
:10353900CFF0A3EFF0900231E0FEA3E0FF90022D5F
:10354900E0F8A3E02FFFE83E900284F0A3EFF090AB
:103559000233E0FEA3E0FF90022FE0F8A3E0C39F4F
:10356900FFE89E900286F0A3EFF0900235E0FFA3FA
:10357900E0900288CFF0A3EFF0D007D006126AAD31
:10358900900227E0FCA3E0FDA3E0FAA3E0FBA3E09F
:10359900FFA3E0900282CFF0A3EFF0900233E0FEA8
:1035A900A3E0FF90022DE0F8A3E02FFFE83E900290
:1035B90084F0A3EFF0900231E0FEA3E0FF90022F28
:1035C900E0F8A3E0C39FFFE89E126A8F900227E00C
:1035D900FCA3E0FDA3E0FAA3E0FBA3E0FFA3E090D6
:1035E9000282CFF0A3EFF0900233E0FEA3E0FF9058
:1035F900022DE0F8A3E02FFFE83E126A759002273A
:10360900E0FCA3E0FDA3E0FAA3E0FBA3E0FFA3E055
:10361900900282CFF0A3EFF0900231E0FEA3E0FF29
:1036290090022DE0F8A3E02FFFE83E900284F0A37A
:10363900EFF0900233126A7F900227E0FCA3E0FDCD
:10364900A3E0FAA3E0FBA3E0FFA3E0900282CFF09E
:10365900A3EFF0900231E0FEA3E0FF90022DE0F825
:10366900A3E0C39FFFE89E900284F0A3EFF09002CD
:1036790033126A7F900227E0FCA3E0FDA3E0FAA3DE
:10368900E0FBA3E0FFA3E0900282CFF0A3EFF0906C
:103699000233E0FEA3E0FF90022DE0F8A3E0C39F10
:1036A900FFE89E126A75900227E0FCA3E0FDA3E003
:1036B900FAA3E0FBA3E0FFA3E0900282CFF0A3EF1F
:1036C900F0900233E0FEA3E0FF90022DE0F8A3E0C2
:1036D900C39FFFE89E900284F0A3EFF0900231E0CF
:1036E900FEA3E0FF90022FE0F8A3E0C39FFFE89E4E
:1036F900126A8F900227E0FCA3E0FDA3E0FAA3E0A1
:10370900FBA3E0FFA3E0900282CFF0A3EFF09002C9
:1037190031E0FEA3E0FF90022DE0F8A3E0C39FFF94
:10372900E89E900284F0A3EFF0900233E0FEA3E05C
:10373900FF90022FE0F8A3E0C39FFFE89E90028666
:10374900F0A3EFF0900235E0FFA3E0900288CFF0FC
:0E375900A3EFF0900225E0FEA3E0FF026AADB0
:104EE000E0FFA3E0900181CFF0A3EFF0900275E026
:0C4EF000900183F090026CE0FEA3E0FF54
:104EFC00900173EEF0A3EFF0A3ECF0A3EDF0A3EAB6
:044F0C00F0A3EBF033
:104F1000E4900184F0A3F090017FE0FEA3E0FF9015
:104F20000186EEF0A3EFF025E0FFEE33FEC374033D
:104F30009F90018BF0E49E90018AF0900186E0FE44
:104F4000A3E0FF900184E0FCA3E0FDD39FEE64802A
:104F5000F8EC64809840030250B6900183E070033F
:104F6000024FE8900188ECF0A3EDF0900186E0FE9E
:104F7000A3E0FFD3900189E09FEE6480F890018860
:104F8000E06480984003025036900175E0FCA3E095
:104F9000FDA3E0FAA3E0FBA3E0FFA3E090022BCF88
:104FA000F0A3EFF090017BE0FFA3E090022DCFF0A3
