:10000E00F2F3F5F5F6F7F8F9F9FAFAFBFBFCFCFC5E
:10001E00FDFDFDFDFEFEFEFEFEFEFEFF42C117B61D
:10002E00D0D1B621E18CD868E95B8FEE446BB4F485
:10003E002D4777A2B6DAFA1606020305020103026D
:10004E000205020201030206020105020106020474
:10005E000302020502010602010502020302020169
:10006E00020106010105020103020102020402025D
:10007E000303020105020205020106020103020248
:10008E00020202010204050203030201020201013F
:10009E000201060101010201050106000000050230
:1000AE000103020102020202020403020101020123
:1000BE00020201030204050201030201020202020E
:1000CE0002020501010302010402010302040302FC
:1000DE0001030201070201030201020202010201F1
:1000EE0007010101020102020103020106020306D9
:1000FE0001010102010302010202010601010102D6
:10010E0001070101050101060106050201030201B5
:10011E0002020202020102020103020101020102B5
:10012E00020103020405020103020102020202029D
:10013E00010202010501010302010402010302048E
:10014E00030201030201070203030201020202017C
:10015E00020107010101020102020103020106026E
:10016E00030601010102010302010202010601015F
:0F017E000102010701020501020601060000004F
:03000B0002022DC1
:0D022D00C28CB2A585118C85128AD28C324C
:02018D008F0AD7
:10018F00E4F50BE50BC3950A5039E4F50FF50EF5C1
:10019F000DF50CE47F407E1FFDFCAB0FAA0EA90DE1
:1001AF00A80CC312021C5017E50F2401F50FE435FC
:1001BF000EF50EE4350DF50DE4350CF50C80D40578
:0501CF000B80C0C28C92
:0101D4002208
:0D023A0085118C85128AD28CAF1002018DC7
:1001D500758901D2A9D2AFE4F509751001E5106062
:1001E500F6E5099000AD9375F007A4FFE5099000C9
:1001F500AC932F14F50890000E93F511E5089000C7
:100205002A93F512E5099000AE93F51074032509BC
:07021500F50912023A80C650
:03000000020247B2
:0C024700787FE4F6D8FD7581120201D525
:10021C00EB9FF5F0EA9E42F0E99D42F0E89C45F038
:01022C0022AF
:00000001FF
