:1081D30043616C63756C61746F72205465737400D2
:1081E3002000300031003200330034003500360007
:1081F300370038003900646174315F6E756D7374D4
:10820300725B646174315F636E742D315D3D256310
:108213000D0A00646174325F6E756D7374725B6412
:108223006174325F636E742D315D3D25630D0A0009
:108233002B002D002A002F00646174315F6E756D71
:108243003D25640D0A003D00646174325F6E756DF7
:108253003D25640D0A00726573756C743D25640DCC
:108263000A00726573756C745F6275663D25730DE4
:108273000A0043002020202020200020202020204E
:0D828300202020202020202020202020006E
:108B94004200EE0000602000F03100320033002B70
:108BA400003400350036002D003700380039002A23
:098BB4000030003D0043002F00D9
:0A5398007B967A007C007F0A7E00FD
:1053A20090002FEAF0A3EBF090002BEEF0A3EFF0C9
:1053B200A3ECF0A3EDF0900031E0FAA3E0FB900043
:1053C2005274A5F0A37435F01283F990002BE0FE1D
:1053D200A3E0FFA3E0FCA3E0FDA3E0FAA3E0FB90BF
:1053E200005274A5F0A37435F012879490002CE05B
:1053F2002401FF90002BE03400FE90002EE02401F7
:10540200FD90002DE03400FC900032E024FEFB9081
:105412000031E034FFFA9000527484F0A37431F04A
:105422001283F990002CE02401FF90002BE034005D
:10543200FE90002EE02401FD90002DE03400FC904F
:105442000030E024FEFB90002FE034FFFA9000527F
:105452007484F0A37431F012879490002FE0FEA3BD
:10546200E0FF90002CE02FFF90002BE03ECF24FFC6
:10547200CF34FFFE90002DE0FCA3E0FD900031E070
:10548200FAA3E0FB74FF900052F0A3F01283F990AC
:10549200002BE0FEA3E0FF900031E0FCA3E0FD90D2
:1054A200002EE02DFD90002DE03CCD24FFCD34FFF9
:1054B200FC90002FE0FAA3E0FB74FF900052F0A3EF
:1054C200F012879490002FE0FEA3E0FF90002CE002
:1054D2002FFF90002BE03ECF24FECF34FFFE900042
:1054E2002EE02401FD90002DE03400FC900032E01B
:1054F20024FEFB900031E034FFFA90005274DEF09B
:10550200A374FCF01283F990002CE02401FF9000B8
:105512002BE03400FE900031E0FCA3E0FD90002E71
:10552200E02DFD90002DE03CCD24FECD34FFFC901B
:105532000030E024FEFB90002FE034FFFA9000528E
:1055420074DEF0A374FCF012879490002CE0240225
:10555200FF90002BE03400FEC006C00790002EE052
:105562002402FD90002DE03400FC900030E024FD88
:10557200FB90002FE034FFFA900031E0FEA3E0241C
:10558200FDFFEE34FF900052F0A3EFF0900033E005
:10559200FFA3E0900054CFF0A3EFF0D007D00602B3
:0255A200851A68
:10788D00900031E4F0A37414F0A3E4F0A37405F0B8
:10789D00A3E4F0A37402F074FFA3F0A3F0A3E4F04B
:1078AD00A3741FF0A37410F0A37401F0A37400F07F
:1078BD00741CA3F07D297B967A007C007F0A7E00E4
:1078CD0090002BEEF0A3EFF0A3ECF0A3EDF0A3EA04
:0478DD00F0A3EBF039
:1078E1009002F1E0FFA3E09000EECFF0A3EFF09063
:1078F1000037E0FFA3E09002F1CFF0A3EFF090009A
:1079010033E0FEA3E0FF90002CE02FFF90002BE07E
:107911003EFE900035E0FCA3E0FD90002EE02DFD41
:1079210090002DE03CFC900031E0FBA3E09000458D
:10793100CBF0A3EBF0900039E0FBA3E0900047CB44
:10794100F0A3EBF090003BE0900049F090003CE0A8
:10795100F9A3E0FAA3E090004AC9F0A3EAF0A3E991
:10796100F0E4A3F090002FE0FAA3E0FB12517C9029
:0E79710000EEE0FFA3E09002F1CFF0A3EFF0F4
:01797F0022E5
:10726B0090002BEEF0A3EFF0A3ECF0A3EDF0A3EA6C
:10727B00F0A3EBF0C007A3E0FFA3E0900042CFF038
:10728B00A3EFF0900033E0900044F0A37401F0A35F
:10729B007484F0A37452F0A3F0A374CDF0D0071252
:1072AB0027CB90002DE0FCA3E0FDA3E0FAA3E0FBCD
:1072BB00A3E0FFA3E0900042CFF0A3EFF0900033E8
:1072CB00E0900044F0E4A3F0A3F0A3F0A3F0A3F04C
:1072DB0090002BE0FEA3E0FF1227CB900033E0F9E8
:1072EB0075F002A4FFC3900030E09FFB90002FE0ED
:1072FB0095F0FAE9FF90002CE02FFF90002BE03483
:10730B0000FE90002EE02401FD90002DE03400FCE7
:10731B0090005274D6F0A374BBF012879490002C9B
:10732B00E02401FF90002BE03400FE90002EE024BF
:10733B0001FD90002DE03400FC900031E0FBA3E058
:10734B00900042CBF0A3EBF0900036E0FBA3E09073
:10735B000044CBF0A3EBF0900038E0900046F090A7
:10736B000039E0F9A3E0FAA3E0900047C9F0A3EAE3
:0F737B00F0A3E9F090002FE0FAA3E0FB0269FA1B
:1071480090002BEEF0A3EFF0A3ECF0A3EDF0A3EA90
:10715800F0A3EBF0C007A3E0FFA3E0900042CFF05C
:10716800A3EFF0900033E0900044F0A37401F074B2
:10717800FFA3F0A3F0A3F0A3F0D0071227CB900051
:107188002DE0FCA3E0FDA3E0FAA3E0FBA3E0FFA34E
:10719800E0900042CFF0A3EFF0900033E09000447D
:1071A800F0E4A3F0A37407F0A374E0F0A37407F06D
:1071B800A374E0F090002BE0FEA3E0FF1227CB9031
:1071C8000033E0F975F002A4FFC3900030E09FFBA4
:1071D80090002FE095F0FAE9FF90002CE02FFF9047
:1071E800002BE03400FE90002EE02401FD90002DDD
:1071F800E03400FC90005274D6F0A374BBF0128700
:107208009490002CE02401FF90002BE03400FE90C5
:10721800002EE02401FD90002DE03400FC900031A8
:10722800E0FBA3E0900042CBF0A3EBF0900036E047
:10723800FBA3E0900044CBF0A3EBF0900038E09083
:107248000046F0900039E0F9A3E0FAA3E090004787
:10725800C9F0A3EAF0A3E9F090002FE0FAA3E0FB5D
:037268000269FABE
:101C1900E4900000F0A3F0A3F0900005F090000C10
:101C2900F0900013F0A3F0A3F0A3F0A3F0A3F0A3A6
:101C3900F0A3F0A3F09002EF74F8F0A3E4F090029F
:101C4900EAE0FFA3E0900031CFF0A3EFF0A3741016
:101C5900F0A374FFF0A37481F0A374D3F09002E8A9
:101C6900E0FAA3E0FBE4FDFC7F0AFE127A6D900026
:101C790031E4F0A37414F074FFA3F0A3F07D1412FF
:101C89005398900031E4F0A37414F0A3E4F0A37422
:101C990005F0A3E4F0A37402F074FFA3F0A3F0A38A
:101CA900E4F0A3741FF0A37410F0A374FFF0A374FD
:101CB90081F0A374E3F07D141278C3900031E4F04D
:101CC900A37414F074FFA3F0A3F07D291253989024
:101CD9000031E4F0A37414F0A3E4F0A37405F0A3B5
:101CE900E4F0A37402F074FFA3F0A3F0A3E4F0A35B
:101CF900741FF0A37410F0A374FFF0A37481F0743F
:101D0900E51278BFE4900000F0E4900001F0900043
:101D190001E0FB75F028A4240AFFE435F0FEC006B3
:101D2900C007900000E0FA75F028A42442FDE435CC
:101D3900F0FCEA25E025E0FFEB2F75F002A424F082
:101D4900F9740035F0FA9000397401F0A3EAF0A3B0
:101D5900E9F0900031E4F0A3741EF0A37404F0A339
:101D690074EFF0A3745DF0E4A3F0A3F0A37410F092
:101D7900D007D0067B1E7A0012726B900001E00436
:101D8900F0E0C394044087900000E004F0E0C394BD
:101D9900045003021D12126C899002CEE0700302F6
:101DA90026D0E4900000F0E4900001F0900001E0FA
:101DB900FFC394044003021E6FEF75F028A4240AA0
:101DC900FFE435F0FEE4FCFD9002C6E0F8A3E0F97B
:101DD900A3E0FAA3E0FBC31231595003021E669037
:101DE9000001E075F028A42428FFE435F0FEE4FCA6
:101DF900FD9002C6E0F8A3A3A3E0D3123159505DC8
:101E0900900000E075F028A42442FFE435F0FEE4D8
:101E1900FCFD9002CAE0F8A3E0F9A3E0FAA3E0FB15
:101E2900C31231594037900000E075F028A42460AE
:101E3900FFE435F0FEE4FCFD9002CAE0F8A3A3A399
:101E4900E0D31231595016900001E0900003F09050
:101E59000000E0900004F09000027401F09000018D
:101E6900E004F0021DB5900000E004F0E0640460B5
:101E790003021DB090000CE0C394064003022098B1
:101E8900900015E06003022098900004E025E02509
:101E9900E0FF900003E02F75F002A424F0F974002C
:101EA90035F0A801FC7D017BFF7A8179E712336562
:101EB900EF700302204E900004E025E025E0FF903A
:101EC9000003E02F75F002A424F0F9740035F0A89E
:101ED90001FC7D017BFF7A8179E9123365EF70039B
:101EE90002204E900004E025E025E0FF900003E089
:101EF9002F75F002A424F0F9740035F0A801FC7DD7
:101F0900017BFF7A8179EB123365EF700302204E72
:101F1900900004E025E025E0FF900003E02F75F034
:101F290002A424F0F9740035F0A801FC7D017BFFBF
:101F39007A8179ED123365EF700302204E90000427
:101F4900E025E025E0FF900003E02F75F002A424CE
:101F5900F0F9740035F0A801FC7D017BFF7A8179E5
:101F6900EF123365EF700302204E900004E025E084
:101F790025E0FF900003E02F75F002A424F0F97426
:101F89000035F0A801FC7D017BFF7A8179F11233DC
:101F990065EF700302204E900004E025E025E0FF84
:101FA900900003E02F75F002A424F0F9740035F0D5
:101FB900A801FC7D017BFF7A8179F3123365EF700B
:101FC9000302204E900004E025E025E0FF90000385
:101FD900E02F75F002A424F0F9740035F0A801FC93
:101FE9007D017BFF7A8179F5123365EF60579000A7
:101FF90004E025E025E0FF900003E02F75F002A43E
:1020090024F0F9740035F0A801FC7D017BFF7A8189
:1020190079F7123365EF602D900004E025E025E0A3
:10202900FF900003E02F75F002A424F0F974003545
:10203900F0A801FC7D017BFF7A8179E5123365EF18
:1020490060030222B7900004E025E025E0FF90003C
:1020590003E02F75F002A424F0F9740035F0FA7B3F
:1020690001127C2EEF2430FF90000CE0FE04F07486
:10207900062EF582E43400F583EFF07BFF7A81794F
:10208900F990000CE02405F582E434000222AD90B9
:102099000013E0C3940640030222B7900015E070D4
:1020A900030222B7900004E025E025E0FF90000339
:1020B900E02F75F002A424F0F9740035F0A801FCB2
:1020C9007D017BFF7A8179E7123365EF7003022284
:1020D90066900004E025E025E0FF900003E02F75FD
:1020E900F002A424F0F9740035F0A801FC7D017B0D
:1020F900FF7A8179E9123365EF7003022266900055
:1021090004E025E025E0FF900003E02F75F002A42C
:1021190024F0F9740035F0A801FC7D017BFF7A8178
:1021290079EB123365EF7003022266900004E02513
:10213900E025E0FF900003E02F75F002A424F0F9F8
:10214900740035F0A801FC7D017BFF7A8179ED12DD
:102159003365EF7003022266900004E025E025E074
:10216900FF900003E02F75F002A424F0F974003504
:10217900F0A801FC7D017BFF7A8179EF123365EFCD
:102189007003022266900004E025E025E0FF90003C
:1021990003E02F75F002A424F0F9740035F0A801CA
:1021A900FC7D017BFF7A8179F1123365EF700302BF
:1021B9002266900004E025E025E0FF900003E02F6F
:1021C90075F002A424F0F9740035F0A801FC7D0132
:1021D9007BFF7A8179F3123365EF700302226690EF
:1021E9000004E025E025E0FF900003E02F75F002F0
:1021F900A424F0F9740035F0A801FC7D017BFF7A75
:102209008179F5123365EF6054900004E025E025EB
:10221900E0FF900003E02F75F002A424F0F97400A8
:1022290035F0A801FC7D017BFF7A8179F7123365CE
:10223900EF602A900004E025E025E0FF900003E02C
:102249002F75F002A424F0F9740035F0A801FC7D83
:10225900017BFF7A8179E5123365EF7051900004B3
:10226900E025E025E0FF900003E02F75F002A424AB
:10227900F0F9740035F0FA7B01127C2EEF2430FF5F
:10228900900013E0FE04F0740D2EF582E43400F59D
:1022990083EFF07BFF7A827916900013E0240CF526
:1022A90082E43400F583E090002EF012408A900019
:1022B90004E025E025E0FF900003E02F75F002A47B
:1022C90024F0F9740035F0A801FC7D017BFF7A82C6
:1022D9007933123365EF7003022365900004E0251A
:1022E900E025E0FF900003E02F75F002A424F0F947
:1022F900740035F0A801FC7D017BFF7A82793512E3
:102309003365EF6057900004E025E025E0FF900079
:1023190003E02F75F002A424F0F9740035F0A80148
:10232900FC7D017BFF7A827937123365EF602D904E
:102339000004E025E025E0FF900003E02F75F0029E
:10234900A424F0F9740035F0A801FC7D017BFF7A23
:10235900827939123365EF600302245290001574B3
:1023690001F0FB7A007906127C2E900016EEF0A39C
:10237900EFF07BFF7A82793B90002EEEF0A3EFF02D
:1023890012408A900004E025E025E0FF900003E078
:102399002F75F002A424F0F9740035F0A801FC7D32
:1023A900017BFF7A827933123365EF70089000144C
:1023B90004F0022452900004E025E025E0FF90009B
:1023C90003E02F75F002A424F0F9740035F0A80198
:1023D900FC7D017BFF7A827935123365EF700890B5
:1023E90000147402F08062900004E025E025E0FF0B
:1023F900900003E02F75F002A424F0F9740035F081
:10240900A801FC7D017BFF7A827937123365EF7071
:10241900089000147403F08030900004E025E02552
:10242900E0FF900003E02F75F002A424F0F9740096
:1024390035F0A801FC7D017BFF7A82793912336579
:10244900EF70069000147404F0900004E025E02574
:10245900E0FF900003E02F75F002A424F0F9740066
:1024690035F0A801FC7D017BFF7A82794912336539
:10247900EF600302256B7B017A00790D127C2E90A7
:102489000018EEF0A3EFF07BFF7A82794B90002ED3
:10249900EEF0A3EFF012408A900014E0FBB4011CA7
:1024A900900018E0FCA3E0FD900017E02DFE9000DD
:1024B90016E03C90001AF0A3CEF0805DEBB402194F
:1024C900900018E0FEA3E0FFC3900017E09FFF9083
:1024D9000016E09E90001A803C900014E0FBB403C3
:1024E90019900018E0FCA3E0FD900016E0FEA3E0BF
:1024F900FF122EF890001AEE801BEBB4041B90001B
:1025090018E0FCA3E0FD900016E0FEA3E0FF122F07
:102519005F90001AEEF0A3EFF07BFF7A8279599071
:10252900001AE0FFA3E090002ECFF0A3EFF01240D5
:102539008A90001AE0FEA3E0FF7B017A00791C1261
:10254900804B90002E7401F0A37400F0A3741CF06A
:102559007BFF7A82796512408A12788D9000147413
:1025690005F0900004E025E025E0FF900003E02F4E
:1025790075F002A424F0F9740035F0A801FC7D017E
:102589007BFF7A827975123365EF6079900005E0F7
:1025990075F010A4FFE5F0C313FEEF13240AFDE460
:1025A9003EFC900004E025E025E0FF900003E02FC9
:1025B90075F002A424F0F9740035F0FA90003C7427
:1025C90001F0A3EAF0A3E9F0900031E4F0A3741458
:1025D900F0A3E4F0A37405F0A3E4F0A37402F0748B
:1025E900FFA3F0A3F0A3E4F0A3741FF0A37410F009
:1025F900AF05AE047B967A007D147C001278CD90ED
:102609000005E004F0900004E025E025E0FF9000DB
:1026190003E02F75F002A424F0F9740035F0A80145
:10262900FC7D017BFF7A827975123365EF600302C5
:102639002741900003F0A3F0900014F0A3F090005C
:1026490005F090000CF0900013F0900016F0A3F044
:10265900A3F0A3F0A3F0A3F078067C007D017BFF33
:102669007A82797712344E780D7C007D017BFF7A6E
:1026790082797712344E781C7C007D017BFF7A8247
:10268900797712344E900031E4F0A37414F0A3E486
:10269900F0A37405F0A3E4F0A37402F074FFA3F0AF
:1026A900A3F0A3E4F0A3741FF0A37410F0A374FFC4
:1026B900F0A37482F0A3747EF07B967A007D1412E5
:1026C90078C712788D8071900002E0606BE4F0A306
:1026D900E0FB75F028A4240AFFE435F0FEC006C02B
:1026E90007A3E0FA75F028A42442FDE435F0FCEADA
:1026F90025E025E0FFEB2F75F002A424F0F9740022
:1027090035F0FA9000397401F0A3EAF0A3E9F090EA
:102719000031E4F0A3741EF0A37404F0A374EFF085
:10272900A3745DF0E4A3F0A3F0A37410F0D007D074
:10273900067B1E7A0012726B900002E06069A3E0CA
:10274900FB75F028A4240AFFE435F0FEC006C00793
:10275900A3E0FA75F028A42442FDE435F0FCEA254B
:10276900E025E0FFEB2F75F002A424F0F9740035A1
:10277900F0FA9000397401F0A3EAF0A3E9F09000AF
:1027890031E4F0A3741EF0A37404F0A374EFF0A372
:10279900745DF0E4A3F0A3F0A37410F0D007D006A1
:1027A9007B1E7A00127148900000E004F0E075F099
:1027B9001484E5F07002B2B67F0A7E00128C7002B2
:0227C9001D9F52
:0B8D3C00128CAB126749121C1980FE5C
:0B8D4700EF1FAC0670011E4C70F622FE
:0E8D2000EF1FAC0670011E4C60030080F322B2
:108C7000D3EF9400EE940040147D6E7C00ED1D70E7
:0D8C8000011CED4C70F7EF1F70E61E80E345
:018C8D0022C4
:058BBD004200C80000A9
:108CAB00439850438920758780758DFA858D8BD2BB
:068CBB00AFD28ED2992217
:088D6700EF24FF92ACC2982238
:0E8D2E00C2ACC2998F993099FDC299D2AC2285
:108BCD00900356EBF0A3EAF0A3E9F0900356E0FB17
:108BDD00A3E0FAA3E0F9122E7EFF6016128D2E7F10
:108BED00057E00128D47900357E475F001122F9505
:038BFD0080D922FA
:03002300028590C3
:10859000C0E0C083C082C0D075D000C004C005C098
:0185A00007D3
:1085A100309864C298AF999000C8E0FCEC20E7577E
:1085B10030E60FEF640A9000C860028046E0448014
:1085C100800AEFB40D0C9000C8E04440F0A3E0F045
:1085D10080359000C8E0543FFCA3E02496F58274F6
:1085E100003CF583EFF09000C9E004F070069000C4
:1085F100C8E004F0D39000C9E094319000C8E09441
:07860100004004E4F0A3F0C7
:0F860800D007D005D004D0D0D082D083D0E032BC
:10002600204C43442049443A25780D0A000000003C
:10003600000000000000000000000000003F40003B
:1000460000000000000000300040003000400000CA
:100056000009000BC03D000BC03D00090018C0247C
:10006600407FE0224031800000180024C01B000DB4
:10007600803240018003801C4027401C80074000DE
:1000860040100060000000000000000000000000BA
:100096000000001F80204040200000402020401F1C
:1000A6008000000000090006001F8006000900000D
:1000B60000040004003F800400040000000010005B
:1000C60060000000000000000004000400040004BA
:1000D60000040000000000004000000000000000D6
:1000E60000002001C006003800400000001F8020EC
:1000F60040204020401F800000000010403FC0000C
:10010600400000000018C021402240244018400052
:100116000010802040244024401B80000002000D77
:100126000011003FC0014000003C802440244024D0
:1001360040238000001F8024402440344003800078
:10014600003000200027C03800200000001B80245B
:1001560040244024401B8000001C0022C022402274
:10016600401F800000000000000840000000000062
:100176000000000000046000000000000000000411
:10018600000A00110020804040090009000900090A
:10019600000900000000004040208011000A000411
:1001A600001800200023402400180000001F8020B3
:1001B60040274029401F400000004007C039000F7B
:1001C6000001C0004020403FC0244024401B800066
:1001D600001F802040204020403080000020403F0B
:1001E600C0204020401F80000020403FC024402EF9
:1001F6004030C0000020403FC024402E00300000A8
:10020600000F001080204022403380020020403F33
:10021600C0040004003FC02040204020403FC020D2
:1002260040204000000060202020203FC020002009
:100236000020403FC024400B0030C0204020403FFB
:10024600C020400040004000C03FC03C0003C03C0E
:10025600003FC0000020403FC00C4023003FC020AC
:10026600001F802040204020401F80000020403F8B
:10027600C024402400180000001F80214021402097
:10028600E01FA0000020403FC02440260019C00007
:100296004018C02440244022403180000030002015
:1002A600403FC020403000000020003F800040005A
:1002B600403F80200020003E0001C007003800209B
:1002C60000380007C03C0007C03800000020403955
:1002D600C0060039C0204000002000384007C03862
:1002E6004020000000304021C02640384020C00099
:1002F60000000000007FE040204020000000007069
:10030600000C000380004000000000402040207FD9
:10031600E000000000000020004000200000000077
:100326000000100010001000100010001000000067
:1003360000400000000000000000000280054005AB
:100346004003C0004020003FC0044004400380003A
:100356000000000380044004400640000000000343
:1003660080044024403FC000400000038005400553
:100376004003400000000004401FC02440244020E9
:1003860000000002E0055005500650042020403FC2
:10039600C00440040003C000400000044027C00021
:1003A600400000000000100010041027E0000000CC
:1003B6000020403FC00140070004C0044020402008
:1003C600403FC000400040000007C0040007C004D2
:1003D6000003C00000044007C00440040003C0003E
:1003E600400000038004400440038000000410071E
:1003F600F004500440038000000000038004400421
:100406005007F00010044007C0024004000400003A
:1004160000000006400540054004C000000000043E
:10042600001F8004400040000004000780004004D4
:100436004007C000400400070004C0018006000415
:1004460000060001C0070001C006000000044006C7
:10045600C0010006C0044000000410071004E001BB
:1004660080060004000000044005C0064004400069
:10047600000000000004007BE040200000000000B7
:10048600000000FFF000000000000040207BE004B8
:1004960000000000004000800040002000200040D6
:1004A6000000000000000000000000000000000046
:1004B600000000000000001FCC000C00000000003F
:1004C60000000008003000600008003000600000F6
:1004D60000022003FC1E20022003FC1E2002200036
:1004E6000000000E1811043FFF10840C7800000075
:1004F600000F0010840F3800C007781884007800B9
:100506000000780F8410C411240E9800E4008400C3
:1005160008080068007000000000000000000000ED
:100526000000000000000007E01818200440020048
:1005360000000040022004181807E0000000000038
:10054600000240024001800FF0018002400240009C
:10055600000080008000800FF8008000800080008E
:10056600000001000D000E00000000000000000069
:100576000000000080008000800080008000800075
:10058600800000000C000C000000000000000000CD
:100596000000000006001800600180060018002018
:1005A60000000007F0080810041004080807F0000F
:1005B600000000080408041FFC00040004000000FA
:1005C6000000000E0C10141024104411840E0C00B0
:1005D6000000000C1810041104110412880C70009D
:1005E60000000000E00320042408241FFC0024006F
:1005F6000000001F98108411041104108810700068
:1006060000000007F0088811041104188800700023
:100616000000001C00100010FC13001C001000005D
:100626000000000E3811441084108411440E380066
:100636000000000700088C10441044088807F000EA
:1006460000000000000000030C030C000000000086
:10065600000000000000010106000000000000008C
:100666000000000080014002200410080810040069
:100676000002200220022002200220022002200086
:100686000000001004080804100220014000800049
:100696000000000E001200100C106C10800F0000FD
:1006A6000003E00C1813E4142417C4082807D0002C
:1006B600000004003C03C41C40074000E4001C008A
:1006C6000410041FFC1104110411040E88007000AC
:1006D6000003E00C1810041004100410081C10008D
:1006E6000010041FFC100410041004080807F00092
:1006F6000010041FFC1104110417C410040818008C
:100706000010041FFC1104110017C010000800009F
:100716000003E00C181004100410441C780040007C
:100726000010041FFC10840080008010841FFC1041
:10073600040000100410041FFC1004100400000044
:100746000000030001100110011FFE100010000040
:100756000010041FFC110403801464181C1004000C
:100766000010041FFC1004000400040004000C0028
:100776000010041FFC1F0000FC1F001FFC100400DB
:100786000010041FFC0C04030000E010181FFC10EE
:100796000007F00808100410041004080807F00009
:1007A6000010041FFC10841080108010800F0000C1
:1007B6000007F0081810241024101C080A07F2007D
:1007C6000010041FFC1104110011C011300E0C00A2
:1007D6000400000E1C11041084108410441C380000
:1007E600001800100010041FFC1004100018000070
:1007F6000010001FF810040004000410041FF81075
:100806000010001E0011E0001C007013801C001078
:10081600001FC0103C00E01F0000E0103C1FC0009D
:10082600001004180C163401C001C01634180C1040
:100836000410001C00130400FC13041C001000002C
:10084600000804101C1064108413041C0410180003
:10085600000000000000007FFE400240024002004F
:1008660000000030000C0003800060001C00030044
:100876000000004002400240027FFE00000000002F
:100886000000000000200040004000400020000062
:10089600000001000100010001000100010001004B
:1008A60001000040004000200000000000000000A1
:1008B6000000000098012401440144014400FC00AA
:1008C6000410001FFC008801040104008800700069
:1008D6000000000070008801040104010400880083
:1008E600000000007000880104010411081FFC00CC
:1008F60004000000F8014401440144014400C8001A
:10090600000000010401040FFC1104110411001879
:1009160000000000D601290129012901C9010600AC
:100926000010041FFC008401000100010400FC000B
:100936000400000104190419FC000400040000006E
:10094600000000000300010101190119FE0000006A
:100956000010041FFC0024004001B4010C01040037
:10096600000000100410041FFC0004000400000036
:1009760000010401FC0104010001FC010401000066
:10098600FC010401FC008401000100010400FC00DC
:1009960004000000F8010401040104010400F80049
:1009A60000010101FF0085010401040088007000B8
:1009B6000000000070008801040104010501FF0029
:1009C600010104010401FC0084010401000180000E
:1009D60000000000CC012401240124012401980018
:1009E6000000000100010007F801040104000000F6
:1009F60000010001F8000400040004010801FC00E5
:100A060004010001800170000C00100160018001EA
:100A16000001F0010C003001C00030010C01F001B2
:100A26000000000104018C00740170018C010400B7
:100A360000010101810171000E00180160018001B1
:100A46000000000184010C013401440184010C0002
:100A560000000000000000000001003EFC400240D3
:100A6600020000000000000000FFFF000000000080
:100A7600000000400240023EFC01000000000000B1
:100A86000000006000800080004000400020002040
:100A96000000000000000000000000000000000050
:100AA6000000000000000000000000000000000040
:100AB6000000000000000000000000000000000030
:100AC600000000000F80380FFE380F80380000004D
:100AD600000000000000000000000000000000010F
:100AE60000000600000C000038000031000006007F
:100AF600000C00003800003000000000000000007C
:100B06000061800067F807F980006180006180005D
:100B160061800061800067F807F98000618000004D
:100B26000000000000000001C0E003E0F00630080D
:100B36000418081FFFFE040E080787F00381E00073
:100B4600000000000001F000060C00040408060C7A
:100B56007001F9C0000E00003BE000EC1807080821
:100B6600040C180003E00000000001E00007F00399
:100B7600F818041C0804170807E1D003C0E0002396
:100B8600B0003C0800200800001000000000000033
:100B96000100003100003200001C000000000000CF
:100BA600000000000000000000000000000000003F
:100BB600000000000000000000000000000000002F
:100BC600007F0001FFC00780F00C00181000042011
:100BD60000020000000000002000021000040C00CB
:100BE600180780F001FFC0007F0000000000000031
:100BF60000000000000000000000000000420000AD
:100C06006600006600003C0000180003FFC00018E4
:100C160000003C0000660000660000420000000084
:100C26000008000008000008000008000008000195
:100C3600FFC00008000008000008000008000008C7
:100C46000000000000000100003100003200001C1E
:100C5600000000000000000000000000000000008E
:100C66000000000000000000000800000800000866
:100C76000000080000080000080000080000080046
:100C8600000800000800000000000000000000004E
:100C960000380000380000380000000000000000A6
:100CA600000000000000000000000000000000003E
:100CB60000000600001C000070000180000E00000D
:100CC600380000C0000700001C00003000000000D3
:100CD60000000000007F8001FFE00380700600181E
:100CE60004000804000806001803807001FFE000F5
:100CF6007F800000000000000000000100080100E5
:100D06000801000803FFF807FFF8000008000008C4
:100D160000000800000000000000000001C03802CA
:100D2600C058040098040118040218040418061C8C
:100D36001803F81801E0F8000000000000000000A9
:100D460001C0E003C0F0040008040808040808060F
:100D5600180803F41801E7F00001E00000000000A5
:100D660000000000000300000D00001100006100FB
:100D760000810803010807FFF80FFFF800010800CB
:100D860001080000000000000000E007FCD0060893
:100D960008061008061008061008061838060FF090
:100DA6000607C0000000000000000000003F8001B0
:100DB600FFE0038430020818041008041008041029
:100DC60008071810030FF00007C00000000000001D
:100DD60000000003C0000700000600000600F80639
:100DE60007F806180006E0000700000600000000ED
:100DF6000000000001E1E003F7F0063410041808D3
:100E0600041808040C08040C0806161803F3F0016D
:100E1600C1E000000000000000F80003FC300306FB
:100E2600380402080402080402080404100308F047
:100E360001FFC0007F00000000000000000000006D
:100E460000000000000000000070380070380070DC
:100E56003800000000000000000000000000000054
:100E660000000000000000000000000000301A0032
:100E7600301C000000000000000000000000000020
:100E8600000000000000000008000014000022001E
:100E9600004100008080010040020020040010088C
:100EA60000080000000000000021000021000021D1
:100EB6000000210000210000210000210000210087
:100EC60000210000210000000000000000000008D2
:100ED600000804001002002001004000808000414C
:100EE60000002200001400000800000000000000BE
:100EF60003C00004C000040000080038080F3808CA
:100F060008380810000C300007E00003C00000009D
:100F160000000000003F8000FFE0038070020F1019
:100F260006708804C088048308047F8802C0900382
:100F3600012000FE400000080000180001F8003EF5
:100F46000801C20007020007E20000FE00001FC8F9
:100F56000001F800003800000804000807FFF80741
:100F6600FFF8040808040808040808040808061816
:100F76000803F41801E7F00001E00000000000009B
:100F8600003F8001FFE0038070020018040008049F
:100F960000080400080400100600200780C00000B6
:100FA6000004000807FFF807FFF80400080400081B
:100FB60004000804001802001003807001FFE0001E
:100FC6007F8000000004000807FFF807FFF8040808
:100FD60008040808040808040808043E0804000871
:100FE60006001801006000000004000807FFF8076B
:100FF600FFF8040808040800040800040800043E7A
:10100600000600000600000180000000000000004D
:10101600003F8001FFE0038070060018040008040A
:1010260002080402080203F00783F000020000022F
:101036000004000807FFF807FFF804080800080086
:1010460000080000080000080004080807FFF80769
:10105600FFF8040008000000000000040008040077
:101066000804000807FFF807FFF804000804000852
:101076000400080000000000000000000000060058
:10108600000700000104000104000104000307FF3B
:10109600FE07FFFC04000004000004000004000832
:1010A60007FFF807FFF8040C08001800003E0004CC
:1010B600C7800503C80600F80400380400180000BD
:1010C6000804000807FFF807FFF8040008000008F6
:1010D60000000800000800000800000800001800D2
:1010E600006000000004000807FFF807800807FCFE
:1010F60000007FC00003F80007C0007800078008E2
:1011060007FFF807FFF804000804000807FFF807C0
:10111600000803C00000E000003800001E000007C1
:10112600000001C00400F007FFF804000000000002
:10113600007F8001FFE003807006001804000804A9
:10114600000806001803003001FFE0007F80000061
:101156000004000807FFF807FFF804040804040069
:10116600040400040400040400060C0003F8000153
:10117600F000000000000000007F8001FFE0038017
:10118600700600880400880400C806003C03003E80
:1011960001FFE6007F8400000004000807FFF8074F
:1011A600FFF8040808040800040C00040F00040BF0
:1011B600C00610F003F03801E00800000800000047
:1011C60001E0F803F030063010041808041808048B
:1011D6000C08040C080206180207F00781E000005C
:1011E600000180000600000400000400000400085E
:1011F60007FFF807FFF804000804000004000006D3
:10120600000001800004000007FFE007FFF0040073
:101216001800000800000800000800000800000888
:1012260004001007FFE004000004000006000007A9
:10123600E00007FE00041FE00001F800003800018E
:10124600E0043E0007C000060000040000040000A1
:1012560007E00007FFC0041FF80007C007F80007F3
:10126600FF80043FF80007C004F8000700000400F0
:101276000000000004000806001807C07805F1C841
:10128600003E00001F800463E80780F8060018048B
:10129600000800000004000006000007800007E0C8
:1012A60008047C08001FF80007F800180804E00886
:1012B6000700000600000400000000000100080608
:1012C60000380400F80403E8040F08047C0805F05D
:1012D6000807C008070018040060000000000000AE
:1012E6000000000000000000000000003FFFFE209C
:1012F600000220000220000220000220000200005E
:101306000000000000000008000007000000C00008
:101316000038000006000001C000003000000E008A
:101326000001000000000000000000200002200074
:10133600022000022000022000023FFFFE00000003
:101346000000000000000000000000000000000097
:1013560000000800001000003000002000003000EF
:10136600001000000800000000000000000000015E
:101376000000010000010000010000010000010062
:101386000001000001000001000001000001000052
:101396000100000000000000000020000020000006
:1013A6001000001000000000000000000000000017
:1013B60000000000000000000000F00019F8001B0B
:1013C60018002208002608002408002410003FF810
:1013D600001FF800000800001800000004000007C5
:1013E600FFF80FFFF0001818001008002008002072
:1013F60008003018001FF0000FC0000000000000B9
:101406000007C0001FF00018300020080020080068
:101416002008003C08001C100000600000000000CE
:10142600000000000007C0001FF000381800200868
:1014360000200800200804101007FFF80FFFF00036
:1014460000100000000000000000000007C0001FA0
:10145600F00012300022180022080022080032088C
:10146600001E10000E2000000000000000200000FA
:10147600200800200801FFF803FFF80620080420D2
:1014860008042008072000030000000000000000F8
:1014960000000E000E6E001FF30031B10020B100F7
:1014A60020B1003191001F13002E1E00200E0030C7
:1014B6000000000004000807FFF80FFFF8001008FE
:1014C600002000002000002008003FF8001FF80060
:1014D60000080000000000000000000020080020B6
:1014E60008002008063FF8063FF80000080000083C
:1014F60000000800000000000000000000000000DE
:101506000003000003002001002001002003063F25
:10151600FE063FFC00000000000000000000000086
:1015260004000807FFF80FFFF80001880003000019
:101536002FC00038F80020380020080000080000FE
:101546000000000000000004000804000804000871
:1015560007FFF80FFFF80000080000080000080069
:101566000000000000002008003FF8003FF80010CF
:1015760008002000003FF8003FF800100800200097
:10158600003FF8003FF800000800000000200800B7
:101596003FF8003FF800100800100000200000206F
:1015A60008003FF8001FF8000008000000000000D7
:1015B6000007C0000FF000183000300800200800B7
:1015C6002008003008001830000FF00007C00000A7
:1015D60000000000002001003FFF003FFF00101147
:1015E600002009002008002008003038001FF00005
:1015F6000FC00000000000000007C0001FF0003808
:1016060018002008002008002009001011001FFF04
:10161600003FFF0000010000000020080020080035
:101626002008003FF8003FF80008080010080020D6
:10163600080020000030000030000000000000001C
:10164600000000000C78001E180033080023080074
:1016560021080021880021980030F0003860000041
:101666000000000000200000200000200000FFF025
:1016760003FFF800200800200800200800003000C2
:101686000000000000000000002000003FF0007F86
:10169600F8000018000008000008002010003FF8BD
:1016A600007FF00000100000000000000020000095
:1016B6003000003C00003F800023F000007800006E
:1016C60070002380003C0000300000200000200055
:1016D600003C00003FE00023F80000E00027000087
:1016E6003E00003FE00021F80001E0003E0000203F
:1016F60000000000002008002008003838003E687E
:101706000027800003C8002CF80038380020180095
:101716002008000000000000002000003003003C0C
:1017260001003F830023EC000070002380003C0092
:101736000020000020000000000000000000000063
:1017460038080020380020F80023E8002F88003EE3
:101756000800380800201800007000000000000093
:10176600000000000000000000000000000800006B
:1017760014001FF7FC3000062000020000000000E5
:101786000000000000000000000000000000000053
:10179600000000FFFFFF0000000000000000000046
:1017A60000000000000000000000002000023000E1
:1017B600061FF7FC001400000800000000000000EF
:1017C600000000000000000000000000180000609B
:1017D600000040000040000020000010000008004B
:1017E600000400000400000C0000100000C6D50034
:1017F60000000000E0380000783C00003C78000063
:101806003C70C0001CE1E01FFFFFF0001CE3000E6F
:101816001CE7C0079CE78003DCEF0003DCEE000159
:10182600DCFC60009CF9F07FFFFFF800000000017F
:10183600C00E0001FFFF0001C00E0001C00E000136
:10184600C00E0001FFFE0001C00E0001C00E000127
:10185600C00E0001FFFE0001C00E0001C00E000018
:10186600000000D6D000000000000700000007803E
:101876000000070000000700000007000000070145
:10188600801FFFFFE01FFFFFE01E0701C01E0701CC
:10189600C01E0701C01E0701C01E0701C01E0701AA
:1018A600C01FFFFFC01FFFFFC01E0701C01C0701AE
:1018B6008000070000000700000007000000070086
:1018C60000000700000007000000070000000700F6
:1018D600000007000000000000BFC6000000000076
:1018E600000780003C07C001FC07803FE007803905
:1018F600C1C78001C0E78001C0F78001C0778001C1
:10190600DE77807FFE078001C0078003C3C78003A0
:10191600E1E78003F8F78007FCE7F00FDE67F80FD2
:10192600DC07F81FC0FF801DDFE78039CC07807118
:10193600C0078061C0078001C0078001C007800121
:10194600E0078001E0078001C0070000000000BC3E
:10195600BC000000000380300003C03C0003C03C14
:101966000003C0380003C0380003C0386003F838ED
:10197600F07FFFFFF003C0380003C0380003C03813
:101986000003DC39C003FFFFE007E383C03FC183E8
:10199600C07FC1C3803BC1C78003C0EF0003C0EF57
:1019A6000003C07E0003C07C0003C07C0003C0FEB1
:1019B600003BC3EF803F8787F80FBF03F807780027
:1019C600E000000000C4EA0000000000C0000001C2
:1019D600F0000001E0000003C000C003C001E00702
:1019E600FFFFF00703C0000E03C0001E03C0003C4B
:1019F60003C3007303C78063FFFFC00383C00003F4
:101A060083C0000383C0000383C0000383C0600358
:101A160083C0F07FFFFFF80003C0000003C0000092
:101A260003C0000003C0000003C0000003C00000A4
:101A360003C0000003C00000000000D4C200000084
:101A4600000000000000E0070000FFFF8000F00734
:101A56008000F0070000F0070000F0070000F00724
:101A66000000FFFF0000FFFF0000F0070000F00786
:101A76000000F0070000F0070000E0070000FFFF8D
:101A86000000E0070000E0070000E0070001E007B3
:101A96000001C0070001C00700038007000780F7A8
:101AA600000F007F001E001F0038001C0000000011
:101AB60000C8D5000000000000000003000300037A
:101AC600FFFF8003FFFF80038007000380070003FA
:101AD60080070003800700038007000380070003D8
:101AE6008007000380070003FFFF00038007000351
:101AF60080070003800700038007000380070003B8
:101B060080070003800700038007000380070003A7
:101B1600FFFF000380070003800700038007000320
:101B260000000000000000D0C70000000000000018
:101B3600000380070003FFFF800380070003800780
:101B4600000380070003FFFF0003800700038007F0
:101B56000003FFFF0003FFFF00038707000387C0A2
:101B66000003C7810003C7838007FFFFC007078004
:101B7600000F0780001E0786001C078F003BFFFF33
:101B8600807007800000078000000780E000078162
:101B9600F07FFFFFF80000000000000000C6DA003A
:101BA60000000006000000079E0000079E7FF00769
:101BB6009E7FF0079FF8F03FFFF8F01F9E78F00732
:101BC6009E78F0079E78F007FE7FF0079E78F00774
:101BD6009E78F0079E70F007FE70F0079E70F00783
:101BE6009E7FF0079FFFF03FFFF0F0119070F0032B
:101BF600DCF0F003DEE0F0078FE0F00F0FE0F00E10
:101C060007C0F01C038FF0380F03E0201C01C00052
:031C1600000000CB
:0A8BC2004202EFFFFF4202F1000043
:10000300E4FDFCC3ED9FEC9E5014E4FBFA0BBB0034
:0E001300010AEBF44A70F60DBD00010C80E509
:0100210022BC
:108D0000D2A5C2A7D2B2C2A68F90C2A5D2A5D2A721
:018D10002240
:108C4C00128D007FD0128C5FFF128C5F7F02128C12
:038C5C005F7F0730
:108C5F00D2A5C2A7D2B2D2A68F90C2A5D2A5D2A7B3
:018C6F0022E2
:088C2700900344E0FEA3E0FF0E
:108C2F00AD07AC06D2A5C2A7D2B2D2A6ECF590C2C0
:0D8C3F00A5D2A5EDF590C2A5D2A5D2A72221
:0A8D5D00128D00AE04AF05028C5F1A
:108CC1007590FF7580FFC2A7D2A6C2B200AF907E99
:058CD10000D2B2D2A7A1
:018CD600227B
:108A5F009002EEEFF0701C7D10FC7F36FE128D5DE4
:108A6F009002EA04F0A37440F09002E8E4F0A374DB
:108A7F00F0F0227D607C007F367E00128D5D9002CB
:108A8F00EAE4F0A374F0F09002E87401F0A37440EC
:028A9F00F022C3
:10674900E4900000F0A3F0D2B37F64FE128C70C213
:10675900B37F647E00128C70D2B37F647E00128C8A
:10676900707FEF7E00128D00128CC19002ECEEF06A
:10677900A3EFF07BFF7A00792690002EEEF0A3EFCD
:10678900F012408A7F117E00128D007F78128C7082
:106799007FB27E00128D007F0C128C5F128C5FE439
:1067A900FF128C5F7F33128C5F128C5F7FB7128D63
:1067B900007F35128C5F7FBB128D007F35128C5F95
:1067C9007FC0128D007F2C128C5F7FC2128D007FDB
:1067D90001128C5F7FC3128D007F0B128C5F7FC407
:1067E900128D007F20128C5F7FC6128D007F0F12E1
:1067F9008C5F7FCA128D007F0F128C5F7FC8128D4C
:10680900007F08128C5F7F55128D007F90128C5F7C
:106819007FD0128D007FA4128C5F7FA1128C5F7FC5
:106829003A128D007F05128C5F7FE0128C4C7F0B32
:10683900128C5F7F1A128C5F7F31128C5F7F54122A
:106849008C5F7F40128C5F7F29128C5F7F12128CC4
:106859005F128C5F128C5F7F17128C5F7FE1128C45
:106869004C7F05128C5F7F25128C5F7F2D128C5F08
:106879007F44128C5F0F128C5F7F1C128C5F7F1814
:10688900128C5F7F16128C5F7F1C128C5F0F128C2B
:106899005F7F29128D00FF128A5F9002F1E0FEA34B
:0568A900E0FF0286176C
:05893D00E0FEA3E0FFD5
:108942008F828E837F2A7E00128D00E583FF128C38
:108952005FAF827E00128C5FEAFF128C5FAF037EF4
:1089620000128C5F7F2B128D00ECFF128C5FAF0523
:108972007E00128C5F900094E0FF128C5FA3E0FFF8
:08898200128C5F7F2C028D00B6
:0C87180090031AECF0A3EDF0AB07AA06EA
:10872400E4A3F0A3F0A3F0A304F0A3E4F0A304F003
:10873400D39002E9E09B9002E8E09A40159002EAA7
:10874400E0FEA3E0FF90031AE0FCA3E0FD9FEC9E93
:108754004004E4FEFF22AF03AE02C00790031AE018
:10876400FFA3E0900094CFF0A3EFF0D0071289426A
:10877400128CC1AD07AC06128CC1AD07ED7D00FCB7
:0F878400128CC14EFCAE0490031CEEF0A3EFF07C
:0187930022C3
:08861700900002EEF0A3EFF069
:10861F00E4A3F0A3F09002E9E024FFFB9002E8E06E
:10862F0034FFFA9002EBE024FFFE9002EAE034FF01
:10863F00900094F0A3CEF0E4FDFCFFFE128942E41B
:10864F00FAFBD39002E9E09B9002E8E09A4039E40C
:10865F00900004F0A3F09002EAE0FEA3E0FFC390C5
:10866F000005E09F900004E09E5016900002128CCF
:10867F002A900005E004F070DD900004E004F08023
:08868F00D50BBB00010A80BA03
:0186970022C0
:107EB300900058ECF0A3EDF0900056EEF0A3EFF035
:087EC30090005AEAF0A3EBF075
:107ECB00E4900060F0A3F0D3EF9BEE9A4003027FA7
:107EDB008290005CE0FEA3E0FF900058E0FCA3E082
:107EEB00FD9FEC9E4003027F8290005AE0FAA3E0D4
:107EFB00FBA3E0FFA3E0900094CFF0A3EFF0900082
:107F0B005612893D900056E0FEA3E0FFC390005B44
:107F1B00E09FFF90005AE09ECF2401CF34009000E9
:107F2B0056F0A3EFF0A3E0FEA3E0FFC390005DE0EB
:107F3B009FFF90005CE09ECF2401CF34009000584F
:107F4B00F0A3EFF090005674FFF5F0122FAB45F055
:107F5B006025900058E0FFA3E0900060CFF0A3EF06
:107F6B00F090006074FFF5F0122FAB45F060D590E8
:077F7B00005E128C2A80EA6F
:017F820022DC
:0E75AA00900240EEF0A3EFF0A3ECF0A3EDF0A2
:1075B800900240E0FEA3E0FFC3EB9FFFEA9ECF24CA
:1075C80001CF340090024DF0A3EFF0900242E0FEAC
:1075D800A3E0FFC3900247E09FFF900246E09ECFE2
:1075E8002401CF340090024BF0A3EFF0900242E068
:1075F800FCA3E0FD900246E0FFA3E0900094CFF0EA
:10760800A3EFF090024012893DE490024FF0A3F0FE
:1076180090024BE0FEA3E0FFC3900250E09F90026F
:107628004FE09E5074E4900251F0A3F090024DE0B8
:10763800FEA3E0FF900251E0FAA3E0FBC39FEA9E9D
:10764800504690024DE0FCA3E0FDA3E0FEA3E0FF5E
:10765800122EF8EB2FFFEA3EFEEF25E0FFEE33FE99
:10766800900248E0FBA3E0FAA3E0F98F828E831230
:107678002FC1FFAEF0128C2F900252E004F070ACD4
:10768800900251E004F080A4900250E004F0708071
:0976980090024FE004F0027618A4
:0176A10022C6
:108AA1009002F9FEE0FCA3E0FDC39002F6E09DFD1B
:068AB1009002F5E09CFCC0
:108AB700AB07AA068D828C83C006C007AE83AF8240
:108AC700900094EEF0A3EFF0D007D0061289429001
:0A8AD70002EFE0FEA3E0FF028C2F87
:0689D300FDE0FAA3E0FB49
:1089D900900088EEF0A3EFF090008CEAF0A3EBF0A2
:1089E90090008AECF0A3EDF0900088E0FAA3E0FB98
:1089F900FFAE02C007A3E0FFA3E0900094CFF0A36D
:108A0900EFF0D00712894290008CE0FEA3E0FF024C
:028A19008C2FA0
:10880F0090033AEEF0A3EFF0A3ECF0A3EDF0A3EAA0
:10881F00F0A3EBF01289D990033BE02401FF900302
:10882F003AE03400FE90033CE0FCA3E0A31289D3AE
:10883F0090033AE0FEA3E0FF90033DE02401FD909A
:10884F00033CE03400FC90033E1289D490033BE0DC
:10885F002401FF90033AE03400FE90033DE0240131
:10886F00FD90033CE03400FC90033EE0FAA3E0FBF4
:03887F000289D992
:0E5797009001CAEEF0A3EFF0A3ECF0A3EDF04A
:1057A500E49001D2F0A3F0A3F0A3F0A3F0A3F0904E
:1057B50001CAE0FEA3E0FFC3EB9FFFEA9E9001D87C
:1057C500F0A3EFF09001CCE0FAA3E0FBC39001D188
:1057D500E09BFE9001D0E09A9001DAF0A3CEF09024
:1057E50001CAE0FFA3E09001E2CFF0A3EFF0A3EA46
:1057F500F0A3EBF09001D8E0FEA3E0FFD39400EE18
:1058050064809480400A9001DEE4F0A304F08021D6
:10581500EF4E70089001DEF0A3F0801574FF900143
:10582500DEF0A3F0C3E49FFFE49E9001D8F0A3EF60
:10583500F09001DAE0FEA3E0FFD39400EE648094DB
:1058450080400A9001E0E4F0A304F08021EF4E705F
:10585500089001E0F0A3F0801574FF9001E0F0A33B
:10586500F0C3E49FFFE49E9001DAF0A3EFF090010E
:10587500DAE0FEA3E0FF9001D8E0FCA3E0FDD39FB2
:10588500EE6480F8EC6480989001DC4007ECF0A3AE
:10589500EDF08005EEF0A3EFF0E49001D2F0A3F077
:1058A5009001DDE02401FF9001DCE03400FED3909F
:1058B50001D3E09F9001D2E09E40030259859001FB
:1058C500E2E0FEA3E0FFA3E0FCA3E0FD128AB790AF
:1058D50001D8E0FEA3E0FF9001D5E02FF09001D4C0
:1058E500E03EF09001DAE0FEA3E0FF9001D7E02F63
:1058F500F09001D6E03EF09001DCE0FEA3E0FF90E1
:1059050001D4E0FCA3E0FDD39FEE6480F8EC648055
:10591500984020ED9FFFEC9E9001D4F0A3EFF0900E
:1059250001DEE0FEA3E0FF9001E3E02FF09001E24D
:10593500E03EF09001DCE0FEA3E0FF9001D6E0FC44
:10594500A3E0FDD39FEE6480F8EC6480984020EDE1
:105955009FFFEC9E9001D6F0A3EFF09001E0E0FEF2
:10596500A3E0FF9001E5E02FF09001E4E03EF09028
:1059750001D3E004F070069001D2E004F00258A5CE
:0159850022FF
:0E598600900170EEF0A3EFF0A3ECF0A3EDF0B3
:10599400E490017CF0A3F0A3F0A3F0900170E0FE8A
:1059A400A3E0FFC3EB9FFFEA9E900180F0A3EFF01A
:1059B400900172E0FAA3E0FBC3900177E09BFE90B4
:1059C4000176E09A900182F0A3CEF0900170E0FF9E
:1059D400A3E090018ACFF0A3EFF0A3EAF0A3EBF0E9
:1059E400900180E0FEA3E0FFD39400EE64809480F5
:1059F400400A900186E4F0A304F08021EF4E700881
:105A0400900186F0A3F0801574FF900186F0A3F056
:105A1400C3E49FFFE49E900180F0A3EFF090018225
:105A2400E0FEA3E0FFD39400EE64809480400A90EB
:105A34000188E4F0A304F08021EF4E7008900188FF
:105A4400F0A3F0801574FF900188F0A3F0C3E49FE5
:105A5400FFE49E900182F0A3EFF0900182E0FEA3A8
:105A6400E0FF900180E0FCA3E0FDD39FEE6480F8AA
:105A7400EC6480989001844007ECF0A3EDF080057D
:105A8400EEF0A3EFF0E490017AF0A3F0900185E04A
:105A94002401FF900184E03400FED390017BE09F59
:105AA40090017AE09E4003025B7290018AE0FEA3BB
:105AB400E0FFA3E0FCA3E09001781289D390018079
:105AC400E0FEA3E0FF90017DE02FF090017CE03E3A
:105AD400F0900182E0FEA3E0FF90017FE02FF090C0
:105AE400017EE03EF0900184E0FEA3E0FF90017CA3
:105AF400E0FCA3E0FDD39FEE6480F8EC6480984062
:105B040020ED9FFFEC9E90017CF0A3EFF0900186C6
:105B1400E0FEA3E0FF90018BE02FF090018AE03ECD
:105B2400F0900184E0FEA3E0FF90017EE0FCA3E09E
:105B3400FDD39FEE6480F8EC6480984020ED9FFFD5
:105B4400EC9E90017EF0A3EFF0900188E0FEA3E0CC
:105B5400FF90018DE02FF090018CE03EF090017BEE
:0E5B6400E004F0700690017AE004F0025A901E
:015B72002210
:107D0900900340EEF0A3EFF0900344EAF0A3EBF008
:087D1900900342ECF0A3EDF031
:107D2100900340E0FAA3E0FB24FFFFEA34FFFEC02A
:107D310006C007ED24FFFDEC34FFFCEB2401FBE45E
:107D41003AFAA3E0FEA3E02401FFE43E900094F0A0
:107D5100A3EFF0D007D006128942E4FB128C270B67
:107D6100EBB409F8900341E024FCFF900340E034B8
:107D7100FFFEC007900342E0FCA3E0FD900341E059
:107D81002404FB900340E03400FA900342E0FFA397
:107D9100E0900094CFF0A3EFF0D007128942E4FB0A
:107DA100128C270BEBB409F8900343E024FCFD90FF
:107DB1000342E034FFFC900340E0FAA3E0FBA3E0C0
:107DC100FEA3E02404FFE43E900094F0A3EFF090C2
:0F7DD100034012893DE4FB128C270BEBB409F839
:017DE0002280
:10829000900326EAF0A3EBF0900322EEF0A3EFF0B8
:1082A000A3ECF0A3EDF0C007A3E0FAA3E0FB90037A
:1082B00024E0FFA3E09001D0CFF0A3EFF0D00712AD
:1082C0005797900322E0FAA3E0FBFFAE02C007A39A
:1082D000E0FCA3E0FD900328E0FFA3E09001D0CFF5
:1082E000F0A3EFF0D007125797900328E0FCA3E02B
:1082F000FD900326E0FAA3E0FBA3E0FFA3E09001DA
:10830000D0CFF0A3EFF0900322E0FEA3E0FF1257DE
:1083100097900326E0FAA3E0FBFFAE02C0079003AC
:1083200024E0FCA3E0FD900328E0FFA3E09001D04F
:0A833000CFF0A3EFF0D0070257973B
:0E5D5C009002F3EEF0A3EFF0A3ECF0A3EDF055
:105D6A00E4A3F0A3F0EBFF7E00A3EEF0A3EFF0258F
:105D7A00E0FFEE33FEC374039F9002FCF0E49E90B2
:105D8A0002FBF09002F9E0FEA3E0FF9002F7E0FCCC
:105D9A00A3E0FDD39FEE6480F8EC64809840030290
:105DAA005F339002F4E02DFF9002F3E03C128AA1E7
:105DBA009002F9E0FEA3E0FF9002F4E02FFF9002C8
:105DCA00F3E03E9002F7128AA49002F9E0FEA3E003
:105DDA00FF9002F4E02FFF9002F3E03EFE9002F7FC
:105DEA00E0FCA3E0FD9002F6E02DFD9002F5E03C18
:105DFA00FC128AB79002F7E0FEA3E0FF9002F4E0FB
:105E0A002FFF9002F3E03EFE9002F9E0FCA3E0FDD2
:105E1A009002F6E02DFD9002F5E03CFC128AB79064
:105E2A0002F7E0FEA3E0FFC39002F4E09FFF9002B6
:105E3A00F3E09EFE9002F9E0FCA3E0FD9002F6E09A
:105E4A002DFD9002F5E03CFC128AB79002F9E0FEC3
:105E5A00A3E0FFC39002F4E09FFF9002F3E09EFEEE
:105E6A009002F7E0FCA3E0FD9002F6E02DFD90021F
:105E7A00F5E03CFC128AB79002F7E0FEA3E0FFC30C
:105E8A009002F4E09FFF9002F3E09E128AA1900232
:105E9A00F9E0FEA3E0FFC39002F4E09FFF9002F353
:105EAA00E09EFE9002F7128AA59002F8E004F070D4
:105EBA00069002F7E004F0C39002FBE0648094804D
:105ECA0050259002F7E0FEA3E07802C333CE33CE2A
:105EDA00D8F92406FFE43EFE9002FCE02FF090027F
:105EEA00FBE03EF0025D8D9002F9E0FEA3E0FFC305
:105EFA009002F8E09FFF9002F7E09EFEEF7802C35F
:105F0A0033CE33CED8F9240AFFE43EFE9002FCE0F9
:105F1A002FF09002FBE03EF09002FAE024FFF090AE
:095F2A0002F9E034FFF0025D8D84
:015F3300224B
:1065D100900038EEF0A3EFF090003CEBF090003A21
:0565E100ECF0A3EDF059
:1065E600900041ECF0A3EDF090003DE0FF13131393
:1065F600541FFEEF540760047F0180027F00EE2FD8
:10660600FF90003DE0C313FEEF8EF0A4900043F030
:1066160090003CE024E0F0E4F9900043E0FFE9C399
:106626009F400302674890003DE0FFB40C129000C3
:106636003CE075F00CA42433F582E5F0340080319B
:10664600EFB4101290003CE075F010A424A7F58278
:10665600E5F03404801B90003DE064186003026797
:106666004890003CE075F024A42497F582E5F034C8
:106676000AF583E58229F582E43583F583E4939070
:10668600003FF0E4900040F090003FE030E71390C8
:106696000038E0FEA3E0FFA3E0FCA3E0FD9002EFDC
:1066A600801790003EE07014900038E0FEA3E0FFF3
:1066B600A3E0FCA3E0FD9002F11289D490003FE034
:1066C60025E0F090003BE004F0700690003AE0040C
:1066D600F09002EAE0FEA3E0FF90003AE0FCA3E0BF
:1066E600FDC39FEC9E505B900041E0FEA3E0FFC31C
:1066F600ED9FFDEC9EFC90003DE07A00B50530EA8A
:10670600B5042C90003AEEF0A3EFF0900039E004C7
:10671600F07006900038E004F09002E8E0FEA3E096
:10672600FFC3900039E09F900038E09E4010229011
:106736000040E004F0E0C39408500302668E0902AC
:02674600661FCC
:01674800222E
:0788ED00C3EF9E14FD7F0A9A
:0888F400900346EFF0A3EDF044
:1088FC00A312318900000001900347E0FF14F0EF50
:10890C006020A3E0F8A3E0F9A3E0FAA3E0FB900356
:10891C0046E0FFE4FCFDFE12302690034812317D48
:10892C0080D6900348E0FCA3E0FDA3E0FEA3E0FFAB
:01893C002218
:0E7B52009002B5EEF0A3EFF0A3ECF0A3EDF07F
:107B6000E49002C1F09002BFF09002BDE0FF9002ED
:107B7000BFE0FEC39F4003027C2D1288EDA804A93C
:107B800005AA06AB079002B9E0FCA3E0FDA3E0FE66
:107B9000A3E0FF1230B1E47B0AFAF9F81230B19099
:107BA00002C0EBF0A3E070459002BDE014FF90022C
:107BB000BFE0FEC39F5036A3E0702C9002BEE0FBF6
:107BC000C3138EF0A4FF9002B6E02FFF9002B5E041
:107BD00035F0FE9002B7E0FCA3E0FD90003DEBF035
:107BE000E4A3F07B20803A9002C17401F09002BEC1
:107BF000E0FAC313FFA3E0FEEF8EF0A4FF9002B6FD
:107C0000E02FFF9002B5E035F0FE9002B7E0FCA354
:107C1000E0FD9002C0E02430FB90003DEAF0E4A3D8
:0D7C2000F01265D19002BFE004F0027B6914
:017C2D002234
:0E701F00900299EEF0A3EFF0A3ECF0A3EDF0D9
:10702D00E49002A6F09002A4F09002A1E0FF90027D
:10703D00A4E0FEC39F40030271471288EDA804A986
:10704D0005AA06AB0790029DE0FCA3E0FDA3E0FEC0
:10705D00A3E0FF1230B1E47B0AFAF9F81230B190D7
:10706D0002A5EBF0A3E060030270FE9002A1E01414
:10707D00FF9002A4E0FEC39F5077A3E0706D9002D5
:10708D00A3E0F99002A230E72BE0FBC3138EF0A42E
:10709D00FF90029AE02FFF900299E035F0FE9002EA
:1070AD009BE0FCA3E0FD90003DEBF0E95401A3F063
:1070BD007B30807AE0FBC313FF9002A4E0FEEF8EDD
:1070CD00F0A4FF90029AE02FFF900299E035F0FEB8
:1070DD0090029BE0FCA3E0FD90003DEBF09002A33D
:1070ED00E0540190003EF07B2080439002A6740195
:1070FD00F09002A2E0FAC313FF9002A4E0FEEF8E1F
:10710D00F0A4FF90029AE02FFF900299E035F0FE77
:10711D0090029BE0FCA3E0FD9002A5E02430FB90E3
:10712D00003DEAF09002A3E0540190003EF012659C
:0A713D00D19002A4E004F0027036C5
:017147002225
:107A6D0090002BEEF0A3EFF0A3ECF0A3EDF0A3EA62
:047A7D00F0A3EBF097
:107A810090002BE0FEA3E0FF900037F0900030E083
:107A91002FF090002FE03EF090002DE0FEA3E0FFDC
:107AA100900032E02FF0900031E03EF0900034E0A1
:107AB100FBA3E0FAA3E0F9122E7EFFD3947E4003EC
:107AC100027B51EFC394205003027B5190002FE0C1
:107AD100FEA3E0FF90002CE09F90002BE09E401F52
:107AE100900037E0FF90002BE4F0A3EFF09000331B
:107AF100E0FF90002EE02FF090002DE03400F09098
:107B01000031E0FEA3E0FF90002DE0FCA3E0FDC307
:107B11009FEC9E503B90002BE0FEA3E0FF122E7ED7
:107B2100FB900033E090003DF0E4A3F01265D190AA
:107B31000033E0C313FF90002CE02FF090002BE006
:107B41003400F0900035E475F001122F95027AAD02
:017B51002211
:106EF4009002FDEEF0A3EFF0A3ECF0A3EDF0A3EB12
:076F0400F0A3EAF0A3E9F09D
:106F0B00900301E0FBA3E0FAA3E0F9122E7E7003DD
:106F1B0002701E9002FDE0FAA3E0FBFFAE02C0067A
:106F2B00C007A3E0FCA3E0FDEB241FFBE43AFA90BF
:106F3B0002FFE0FEA3E0241CFFE43E900094F0A3CC
:106F4B00EFF0D007D006128942E4900304F09003CF
:106F5B0004E0FFC394144003027003900301E0FBB1
:106F6B00A3E0FAA3E0F9122E7EFE75F076EFA424CF
:106F7B00F3F582E5F03417F583E4936E70719000AE
:106F8B0001122E97FF900304E075F076A424F4F51C
:106F9B0082E5F03417F583E4936F7053FB90030491
:106FAB00E075F076A424F5F582E5F03417F583E56A
:106FBB00822BF582E43583F583E493FF900305E49C
:106FCB00F0A3EFF0E4FA900306E030E7059002EF50
:106FDB0080039002F1128C2A900306E025E0F090DA
:106FEB000305E033F00AEAB408DC0BEBB474AE90A3
:106FFB000304E004F0026F59900302E475F00212EF
:10700B002F959002FEE02420F09002FDE03400F07A
:03701B00026F0BF6
:01701E00224F
:106DC70090022BEEF0A3EFF0A3ECF0A3EDF0A3EA13
:046DD700F0A3EBF04A
:106DDB00E4900236F0A3F0A312318900000000907A
:106DEB00023C1231890000000090022DE0FCA3E070
:106DFB00FDA3E0FEA3E0FF90022BE0FAA3E02FFF40
:106E0B00EA3ECF24FFFBEF34FFFA900231E0FEA302
:106E1B00E0FF90022DE0F8A3E02FFFE83ECF24FF28
:106E2B00CF34FF900094F0A3EFF090022B12893D2A
:106E3B00900231E0FCA3E0FD90022FE0FEA3E0FF07
:106E4B00122EF8EF25E0FFEE33FEE4FCFD90023C42
:106E5B0012317D900238A3A3E0FEA3E0FDAC062423
:106E6B0001FFE43CFE900233E0FBA3E0FAA3E0F960
:106E7B008F828E83122E97FF900236E4F0A3EFF0F1
:106E8B00E0F8E4F0E8900236F08D828C83122E97B6
:106E9B00FF900236E0FEA3E04FFF900236EEF0FECD
:106EAB00A3EFF0128C2FA3E0FCA3E0FDA3E0FEA365
:106EBB00E02402FFE43EFEE43DFDE43CFC9002389E
:106ECB0012317D90023CE0FCA3E0FDA3E0FEA3E0C9
:106EDB00FF900238E0F8A3E0F9A3E0FAA3E0FBC3CC
:086EEB001231435003026E5EF8
:016EF300227C
:0B8D5200C2A1D2A3D2A2D2A1C2A322D0
:108C8E00C2A1E4FEEFC4131313540124FF92A2EF0A
:0C8C9E0025E0FFC2A1D2A10EEEB408E850
:018CAA0022A7
:108B5900E4900054F0A3F0C2A1FDFC900055E0257B
:108B6900E0F0900054E033F0D2A1C2A1A2A0E43316
:108B7900FFE0F0A3E04FF00DBD00010CED640C4CDB
:0A8B890070D9900054E0FEA3E0FF55
:018B930022BF
:0762CE00EEF0A3EFF07F905A
:0262D500AB0715
:1062D700C2A1C2A3E490003AF0AF03128C8E9000E3
:1062E7003B7406F090003BE014F0E070F7D2A10099
:1062F70000C2A10000128B5990003AE025E0243C2F
:10630700F582E43400F583EEF0A3EFF090003AE075
:1063170004F0E0C3940A40C1D2A3E490003AF0909D
:10632700003AE0FFC3940940030263DCEF04A3F0E3
:1063370090003BE0FFC3940A40030263D3EF25E0DC
:10634700243CF582E43400F583E0FEA3E0FF9000EF
:106357003AE0FB25E0243CF582E43400F583E0FCD9
:10636700A3E0C39FEC9E505BEB25E0243CF582E461
:106377003400F583E0FEA3E0FFE4FCFD900050123B
:10638700317D90003BE0FA25E0243CF582E43400BF
:10639700F583E0FEA3E0FFEB25E0243CF582E4343F
:1063A70000F583EEF0A3EFF0900050A3A3E0FEA367
:1063B700E0FFEA25E0243CF582E43400F583EEF0C3
:1063C700A3EFF090003BE004F002633790003AE05F
:1063D70004F00263269000501231890000000090FB
:1063E700003A7402F0900050E0F8A3E0F9A3E0FA55
:1063F700A3E0FB90003AE025E0243CF582E434007A
:10640700F583E0FEA3E0FFE4FCFDEB2FFFEA3EFE91
:10641700ED39FDEC38FC90005012317D90003AE0E8
:1064270004F0E0B408BF900050E0FCA3E0FDA3E057
:10643700FEA3E0FFE47B06FAF9F8128A1B900050EE
:0D64470012317D900050A3A3E0FEA3E0FF02
:016454002225
:10738A00128D527FD01262D59000301262CE9000D8
:10739A0036EEF0A3EFF07FD01262D590003212627F
:1073AA00CEAD07AC06900032E0FEA3E0FF900030BD
:1073BA00E0FAA3E0FBD39FEA9E400AA3A3EB9FFF58
:1073CA00EA9EA38017900030E0FEA3E0FFC390007E
:1073DA0033E09FFF900032E09E900034F0A3EFF07C
:1073EA00900036E0FEA3E0FFD39DEE9C4007EF9DA0
:1073FA00FFEE9C800E900036E0FEA3E0FFC3ED9FF7
:10740A00FFEC9EA3F0A3EFF0D3900035E094329006
:10741A000034E09400500E900039E0943290003825
:10742A00E0940040037F0022900032E0FEA3E0FFD8
:10743A00900031E02FFF900030E03EC313FEEF13BF
:10744A00FF9002C2EEF0A3EFF0900037E02DFF901C
:10745A000036E03CC313FEEF13FF9002C4EEF0A324
:10746A00EFF09002C3E054F0F09002C5E054F0F05F
:10747A00C39002C3E094649002C2E09400400FD328
:10748A009002C5E094D89002C4E0940E40037F00B5
:03749A00227F014D
:01749D0022CC
:106C8900E490002BF012738AEF7003026DBC90023E
:106C9900EEE06003026D229002C2E0FEA3E0FFE491
:106CA900FCFD9002C612317D9002C6E0FCA3E0FD16
:106CB900A3E0FEA3E024B0FFEE34FEFEED34FFFDB9
:106CC900EC34FFFCE47BF0FAF9F8123026E4FB7AA5
:106CD9000DF9F81230B19002C612317D9002C4E06C
:106CE900FEA3E0FFE4FCFD9002CA12317D9002CAC6
:106CF900E0FCA3E0FDA3E0FEA3E02410FFEE34FFD7
:106D0900FEED34FFFDEC34FFFCE47B407A01F9F839
:106D1900123026E47B54026DA79002C4E0FEA3E082
:106D2900FFE4FCFDA312317D9002C6E0FCA3E0FD67
:106D3900A3E0FEA3E02410FFEE34FFFEED34FFFDD7
:106D4900EC34FFFCE47B407A01F9F8123026E47B4D
:106D5900547A0DF9F81230B19002C612317D9002C1
:106D6900C2E0FEA3E0FFC3E49FFF74109EFEE4FCB3
:106D7900FD9002CA12317D9002CAE0FCA3E0FDA396
:106D8900E0FEA3E024B0FFEE34FEFEED34FFFDEC9F
:106D990034FFFCE47BF0FAF9F8123026E4FB7A0DB3
:106DA900F9F81230B19002CA12317D90002B7401AA
:0D6DB900F08001E49002CEF090002BE0FF8E
:016DC60022AA
:0686980090032A12317D5F
:10869E0090032AE0FCA3E0FDA3E0FEA3E0FF781325
:1086AE0012316AA3EEF0A3EFF090032AE0FCA3E0F0
:1086BE00FDA3E0FEA3E0FF780A12316AEF543FFEFD
:1086CE00E4900330F0A3CEF090032AE0FCA3E0FD8B
:1086DE00A3E0FEA3E0FF780312316AEF541FFFE41C
:1086EE00AD07FC900330E0FEA3E07805C333CE3334
:1086FE00CED8F9FBAA0690032FE033333354F84A51
:09870E00FEEBFFEE4CFEEF4DFF07
:01871700223F
:048AE100AD07AC062B
:108AE5007BE77A187E00ED54037803C333CE33CE8B
:108AF500D8F9FFEA4EFAEB4FFB7E00ED541C7806E1
:108B0500C333CE33CED8F9FFEA4EFAEB4FFBED5423
:078B1500E04AFAEBAE02FF9B
:018B1C002236
:08898A0090034CEFF0A3EDF0A7
:10899200A31231890000000190034DE0FF14F0EFB3
:1089A2006020A3E0F8A3E0F9A3E0FAA3E0FB9003C0
:1089B2004CE0FFE4FCFDFE12302690034E12317DA6
:1089C20080D690034EE0FCA3E0FDA3E0FEA3E0FF0F
:0189D2002282
:1088820090033212317D900336E0FCA3E0FDA3E0B9
:10889200FEA3E0FF900332E0F8A3E0F9A3E0FAA31D
:1088A200E0FBD3123159401D900336E0F8A3E0F902
:1088B200A3E0FAA3E0FB900332E0FCA3E0FDA3E017
:1088C200FEA3E0801A900332E0F8A3E0F9A3E0FAF5
:1088D200A3E0FBA3E0FCA3E0FDA3E0FEA3E0C39BB7
:0B88E200FFEE9AFEED99FDEC98FC22E1
:088B1D00900352EEF0A3EFF00B
:108B25009002EFE0FFA3E0900354CFF0A3EFF0AF86
:108B3500039002EFEAF0A3EFF0900352E0FEA3E00A
:108B4500FF128AB7900354E0FFA3E09002EFCFF045
:038B5500A3EFF09B
:018B580022FA
:1076A200900278EEF0A3EFF0A3ECF0A3EDF0A3EAE2
:0476B200F0A3EBF066
:1076B600E4900283F0A3F090027CE0FEA3E0FFC317
:1076C600900284E09F900283E09E4003027798E454
:1076D600900285F0A3F090027EE0FEA3E0FFC39047
:1076E6000286E09F900285E09E4003027784900226
:1076F60083E0FEA3E0FF900279E02FFF900278E09E
:107706003EFE900285E0FCA3E0FD90027BE02DFDAD
:1077160090027AE03CFC128718900287EEF0A3EF05
:10772600F0900280E0FCA3E0FDA3E0FB12798090DC
:107736000287EEF0A3EFF0900283E0FEA3E0FF9055
:107746000279E02FFF900278E03EFE900285E0FC91
:10775600A3E0FD90027BE02DFD90027AE03CFC90D8
:107766000287E0FAA3E0FB1289D9900286E004F0D2
:1077760060030276DC900285E004F00276DC90027B
:1077860084E004F060030276BD900283E004F00218
:0277960076BDBE
:0177980022CE
:1077990090007CECF0A3EDF0A3EAF0A3EBF09000ED
:0677A9007AEEF0A3EFF000
:1077AF00C39401EE94004013E024FFFE90007AE0B2
:1077BF0034FF900084F0A3CEF0800F90007AE0FFAA
:1077CF00A3E0900084CFF0A3EFF090007CE0FEA345
:1077DF00E0FFC39401EE9400400CEF24FFFFEE3462
:1077EF00FF900086800B90007CE0FFA3E090008666
:1077FF00CFF0A3EFF0900086E0FFA3E0900080CFE2
:10780F00F0A3EFF090007DE02402FF90007CE034C5
:10781F0000FEC3900081E09F900080E09E505E903C
:10782F000084E0FFA3E0900082CFF0A3EFF0900080
:10783F007BE02402FD90007AE03400FC900082E0AF
:10784F00FEA3E0FFC39DEE9C5023900080E0FCA3BD
:10785F00E0FD90007EE0FAA3E0FB1289D99000834F
:10786F00E004F070C9900082E004F080C1900081C4
:0D787F00E004F0708F900080E004F080873E
:01788C0022D9
:0E55A40090018EEEF0A3EFF0A3ECF0A3EDF07B
:1055B200E490019AF0A3F0A3F0A3F090018EE0FE34
:1055C200A3E0FFC3EB9FFFEA9E90019EF0A3EFF0E2
:1055D200900190E0FAA3E0FBC3900195E09BFE905E
:1055E2000194E09A9001A0F0A3CEF090018EE0FF2A
:1055F200A3E09001A8CFF0A3EFF0A3EAF0A3EBF0B1
:1056020090019EE0FEA3E0FFD39400EE64809480BC
:10561200400A9001A4E4F0A304F08021EF4E700848
:105622009001A4F0A3F0801574FF9001A4F0A3F000
:10563200C3E49FFFE49E90019EF0A3EFF09001A0CF
:10564200E0FEA3E0FFD39400EE64809480400A90D1
:1056520001A6E4F0A304F08021EF4E70089001A6A9
:10566200F0A3F0801574FF9001A6F0A3F0C3E49FAD
:10567200FFE49E9001A0F0A3EFF09001A0E0FEA352
:10568200E0FF90019EE0FCA3E0FDD39FEE6480F872
:10569200EC6480989001A24007ECF0A3EDF0800545
:1056A200EEF0A3EFF0E4900198F0A3F09001A3E0F4
:1056B2002401FF9001A2E03400FED3900199E09F03
:1056C200900198E09E40030257969001A8E0FEA345
:1056D200E0FFA3E0FCA3E0FD900196E0FAA3E0FB6B
:1056E2001289D990019EE0FEA3E0FF90019BE02F7A
:1056F200F090019AE03EF09001A0E0FEA3E0FF905E
:10570200019DE02FF090019CE03EF09001A2E0FEAE
:10571200A3E0FF90019AE0FCA3E0FDD39FEE64803A
:10572200F8EC6480984020ED9FFFEC9E90019AF087
:10573200A3EFF09001A4E0FEA3E0FF9001A9E02F07
:10574200F09001A8E03EF09001A2E0FEA3E0FF90FD
:10575200019CE0FCA3E0FDD39FEE6480F8EC648042
:10576200984020ED9FFFEC9E90019CF0A3EFF090FB
:1057720001A6E0FEA3E0FF9001ABE02FF09001AAAA
:10578200E03EF0900199E004F07006900198E00488
:04579200F00256AE1D
:0157960022F0
:1045F500900132EEF0A3EFF0A3ECF0A3EDF0A3EA07
:04460500F0A3EBF043
:10460900E490013FF0A3F0A3F0A3F090013AE0FF9A
:104619007E00C3900133E09F900132E09E50030277
:104629004860900137E09F900136E09E50030248B0
:1046390060900134E0FCA3E0FD9FEC9E500302482A
:1046490060900139E09F900138E09E500302486074
:1046590090013AE07013900132E0FEA3E0FF90016F
:104669003BE0FAA3E0FB0289D9900132E0FAA3E02A
:10467900FBC3900137E09BFE900136E09A9001431D
:10468900F0A3CEF0900134E0FEA3E0FFC39001391E
:10469900E09FFF900138E09E900145F0A3EFF09074
:1046A900014DEAF0A3EBF0900134A3E0FF90014F34
:1046B900EEF0A3EFF0900143E0FEA3E0FFD39400F6
:1046C900EE64809480400A900149E4F0A304F080EC
:1046D90021EF4E7008900149F0A3F0801574FF9006
:1046E9000149F0A3F0C3E49FFFE49E900143F0A3C6
:1046F900EFF0900145E0FEA3E0FFD39400EE648063
:104709009480400A90014BE4F0A304F08021EF4E1D
:10471900700890014BF0A3F0801574FF90014BF0E5
:10472900A3F0C3E49FFFE49E900145F0A3EFF0904E
:104739000145E0FEA3E0FF900143E0FCA3E0FDD3C7
:104749009FEE6480F8EC6480989001474007ECF094
:10475900A3EDF08005EEF0A3EFF0E490013DF0A3A6
:10476900F0900148E02401FF900147E03400FED3B6
:1047790090013EE09F90013DE09E40030248609019
:10478900014FE0FCA3E0FD90013AE0FB7A00A3E0D1
:10479900FFA3E09001ECCFF0A3EFF090014DE0FE14
:1047A900A3E0FF123C7F900143E0FEA3E0FF9001EC
:1047B90040E02FF090013FE03EF0900145E0FEA37C
:1047C900E0FF900142E02FF0900141E03EF09001BE
:1047D90047E0FEA3E0FF90013FE0FCA3E0FDD39F8B
:1047E900EE6480F8EC6480984020ED9FFFEC9E9089
:1047F900013FF0A3EFF0900149E0FEA3E0FF900133
:104809004EE02FF090014DE03EF0900147E0FEA30D
:10481900E0FF900141E0FCA3E0FDD39FEE6480F846
:10482900EC6480984020ED9FFFEC9E900141F0A33D
:10483900EFF090014BE0FEA3E0FF900150E02FF074
:1048490090014FE03EF090013EE004F070069001C7
:074859003DE004F002476A94
:014860002235
:0E38B500900151EEF0A3EFF0A3ECF0A3EDF0C4
:1038C300E490015EF0A3F0A3F0A3F0900151E0FEB9
:1038D300A3E0FFC3EB9FFFEA9E900162F0A3EFF02A
:1038E300900153E0FAA3E0FBC3900158E09BFE90E4
:1038F3000157E09A900164F0A3CEF0900151E0FFEC
:10390300A3E090016CCFF0A3EFF0A3EAF0A3EBF0F8
:10391300900162E0FEA3E0FFD39400EE6480948004
:10392300400A900168E4F0A304F08021EF4E700890
:10393300900168F0A3F0801574FF900168F0A3F084
:10394300C3E49FFFE49E900162F0A3EFF090016453
:10395300E0FEA3E0FFD39400EE64809480400A90DD
:10396300016AE4F0A304F08021EF4E700890016A2D
:10397300F0A3F0801574FF90016AF0A3F0C3E49FF5
:10398300FFE49E900164F0A3EFF0900164E0FEA3D6
:10399300E0FF900162E0FCA3E0FDD39FEE6480F8BA
:1039A300EC6480989001664007ECF0A3EDF080058D
:1039B300EEF0A3EFF0E490015CF0A3F0900167E078
:1039C3002401FF900166E03400FED390015DE09F87
:1039D30090015CE09E4003023C7E900159E0701927
:1039E30090016CE0FEA3E0FFA3E0FCA3E0FD9001E7
:1039F3005AE0FAA3E0FB1289D9900159E06401600F
:103A030003023A8990016CE0FEA3E0FFA3E0FCA36C
:103A1300E0FD90015AE0FAA3E0FB1289D990016D11
:103A2300E02401FF90016CE03400FE90016EE0FCA5
:103A3300A3E0FD90015AE0FAA3E0FB1289D99001BB
:103A43006CE0FEA3E0FF90016FE02401FD90016EA6
:103A5300E03400FC90015AE0FAA3E0FB1289D9900C
:103A6300016DE02401FF90016CE03400FE90016FD2
:103A7300E02401FD90016EE03400FC90015AE0FA6D
:103A8300A3E0FB1289D9900159E064026003023B71
:103A9300CD90016CE0FEA3E0FFA3E0FCA3E0FD906A
:103AA300015AE0FAA3E0FB1289D990016DE02401E9
:103AB300FF90016CE03400FE90016EE0FCA3E0FD9A
:103AC30090015AE0FAA3E0FB1289D990016CE0FE61
:103AD300A3E0FF90016FE02401FD90016EE034004C
:103AE300FC90015AE0FAA3E0FB1289D990016DE042
:103AF3002401FF90016CE03400FE90016FE024018B
:103B0300FD90016EE03400FC90015AE0FAA3E0FB63
:103B13001289D990016DE024FFFF90016CE034FF1E
:103B2300FE90016FE02401FD90016EE03400FC90F3
:103B3300015AE0FAA3E0FB1289D990016DE0240158
:103B4300FF90016CE03400FE90016FE024FFFD90D4
:103B5300016EE034FFFC90015AE0FAA3E0FB128906
:103B6300D990016DE024FFFF90016CE034FFFE90DB
:103B7300016FE024FFFD90016EE034FFFC90015AD9
:103B8300E0FAA3E0FB1289D990016DE024FFFF90D6
:103B9300016CE034FFFE90016EE0FCA3E0FD9001B8
:103BA3005AE0FAA3E0FB1289D990016CE0FEA3E08E
:103BB300FF90016FE024FFFD90016EE034FFFC9065
:103BC300015AE0FAA3E0FB1289D9900162E0FEA357
:103BD300E0FF90015FE02FF090015EE03EF0900186
:103BE30064E0FEA3E0FF900161E02FF0900160E04C
:103BF3003EF0900166E0FEA3E0FF90015EE0FCA3CF
:103C0300E0FDD39FEE6480F8EC6480984020ED9F44
:103C1300FFEC9E90015EF0A3EFF0900168E0FEA33D
:103C2300E0FF90016DE02FF090016CE03EF0900119
:103C330066E0FEA3E0FF900160E0FCA3E0FDD39FFC
:103C4300EE6480F8EC6480984020ED9FFFEC9E903A
:103C53000160F0A3EFF090016AE0FEA3E0FF9001A2
:103C63006FE02FF090016EE03EF090015DE004F014
:0B3C7300700690015CE004F00239BF15
:013C7E002223
:1083E400FAE0FFA3E0900052CFF0A3EFF090003C3E
:0583F400E0FEA3E0FF24
:1083F90090004CEEF0A3EFF0A3ECF0A3EDF0A3EAAC
:10840900F0A3EBF04A60699002E8E0FCA3E0FD907C
:10841900004CE0FAA3E0FBD39DEA9C50539002EA9A
:10842900E0FEA3E0FF90004EE0FCA3E0FD9FEC9E80
:10843900503EAF03AE02C006C007900050E0FEA355
:10844900E0FF90004EE0F8A3E02FFFE83ECF24FFC5
:10845900CF34FF90005CF0A3EFF0900052E0FFA34F
:10846900E090005ECFF0A3EFF0D007D006127EB304
:0184790022E0
:1087940090004CEEF0A3EFF0A3ECF0A3EDF0EB4A65
:1087A40060689002E8E0FEA3E0FFD390004DE09FF4
:1087B40090004CE09E50539002EAE0FEA3E0FF904C
:1087C400004EE0FCA3E0FD9FEC9E503EAE02AF03E2
:1087D40090004CE0FAA3E02FFFEA3ECF24FFFBEF2A
:1087E40034FFFAA3E0FFA3E090005CCFF0A3EFF026
:1087F400900052E0FFA3E090005ECFF0A3EFF09072
:0B880400004CE0FEA3E0FF127EB32258
:106B42009002A7EEF0A3EFF0A3ECF0A3EDF0A3EA1E
:046B5200F0A3EBF0D1
:106B5600A3E07002A3E07003026C889002ABE070C1
:106B660002A3E07003026C889002B2E020E0030208
:106B76006C05E4A3F0A3F09002ABE0FEA3E0FF9067
:106B860002B3E0FCA3E0FDC39FEC9E4003026C88C9
:106B96009002A8E02DFF9002A7E03CFEC006C007C9
:106BA6009002A9E0FCA3E0FD9002AEE024FFFB907A
:106BB60002ADE034FFFAC002C0039002B4E025E063
:106BC600FF9002B3E033FE9002AFE0FBA3E0FAA32E
:106BD600E0F98F828E83122FC1FF900052E5F0F00C
:106BE600A3EFF0D003D002D007D0061283F99002AB
:106BF600B4E004F070819002B3E004F0026B7DE42F
:106C06009002B3F0A3F09002ADE0FEA3E0FF900285
:106C1600B3E0FCA3E0FDC39FEC9E50669002AAE0A1
:106C26002DFD9002A9E03CFC9002ACE024FFFB9015
:106C360002ABE034FFFAC002C0039002B4E025E0E4
:106C4600FF9002B3E033FE9002AFE0FBA3E0FAA3AD
:106C5600E0F98F828E83122FC1FF900052E5F0F08B
:106C6600A3EFF09002A7E0FEA3E0FFD003D002124C
:106C760087949002B4E004F0708C9002B3E004F0C4
:026C8600808408
:016C880022E9
:065B73009001AC12317D2F
:105B7900E49001C8F0A3F09001ACE0FCA3E0FDA320
:105B8900E0FEA3E0FF781012316A9001B9EFF0FB53
:105B99009001ACE0FCA3E0FDA3E0FEA3E0FF7808E0
:105BA90012316A9001BAEFF0FA9001ACA3A3A3E015
:105BB900FFA9079001BBE9F09001B0E0FCA3E0FD6B
:105BC900A3E0FEA3E0FF781012316AEBFDC3EF9D5D
:105BD900FFEE94009001BCF0A3EFF09001B0E0FC5F
:105BE900A3E0FDA3E0FEA3E0FF780812316AEAFD15
:105BF900C3EF9DFEE494009001BEF0A3CEF09001A6
:105C0900B0A3A3A3E0FFE9FDC3EF9DFEE4940090D8
:105C190001C0F0A3CEF0E49001C8F0A3F09001B761
:105C2900E0FEA3E0FFC39001C9E09F9001C8E09E98
:105C39004003025D5BE0FAA3E0FB9001BCE0FEA338
:105C4900E0FFAD03AC02122EF89001B7E0FCA3E02F
:105C5900FD122F0AA3E07C002FFFEC3E9001C2F059
:105C6900A3EFF09001BEE0FEA3E0FFAD03AC02128A
:105C79002EF89001B7E0FCA3E0FD122F0A9001BABB
:105C8900E07C002FFFEC3E9001C4F0A3EFF09001FF
:105C9900C0E0FEA3E0FFAD03AC02122EF89001B7FD
:105CA900E0FCA3E0FD122F0A9001BBE07C002FFF6E
:105CB900EC3E9001C6F0A3EFF09001C2E0FEA3E034
:105CC9007803CEC313CE13D8F9F0EE9001C2F09049
:105CD90001C4E0FEA3E07802CEC313CE13D8F9F0D5
:105CE900EE9001C4F09001C6E0FEA3E07803CEC3B4
:105CF90013CE13D8F9F0EE9001C6F09001C4E0FE7E
:105D0900A3E07805C333CE33CED8F9FDAC069001B4
:105D1900C3E033333354F84CFEEDFF9001C6E04E37
:105D2900FCA3E04FFDEB25E0FFEA33FE9001B4E070
:105D3900FBA3E0FAA3E0F98F828E83EC8DF0122F9A
:105D4900F99001C9E004F070069001C8E004F0027E
:025D59005C26C6
:015D5B002225
:10749E009001FEEEF0A3EFF0A3ECF0A3EDF0A3EA63
:0474AE00F0A3EBF06C
:1074B20090020AE0FCA3E0FDA3E0FEA3E0FF90013E
:1074C200B012317D900212E0F9A3E0FAA3E090013C
:1074D200B4C9F0A3EAF0A3E9F0900202E0FFA3E04E
:1074E2009001B7CFF0A3EFF0900206E0FCA3E0FD1D
:1074F200A3E0FEA3E0FF125B73E490020EF0A3F0A0
:10750200900202E0FEA3E0FFC390020FE09F900210
:107512000EE09E40030275A9E4900210F0A3F090E1
:107522000204E0FEA3E0FFC3900211E09F9002106C
:10753200E09E505F90020EE0FAA3E0FB9001FFE0B4
:107542002BFF9001FEE03AFEC006C007900210E059
:10755200FEA3E0FF900201E02FFD900200E03EFC5E
:10756200EB25E0FFEA33FE900212E0FBA3E0FAA370
:10757200E0F98F828E83122FC1FBAAF0D007D006CA
:107582001289D9900211E004F07094900210E00484
:10759200F0808C90020FE004F0600302750290020A
:0775A2000EE004F002750287
:0175A90022BF
:107F8300900307EEF0A3EFF0A3ECF0A3EDF0A3EA68
:107F9300F0A3EBF0C00790030FE0FFA3E0900052C3
:107FA300CFF0A3EFF0D00712879490030DE0FEA368
:107FB300E0FF90030AE02FFF900309E03ECF24FF88
:107FC300FDEF34FFFC90030BE0FAA3E0FB90030FFB
:107FD300E0FFA3E0900052CFF0A3EFF0900307E09F
:107FE300FEA3E0FF128794900309E0FCA3E0FD9059
:107FF300030DE0FAA3E0FBA3E0FFA3E0900052CF60
:10800300F0A3EFF09003071283F490030BE0FEA3B9
